{"abi":[{"type":"function","name":"MAX_VAULTS","inputs":[],"outputs":[{"name":"","type":"uint256","internalType":"uint256"}],"stateMutability":"view"},{"type":"function","name":"add","inputs":[{"name":"vault","type":"address","internalType":"address"}],"outputs":[],"stateMutability":"nonpayable"},{"type":"function","name":"getVaults","inputs":[],"outputs":[{"name":"","type":"address[]","internalType":"address[]"}],"stateMutability":"view"},{"type":"function","name":"isLicensed","inputs":[{"name":"vault","type":"address","internalType":"address"}],"outputs":[{"name":"","type":"bool","internalType":"bool"}],"stateMutability":"view"},{"type":"function","name":"owner","inputs":[],"outputs":[{"name":"","type":"address","internalType":"address"}],"stateMutability":"view"},{"type":"function","name":"remove","inputs":[{"name":"vault","type":"address","internalType":"address"}],"outputs":[],"stateMutability":"nonpayable"},{"type":"function","name":"transferOwnership","inputs":[{"name":"newOwner","type":"address","internalType":"address"}],"outputs":[],"stateMutability":"nonpayable"},{"type":"event","name":"OwnershipTransferred","inputs":[{"name":"user","type":"address","indexed":true,"internalType":"address"},{"name":"newOwner","type":"address","indexed":true,"internalType":"address"}],"anonymous":false},{"type":"error","name":"TooManyVaults","inputs":[]},{"type":"error","name":"VaultAlreadyAdded","inputs":[]},{"type":"error","name":"VaultNotFound","inputs":[]}],"bytecode":{"object":"0x6080806040523461004f57600080546001600160a01b031916339081178255907f8be0079c531659141344cd1fd0a4f28419497f9722a3daafe3b4186f6b6457e08180a361053990816100558239f35b600080fdfe60406080815260048036101561001457600080fd5b600091823560e01c9081630a3b0a4f146102a257816329092d0e1461024a57816344d00f82146101635781638da5cb5b1461013b578163a542c2a4146100fe578163b6eaea17146100e2575063f2fde38b1461006f57600080fd5b346100de5760203660031901126100de57356001600160a01b03818116918290036100da5781906100a58454918216331461030f565b6001600160a01b031916178255337f8be0079c531659141344cd1fd0a4f28419497f9722a3daafe3b4186f6b6457e08380a380f35b8280fd5b5080fd5b8390346100de57816003193601126100de5760209051600a8152f35b919050346100da5760203660031901126100da57356001600160a01b038116908190036100da578282916020945260028452205415159051908152f35b8390346100de57816003193601126100de57905490516001600160a01b039091168152602090f35b9050346100da57826003193601126100da57805180600194600154938483526020808094018096600185527fb10e2d527612073b26eecdfd717e6a320cf44b4afac2b0732d9fcbe2b7fa0cf6908a865b8281106102355750505050859003601f01601f1916850196905067ffffffffffffffff871185881017610222575092869284878096528186019282875251809352850195925b8281106102065785870386f35b83516001600160a01b03168752958101959281019284016101f9565b634e487b7160e01b835260419052602482fd5b835485528895909401939281019281016101b3565b9050346100da5760203660031901126100da576001600160a01b0382358181169081900361029e5761028361028892865416331461030f565b610419565b15610291578280f35b5163dee790fb60e01b8152fd5b8480fd5b9050346100da5760203660031901126100da5781356001600160a01b038181169182900361029e576102d890855416331461030f565b600a6001541015610302576102ec90610397565b156102f5578280f35b51630cb3e97f60e31b8152fd5b505162c9312160e41b8152fd5b1561031657565b60405162461bcd60e51b815260206004820152600c60248201526b15539055551213d49256915160a21b6044820152606490fd5b6001548110156103815760016000527fb10e2d527612073b26eecdfd717e6a320cf44b4afac2b0732d9fcbe2b7fa0cf60190600090565b634e487b7160e01b600052603260045260246000fd5b60008181526002602052604081205461041457600154680100000000000000008110156104005790826103ec6103d58460016040960160015561034a565b819391549060031b91821b91600019901b19161790565b905560015492815260026020522055600190565b634e487b7160e01b82526041600452602482fd5b905090565b60008181526002602052604081205490919080156104fe57600019908082018181116104ea57600154908382019182116104d6578181036104a2575b505050600154801561048e5781019061046d8261034a565b909182549160031b1b19169055600155815260026020526040812055600190565b634e487b7160e01b84526031600452602484fd5b6104c06104b16103d59361034a565b90549060031b1c92839261034a565b9055845260026020526040842055388080610455565b634e487b7160e01b86526011600452602486fd5b634e487b7160e01b85526011600452602485fd5b50509056fea2646970667358221220df11cf945527e9e31284cf38fea703f7e23ba908f8bd8bbf98ec023e1c559e2b64736f6c63430008180033","linkReferences":{}},"methodIdentifiers":{"MAX_VAULTS()":"b6eaea17","add(address)":"0a3b0a4f","getVaults()":"44d00f82","isLicensed(address)":"a542c2a4","owner()":"8da5cb5b","remove(address)":"29092d0e","transferOwnership(address)":"f2fde38b"},"id":3}