{"abi":[{"type":"constructor","inputs":[{"name":"_licenser","type":"address","internalType":"contract Licenser"}],"stateMutability":"nonpayable"},{"type":"function","name":"DOMAIN_SEPARATOR","inputs":[],"outputs":[{"name":"","type":"bytes32","internalType":"bytes32"}],"stateMutability":"view"},{"type":"function","name":"allowance","inputs":[{"name":"","type":"address","internalType":"address"},{"name":"","type":"address","internalType":"address"}],"outputs":[{"name":"","type":"uint256","internalType":"uint256"}],"stateMutability":"view"},{"type":"function","name":"approve","inputs":[{"name":"spender","type":"address","internalType":"address"},{"name":"amount","type":"uint256","internalType":"uint256"}],"outputs":[{"name":"","type":"bool","internalType":"bool"}],"stateMutability":"nonpayable"},{"type":"function","name":"balanceOf","inputs":[{"name":"","type":"address","internalType":"address"}],"outputs":[{"name":"","type":"uint256","internalType":"uint256"}],"stateMutability":"view"},{"type":"function","name":"burn","inputs":[{"name":"id","type":"uint256","internalType":"uint256"},{"name":"from","type":"address","internalType":"address"},{"name":"amount","type":"uint256","internalType":"uint256"}],"outputs":[],"stateMutability":"nonpayable"},{"type":"function","name":"decimals","inputs":[],"outputs":[{"name":"","type":"uint8","internalType":"uint8"}],"stateMutability":"view"},{"type":"function","name":"licenser","inputs":[],"outputs":[{"name":"","type":"address","internalType":"contract Licenser"}],"stateMutability":"view"},{"type":"function","name":"mint","inputs":[{"name":"id","type":"uint256","internalType":"uint256"},{"name":"to","type":"address","internalType":"address"},{"name":"amount","type":"uint256","internalType":"uint256"}],"outputs":[],"stateMutability":"nonpayable"},{"type":"function","name":"mintedDyad","inputs":[{"name":"","type":"uint256","internalType":"uint256"}],"outputs":[{"name":"","type":"uint256","internalType":"uint256"}],"stateMutability":"view"},{"type":"function","name":"name","inputs":[],"outputs":[{"name":"","type":"string","internalType":"string"}],"stateMutability":"view"},{"type":"function","name":"nonces","inputs":[{"name":"","type":"address","internalType":"address"}],"outputs":[{"name":"","type":"uint256","internalType":"uint256"}],"stateMutability":"view"},{"type":"function","name":"permit","inputs":[{"name":"owner","type":"address","internalType":"address"},{"name":"spender","type":"address","internalType":"address"},{"name":"value","type":"uint256","internalType":"uint256"},{"name":"deadline","type":"uint256","internalType":"uint256"},{"name":"v","type":"uint8","internalType":"uint8"},{"name":"r","type":"bytes32","internalType":"bytes32"},{"name":"s","type":"bytes32","internalType":"bytes32"}],"outputs":[],"stateMutability":"nonpayable"},{"type":"function","name":"symbol","inputs":[],"outputs":[{"name":"","type":"string","internalType":"string"}],"stateMutability":"view"},{"type":"function","name":"totalSupply","inputs":[],"outputs":[{"name":"","type":"uint256","internalType":"uint256"}],"stateMutability":"view"},{"type":"function","name":"transfer","inputs":[{"name":"to","type":"address","internalType":"address"},{"name":"amount","type":"uint256","internalType":"uint256"}],"outputs":[{"name":"","type":"bool","internalType":"bool"}],"stateMutability":"nonpayable"},{"type":"function","name":"transferFrom","inputs":[{"name":"from","type":"address","internalType":"address"},{"name":"to","type":"address","internalType":"address"},{"name":"amount","type":"uint256","internalType":"uint256"}],"outputs":[{"name":"","type":"bool","internalType":"bool"}],"stateMutability":"nonpayable"},{"type":"event","name":"Approval","inputs":[{"name":"owner","type":"address","indexed":true,"internalType":"address"},{"name":"spender","type":"address","indexed":true,"internalType":"address"},{"name":"amount","type":"uint256","indexed":false,"internalType":"uint256"}],"anonymous":false},{"type":"event","name":"Transfer","inputs":[{"name":"from","type":"address","indexed":true,"internalType":"address"},{"name":"to","type":"address","indexed":true,"internalType":"address"},{"name":"amount","type":"uint256","indexed":false,"internalType":"uint256"}],"anonymous":false},{"type":"error","name":"NotLicensed","inputs":[]}],"bytecode":{"object":"0x6101006040818152346200046b57816200121d80380380916200002382856200048c565b83396020938491810103126200046b5751906001600160a01b03821682036200046b57805192620000548462000470565b600b84526a4459414420537461626c6560a81b81850152815191620000798362000470565b60048352631116505160e21b8284015284516001600160401b0395909390868511620004555760009480620000af8754620004b0565b92601f9384811162000404575b5086908483116001146200039c57889262000390575b50508160011b916000199060031b1c19161785555b8151908782116200037c578190600193620001038554620004b0565b82811162000327575b5086918311600114620002c3578792620002b7575b5050600019600383901b1c191690821b1781555b60126080524660a052815184549181866200015085620004b0565b92838352878301958882821691826000146200029757505060011462000257575b5062000180925003826200048c565b519020928151928301937f8b73c3c69bb8fe3d512ecc4cf759cc79239f7b179b0ffacaa9a75d522b39400f8552828401527fc89efdaa54c0f20c7adf612882df0950f5a951637e0307cdcb4c672f298b8bc660608401524660808401523060a084015260a0835260c08301958387109087111762000243575084905251902060c05260e052610d2f9081620004ee823960805181610796015260a05181610b12015260c05181610b39015260e05181818160e80152818161045401526106450152f35b634e487b7160e01b81526041600452602490fd5b8791508880528189209089915b8583106200027e5750506200018093508201013862000171565b8054838801850152869450899390920191810162000264565b60ff191688526200018095151560051b8501019250389150620001719050565b01519050388062000121565b8488528688208594509190601f198416895b89828210620003105750508411620002f6575b505050811b01815562000135565b015160001960f88460031b161c19169055388080620002e8565b8385015186558897909501949384019301620002d5565b909192508488528688208380860160051c82019289871062000372575b91869588929594930160051c01915b828110620003635750506200010c565b8a815586955087910162000353565b9250819262000344565b634e487b7160e01b86526041600452602486fd5b015190503880620000d2565b8880528789209250601f198416895b89828210620003ed575050908460019594939210620003d3575b505050811b018555620000e7565b015160001960f88460031b161c19169055388080620003c5565b6001859682939686015181550195019301620003ab565b9091508780528688208480850160051c8201928986106200044b575b9085949392910160051c01905b8181106200043c5750620000bc565b8981558493506001016200042d565b9250819262000420565b634e487b7160e01b600052604160045260246000fd5b600080fd5b604081019081106001600160401b038211176200045557604052565b601f909101601f19168101906001600160401b038211908210176200045557604052565b90600182811c92168015620004e2575b6020831014620004cc57565b634e487b7160e01b600052602260045260246000fd5b91607f1691620004c056fe608060408181526004918236101561001657600080fd5b600092833560e01c91826306fdde031461093157508163095ea7b3146108c2578163168a5d981461089a57816318160ddd1461087b57816323b872dd146107ba578163313ce5671461077c5781633644e5151461075857816370a08231146107205781637ecebe00146106e8578163836a10401461060a57816395d89b41146105245781639eea5f6614610419578163a9059cbb146103a7578163d505accf14610168578163dd62ed3e1461011b575063f790d78f146100d557600080fd5b34610117578160031936011261011757517f00000000000000000000000000000000000000000000000000000000000000006001600160a01b03168152602090f35b5080fd5b905034610164578160031936011261016457602092829161013a610a8f565b610142610aaa565b6001600160a01b03918216845291865283832091168252845220549051908152f35b8280fd5b8383346101175760e036600319011261011757610183610a8f565b9061018c610aaa565b91604435606435926084359260ff84168094036103a357428510610360576101b2610b0d565b9560018060a01b038092169586895260209560058752848a209889549960018b01905585519285898501957f6e71edae12b1b97f4d1f60370fef10105fa2faae0126114a169c64845d6126c987528b89870152169a8b606086015288608086015260a085015260c084015260c0835260e0830167ffffffffffffffff948482108683111761034c578188528451902061010085019261190160f01b8452610102860152610122850152604281526101608401948186109086111761033957848752519020835261018082015260a4356101a082015260c4356101c0909101528780528490889060809060015afa1561032f578651169687151580610326575b156102f45786977f8c5be1e5ebec7d5bd14f71427d1e84f3dd0314c0f7b2291e5b200ac8c7c3b9259596975283528087208688528352818188205551908152a380f35b83606492519162461bcd60e51b8352820152600e60248201526d24a72b20a624a22fa9a4a3a722a960911b6044820152fd5b508488146102b1565b81513d88823e3d90fd5b634e487b7160e01b8c5260418d5260248cfd5b50634e487b7160e01b8c5260418d5260248cfd5b815162461bcd60e51b81526020818a0152601760248201527f5045524d49545f444541444c494e455f455850495245440000000000000000006044820152606490fd5b8680fd5b5050346101175780600319360112610117576020916103c4610a8f565b8260243591338452600386528184206103de848254610aea565b90556001600160a01b031680845260038652922080548201905582519081523390600080516020610cda833981519152908590a35160018152f35b919050346101645761042a36610ac0565b8351632950b0a960e21b815233818701529094602093926001600160a01b039290919085816024817f000000000000000000000000000000000000000000000000000000000000000088165afa90811561051a5789916104ed575b50156104df575091866104da95949260069416808252600384528582206104ad898254610aea565b90558760025403600255600080516020610cda8339815191528487518a8152a38652528320918254610aea565b905580f35b85516396dcc1ef60e01b8152fd5b61050d9150863d8811610513575b6105058183610a0e565b810190610cb4565b38610485565b503d6104fb565b87513d8b823e3d90fd5b828434610607578060031936011261060757815190806001805490610548826109d4565b80865292602092600181169081156105da5750600114610582575b61057e868861057482890383610a0e565b5191829182610a46565b0390f35b9350600184527fb10e2d527612073b26eecdfd717e6a320cf44b4afac2b0732d9fcbe2b7fa0cf65b8385106105c7575050505081016020016105748261057e86610563565b80548686018401529382019381016105aa565b905061057e9795508693506020925061057494915060ff191682840152151560051b820101929486610563565b80fd5b919050346101645761061b36610ac0565b8351632950b0a960e21b815233818701529094602093926001600160a01b039290919085816024817f000000000000000000000000000000000000000000000000000000000000000088165afa90811561051a5789916106cb575b50156104df5750916104da94939160069361069388600254610ccc565b600255168088526003835284882087815401905587600080516020610cda8339815191528487518a8152a38652528320918254610ccc565b6106e29150863d8811610513576105058183610a0e565b38610676565b5050346101175760203660031901126101175760209181906001600160a01b03610710610a8f565b1681526005845220549051908152f35b5050346101175760203660031901126101175760209181906001600160a01b03610748610a8f565b1681526003845220549051908152f35b505034610117578160031936011261011757602090610775610b0d565b9051908152f35b5050346101175781600319360112610117576020905160ff7f0000000000000000000000000000000000000000000000000000000000000000168152f35b828434610607576060366003190112610607576107d5610a8f565b600080516020610cda8339815191526107ec610aaa565b6001600160a01b0392831680855260208781528686203387528152868620549097919488936044359389938560018201610858575b50505086885260038552828820610839858254610aea565b9055169586815260038452208181540190558551908152a35160018152f35b61086191610aea565b90888a528652838920338a528652838920558a8085610821565b5050346101175781600319360112610117576020906002549051908152f35b9050346101645760203660031901126101645760209282913581526006845220549051908152f35b9050346101645781600319360112610164576020926108df610a8f565b918360243592839233825287528181209460018060a01b0316948582528752205582519081527f8c5be1e5ebec7d5bd14f71427d1e84f3dd0314c0f7b2291e5b200ac8c7c3b925843392a35160018152f35b83908534610607578060031936011261060757805481610950826109d4565b808552916020916001918281169081156105da575060011461097d5761057e868861057482890383610a0e565b80809550527f290decd9548b62a8d60345a988386fc84ba6bc95484008f6362f93160ef3e5635b8385106109c1575050505081016020016105748261057e86610563565b80548686018401529382019381016109a4565b90600182811c92168015610a04575b60208310146109ee57565b634e487b7160e01b600052602260045260246000fd5b91607f16916109e3565b90601f8019910116810190811067ffffffffffffffff821117610a3057604052565b634e487b7160e01b600052604160045260246000fd5b6020808252825181830181905290939260005b828110610a7b57505060409293506000838284010152601f8019910116010190565b818101860151848201604001528501610a59565b600435906001600160a01b0382168203610aa557565b600080fd5b602435906001600160a01b0382168203610aa557565b6060906003190112610aa557600435906024356001600160a01b0381168103610aa5579060443590565b91908203918211610af757565b634e487b7160e01b600052601160045260246000fd5b6000467f000000000000000000000000000000000000000000000000000000000000000003610b5b57507f000000000000000000000000000000000000000000000000000000000000000090565b60405181548291610b6b826109d4565b808252816020948582019460019087600182169182600014610c96575050600114610c3d575b50610b9e92500382610a0e565b51902091604051918201927f8b73c3c69bb8fe3d512ecc4cf759cc79239f7b179b0ffacaa9a75d522b39400f845260408301527fc89efdaa54c0f20c7adf612882df0950f5a951637e0307cdcb4c672f298b8bc660608301524660808301523060a083015260a0825260c082019082821067ffffffffffffffff831117610c29575060405251902090565b634e487b7160e01b81526041600452602490fd5b87805286915087907f290decd9548b62a8d60345a988386fc84ba6bc95484008f6362f93160ef3e5635b858310610c7e575050610b9e935082010138610b91565b80548388018501528694508893909201918101610c67565b60ff19168852610b9e95151560051b8501019250389150610b919050565b90816020910312610aa557518015158103610aa55790565b91908201809211610af75756feddf252ad1be2c89b69c2b068fc378daa952ba7f163c4a11628f55a4df523b3efa26469706673582212206561ebf018e95bc3f83f1f835606f819287bf0b0466a34382ede1aa0708887eb64736f6c63430008180033","linkReferences":{}},"methodIdentifiers":{"DOMAIN_SEPARATOR()":"3644e515","allowance(address,address)":"dd62ed3e","approve(address,uint256)":"095ea7b3","balanceOf(address)":"70a08231","burn(uint256,address,uint256)":"9eea5f66","decimals()":"313ce567","licenser()":"f790d78f","mint(uint256,address,uint256)":"836a1040","mintedDyad(uint256)":"168a5d98","name()":"06fdde03","nonces(address)":"7ecebe00","permit(address,address,uint256,uint256,uint8,bytes32,bytes32)":"d505accf","symbol()":"95d89b41","totalSupply()":"18160ddd","transfer(address,uint256)":"a9059cbb","transferFrom(address,address,uint256)":"23b872dd"},"id":2}