{"abi":[{"type":"constructor","inputs":[{"name":"vaultManager","type":"address","internalType":"address"},{"name":"keroseneVault","type":"address","internalType":"address"},{"name":"dnft","type":"address","internalType":"address"}],"stateMutability":"nonpayable"},{"type":"function","name":"DNFT","inputs":[],"outputs":[{"name":"","type":"address","internalType":"contract IERC721Enumerable"}],"stateMutability":"view"},{"type":"function","name":"KEROSENE","inputs":[],"outputs":[{"name":"","type":"address","internalType":"contract ERC20"}],"stateMutability":"view"},{"type":"function","name":"KEROSENE_VAULT","inputs":[],"outputs":[{"name":"","type":"address","internalType":"contract IVault"}],"stateMutability":"view"},{"type":"function","name":"VAULT_MANAGER","inputs":[],"outputs":[{"name":"","type":"address","internalType":"contract IVaultManager"}],"stateMutability":"view"},{"type":"function","name":"afterKeroseneDeposited","inputs":[{"name":"noteId","type":"uint256","internalType":"uint256"},{"name":"amountDeposited","type":"uint256","internalType":"uint256"}],"outputs":[],"stateMutability":"nonpayable"},{"type":"function","name":"allowance","inputs":[{"name":"","type":"address","internalType":"address"},{"name":"","type":"address","internalType":"address"}],"outputs":[{"name":"","type":"uint256","internalType":"uint256"}],"stateMutability":"pure"},{"type":"function","name":"approve","inputs":[{"name":"","type":"address","internalType":"address"},{"name":"","type":"uint256","internalType":"uint256"}],"outputs":[{"name":"","type":"bool","internalType":"bool"}],"stateMutability":"pure"},{"type":"function","name":"balanceOf","inputs":[{"name":"account","type":"address","internalType":"address"}],"outputs":[{"name":"","type":"uint256","internalType":"uint256"}],"stateMutability":"view"},{"type":"function","name":"balanceOfNote","inputs":[{"name":"noteId","type":"uint256","internalType":"uint256"}],"outputs":[{"name":"","type":"uint256","internalType":"uint256"}],"stateMutability":"view"},{"type":"function","name":"beforeKeroseneWithdrawn","inputs":[{"name":"noteId","type":"uint256","internalType":"uint256"},{"name":"amountWithdrawn","type":"uint256","internalType":"uint256"}],"outputs":[],"stateMutability":"nonpayable"},{"type":"function","name":"decimals","inputs":[],"outputs":[{"name":"","type":"uint8","internalType":"uint8"}],"stateMutability":"view"},{"type":"function","name":"initialize","inputs":[{"name":"owner","type":"address","internalType":"address"}],"outputs":[],"stateMutability":"nonpayable"},{"type":"function","name":"name","inputs":[],"outputs":[{"name":"","type":"string","internalType":"string"}],"stateMutability":"view"},{"type":"function","name":"noteData","inputs":[{"name":"","type":"uint256","internalType":"uint256"}],"outputs":[{"name":"lastAction","type":"uint40","internalType":"uint40"},{"name":"keroseneDeposited","type":"uint96","internalType":"uint96"},{"name":"lastXP","type":"uint120","internalType":"uint120"}],"stateMutability":"view"},{"type":"function","name":"owner","inputs":[],"outputs":[{"name":"","type":"address","internalType":"address"}],"stateMutability":"view"},{"type":"function","name":"renounceOwnership","inputs":[],"outputs":[],"stateMutability":"nonpayable"},{"type":"function","name":"symbol","inputs":[],"outputs":[{"name":"","type":"string","internalType":"string"}],"stateMutability":"view"},{"type":"function","name":"totalSupply","inputs":[],"outputs":[{"name":"","type":"uint256","internalType":"uint256"}],"stateMutability":"view"},{"type":"function","name":"transfer","inputs":[{"name":"","type":"address","internalType":"address"},{"name":"","type":"uint256","internalType":"uint256"}],"outputs":[{"name":"","type":"bool","internalType":"bool"}],"stateMutability":"pure"},{"type":"function","name":"transferFrom","inputs":[{"name":"","type":"address","internalType":"address"},{"name":"","type":"address","internalType":"address"},{"name":"","type":"uint256","internalType":"uint256"}],"outputs":[{"name":"","type":"bool","internalType":"bool"}],"stateMutability":"pure"},{"type":"function","name":"transferOwnership","inputs":[{"name":"newOwner","type":"address","internalType":"address"}],"outputs":[],"stateMutability":"nonpayable"},{"type":"event","name":"Approval","inputs":[{"name":"owner","type":"address","indexed":true,"internalType":"address"},{"name":"spender","type":"address","indexed":true,"internalType":"address"},{"name":"value","type":"uint256","indexed":false,"internalType":"uint256"}],"anonymous":false},{"type":"event","name":"Initialized","inputs":[{"name":"version","type":"uint64","indexed":false,"internalType":"uint64"}],"anonymous":false},{"type":"event","name":"OwnershipTransferred","inputs":[{"name":"previousOwner","type":"address","indexed":true,"internalType":"address"},{"name":"newOwner","type":"address","indexed":true,"internalType":"address"}],"anonymous":false},{"type":"event","name":"Transfer","inputs":[{"name":"from","type":"address","indexed":true,"internalType":"address"},{"name":"to","type":"address","indexed":true,"internalType":"address"},{"name":"value","type":"uint256","indexed":false,"internalType":"uint256"}],"anonymous":false},{"type":"error","name":"ApproveNotAllowed","inputs":[]},{"type":"error","name":"InvalidInitialization","inputs":[]},{"type":"error","name":"NotInitializing","inputs":[]},{"type":"error","name":"NotVaultManager","inputs":[]},{"type":"error","name":"OwnableInvalidOwner","inputs":[{"name":"owner","type":"address","internalType":"address"}]},{"type":"error","name":"OwnableUnauthorizedAccount","inputs":[{"name":"account","type":"address","internalType":"address"}]},{"type":"error","name":"TransferNotAllowed","inputs":[]}],"bytecode":{"object":"0x61010080604052346200015e57606081620013f9803803809162000024828562000163565b8339810103126200015e57600460206200003e836200019d565b620000596040620000518487016200019d565b95016200019d565b6001600160a01b03918216608052811660a05292831660c08190526040516338d52e0f60e01b815292839182905afa908115620001525760009162000109575b5060e0526040516112469081620001b38239608051818181610158015281816107ef0152610bce015260a0518181816103060152818161057b01528181610914015281816109f50152610d72015260c0518181816101f8015281816105b1015261085b015260e051816107ab0152f35b6020813d60201162000149575b81620001256020938362000163565b810103126200014557519182168203620001425750803862000099565b80fd5b5080fd5b3d915062000116565b6040513d6000823e3d90fd5b600080fd5b601f909101601f19168101906001600160401b038211908210176200018757604052565b634e487b7160e01b600052604160045260246000fd5b51906001600160a01b03821682036200015e5756fe608060409080825260048036101561001657600080fd5b600092833560e01c92836306fdde0314610f2357508263095ea7b314610efb57826318160ddd14610eb357826323b872dd14610e8f5782632cbc7ed814610bb2578263313ce56714610b965782634908ceeb14610b4b57826370a08231146109ad578263715018a6146109435782637f2a2f93146108ff5782638da5cb5b146108c957826395d89b411461088a578263a687a9dd14610846578263a9059cbb1461081e578263bc22ff4e146107da578263c230f07314610796578263c4d66de8146104a0578263dd62ed3e14610472578263e378bc2114610410578263f256753d1461013c57505063f2fde38b1461010d57600080fd5b346101395760203660031901126101395761013661012961101a565b610131611176565b6110c3565b80f35b80fd5b83903461040c5761014c3661104b565b93906001600160a01b037f0000000000000000000000000000000000000000000000000000000000000000811633036103fc57818552602091600283528486209685519761019989610f61565b549164ffffffffff918284168a526101cb6001600160601b039a8b8660281c16888201528981019560881c8652611137565b926101d882600154611097565b600155804216918951633b495b5560e11b8152848a82015288816024818b7f0000000000000000000000000000000000000000000000000000000000000000165afa9081156103f2578c916103bf575b50906102b59c83928765010000000000600160881b038f968f8e9b9a999860026001600160781b039d8e84519961025e8b610f61565b8d8b52828b0199168952848a01971687528c83525220945116925160281b16906001600160881b0319905160881b1691171790556102bb6102a38d5493841642611061565b60018060c01b039e8f93600154611061565b90611084565b168c8260281c16019b8c116103ac578a9b65010000000000600160e89d9c9d1b039060281b169062ffffff60e81b16171788558851966331a9108f60e11b88528701528486602481877f0000000000000000000000000000000000000000000000000000000000000000165afa9182156103a2577fddf252ad1be2c89b69c2b068fc378daa952ba7f163c4a11628f55a4df523b3ef968893610371575b506103669293511690611061565b95519586521693a380f35b610366935061039590873d891161039b575b61038d8183610faf565b8101906110a4565b92610358565b503d610383565b88513d89823e3d90fd5b634e487b7160e01b8b526011895260248bfd5b90508881813d83116103eb575b6103d68183610faf565b810103126103e757516102b5610228565b8b80fd5b503d6103cc565b8b513d8e823e3d90fd5b835163027f480760e01b81528390fd5b5080fd5b91503461046e57602036600319011261046e578160209361046792358152600285522082519061043f82610f61565b5464ffffffffff811682526001600160601b038160281c168583015260881c83820152611137565b9051908152f35b8280fd5b83903461040c578060031936011261040c579060209161049061101a565b50610499611035565b5051908152f35b91503461046e5760209081600319360112610792576104bd61101a565b927ff0c57e16840df040f15088dc2f81fe391c3923bec73e23a9662efc9c229c6a009384549260ff84841c16159167ffffffffffffffff85169485158061078b575b60018097149081610781575b159081610778575b506107685767ffffffffffffffff19811686178855610544919084610749575b5061053c6111af565b6101316111af565b865464ffffffffff19164264ffffffffff908116918217895584516318160ddd60e01b81526001600160a01b0393909190888382817f000000000000000000000000000000000000000000000000000000000000000089165afa92831561073f578b9361070c575b5091937f000000000000000000000000000000000000000000000000000000000000000016918a5b858110610628575050505050506105e9578480f35b7fc7f505b2f371ae2175ee4913f4499e1f2633a7b5936321eed1cdaeb6115181d29368ff000000000000000019815416905551908152a1388080808480f35b8b8851633b495b5560e11b815282848201528b81602481895afa908115610702579082918c9493916106d1575b5080156106ca57610667818554611097565b84558c65010000000000600160881b03878d80519561068587610f61565b8c87526001600160601b03858801961686526002828801958287528983525220945116925160281b16906001600160881b0319905160881b1691171790555b016105d4565b50506106c4565b8094508d8092503d83116106fb575b6106ea8183610faf565b81010312610139578a925138610655565b503d6106e0565b8a513d84823e3d90fd5b9092508881813d8311610738575b6107248183610faf565b81010312610734575191386105ac565b8a80fd5b503d61071a565b87513d8d823e3d90fd5b68ffffffffffffffffff19166801000000000000000117885538610533565b845163f92ee8a960e01b81528390fd5b90501538610513565b303b15915061050b565b50836104ff565b8380fd5b83903461040c578160031936011261040c57517f00000000000000000000000000000000000000000000000000000000000000006001600160a01b03168152602090f35b83903461040c578160031936011261040c57517f00000000000000000000000000000000000000000000000000000000000000006001600160a01b03168152602090f35b83346101395781600319360112610139575061083861101a565b5051638cd22d1960e01b8152fd5b83903461040c578160031936011261040c57517f00000000000000000000000000000000000000000000000000000000000000006001600160a01b03168152602090f35b83903461040c578160031936011261040c5780516108c5916108ab82610f93565b600382526206458560ec1b60208301525191829182610fd1565b0390f35b83903461040c578160031936011261040c576000805160206111f18339815191525490516001600160a01b039091168152602090f35b83903461040c578160031936011261040c57517f00000000000000000000000000000000000000000000000000000000000000006001600160a01b03168152602090f35b833461013957806003193601126101395761095c611176565b6000805160206111f183398151915280546001600160a01b0319811690915581906001600160a01b03167f8be0079c531659141344cd1fd0a4f28419497f9722a3daafe3b4186f6b6457e08280a380f35b9091503461046e5760209283600319360112610139576109cb61101a565b82516370a0823160e01b81526001600160a01b0391821681860181905292948593919260249291907f00000000000000000000000000000000000000000000000000000000000000001688858581845afa948515610b41578695610b0e575b508594939291905b848710610a425789898951908152f35b909192939495978751632f745c5960e01b8152848482015289868201528a81604481865afa908115610b04578891610ad2575b50600191610ac591895260028c52610abf8a8a208d8c5191610a9683610f61565b549064ffffffffff821683526001600160601b038260281c169083015260881c8c820152611137565b90611097565b9801959493929190610a32565b90508a81813d8311610afd575b610ae98183610faf565b81010312610af957516001610a75565b8780fd5b503d610adf565b89513d8a823e3d90fd5b9094508881813d8311610b3a575b610b268183610faf565b81010312610b3657519338610a2a565b8580fd5b503d610b1c565b87513d88823e3d90fd5b91503461046e57602036600319011261046e576060928291358152600260205220549080519164ffffffffff811683526001600160601b038160281c16602084015260881c90820152f35b83903461040c578160031936011261040c576020905160128152f35b83823461040c57610bc23661104b565b916001600160a01b03917f000000000000000000000000000000000000000000000000000000000000000083163303610e8057849581865260209260028452818720825190610c1082610f61565b5464ffffffffff9788821683526001600160601b039889610c4489860195828660281c1687528881019560881c8652611137565b94511699826000190485118302158b02156103e7578b908386028c80820491061515019b868d11610e76575b928985938c8f968c8b9a9996869283421698610c8b91611061565b1693896001600160781b039d8e91610ca291611061565b1693825196610cb088610f61565b89885281880196875283880195865282526002905220935116915160281b65010000000000600160881b0316906001600160881b0319905160881b1691171790558d549081164290610d0191611061565b6001549465010000000000600160e81b0391610d1e908790611084565b610d3590602885901c6001600160c01b0316611097565b90610d3f91611061565b60281b169062ffffff60e81b1617178c55610d5991611061565b60015584516331a9108f60e11b808252858201889052937f00000000000000000000000000000000000000000000000000000000000000008a169390898386815a91602492fa928315610e6c57928d8c9a99989693602496938d99968394610e49575b50610dcb929394511690611061565b918851928352877fddf252ad1be2c89b69c2b068fc378daa952ba7f163c4a11628f55a4df523b3ef9d8e921693a38551968794859384528301525afa918215610e3f578792610e20575b50519485521692a380f35b610e38919250843d861161039b5761038d8183610faf565b9088610e15565b81513d89823e3d90fd5b610dcb939450610e65908b3d8d1161039b5761038d8183610faf565b9392610dbc565b88513d8f823e3d90fd5b959b508b95610c70565b50845163027f480760e01b8152fd5b83346101395760603660031901126101395750610eaa61101a565b50610838611035565b83903461040c578160031936011261040c5761046760209254610ee9610ee064ffffffffff831642611061565b60015490611084565b9060281c6001600160c01b0316611097565b833461013957816003193601126101395750610f1561101a565b5051632028747160e01b8152fd5b84913461046e578260031936011261046e576108c59250610f4382610f93565b60078252660447961642058560cc1b60208301525191829182610fd1565b6060810190811067ffffffffffffffff821117610f7d57604052565b634e487b7160e01b600052604160045260246000fd5b6040810190811067ffffffffffffffff821117610f7d57604052565b90601f8019910116810190811067ffffffffffffffff821117610f7d57604052565b6020808252825181830181905290939260005b82811061100657505060409293506000838284010152601f8019910116010190565b818101860151848201604001528501610fe4565b600435906001600160a01b038216820361103057565b600080fd5b602435906001600160a01b038216820361103057565b6040906003190112611030576004359060243590565b9190820391821161106e57565b634e487b7160e01b600052601160045260246000fd5b8181029291811591840414171561106e57565b9190820180921161106e57565b9081602091031261103057516001600160a01b03811681036110305790565b6001600160a01b0390811690811561111e576000805160206111f183398151915280546001600160a01b031981168417909155167f8be0079c531659141344cd1fd0a4f28419497f9722a3daafe3b4186f6b6457e0600080a3565b604051631e4fbdf760e01b815260006004820152602490fd5b61117390610abf61115064ffffffffff83511642611061565b916001600160781b0360406001600160601b036020840151169201511692611084565b90565b6000805160206111f1833981519152546001600160a01b0316330361119757565b60405163118cdaa760e01b8152336004820152602490fd5b60ff7ff0c57e16840df040f15088dc2f81fe391c3923bec73e23a9662efc9c229c6a005460401c16156111de57565b604051631afcd79f60e31b8152600490fdfe9016d09d72d40fdae2fd8ceac6b6234c7706214fd39c1cd1e609a0528c199300a2646970667358221220bece305d6565ac876fdd08ea88c6a065c5074c539cda527d2202c47f7056290164736f6c63430008180033","linkReferences":{}},"methodIdentifiers":{"DNFT()":"7f2a2f93","KEROSENE()":"c230f073","KEROSENE_VAULT()":"a687a9dd","VAULT_MANAGER()":"bc22ff4e","afterKeroseneDeposited(uint256,uint256)":"f256753d","allowance(address,address)":"dd62ed3e","approve(address,uint256)":"095ea7b3","balanceOf(address)":"70a08231","balanceOfNote(uint256)":"e378bc21","beforeKeroseneWithdrawn(uint256,uint256)":"2cbc7ed8","decimals()":"313ce567","initialize(address)":"c4d66de8","name()":"06fdde03","noteData(uint256)":"4908ceeb","owner()":"8da5cb5b","renounceOwnership()":"715018a6","symbol()":"95d89b41","totalSupply()":"18160ddd","transfer(address,uint256)":"a9059cbb","transferFrom(address,address,uint256)":"23b872dd","transferOwnership(address)":"f2fde38b"},"id":16}