{"abi":[{"type":"constructor","inputs":[{"name":"_logic","type":"address","internalType":"address"},{"name":"admin_","type":"address","internalType":"address"}],"stateMutability":"nonpayable"},{"type":"fallback","stateMutability":"payable"},{"type":"receive","stateMutability":"payable"},{"type":"function","name":"getAdmin","inputs":[],"outputs":[{"name":"","type":"address","internalType":"address"}],"stateMutability":"view"},{"type":"function","name":"getImplementation","inputs":[],"outputs":[{"name":"implementation_","type":"address","internalType":"address"}],"stateMutability":"view"},{"type":"function","name":"updateTo","inputs":[{"name":"_logic","type":"address","internalType":"address"}],"outputs":[],"stateMutability":"nonpayable"},{"type":"event","name":"AdminChanged","inputs":[{"name":"previousAdmin","type":"address","indexed":false,"internalType":"address"},{"name":"newAdmin","type":"address","indexed":false,"internalType":"address"}],"anonymous":false},{"type":"event","name":"Upgraded","inputs":[{"name":"implementation","type":"address","indexed":true,"internalType":"address"}],"anonymous":false},{"type":"error","name":"AddressEmptyCode","inputs":[{"name":"target","type":"address","internalType":"address"}]},{"type":"error","name":"ERC1967InvalidAdmin","inputs":[{"name":"admin","type":"address","internalType":"address"}]},{"type":"error","name":"ERC1967InvalidImplementation","inputs":[{"name":"implementation","type":"address","internalType":"address"}]},{"type":"error","name":"ERC1967NonPayable","inputs":[]},{"type":"error","name":"FailedInnerCall","inputs":[]},{"type":"error","name":"ProxyDeniedAdminAccess","inputs":[]}],"bytecode":{"object":"0x604060a081523461025957610c7c81813803918261001c8161025e565b9384928339810103126102595761003281610283565b61003f6020809301610283565b83518084019390916001600160401b038086118487101761024357858752600094858552803b15610222577f360894a13ba1a3210667c828492db98dca3e2076cc3735a920a3ca505d382bbc80546001600160a01b038381166001600160a01b0319928316811790935598909688927fbc7cd75a20ee27fd9adebab32041f755214dbc6bffa90cc0225b39da2e5c2d3b8480a2518015610219578291845af43d1561020c573d918383116101f857610113929190610105601f8401601f1916880161025e565b9283523d898885013e610297565b505b8651916104ad808401928311848410176101e4579187849286946107cf853916815203019084f080156101da57841692836080527f7e644d79422f17c01e4894b5f4f588d331ebfa28653d42ae832dc59e38c9798f867fb53127684a568b3173ae13b9f8a6016e243e63b6e8ee1178d6a717850b5d6103968688549583519287168352820152a183156101c3575016179055516104d490816102fb8239608051818181606b01526102d50152f35b602490865190633173bdd160e11b82526004820152fd5b85513d85823e3d90fd5b634e487b7160e01b87526041600452602487fd5b634e487b7160e01b88526041600452602488fd5b9061011391606091610297565b50505050610115565b8751634c9c8ce360e01b81526001600160a01b039091166004820152602490fd5b634e487b7160e01b600052604160045260246000fd5b600080fd5b6040519190601f01601f191682016001600160401b0381118382101761024357604052565b51906001600160a01b038216820361025957565b906102be57508051156102ac57805190602001fd5b604051630a12f52160e11b8152600490fd5b815115806102f1575b6102cf575090565b604051639996b31560e01b81526001600160a01b039091166004820152602490fd5b50803b156102c756fe6080604052600436101561001e575b361561001c5761001c6102ca565b005b6000803560e01c9081636e9960c3146100f15781637a72d4791461004c575063aaf10f420361000e5761014c565b346100ee5760203660031901126100ee5760043561006981610136565b7f00000000000000000000000000000000000000000000000000000000000000006001600160a01b031633036100b1576100ae906100a56101aa565b90838252610211565b80f35b60405162461bcd60e51b81526020600482015260156024820152746f6e6c792061646d696e2063616e2075706461746560581b6044820152606490fd5b80fd5b346100ee57806003193601126100ee577fb53127684a568b3173ae13b9f8a6016e243e63b6e8ee1178d6a717850b5d6103546001600160a01b03166080908152602090f35b6001600160a01b0381160361014757565b600080fd5b34610147576000366003190112610147577f360894a13ba1a3210667c828492db98dca3e2076cc3735a920a3ca505d382bbc546040516001600160a01b039091168152602090f35b634e487b7160e01b600052604160045260246000fd5b604051906020820182811067ffffffffffffffff8211176101ca57604052565b610194565b6040519190601f01601f1916820167ffffffffffffffff8111838210176101ca57604052565b67ffffffffffffffff81116101ca57601f01601f191660200190565b90813b156102a9577f360894a13ba1a3210667c828492db98dca3e2076cc3735a920a3ca505d382bbc80546001600160a01b0319166001600160a01b0384169081179091557fbc7cd75a20ee27fd9adebab32041f755214dbc6bffa90cc0225b39da2e5c2d3b600080a280511561028e5761028b91610374565b50565b50503461029757565b60405163b398979f60e01b8152600490fd5b604051634c9c8ce360e01b81526001600160a01b0383166004820152602490fd5b6001600160a01b03337f000000000000000000000000000000000000000000000000000000000000000082160361033257506000356001600160e01b03191663278f794360e11b14610328576040516334ad5dbb60e21b8152600490fd5b6103306103b8565b565b7f360894a13ba1a3210667c828492db98dca3e2076cc3735a920a3ca505d382bbc54166000808092368280378136915af43d82803e15610370573d90f35b3d90fd5b6000806103ad93602081519101845af43d156103b0573d9161039d610398846101f5565b6101cf565b9283523d6000602085013e61043b565b90565b60609161043b565b36600411610147576040366003190112610147576004356103d881610136565b6024359067ffffffffffffffff8211610147573660238301121561014757816004013590610408610398836101f5565b918083523660248286010111610147576020816000926024610330970183870137840101526001600160a01b0316610211565b90610462575080511561045057805190602001fd5b604051630a12f52160e11b8152600490fd5b81511580610495575b610473575090565b604051639996b31560e01b81526001600160a01b039091166004820152602490fd5b50803b1561046b56fea2646970667358221220a7fd7a217976ce17f1c99c0d9e90b1d99a54883e7bf03f5399e5d6590e3da2c164736f6c634300081800336080346100bb57601f6104ad38819003918201601f19168301916001600160401b038311848410176100c0578084926020946040528339810103126100bb57516001600160a01b0390818116908190036100bb5780156100a257600080546001600160a01b03198116831782556040519316907f8be0079c531659141344cd1fd0a4f28419497f9722a3daafe3b4186f6b6457e09080a36103d690816100d78239f35b604051631e4fbdf760e01b815260006004820152602490fd5b600080fd5b634e487b7160e01b600052604160045260246000fdfe60406080815260048036101561001457600080fd5b600091823560e01c8063715018a6146102da5780638da5cb5b146102ae5780639623609d14610165578063ad3cb1cc146100f25763f2fde38b1461005757600080fd5b346100ee5760203660031901126100ee576001600160a01b038235818116939192908490036100e957610088610374565b83156100d3575050600054826bffffffffffffffffffffffff60a01b821617600055167f8be0079c531659141344cd1fd0a4f28419497f9722a3daafe3b4186f6b6457e0600080a380f35b51631e4fbdf760e01b8152908101849052602490fd5b600080fd5b8280fd5b5082346101625780600319360112610162575080519080820182811067ffffffffffffffff82111761014d576101499350815260058252640352e302e360dc1b602083015251918291602083526020830190610334565b0390f35b604184634e487b7160e01b6000525260246000fd5b80fd5b5060603660031901126100ee576001600160a01b03918035838116919082900361027e5760249182359485168095036102aa5760443567ffffffffffffffff918282116102a657366023830112156102a6578184013583811161029457865192601f8201601f19908116603f011684018581118582101761028257885281845289939291903682820189011161027e578185928960209301838701378401015261020d610374565b803b156100ee5761023d97875180998194829363278f794360e11b8452898401528a8a8401526044830190610334565b039134905af1801561027457610251578580f35b84116102635750505238808080808580f35b634e487b7160e01b85526041905283fd5b84513d88823e3d90fd5b8480fd5b634e487b7160e01b8b5260418752878bfd5b634e487b7160e01b8952604185528589fd5b8780fd5b8580fd5b8382346102d657816003193601126102d657905490516001600160a01b039091168152602090f35b5080fd5b83346101625780600319360112610162576102f3610374565b80546001600160a01b03198116825581906001600160a01b03167f8be0079c531659141344cd1fd0a4f28419497f9722a3daafe3b4186f6b6457e08280a380f35b919082519283825260005b848110610360575050826000602080949584010152601f8019910116010190565b60208183018101518483018201520161033f565b6000546001600160a01b0316330361038857565b60405163118cdaa760e01b8152336004820152602490fdfea26469706673582212204b670f973da1e162e65b8355a693dafe322894da36e2a05c83058b02938fd27c64736f6c63430008180033","linkReferences":{}},"methodIdentifiers":{"getAdmin()":"6e9960c3","getImplementation()":"aaf10f42","updateTo(address)":"7a72d479"},"id":28}