{"abi":[{"type":"constructor","inputs":[],"stateMutability":"nonpayable"},{"type":"function","name":"INSIDER_MINTS","inputs":[],"outputs":[{"name":"","type":"uint256","internalType":"uint256"}],"stateMutability":"view"},{"type":"function","name":"PRICE_INCREASE","inputs":[],"outputs":[{"name":"","type":"uint256","internalType":"uint256"}],"stateMutability":"view"},{"type":"function","name":"START_PRICE","inputs":[],"outputs":[{"name":"","type":"uint256","internalType":"uint256"}],"stateMutability":"view"},{"type":"function","name":"approve","inputs":[{"name":"to","type":"address","internalType":"address"},{"name":"tokenId","type":"uint256","internalType":"uint256"}],"outputs":[],"stateMutability":"nonpayable"},{"type":"function","name":"balanceOf","inputs":[{"name":"owner","type":"address","internalType":"address"}],"outputs":[{"name":"","type":"uint256","internalType":"uint256"}],"stateMutability":"view"},{"type":"function","name":"drain","inputs":[{"name":"to","type":"address","internalType":"address"}],"outputs":[],"stateMutability":"nonpayable"},{"type":"function","name":"getApproved","inputs":[{"name":"tokenId","type":"uint256","internalType":"uint256"}],"outputs":[{"name":"","type":"address","internalType":"address"}],"stateMutability":"view"},{"type":"function","name":"insiderMints","inputs":[],"outputs":[{"name":"","type":"uint256","internalType":"uint256"}],"stateMutability":"view"},{"type":"function","name":"isApprovedForAll","inputs":[{"name":"owner","type":"address","internalType":"address"},{"name":"operator","type":"address","internalType":"address"}],"outputs":[{"name":"","type":"bool","internalType":"bool"}],"stateMutability":"view"},{"type":"function","name":"mintInsiderNft","inputs":[{"name":"to","type":"address","internalType":"address"}],"outputs":[{"name":"","type":"uint256","internalType":"uint256"}],"stateMutability":"nonpayable"},{"type":"function","name":"mintNft","inputs":[{"name":"to","type":"address","internalType":"address"}],"outputs":[{"name":"","type":"uint256","internalType":"uint256"}],"stateMutability":"payable"},{"type":"function","name":"name","inputs":[],"outputs":[{"name":"","type":"string","internalType":"string"}],"stateMutability":"view"},{"type":"function","name":"owner","inputs":[],"outputs":[{"name":"","type":"address","internalType":"address"}],"stateMutability":"view"},{"type":"function","name":"ownerOf","inputs":[{"name":"tokenId","type":"uint256","internalType":"uint256"}],"outputs":[{"name":"","type":"address","internalType":"address"}],"stateMutability":"view"},{"type":"function","name":"publicMints","inputs":[],"outputs":[{"name":"","type":"uint256","internalType":"uint256"}],"stateMutability":"view"},{"type":"function","name":"safeTransferFrom","inputs":[{"name":"from","type":"address","internalType":"address"},{"name":"to","type":"address","internalType":"address"},{"name":"tokenId","type":"uint256","internalType":"uint256"}],"outputs":[],"stateMutability":"nonpayable"},{"type":"function","name":"safeTransferFrom","inputs":[{"name":"from","type":"address","internalType":"address"},{"name":"to","type":"address","internalType":"address"},{"name":"tokenId","type":"uint256","internalType":"uint256"},{"name":"data","type":"bytes","internalType":"bytes"}],"outputs":[],"stateMutability":"nonpayable"},{"type":"function","name":"setApprovalForAll","inputs":[{"name":"operator","type":"address","internalType":"address"},{"name":"approved","type":"bool","internalType":"bool"}],"outputs":[],"stateMutability":"nonpayable"},{"type":"function","name":"supportsInterface","inputs":[{"name":"interfaceId","type":"bytes4","internalType":"bytes4"}],"outputs":[{"name":"","type":"bool","internalType":"bool"}],"stateMutability":"view"},{"type":"function","name":"symbol","inputs":[],"outputs":[{"name":"","type":"string","internalType":"string"}],"stateMutability":"view"},{"type":"function","name":"tokenByIndex","inputs":[{"name":"index","type":"uint256","internalType":"uint256"}],"outputs":[{"name":"","type":"uint256","internalType":"uint256"}],"stateMutability":"view"},{"type":"function","name":"tokenOfOwnerByIndex","inputs":[{"name":"owner","type":"address","internalType":"address"},{"name":"index","type":"uint256","internalType":"uint256"}],"outputs":[{"name":"","type":"uint256","internalType":"uint256"}],"stateMutability":"view"},{"type":"function","name":"tokenURI","inputs":[{"name":"tokenId","type":"uint256","internalType":"uint256"}],"outputs":[{"name":"","type":"string","internalType":"string"}],"stateMutability":"view"},{"type":"function","name":"totalSupply","inputs":[],"outputs":[{"name":"","type":"uint256","internalType":"uint256"}],"stateMutability":"view"},{"type":"function","name":"transferFrom","inputs":[{"name":"from","type":"address","internalType":"address"},{"name":"to","type":"address","internalType":"address"},{"name":"tokenId","type":"uint256","internalType":"uint256"}],"outputs":[],"stateMutability":"nonpayable"},{"type":"function","name":"transferOwnership","inputs":[{"name":"newOwner","type":"address","internalType":"address"}],"outputs":[],"stateMutability":"nonpayable"},{"type":"event","name":"Approval","inputs":[{"name":"owner","type":"address","indexed":true,"internalType":"address"},{"name":"approved","type":"address","indexed":true,"internalType":"address"},{"name":"tokenId","type":"uint256","indexed":true,"internalType":"uint256"}],"anonymous":false},{"type":"event","name":"ApprovalForAll","inputs":[{"name":"owner","type":"address","indexed":true,"internalType":"address"},{"name":"operator","type":"address","indexed":true,"internalType":"address"},{"name":"approved","type":"bool","indexed":false,"internalType":"bool"}],"anonymous":false},{"type":"event","name":"Drained","inputs":[{"name":"to","type":"address","indexed":true,"internalType":"address"},{"name":"amount","type":"uint256","indexed":false,"internalType":"uint256"}],"anonymous":false},{"type":"event","name":"MintedInsiderNft","inputs":[{"name":"id","type":"uint256","indexed":true,"internalType":"uint256"},{"name":"to","type":"address","indexed":true,"internalType":"address"}],"anonymous":false},{"type":"event","name":"MintedNft","inputs":[{"name":"id","type":"uint256","indexed":true,"internalType":"uint256"},{"name":"to","type":"address","indexed":true,"internalType":"address"}],"anonymous":false},{"type":"event","name":"OwnershipTransferred","inputs":[{"name":"user","type":"address","indexed":true,"internalType":"address"},{"name":"newOwner","type":"address","indexed":true,"internalType":"address"}],"anonymous":false},{"type":"event","name":"Transfer","inputs":[{"name":"from","type":"address","indexed":true,"internalType":"address"},{"name":"to","type":"address","indexed":true,"internalType":"address"},{"name":"tokenId","type":"uint256","indexed":true,"internalType":"uint256"}],"anonymous":false},{"type":"error","name":"ERC721EnumerableForbiddenBatchMint","inputs":[]},{"type":"error","name":"ERC721IncorrectOwner","inputs":[{"name":"sender","type":"address","internalType":"address"},{"name":"tokenId","type":"uint256","internalType":"uint256"},{"name":"owner","type":"address","internalType":"address"}]},{"type":"error","name":"ERC721InsufficientApproval","inputs":[{"name":"operator","type":"address","internalType":"address"},{"name":"tokenId","type":"uint256","internalType":"uint256"}]},{"type":"error","name":"ERC721InvalidApprover","inputs":[{"name":"approver","type":"address","internalType":"address"}]},{"type":"error","name":"ERC721InvalidOperator","inputs":[{"name":"operator","type":"address","internalType":"address"}]},{"type":"error","name":"ERC721InvalidOwner","inputs":[{"name":"owner","type":"address","internalType":"address"}]},{"type":"error","name":"ERC721InvalidReceiver","inputs":[{"name":"receiver","type":"address","internalType":"address"}]},{"type":"error","name":"ERC721InvalidSender","inputs":[{"name":"sender","type":"address","internalType":"address"}]},{"type":"error","name":"ERC721NonexistentToken","inputs":[{"name":"tokenId","type":"uint256","internalType":"uint256"}]},{"type":"error","name":"ERC721OutOfBoundsIndex","inputs":[{"name":"owner","type":"address","internalType":"address"},{"name":"index","type":"uint256","internalType":"uint256"}]},{"type":"error","name":"InsiderMintsExceeded","inputs":[]},{"type":"error","name":"InsufficientFunds","inputs":[]}],"bytecode":{"object":"0x6080346200034a576001600160401b0390604081810183811183821017620003345781526008825260209167111e58590813919560c21b83820152815193828501858110828211176200033457835260048552631913919560e21b84860152815181811162000334576000948554916001948584811c9416801562000329575b8385101462000315578190601f94858111620002c2575b5083908583116001146200025e57899262000252575b5050600019600383901b1c191690851b1786555b86519283116200023e5783548481811c9116801562000233575b828210146200021f57828111620001d7575b50809183116001146200017057508495829394959262000164575b5050600019600383901b1c191690821b1790555b600a80546001600160a01b031916339081179091559051917f8be0079c531659141344cd1fd0a4f28419497f9722a3daafe3b4186f6b6457e08180a36115c39081620003508239f35b01519050388062000107565b90601f198316968487528287209287905b898210620001bf575050838596979810620001a5575b505050811b0190556200011b565b015160001960f88460031b161c1916905538808062000197565b80878596829496860151815501950193019062000181565b8487528187208380860160051c82019284871062000215575b0160051c019085905b82811062000209575050620000ec565b888155018590620001f9565b92508192620001f0565b634e487b7160e01b87526022600452602487fd5b90607f1690620000da565b634e487b7160e01b86526041600452602486fd5b015190503880620000ac565b898052848a208894509190601f1984168b5b87828210620002ab575050841162000291575b505050811b018655620000c0565b015160001960f88460031b161c1916905538808062000283565b8385015186558b9790950194938401930162000270565b9091508880528389208580850160051c8201928686106200030b575b918991869594930160051c01915b828110620002fc57505062000096565b8b8155859450899101620002ec565b92508192620002de565b634e487b7160e01b88526022600452602488fd5b93607f16936200007f565b634e487b7160e01b600052604160045260246000fd5b600080fdfe60806040908082526004918236101561001757600080fd5b600092833560e01c92836301ffc9a714610b1c5750826306fdde0314610a4f578263081812fc14610a12578263095ea7b3146109365782630b56f8b6146108a257826318160ddd1461088357826321157246146108665782632336296a1461084757826323b872dd1461082f578263279e4a63146108105782632f745c591461078c5782633609ac8f1461076b57826342842e0e1461073c5782634f6ccce7146106e65782636352211e146106b557826370a0823114610688578263799b6d2b146106685782638da5cb5b1461063f57826395d89b4114610525578263a22cb46514610484578263b88d4fde146103ec578263c87b56dd1461039a578263e985e9c51461034c578263e9c2e14b1461022d57508163ece53132146101bb575063f2fde38b1461014557600080fd5b346101b85760203660031901126101b85761015e610be1565b600a54906001600160a01b03906101783383851614610cb7565b1680916bffffffffffffffffffffffff60a01b1617600a55337f8be0079c531659141344cd1fd0a4f28419497f9722a3daafe3b4186f6b6457e08380a380f35b80fd5b905034610229576020366003190112610229577fb2559daa129ad136aac2133ac6a0c75920abbef7d6663a017a94e181b13786c360206101f9610be1565b600a546001600160a01b0391906102139083163314610cb7565b479461021f8683611542565b519485521692a280f35b5080fd5b8382602036600319011261022957610243610be1565b91600b549161025183610cf2565b600b5564174876e8009280840293840403610339576509184e72a000928084018094116103165783341061032957610288856110ac565b9334116102cb575b505160209450926001600160a01b03169082907fb069a28fab2f4a275fc364c15d220c5884271a144db6d116d13dcb79c8181c6c9080a38152f35b6509184e729fff19903403013481116103165760209550839161030f7fb069a28fab2f4a275fc364c15d220c5884271a144db6d116d13dcb79c8181c6c9287611542565b9150610290565b634e487b7160e01b835260118652602483fd5b815163356680b760e01b81528690fd5b634e487b7160e01b825260118552602482fd5b83823461022957806003193601126102295760ff8160209361036c610be1565b610374610bfc565b6001600160a01b0391821683526005875283832091168252855220549151911615158152f35b838234610229576020366003190112610229576103ba6103e89335611071565b508181516103c781610c47565b528051916103d483610c47565b825251918291602083526020830190610ba1565b0390f35b91503461048057608036600319011261048057610407610be1565b61040f610bfc565b60443591856064359567ffffffffffffffff87116102295736602388011215610229578601359561044b61044288610c9b565b96519687610c79565b8686523660248883010111610229578661047d976024602093018389013786010152610478838383610d17565b6113fe565b80f35b8280fd5b91503461048057806003193601126104805761049e610be1565b9060243591821515809303610521576001600160a01b031692831561050c5750338452600560205280842083855260205280842060ff1981541660ff8416179055519081527f17307eab39ab6107e8899845ad3d59bd9653f200f220920489ca2b5937696c3160203392a380f35b836024925191630b61174360e31b8352820152fd5b8480fd5b9083346101b857806003193601126101b85781519181600192600154938460011c9160018616958615610635575b6020968785108114610622578899509688969785829a5291826000146105fb57505060011461059f575b5050506103e89291610590910385610c79565b51928284938452830190610ba1565b9190869350600183527fb10e2d527612073b26eecdfd717e6a320cf44b4afac2b0732d9fcbe2b7fa0cf65b8284106105e357505050820101816105906103e861057d565b8054848a0186015288955087949093019281016105ca565b60ff19168782015293151560051b8601909301935084925061059091506103e8905061057d565b634e487b7160e01b835260228a52602483fd5b92607f1692610553565b838234610229578160031936011261022957600a5490516001600160a01b039091168152602090f35b8382346102295781600319360112610229576020905164174876e8008152f35b838234610229576020366003190112610229576020906106ae6106a9610be1565b611038565b9051908152f35b9083346101b85760203660031901126101b857506106d560209235611071565b90516001600160a01b039091168152f35b90915034610480576020366003190112610480578035926008548410156107215760208361071386610feb565b91905490519160031b1c8152f35b6044939192519263295f44f760e21b84528301526024820152fd5b8382346102295761047d9061075036610c12565b9192519261075d84610c47565b858452610478838383610d17565b838234610229578160031936011261022957602090516509184e72a0008152f35b9083346101b857816003193601126101b8576107a6610be1565b92602435906107b485611038565b8210156107e457506001600160a01b03909316815260066020908152828220938252928352819020549051908152f35b925163295f44f760e21b81526001600160a01b0390941692840192835260208301525081906040010390fd5b838234610229578160031936011261022957602090600c549051908152f35b83346101b85761047d61084136610c12565b91610d17565b838234610229578160031936011261022957602090600b549051908152f35b83823461022957816003193601126102295760209051610fa08152f35b8382346102295781600319360112610229576020906008549051908152f35b838234610229576020366003190112610229576108bd610be1565b9160018060a01b03916108d583600a54163314610cb7565b610fa06108e3600c54610cf2565b80600c551161092757602094507f9a898aa15205b61d8f9396a555948af42817f07d647aef6c7102b2adff2517d661091a856110ac565b9384925195169280a38152f35b51639652890b60e01b81528490fd5b915034610480578060031936011261048057610950610be1565b9160243561095d81611071565b331515806109ff575b806109d6575b6109c0576001600160a01b039485169482918691167f8c5be1e5ebec7d5bd14f71427d1e84f3dd0314c0f7b2291e5b200ac8c7c3b9258880a48452602052822080546001600160a01b031916909117905580f35b835163a9fbf51f60e01b81523381850152602490fd5b506001600160a01b03811686526005602090815284872033885290528386205460ff161561096c565b506001600160a01b038116331415610966565b9091503461048057602036600319011261048057918260209335610a3581611071565b50825283528190205490516001600160a01b039091168152f35b9083346101b857806003193601126101b8578151918182549260018460011c9160018616958615610b12575b6020968785108114610622578899509688969785829a5291826000146105fb575050600114610ab7575050506103e89291610590910385610c79565b91908693508280527f290decd9548b62a8d60345a988386fc84ba6bc95484008f6362f93160ef3e5635b828410610afa57505050820101816105906103e861057d565b8054848a018601528895508794909301928101610ae1565b92607f1692610a7b565b849134610480576020366003190112610480573563ffffffff60e01b8116809103610480576020925063780e9d6360e01b8114908115610b5e575b5015158152f35b6380ac58cd60e01b811491508115610b90575b8115610b7f575b5083610b57565b6301ffc9a760e01b14905083610b78565b635b5e139f60e01b81149150610b71565b919082519283825260005b848110610bcd575050826000602080949584010152601f8019910116010190565b602081830181015184830182015201610bac565b600435906001600160a01b0382168203610bf757565b600080fd5b602435906001600160a01b0382168203610bf757565b6060906003190112610bf7576001600160a01b03906004358281168103610bf757916024359081168103610bf7579060443590565b6020810190811067ffffffffffffffff821117610c6357604052565b634e487b7160e01b600052604160045260246000fd5b90601f8019910116810190811067ffffffffffffffff821117610c6357604052565b67ffffffffffffffff8111610c6357601f01601f191660200190565b15610cbe57565b60405162461bcd60e51b815260206004820152600c60248201526b15539055551213d49256915160a21b6044820152606490fd5b6000198114610d015760010190565b634e487b7160e01b600052601160045260246000fd5b6001600160a01b0382811693918415610fd257600094838652602095600287526040968488832054169633151580610f44575b5087158015610f11575b84845260038352898420805460010190558784526002835289842080546001600160a01b0319168617905587858a7fddf252ad1be2c89b69c2b068fc378daa952ba7f163c4a11628f55a4df523b3ef8780a415610e955760085487845260098352808a852055600160401b811015610e815787610dda826001610df39401600855610feb565b90919082549060031b91821b91600019901b1916179055565b838803610e2f575b505050501692838303610e0e5750505050565b6064945051926364283d7b60e01b8452600484015260248301526044820152fd5b610e3890611038565b600019810193908411610e6d5782916007918a9452600681528383208584528152878484205587835252205538808080610dfb565b634e487b7160e01b83526011600452602483fd5b634e487b7160e01b84526041600452602484fd5b878414610df357610ea588611038565b8784526007835289842054818103610eda575b50878452838a8120558884526006835289842090845282528289812055610df3565b898552600684528a852082865284528a8520548a8652600685528b86208287528552808c8720558552600784528a85205538610eb8565b600088815260046020526040902080546001600160a01b0319169055888452600383528984208054600019019055610d54565b80610f91575b15610f555738610d4a565b888789610f72576024915190637e27328960e01b82526004820152fd5b905163177e802f60e01b81523360048201526024810191909152604490fd5b503388148015610fb6575b80610f4a57508683526004825233868a8520541614610f4a565b5087835260058252888320338452825260ff8984205416610f9c565b604051633250574960e11b815260006004820152602490fd5b6008548110156110225760086000527ff3f7a9fe364faab93b216da50a3214154f22a0a2b415b23a84c8169e8b636ee30190600090565b634e487b7160e01b600052603260045260246000fd5b6001600160a01b0316801561105857600052600360205260406000205490565b6040516322718ad960e21b815260006004820152602490fd5b6000818152600260205260409020546001600160a01b0316908115611094575090565b60249060405190637e27328960e01b82526004820152fd5b600854906040908151916110bf83610c47565b60008084526001600160a01b03938385169384156113e65786835260209560028752848420541680159086821592836113b3575b81875260038a52878720805460010190558a875260028a5287872080546001600160a01b031916831790558a82847fddf252ad1be2c89b69c2b068fc378daa952ba7f163c4a11628f55a4df523b3ef8a80a4156113365750600854898652600989528087872055600160401b811015611322579061117c8a610dda8460018c9601600855610feb565b036112d5575b6112bd573b611194575b505050505090565b8294969295919395518781806111d2630a85bd0160e11b95868352336004840152896024840152876044840152608060648401526084830190610ba1565b0381888b5af1859181611279575b5061124057505050503d600014611238573d6111fb81610c9b565b9061120884519283610c79565b81528091853d92013e5b80519384611232578251633250574960e11b815260048101859052602490fd5b84925001fd5b506060611212565b919594935091955063ffffffff60e01b1603611262575050388080808061118c565b602492505190633250574960e11b82526004820152fd5b9091508881813d83116112b6575b6112918183610c79565b810103126112b257516001600160e01b0319811681036112b25790386111e0565b8580fd5b503d611287565b83516339e3563760e11b815260048101849052602490fd5b6112de82611038565b600019810190811161130e5786855260068852858520818652885288868620558885526007885285852055611182565b634e487b7160e01b85526011600452602485fd5b634e487b7160e01b86526041600452602486fd5b9080821461117c5761134781611038565b8a875260078a528787205481810361137c575b508a8752868881205581875260068a528787209087528952858781205561117c565b82885260068b528888208289528b528888205483895260068c52898920828a528c52808a8a2055885260078b52888820553861135a565b60008b815260046020526040902080546001600160a01b031916905582875260038a5287872080546000190190556110f3565b8351633250574960e11b815260048101849052602490fd5b813b61140b575b50505050565b604051630a85bd0160e11b8082523360048301526001600160a01b03928316602483015260448201949094526080606482015260209592909116939092908390611459906084830190610ba1565b039285816000958187895af1849181611502575b506114cd575050503d6000146114c5573d61148781610c9b565b906114956040519283610c79565b81528091843d92013e5b805192836114c057604051633250574960e11b815260048101849052602490fd5b019050fd5b50606061149f565b919450915063ffffffff60e01b16036114ea575038808080611405565b60249060405190633250574960e11b82526004820152fd5b9091508681813d831161153b575b61151a8183610c79565b8101031261052157516001600160e01b03198116810361052157903861146d565b503d611510565b600080809381935af11561155257565b60405162461bcd60e51b815260206004820152601360248201527211551217d514905394d1915497d19052531151606a1b6044820152606490fdfea26469706673582212209b63fe5ca9c2632adbb8591b71baf5543422178236782868c88d82b975f4341f64736f6c63430008180033","linkReferences":{}},"methodIdentifiers":{"INSIDER_MINTS()":"21157246","PRICE_INCREASE()":"799b6d2b","START_PRICE()":"3609ac8f","approve(address,uint256)":"095ea7b3","balanceOf(address)":"70a08231","drain(address)":"ece53132","getApproved(uint256)":"081812fc","insiderMints()":"279e4a63","isApprovedForAll(address,address)":"e985e9c5","mintInsiderNft(address)":"0b56f8b6","mintNft(address)":"e9c2e14b","name()":"06fdde03","owner()":"8da5cb5b","ownerOf(uint256)":"6352211e","publicMints()":"2336296a","safeTransferFrom(address,address,uint256)":"42842e0e","safeTransferFrom(address,address,uint256,bytes)":"b88d4fde","setApprovalForAll(address,bool)":"a22cb465","supportsInterface(bytes4)":"01ffc9a7","symbol()":"95d89b41","tokenByIndex(uint256)":"4f6ccce7","tokenOfOwnerByIndex(address,uint256)":"2f745c59","tokenURI(uint256)":"c87b56dd","totalSupply()":"18160ddd","transferFrom(address,address,uint256)":"23b872dd","transferOwnership(address)":"f2fde38b"},"id":0}