{"abi":[{"type":"constructor","inputs":[{"name":"_vaultManager","type":"address","internalType":"contract VaultManager"},{"name":"_weth","type":"address","internalType":"contract IWETH"}],"stateMutability":"nonpayable"},{"type":"function","name":"depositETHWithFee","inputs":[{"name":"id","type":"uint256","internalType":"uint256"},{"name":"vault","type":"address","internalType":"address"}],"outputs":[],"stateMutability":"payable"},{"type":"function","name":"depositWithFee","inputs":[{"name":"id","type":"uint256","internalType":"uint256"},{"name":"vault","type":"address","internalType":"address"},{"name":"amount","type":"uint256","internalType":"uint256"}],"outputs":[],"stateMutability":"nonpayable"},{"type":"function","name":"drain","inputs":[{"name":"to","type":"address","internalType":"address"}],"outputs":[],"stateMutability":"nonpayable"},{"type":"function","name":"fee","inputs":[],"outputs":[{"name":"","type":"uint256","internalType":"uint256"}],"stateMutability":"view"},{"type":"function","name":"feeRecipient","inputs":[],"outputs":[{"name":"","type":"address","internalType":"address"}],"stateMutability":"view"},{"type":"function","name":"owner","inputs":[],"outputs":[{"name":"","type":"address","internalType":"address"}],"stateMutability":"view"},{"type":"function","name":"setFee","inputs":[{"name":"_fee","type":"uint256","internalType":"uint256"}],"outputs":[],"stateMutability":"nonpayable"},{"type":"function","name":"setFeeRecipient","inputs":[{"name":"_feeRecipient","type":"address","internalType":"address"}],"outputs":[],"stateMutability":"nonpayable"},{"type":"function","name":"transferOwnership","inputs":[{"name":"newOwner","type":"address","internalType":"address"}],"outputs":[],"stateMutability":"nonpayable"},{"type":"function","name":"vaultManager","inputs":[],"outputs":[{"name":"","type":"address","internalType":"contract VaultManager"}],"stateMutability":"view"},{"type":"function","name":"weth","inputs":[],"outputs":[{"name":"","type":"address","internalType":"contract IWETH"}],"stateMutability":"view"},{"type":"event","name":"OwnershipTransferred","inputs":[{"name":"user","type":"address","indexed":true,"internalType":"address"},{"name":"newOwner","type":"address","indexed":true,"internalType":"address"}],"anonymous":false}],"bytecode":{"object":"0x60c0346100ce57601f61089038819003918201601f19168301916001600160401b038311848410176100d35780849260409485528339810103126100ce578051906001600160a01b039081831683036100ce576020015190811681036100ce57600080546001600160a01b03191633908117825560405193917f8be0079c531659141344cd1fd0a4f28419497f9722a3daafe3b4186f6b6457e08180a360805260a0526107a690816100ea8239608051818181610240015261062a015260a0518181816102b5015261047b0152f35b600080fd5b634e487b7160e01b600052604160045260246000fdfe608060409080825260048036101561001657600080fd5b600092833560e01c9283633fc8cef3146104675750826341ae74e614610363578263469048401461033a5782634732d7e31461029d57826369fe0e2d1461026f5782638a4adf241461022b5782638da5cb5b14610203578263ddca3f43146101e0578263e74b981b14610191578263ece531321461011357505063f2fde38b1461009f57600080fd5b34610110576020366003190112610110576100b86104c5565b8154906001600160a01b03906100d13383851614610546565b1680916bffffffffffffffffffffffff60a01b16178255337f8be0079c531659141344cd1fd0a4f28419497f9722a3daafe3b4186f6b6457e08380a380f35b80fd5b9091503461018d57602036600319011261018d57828080806101336104c5565b61014760018060a01b038354163314610546565b47905af115610154578280f35b906020606492519162461bcd60e51b8352820152601360248201527211551217d514905394d1915497d19052531151606a1b6044820152fd5b8280fd5b8334610110576020366003190112610110576101ab6104c5565b81546001600160a01b0391906101c49083163314610546565b166bffffffffffffffffffffffff60a01b600254161760025580f35b8390346101ff57816003193601126101ff576020906001549051908152f35b5080fd5b8390346101ff57816003193601126101ff57905490516001600160a01b039091168152602090f35b8390346101ff57816003193601126101ff57517f00000000000000000000000000000000000000000000000000000000000000006001600160a01b03168152602090f35b8382346101ff5760203660031901126101ff5761029660018060a01b038354163314610546565b3560015580f35b8382826003193601126101ff576102b26104aa565b927f00000000000000000000000000000000000000000000000000000000000000006001600160a01b0316803b156103365790838392825193848092630d0e30db60e41b825234905af190811561032d575061031a575b506103179192349135610581565b80f35b91610327610317936104db565b91610309565b513d85823e3d90fd5b8380fd5b8390346101ff57816003193601126101ff5760025490516001600160a01b039091168152602090f35b8382346101ff5760603660031901126101ff5761037e6104aa565b83516338d52e0f60e01b8152604435929060208183816001600160a01b0387165afa90811561045d57606460209287928391610430575b50828951916323b872dd60e01b835233878401523060248401528860448401525af13d15601f3d116001875114161716156103f65761031793945035610581565b606490602086519162461bcd60e51b835282015260146024820152731514905394d1915497d19493d357d1905253115160621b6044820152fd5b6104509150843d8611610456575b6104488183610505565b810190610527565b896103b5565b503d61043e565b86513d87823e3d90fd5b8490346101ff57816003193601126101ff577f00000000000000000000000000000000000000000000000000000000000000006001600160a01b03168152602090f35b602435906001600160a01b03821682036104c057565b600080fd5b600435906001600160a01b03821682036104c057565b67ffffffffffffffff81116104ef57604052565b634e487b7160e01b600052604160045260246000fd5b90601f8019910116810190811067ffffffffffffffff8211176104ef57604052565b908160209103126104c057516001600160a01b03811681036104c05790565b1561054d57565b60405162461bcd60e51b815260206004820152600c60248201526b15539055551213d49256915160a21b6044820152606490fd5b604080516338d52e0f60e01b81526001600160a01b03938416949193919291600490602090818484818b5afa9384156106fc57600094610751575b50600154670de0b6b3a764000090806000190488118102158202156104c057870204826000604484600254168b519063a9059cbb60e01b82528882015284602482015282895af13d15601f3d116001600051141617161561071c5786039586116107075790808260446000947f000000000000000000000000000000000000000000000000000000000000000016968a51958693849263095ea7b360e01b84528a8a8501528c6024850152165af180156106fc576106c9575b5050813b156104c057600060649281958751988996879563bc157ac160e01b8752860152602485015260448401525af19081156106bf57506106b45750565b6106bd906104db565b565b513d6000823e3d90fd5b81813d83116106f5575b6106dd8183610505565b810103126104c05751801515036104c0573880610675565b503d6106d3565b87513d6000823e3d90fd5b601183634e487b7160e01b6000525260246000fd5b875162461bcd60e51b8152808501849052600f60248201526e1514905394d1915497d19052531151608a1b6044820152606490fd5b610769919450823d8411610456576104488183610505565b92386105bc56fea2646970667358221220d6822d467f808dbbccc2f37c815092168e5a811f013aac7a586e168e8a0dd32f64736f6c63430008180033","linkReferences":{}},"methodIdentifiers":{"depositETHWithFee(uint256,address)":"4732d7e3","depositWithFee(uint256,address,uint256)":"41ae74e6","drain(address)":"ece53132","fee()":"ddca3f43","feeRecipient()":"46904840","owner()":"8da5cb5b","setFee(uint256)":"69fe0e2d","setFeeRecipient(address)":"e74b981b","transferOwnership(address)":"f2fde38b","vaultManager()":"8a4adf24","weth()":"3fc8cef3"},"id":27}