{"abi":[{"type":"constructor","inputs":[{"name":"_kerosene","type":"address","internalType":"contract Kerosene"},{"name":"owner","type":"address","internalType":"address"},{"name":"excludes","type":"address[]","internalType":"address[]"}],"stateMutability":"nonpayable"},{"type":"function","name":"denominator","inputs":[],"outputs":[{"name":"","type":"uint256","internalType":"uint256"}],"stateMutability":"view"},{"type":"function","name":"excludedAddresses","inputs":[],"outputs":[{"name":"","type":"address[]","internalType":"address[]"}],"stateMutability":"view"},{"type":"function","name":"isExcludedAddress","inputs":[{"name":"_address","type":"address","internalType":"address"}],"outputs":[{"name":"","type":"bool","internalType":"bool"}],"stateMutability":"view"},{"type":"function","name":"kerosene","inputs":[],"outputs":[{"name":"","type":"address","internalType":"contract Kerosene"}],"stateMutability":"view"},{"type":"function","name":"owner","inputs":[],"outputs":[{"name":"","type":"address","internalType":"address"}],"stateMutability":"view"},{"type":"function","name":"setAddressExcluded","inputs":[{"name":"_address","type":"address","internalType":"address"},{"name":"exclude","type":"bool","internalType":"bool"}],"outputs":[],"stateMutability":"nonpayable"},{"type":"function","name":"transferOwnership","inputs":[{"name":"newOwner","type":"address","internalType":"address"}],"outputs":[],"stateMutability":"nonpayable"},{"type":"event","name":"OwnershipTransferred","inputs":[{"name":"user","type":"address","indexed":true,"internalType":"address"},{"name":"newOwner","type":"address","indexed":true,"internalType":"address"}],"anonymous":false}],"bytecode":{"object":"0x608060405234610158576108b48038038061001981610173565b9283398101906060818303126101585780516001600160a01b03808216939184900361015857602061004c818501610198565b60408501516001600160401b039586821161015857019380601f8601121561015857845195861161015d576005948660051b90848061008c818501610173565b809a81520192820101928311610158579084808795949301915b83831061013a5750505050169360018060a01b0319946000908087835416178255817f8be0079c531659141344cd1fd0a4f28419497f9722a3daafe3b4186f6b6457e08180a360019687966001541617600155945b61010f575b60405161066a908161024a8239f35b805185101561013557858561012d85858499891b86010151166101ac565b5001946100fb565b610100565b82939495506101498293610198565b815201910184869493926100a6565b600080fd5b634e487b7160e01b600052604160045260246000fd5b6040519190601f01601f191682016001600160401b0381118382101761015d57604052565b51906001600160a01b038216820361015857565b600081815260036020526040812054610244576002546801000000000000000081101561023057600181018060025581101561021c577f405787fa12a823e0f2b7631cc41b3ba8828b3321ca811111fa75cd3aa3bb5ace0182905560025491815260036020526040902055600190565b634e487b7160e01b82526032600452602482fd5b634e487b7160e01b82526041600452602482fd5b90509056fe6080604090808252600491600436101561001857600080fd5b600092833560e01c92836324a176bb146103b75750826352ec6716146102fb5782638da5cb5b146102d357826396ce07951461017557508163bd07cb581461014c578163ec8897cd146100e9575063f2fde38b1461007557600080fd5b346100e65760203660031901126100e65761008e6103ed565b8154906001600160a01b03906100a73383851614610440565b1680916bffffffffffffffffffffffff60a01b16178255337f8be0079c531659141344cd1fd0a4f28419497f9722a3daafe3b4186f6b6457e08380a380f35b80fd5b905034610148573660031901126100e6576101026103ed565b60243580151581036101445782546001600160a01b0391906101279083163314610440565b1561013a5761013691166105c9565b5080f35b61013691166104c8565b8280fd5b5080fd5b90503461014857816003193601126101485760015490516001600160a01b039091168152602090f35b9150346101445782600319360112610144576001805482516318160ddd60e01b81526020956001600160a01b03928316918781600481865afa9081156102c957829161029c575b5095939291906002946002549382965b8588106101dc578a8a8a51908152f35b9091929394959698818552828a7f405787fa12a823e0f2b7631cc41b3ba8828b3321ca811111fa75cd3aa3bb5ace0154168951906370a0823160e01b8252858201526024908c8183818b5afa908115610292578791610261575b5082039182116102505750988701969594939291906101cc565b634e487b7160e01b86526011855285fd5b90508c81813d831161028b575b6102788183610408565b81010312610287575138610236565b8680fd5b503d61026e565b8b513d89823e3d90fd5b90508781813d83116102c2575b6102b38183610408565b810103126101485751386101bc565b503d6102a9565b86513d84823e3d90fd5b838234610148578160031936011261014857905490516001600160a01b039091168152602090f35b5082346100e657806003193601126100e6579080519182906002549182855260208095018093600284527f405787fa12a823e0f2b7631cc41b3ba8828b3321ca811111fa75cd3aa3bb5ace90845b8181106103a3575050508161035f910382610408565b83519485948186019282875251809352850193925b82811061038357505050500390f35b83516001600160a01b031685528695509381019392810192600101610374565b825484529288019260019283019201610349565b92505034610144576020366003190112610144576020926001600160a01b036103de6103ed565b16815260038452205415158152f35b600435906001600160a01b038216820361040357565b600080fd5b90601f8019910116810190811067ffffffffffffffff82111761042a57604052565b634e487b7160e01b600052604160045260246000fd5b1561044757565b60405162461bcd60e51b815260206004820152600c60248201526b15539055551213d49256915160a21b6044820152606490fd5b6002548110156104b25760026000527f405787fa12a823e0f2b7631cc41b3ba8828b3321ca811111fa75cd3aa3bb5ace0190600090565b634e487b7160e01b600052603260045260246000fd5b60008181526003602052604081205490919080156105c457600019908082018181116105b0576002549083820191821161059c57818103610551575b505050600254801561053d5781019061051c8261047b565b909182549160031b1b19169055600255815260036020526040812055600190565b634e487b7160e01b84526031600452602484fd5b61058661056061056f9361047b565b90549060031b1c92839261047b565b819391549060031b91821b91600019901b19161790565b9055845260036020526040842055388080610504565b634e487b7160e01b86526011600452602486fd5b634e487b7160e01b85526011600452602485fd5b505090565b60008181526003602052604081205461062f576002546801000000000000000081101561061b57908261060761056f8460016040960160025561047b565b905560025492815260036020522055600190565b634e487b7160e01b82526041600452602482fd5b90509056fea2646970667358221220ae941738d677fad678b552d19d128d05dc389636f71d9954392b0ee3a8e08ebd64736f6c63430008180033","linkReferences":{}},"methodIdentifiers":{"denominator()":"96ce0795","excludedAddresses()":"52ec6716","isExcludedAddress(address)":"24a176bb","kerosene()":"bd07cb58","owner()":"8da5cb5b","setAddressExcluded(address,bool)":"ec8897cd","transferOwnership(address)":"f2fde38b"},"id":31}