{"abi":[{"type":"function","name":"add","inputs":[{"name":"_vault","type":"address","internalType":"address"},{"name":"_isKeroseneVault","type":"bool","internalType":"bool"}],"outputs":[],"stateMutability":"nonpayable"},{"type":"function","name":"isKerosene","inputs":[{"name":"_vault","type":"address","internalType":"address"}],"outputs":[{"name":"","type":"bool","internalType":"bool"}],"stateMutability":"view"},{"type":"function","name":"isLicensed","inputs":[{"name":"_vault","type":"address","internalType":"address"}],"outputs":[{"name":"","type":"bool","internalType":"bool"}],"stateMutability":"view"},{"type":"function","name":"licenses","inputs":[{"name":"","type":"address","internalType":"address"}],"outputs":[{"name":"isLicensed","type":"bool","internalType":"bool"},{"name":"isKeroseneVault","type":"bool","internalType":"bool"}],"stateMutability":"view"},{"type":"function","name":"owner","inputs":[],"outputs":[{"name":"","type":"address","internalType":"address"}],"stateMutability":"view"},{"type":"function","name":"remove","inputs":[{"name":"_vault","type":"address","internalType":"address"}],"outputs":[],"stateMutability":"nonpayable"},{"type":"function","name":"transferOwnership","inputs":[{"name":"newOwner","type":"address","internalType":"address"}],"outputs":[],"stateMutability":"nonpayable"},{"type":"event","name":"OwnershipTransferred","inputs":[{"name":"user","type":"address","indexed":true,"internalType":"address"},{"name":"newOwner","type":"address","indexed":true,"internalType":"address"}],"anonymous":false}],"bytecode":{"object":"0x6080806040523461004f57600080546001600160a01b031916339081178255907f8be0079c531659141344cd1fd0a4f28419497f9722a3daafe3b4186f6b6457e08180a361039390816100558239f35b600080fdfe604060808152600436101561001357600080fd5b600090813560e01c90816329092d0e1461025c5781636e983466146101d65781638da5cb5b146101ae578163a542c2a414610170578163d397ea5a1461012f578163f18a02c6146100e2575063f2fde38b1461006e57600080fd5b346100df5760203660031901126100df576100876102d1565b8154906001600160a01b03906100a033838516146102ec565b1680916bffffffffffffffffffffffff60a01b16178255337f8be0079c531659141344cd1fd0a4f28419497f9722a3daafe3b4186f6b6457e08380a380f35b80fd5b90503461012b57602036600319011261012b579081906001600160a01b036101086102d1565b1681526001602052205460ff8251918181161515835260081c1615156020820152f35b5080fd5b90503461012b57602036600319011261012b5760209160ff9082906001600160a01b0361015a6102d1565b16815260018552205460081c1690519015158152f35b90503461012b57602036600319011261012b5760209160ff9082906001600160a01b0361019b6102d1565b1681526001855220541690519015158152f35b90503461012b578160031936011261012b57905490516001600160a01b039091168152602090f35b90503461012b578060031936011261012b576101f06102d1565b90602435908115158092036102585783546001600160a01b039061021790821633146102ec565b61021f610327565b93600185526020850193845216845260016020528320915115159060ff61ff0084549251151560081b1692169061ffff19161717905580f35b8380fd5b90503461012b57602036600319011261012b576102776102d1565b82546001600160a01b03929061029090841633146102ec565b610298610327565b92848452602084019285845216845260016020528320915115159060ff61ff0084549251151560081b1692169061ffff19161717905580f35b600435906001600160a01b03821682036102e757565b600080fd5b156102f357565b60405162461bcd60e51b815260206004820152600c60248201526b15539055551213d49256915160a21b6044820152606490fd5b604051906040820182811067ffffffffffffffff82111761034757604052565b634e487b7160e01b600052604160045260246000fdfea2646970667358221220012404c78440f0ca3ba14b2bfc83718bceb29f58b1c68a22b55ca40a336104de64736f6c63430008180033","linkReferences":{}},"methodIdentifiers":{"add(address,bool)":"6e983466","isKerosene(address)":"d397ea5a","isLicensed(address)":"a542c2a4","licenses(address)":"f18a02c6","owner()":"8da5cb5b","remove(address)":"29092d0e","transferOwnership(address)":"f2fde38b"},"id":6}