{"abi":[{"type":"constructor","inputs":[{"name":"_price","type":"uint256","internalType":"uint256"}],"stateMutability":"nonpayable"},{"type":"function","name":"decimals","inputs":[],"outputs":[{"name":"","type":"uint8","internalType":"uint8"}],"stateMutability":"pure"},{"type":"function","name":"latestRoundData","inputs":[],"outputs":[{"name":"roundId","type":"uint80","internalType":"uint80"},{"name":"answer","type":"uint256","internalType":"uint256"},{"name":"startedAt","type":"uint256","internalType":"uint256"},{"name":"updatedAt","type":"uint256","internalType":"uint256"},{"name":"answeredInRound","type":"uint80","internalType":"uint80"}],"stateMutability":"view"},{"type":"function","name":"price","inputs":[],"outputs":[{"name":"","type":"uint256","internalType":"uint256"}],"stateMutability":"view"},{"type":"function","name":"setPrice","inputs":[{"name":"_price","type":"uint256","internalType":"uint256"}],"outputs":[],"stateMutability":"nonpayable"}],"bytecode":{"object":"0x60803461005157601f61017438819003918201601f19168301916001600160401b03831184841017610056578084926020946040528339810103126100515751600055604051610107908161006d8239f35b600080fd5b634e487b7160e01b600052604160045260246000fdfe6080806040526004361015601257600080fd5b600090813560e01c908163313ce5671460b45750806391b7f5ed14609c578063a035b1fe1460815763feaf968c14604857600080fd5b34607e5780600319360112607e5760a0905460405190600182526020820152600160408201526001606082015260016080820152f35b80fd5b5034607e5780600319360112607e5760209054604051908152f35b5034607e576020366003190112607e57600435815580f35b90503460cd578160031936011260cd5780600860209252f35b5080fdfea26469706673582212205466b5bf86feb67b8671a995de0c959e79175aab279f5f12c6a449609f2eca3f64736f6c63430008180033","linkReferences":{}},"methodIdentifiers":{"decimals()":"313ce567","latestRoundData()":"feaf968c","price()":"a035b1fe","setPrice(uint256)":"91b7f5ed"},"id":88}