{"abi":[{"type":"constructor","inputs":[{"name":"_vaultManager","type":"address","internalType":"contract IVaultManager"},{"name":"_asset","type":"address","internalType":"contract ERC20"},{"name":"_oracle","type":"address","internalType":"contract IAggregatorV3"}],"stateMutability":"nonpayable"},{"type":"function","name":"STALE_DATA_TIMEOUT","inputs":[],"outputs":[{"name":"","type":"uint256","internalType":"uint256"}],"stateMutability":"view"},{"type":"function","name":"asset","inputs":[],"outputs":[{"name":"","type":"address","internalType":"contract ERC20"}],"stateMutability":"view"},{"type":"function","name":"assetPrice","inputs":[],"outputs":[{"name":"","type":"uint256","internalType":"uint256"}],"stateMutability":"view"},{"type":"function","name":"deposit","inputs":[{"name":"id","type":"uint256","internalType":"uint256"},{"name":"amount","type":"uint256","internalType":"uint256"}],"outputs":[],"stateMutability":"nonpayable"},{"type":"function","name":"getUsdValue","inputs":[{"name":"id","type":"uint256","internalType":"uint256"}],"outputs":[{"name":"","type":"uint256","internalType":"uint256"}],"stateMutability":"view"},{"type":"function","name":"id2asset","inputs":[{"name":"","type":"uint256","internalType":"uint256"}],"outputs":[{"name":"","type":"uint256","internalType":"uint256"}],"stateMutability":"view"},{"type":"function","name":"move","inputs":[{"name":"from","type":"uint256","internalType":"uint256"},{"name":"to","type":"uint256","internalType":"uint256"},{"name":"amount","type":"uint256","internalType":"uint256"}],"outputs":[],"stateMutability":"nonpayable"},{"type":"function","name":"oracle","inputs":[],"outputs":[{"name":"","type":"address","internalType":"contract IAggregatorV3"}],"stateMutability":"view"},{"type":"function","name":"vaultManager","inputs":[],"outputs":[{"name":"","type":"address","internalType":"contract IVaultManager"}],"stateMutability":"view"},{"type":"function","name":"withdraw","inputs":[{"name":"id","type":"uint256","internalType":"uint256"},{"name":"to","type":"address","internalType":"address"},{"name":"amount","type":"uint256","internalType":"uint256"}],"outputs":[],"stateMutability":"nonpayable"},{"type":"event","name":"Deposit","inputs":[{"name":"id","type":"uint256","indexed":true,"internalType":"uint256"},{"name":"amount","type":"uint256","indexed":false,"internalType":"uint256"}],"anonymous":false},{"type":"event","name":"Move","inputs":[{"name":"from","type":"uint256","indexed":true,"internalType":"uint256"},{"name":"to","type":"uint256","indexed":true,"internalType":"uint256"},{"name":"amount","type":"uint256","indexed":false,"internalType":"uint256"}],"anonymous":false},{"type":"event","name":"Withdraw","inputs":[{"name":"from","type":"uint256","indexed":true,"internalType":"uint256"},{"name":"to","type":"address","indexed":true,"internalType":"address"},{"name":"amount","type":"uint256","indexed":false,"internalType":"uint256"}],"anonymous":false},{"type":"error","name":"IncompleteRound","inputs":[]},{"type":"error","name":"NotVaultManager","inputs":[]},{"type":"error","name":"SafeCastOverflowedIntToUint","inputs":[{"name":"value","type":"int256","internalType":"int256"}]},{"type":"error","name":"StaleData","inputs":[]}],"bytecode":{"object":"0x60e0346100d257601f61087638819003918201601f19168301916001600160401b038311848410176100d7578084926060946040528339810103126100d25780516001600160a01b03919082811681036100d25760208201519183831683036100d2576040015192831683036100d25760805260a05260c05260405161078890816100ee823960805181818160ae0152818161017b0152818161028b0152610357015260a0518181816101d70152818161040501526104f7015260c05181818161039b015281816104a401526106620152f35b600080fd5b634e487b7160e01b600052604160045260246000fdfe6040608081526004908136101561001557600080fd5b600091823560e01c8063073789e21461043457806338d52e0f146103f05780637692b6aa146103ca5780637dc0d1d0146103865780638a4adf2414610342578063aed350b314610325578063d24378eb146102fd578063e2bbb15814610271578063e63697c8146101485763fa7c9bcf1461008f57600080fd5b34610144576060366003190112610144576024359181359160443591907f00000000000000000000000000000000000000000000000000000000000000006001600160a01b0316330361013657507f7b4419c9db600f9cf56a16ec031da555aed923fa8228e732ae1e135811ab92f591602091848752868352808720610116838254610745565b905585875286835280872061012c838254610640565b905551908152a380f35b905163027f480760e01b8152fd5b8280fd5b5034610144576060366003190112610144576001600160a01b0360243581811693833593909185900361026d57604435927f000000000000000000000000000000000000000000000000000000000000000016330361013657838652856020528186206101b6848254610745565b90556020866044845163a9059cbb60e01b81528885820152866024820152827f00000000000000000000000000000000000000000000000000000000000000005af13d15601f3d1160018951141617161561023957507f9da6493a92039daf47d1f2d7a782299c5994c6323eb1e972f69c432089ec52bf9160209151908152a380f35b6020606492519162461bcd60e51b8352820152600f60248201526e1514905394d1915497d19052531151608a1b6044820152fd5b8580fd5b5034610144578160031936011261014457803591602435917f00000000000000000000000000000000000000000000000000000000000000006001600160a01b0316330361013657507fa3af609bf46297028ce551832669030f9effef2b02606d02cbbcc40fe6b47c55916020918486528583528086206102f3838254610640565b905551908152a280f35b50503461032157816003193601126103215760209061031a61064d565b9051908152f35b5080fd5b505034610321578160031936011261032157602090516115188152f35b505034610321578160031936011261032157517f00000000000000000000000000000000000000000000000000000000000000006001600160a01b03168152602090f35b505034610321578160031936011261032157517f00000000000000000000000000000000000000000000000000000000000000006001600160a01b03168152602090f35b503461014457602036600319011261014457602092829135815280845220549051908152f35b505034610321578160031936011261032157517f00000000000000000000000000000000000000000000000000000000000000006001600160a01b03168152602090f35b5034610144576020928360031936011261058957813581528084528281205461045b61064d565b9081810291818304149015171561057657670de0b6b3a76400009081810291818304149015171561057657835163313ce56760e01b8082526001600160a01b03929091878187817f000000000000000000000000000000000000000000000000000000000000000088165afa90811561056c57916104e66104ec928a95948891610534575b506105e2565b90610609565b9486518094819382527f0000000000000000000000000000000000000000000000000000000000000000165afa9182156105615761031a93926104e6929061053457506105e2565b6105549150863d881161055a575b61054c818361058c565b8101906105c4565b386104e0565b503d610542565b8451903d90823e3d90fd5b87513d87823e3d90fd5b506011602492634e487b7160e01b835252fd5b80fd5b90601f8019910116810190811067ffffffffffffffff8211176105ae57604052565b634e487b7160e01b600052604160045260246000fd5b908160209103126105dd575160ff811681036105dd5790565b600080fd5b60ff16604d81116105f357600a0a90565b634e487b7160e01b600052601160045260246000fd5b8115610613570490565b634e487b7160e01b600052601260045260246000fd5b519069ffffffffffffffffffff821682036105dd57565b919082018092116105f357565b604051633fabe5a360e21b815260a0816004817f00000000000000000000000000000000000000000000000000000000000000006001600160a01b03165afa80156107395760009182916106e4575b5061151881018091116105f35742116106d257600081126106ba5790565b60249060405190635467221960e11b82526004820152fd5b604051636ead710b60e01b8152600490fd5b91905060a0823d60a011610731575b8161070060a0938361058c565b81010312610589575061071281610629565b506020810151610729608060608401519301610629565b50903861069c565b3d91506106f3565b6040513d6000823e3d90fd5b919082039182116105f35756fea2646970667358221220fea9b674de518ed226ab77eef23c5ad7341194e846344349b4030ad8c48d601c64736f6c63430008180033","linkReferences":{}},"methodIdentifiers":{"STALE_DATA_TIMEOUT()":"aed350b3","asset()":"38d52e0f","assetPrice()":"d24378eb","deposit(uint256,uint256)":"e2bbb158","getUsdValue(uint256)":"073789e2","id2asset(uint256)":"7692b6aa","move(uint256,uint256,uint256)":"fa7c9bcf","oracle()":"7dc0d1d0","vaultManager()":"8a4adf24","withdraw(uint256,address,uint256)":"e63697c8"},"id":8}