{"abi":[{"type":"function","name":"allowance","inputs":[{"name":"owner","type":"address","internalType":"address"},{"name":"spender","type":"address","internalType":"address"}],"outputs":[{"name":"","type":"uint256","internalType":"uint256"}],"stateMutability":"view"},{"type":"function","name":"approve","inputs":[{"name":"spender","type":"address","internalType":"address"},{"name":"value","type":"uint256","internalType":"uint256"}],"outputs":[{"name":"","type":"bool","internalType":"bool"}],"stateMutability":"nonpayable"},{"type":"function","name":"balanceOf","inputs":[{"name":"account","type":"address","internalType":"address"}],"outputs":[{"name":"","type":"uint256","internalType":"uint256"}],"stateMutability":"view"},{"type":"function","name":"burn","inputs":[{"name":"id","type":"uint256","internalType":"uint256"},{"name":"from","type":"address","internalType":"address"},{"name":"amount","type":"uint256","internalType":"uint256"}],"outputs":[],"stateMutability":"nonpayable"},{"type":"function","name":"decimals","inputs":[],"outputs":[{"name":"","type":"uint8","internalType":"uint8"}],"stateMutability":"view"},{"type":"function","name":"initialize","inputs":[{"name":"_licenser","type":"address","internalType":"contract Licenser"}],"outputs":[],"stateMutability":"nonpayable"},{"type":"function","name":"licenser","inputs":[],"outputs":[{"name":"","type":"address","internalType":"contract Licenser"}],"stateMutability":"view"},{"type":"function","name":"mint","inputs":[{"name":"id","type":"uint256","internalType":"uint256"},{"name":"to","type":"address","internalType":"address"},{"name":"amount","type":"uint256","internalType":"uint256"}],"outputs":[],"stateMutability":"nonpayable"},{"type":"function","name":"mintedDyad","inputs":[{"name":"","type":"uint256","internalType":"uint256"}],"outputs":[{"name":"","type":"uint256","internalType":"uint256"}],"stateMutability":"view"},{"type":"function","name":"name","inputs":[],"outputs":[{"name":"","type":"string","internalType":"string"}],"stateMutability":"view"},{"type":"function","name":"symbol","inputs":[],"outputs":[{"name":"","type":"string","internalType":"string"}],"stateMutability":"view"},{"type":"function","name":"totalSupply","inputs":[],"outputs":[{"name":"","type":"uint256","internalType":"uint256"}],"stateMutability":"view"},{"type":"function","name":"transfer","inputs":[{"name":"to","type":"address","internalType":"address"},{"name":"value","type":"uint256","internalType":"uint256"}],"outputs":[{"name":"","type":"bool","internalType":"bool"}],"stateMutability":"nonpayable"},{"type":"function","name":"transferFrom","inputs":[{"name":"from","type":"address","internalType":"address"},{"name":"to","type":"address","internalType":"address"},{"name":"value","type":"uint256","internalType":"uint256"}],"outputs":[{"name":"","type":"bool","internalType":"bool"}],"stateMutability":"nonpayable"},{"type":"event","name":"Approval","inputs":[{"name":"owner","type":"address","indexed":true,"internalType":"address"},{"name":"spender","type":"address","indexed":true,"internalType":"address"},{"name":"value","type":"uint256","indexed":false,"internalType":"uint256"}],"anonymous":false},{"type":"event","name":"Initialized","inputs":[{"name":"version","type":"uint64","indexed":false,"internalType":"uint64"}],"anonymous":false},{"type":"event","name":"Transfer","inputs":[{"name":"from","type":"address","indexed":true,"internalType":"address"},{"name":"to","type":"address","indexed":true,"internalType":"address"},{"name":"value","type":"uint256","indexed":false,"internalType":"uint256"}],"anonymous":false},{"type":"error","name":"ERC20InsufficientAllowance","inputs":[{"name":"spender","type":"address","internalType":"address"},{"name":"allowance","type":"uint256","internalType":"uint256"},{"name":"needed","type":"uint256","internalType":"uint256"}]},{"type":"error","name":"ERC20InsufficientBalance","inputs":[{"name":"sender","type":"address","internalType":"address"},{"name":"balance","type":"uint256","internalType":"uint256"},{"name":"needed","type":"uint256","internalType":"uint256"}]},{"type":"error","name":"ERC20InvalidApprover","inputs":[{"name":"approver","type":"address","internalType":"address"}]},{"type":"error","name":"ERC20InvalidReceiver","inputs":[{"name":"receiver","type":"address","internalType":"address"}]},{"type":"error","name":"ERC20InvalidSender","inputs":[{"name":"sender","type":"address","internalType":"address"}]},{"type":"error","name":"ERC20InvalidSpender","inputs":[{"name":"spender","type":"address","internalType":"address"}]},{"type":"error","name":"InvalidInitialization","inputs":[]},{"type":"error","name":"NotInitializing","inputs":[]},{"type":"error","name":"NotLicensed","inputs":[]}],"bytecode":{"object":"0x608080604052346100165761100a908161001c8239f35b600080fdfe608060408181526004918236101561001657600080fd5b600092833560e01c91826306fdde0314610c1b57508163095ea7b314610b72578163168a5d9814610b4a57816318160ddd14610b0c57816323b872dd14610a19578163313ce567146109fd57816370a08231146109b8578163836a10401461087c57816395d89b41146107755781639eea5f66146105dc578163a9059cbb146105ab578163c4d66de81461012f57508063dd62ed3e146100e95763f790d78f146100bf57600080fd5b346100e557816003193601126100e557905490516001600160a01b039091168152602090f35b5080fd5b50346100e557806003193601126100e55780602092610106610d28565b610117610111610d43565b91610e11565b6001600160a01b039091168252845220549051908152f35b9050346105a75760203660031901126105a75780356001600160a01b038116908190036105a3577ff0c57e16840df040f15088dc2f81fe391c3923bec73e23a9662efc9c229c6a009182549160ff83861c16159167ffffffffffffffff8085169485158061059c575b60018097149081610592575b159081610589575b506105795767ffffffffffffffff198116861787558461055a575b508651916101d483610dbd565b600b83526a4459414420537461626c6560a81b60208401528751926101f884610dbd565b818452631116505160e21b6020850152610210610f73565b610218610f73565b805183811161054757807f52c63247e1f47db19d5ce0460030c497f067ca4cebf71ba98eeadabe20bace039261024e8454610d83565b601f81116104d5575b506020908d601f8411600114610458579261044d575b5050600019600383901b1c191690881b1790555b825191821161043a5750807f52c63247e1f47db19d5ce0460030c497f067ca4cebf71ba98eeadabe20bace04926102b88454610d83565b601f81116103cb575b50602090601f831160011461034e578a92610343575b5050600019600383901b1c191690851b1790555b85546001600160a01b031916178555610302578380f35b7fc7f505b2f371ae2175ee4913f4499e1f2633a7b5936321eed1cdaeb6115181d29260209268ff000000000000000019815416905551908152a13880808380f35b0151905038806102d7565b848b528793507f46a2803e59a4de4e7a4c574b1243f25977ac4c77d5a1a4a609b5394cebb4a2aa9190601f1984168c5b8181106103b35750841161039a575b505050811b0190556102eb565b015160001960f88460031b161c1916905538808061038d565b8284015185558a96909401936020938401930161037e565b909150838a527f46a2803e59a4de4e7a4c574b1243f25977ac4c77d5a1a4a609b5394cebb4a2aa601f840160051c81019160208510610430575b84939291601f8a920160051c01915b8281106104225750506102c1565b8c8155859450899101610414565b9091508190610405565b634e487b7160e01b895260419052602488fd5b01519050388061026d565b91908b9450601f1984168684527f2ae08a8e29253f69ac5d979a101956ab8f8d9d7ded63fa7a83b16fc47648eab0935b8181106104bd575084116104a4575b505050811b019055610281565b015160001960f88460031b161c19169055388080610497565b8284015185558d969094019360209384019301610488565b909150838d527f2ae08a8e29253f69ac5d979a101956ab8f8d9d7ded63fa7a83b16fc47648eab0601f840160051c8101916020851061053d575b8e85949392601f8e930160051c0192905b83821061052f57505050610257565b81558594508c91018f610520565b909150819061050f565b634e487b7160e01b8b526041835260248bfd5b68ffffffffffffffffff191668010000000000000001178655386101c7565b875163f92ee8a960e01b81528390fd5b905015386101ac565b303b1591506101a4565b5084610198565b8380fd5b8280fd5b5050346100e557806003193601126100e5576020906105d56105cb610d28565b6024359033610e85565b5160018152f35b9050346105a7576105ec36610d59565b939160018060a01b0391828754169284518094632950b0a960e21b8252338883015281602460209788935afa90811561076b57899161073e575b501561072e57811690811561071757818852600080516020610fb583398151915280855285892054918883106106e35750918789926001969594838552865203868320557f52c63247e1f47db19d5ce0460030c497f067ca4cebf71ba98eeadabe20bace028881540390557fddf252ad1be2c89b69c2b068fc378daa952ba7f163c4a11628f55a4df523b3ef8487518a8152a386525283209081549283039283116106d057505580f35b634e487b7160e01b845260119052602483fd5b865163391434e360e21b81526001600160a01b0390911681890190815260208101849052604081018a905281906060010390fd5b8451634b637e8f60e11b8152808701899052602490fd5b84516396dcc1ef60e01b81528690fd5b61075e9150853d8711610764575b6107568183610def565b810190610e4a565b38610626565b503d61074c565b86513d8b823e3d90fd5b828434610879578060031936011261087957815190807f52c63247e1f47db19d5ce0460030c497f067ca4cebf71ba98eeadabe20bace0480546107b781610d83565b8086529260209260019280841690811561084a57506001146107f3575b6107ef87896107e5828a0383610def565b5191829182610cdf565b0390f35b815293507f46a2803e59a4de4e7a4c574b1243f25977ac4c77d5a1a4a609b5394cebb4a2aa5b838510610837575050505081016020016107e5826107ef86806107d4565b8054868601840152938201938101610819565b9150506107ef979550869350602092506107e594915060ff191682840152151560051b820101929486806107d4565b80fd5b919050346105a75761088d36610d59565b85548451632950b0a960e21b8152338188015291956020949390926001600160a01b039286908290602490829087165afa9081156109ae578991610991575b5015610981571690811561096a57509160019161096594937f52c63247e1f47db19d5ce0460030c497f067ca4cebf71ba98eeadabe20bace02610910888254610e62565b9055808852600080516020610fb58339815191528352848820878154019055877fddf252ad1be2c89b69c2b068fc378daa952ba7f163c4a11628f55a4df523b3ef8487518a8152a38652528320918254610e62565b905580f35b845163ec442f0560e01b8152908101879052602490fd5b85516396dcc1ef60e01b81528390fd5b6109a89150863d8811610764576107568183610def565b386108cc565b87513d8b823e3d90fd5b5050346100e55760203660031901126100e55760209181906001600160a01b036109e0610d28565b168152600080516020610fb5833981519152845220549051908152f35b5050346100e557816003193601126100e5576020905160128152f35b9050823461087957606036600319011261087957610a35610d28565b610a3d610d43565b9160443593610a4b83610e11565b338352602052858220549060018201610a6d575b6020876105d5888888610e85565b858210610ae1576001600160a01b03841615610aca573315610ab35750916105d5939186866020989795610aa085610e11565b3385528a52039120559193948193610a5f565b8651634a1406b160e11b8152908101839052602490fd5b865163e602df0560e01b8152908101839052602490fd5b8651637dc7a0d960e11b81523391810191825260208201929092526040810186905281906060010390fd5b5050346100e557816003193601126100e5576020907f52c63247e1f47db19d5ce0460030c497f067ca4cebf71ba98eeadabe20bace02549051908152f35b9050346105a75760203660031901126105a75760209282913581526001845220549051908152f35b9050346105a757816003193601126105a757610b8c610d28565b602435903315610c04576001600160a01b0316918215610bed57508083602095610bb533610e11565b8582528752205582519081527f8c5be1e5ebec7d5bd14f71427d1e84f3dd0314c0f7b2291e5b200ac8c7c3b925843392a35160018152f35b8351634a1406b160e11b8152908101859052602490fd5b835163e602df0560e01b8152808401869052602490fd5b83908534610879578060031936011261087957807f52c63247e1f47db19d5ce0460030c497f067ca4cebf71ba98eeadabe20bace038054610c5b81610d83565b8086529260209260019280841690811561084a5750600114610c88576107ef87896107e5828a0383610def565b815293507f2ae08a8e29253f69ac5d979a101956ab8f8d9d7ded63fa7a83b16fc47648eab05b838510610ccc575050505081016020016107e5826107ef86806107d4565b8054868601840152938201938101610cae565b6020808252825181830181905290939260005b828110610d1457505060409293506000838284010152601f8019910116010190565b818101860151848201604001528501610cf2565b600435906001600160a01b0382168203610d3e57565b600080fd5b602435906001600160a01b0382168203610d3e57565b6060906003190112610d3e57600435906024356001600160a01b0381168103610d3e579060443590565b90600182811c92168015610db3575b6020831014610d9d57565b634e487b7160e01b600052602260045260246000fd5b91607f1691610d92565b6040810190811067ffffffffffffffff821117610dd957604052565b634e487b7160e01b600052604160045260246000fd5b90601f8019910116810190811067ffffffffffffffff821117610dd957604052565b6001600160a01b031660009081527f52c63247e1f47db19d5ce0460030c497f067ca4cebf71ba98eeadabe20bace016020526040902090565b90816020910312610d3e57518015158103610d3e5790565b91908201809211610e6f57565b634e487b7160e01b600052601160045260246000fd5b916001600160a01b03808416928315610f5a5716928315610f4157600090838252600080516020610fb583398151915280602052604083205491848310610f0e575082847fddf252ad1be2c89b69c2b068fc378daa952ba7f163c4a11628f55a4df523b3ef959360409388602097528652038282205586815220818154019055604051908152a3565b60405163391434e360e21b81526001600160a01b0391909116600482015260248101929092525060448101839052606490fd5b60405163ec442f0560e01b815260006004820152602490fd5b604051634b637e8f60e11b815260006004820152602490fd5b60ff7ff0c57e16840df040f15088dc2f81fe391c3923bec73e23a9662efc9c229c6a005460401c1615610fa257565b604051631afcd79f60e31b8152600490fdfe52c63247e1f47db19d5ce0460030c497f067ca4cebf71ba98eeadabe20bace00a26469706673582212209504a340a009ae6b89a6c90b715676739899691374516ed4de88db359bbbcbda64736f6c63430008180033","linkReferences":{}},"methodIdentifiers":{"allowance(address,address)":"dd62ed3e","approve(address,uint256)":"095ea7b3","balanceOf(address)":"70a08231","burn(uint256,address,uint256)":"9eea5f66","decimals()":"313ce567","initialize(address)":"c4d66de8","licenser()":"f790d78f","mint(uint256,address,uint256)":"836a1040","mintedDyad(uint256)":"168a5d98","name()":"06fdde03","symbol()":"95d89b41","totalSupply()":"18160ddd","transfer(address,uint256)":"a9059cbb","transferFrom(address,address,uint256)":"23b872dd"},"id":3}