{"abi":[{"type":"constructor","inputs":[{"name":"_vaultManager","type":"address","internalType":"contract IVaultManager"},{"name":"_asset","type":"address","internalType":"contract ERC20"},{"name":"_dyad","type":"address","internalType":"contract Dyad"},{"name":"_kerosineManager","type":"address","internalType":"contract KeroseneManager"},{"name":"_oracle","type":"address","internalType":"contract IAggregatorV3"},{"name":"_kerosineDenominator","type":"address","internalType":"contract KeroseneDenominatorV2"}],"stateMutability":"nonpayable"},{"type":"function","name":"asset","inputs":[],"outputs":[{"name":"","type":"address","internalType":"contract ERC20"}],"stateMutability":"view"},{"type":"function","name":"assetPrice","inputs":[],"outputs":[{"name":"","type":"uint256","internalType":"uint256"}],"stateMutability":"view"},{"type":"function","name":"deposit","inputs":[{"name":"id","type":"uint256","internalType":"uint256"},{"name":"amount","type":"uint256","internalType":"uint256"}],"outputs":[],"stateMutability":"nonpayable"},{"type":"function","name":"dyad","inputs":[],"outputs":[{"name":"","type":"address","internalType":"contract Dyad"}],"stateMutability":"view"},{"type":"function","name":"getUsdValue","inputs":[{"name":"id","type":"uint256","internalType":"uint256"}],"outputs":[{"name":"","type":"uint256","internalType":"uint256"}],"stateMutability":"view"},{"type":"function","name":"id2asset","inputs":[{"name":"","type":"uint256","internalType":"uint256"}],"outputs":[{"name":"","type":"uint256","internalType":"uint256"}],"stateMutability":"view"},{"type":"function","name":"kerosineDenominator","inputs":[],"outputs":[{"name":"","type":"address","internalType":"contract KeroseneDenominatorV2"}],"stateMutability":"view"},{"type":"function","name":"kerosineManager","inputs":[],"outputs":[{"name":"","type":"address","internalType":"contract KeroseneManager"}],"stateMutability":"view"},{"type":"function","name":"move","inputs":[{"name":"from","type":"uint256","internalType":"uint256"},{"name":"to","type":"uint256","internalType":"uint256"},{"name":"amount","type":"uint256","internalType":"uint256"}],"outputs":[],"stateMutability":"nonpayable"},{"type":"function","name":"oracle","inputs":[],"outputs":[{"name":"","type":"address","internalType":"contract IAggregatorV3"}],"stateMutability":"view"},{"type":"function","name":"owner","inputs":[],"outputs":[{"name":"","type":"address","internalType":"address"}],"stateMutability":"view"},{"type":"function","name":"setDenominator","inputs":[{"name":"_kerosineDenominator","type":"address","internalType":"contract KeroseneDenominatorV2"}],"outputs":[],"stateMutability":"nonpayable"},{"type":"function","name":"setOracle","inputs":[{"name":"_oracle","type":"address","internalType":"contract IAggregatorV3"}],"outputs":[],"stateMutability":"nonpayable"},{"type":"function","name":"transferOwnership","inputs":[{"name":"newOwner","type":"address","internalType":"address"}],"outputs":[],"stateMutability":"nonpayable"},{"type":"function","name":"vaultManager","inputs":[],"outputs":[{"name":"","type":"address","internalType":"contract IVaultManager"}],"stateMutability":"view"},{"type":"function","name":"withdraw","inputs":[{"name":"id","type":"uint256","internalType":"uint256"},{"name":"to","type":"address","internalType":"address"},{"name":"amount","type":"uint256","internalType":"uint256"}],"outputs":[],"stateMutability":"nonpayable"},{"type":"event","name":"Deposit","inputs":[{"name":"id","type":"uint256","indexed":true,"internalType":"uint256"},{"name":"amount","type":"uint256","indexed":false,"internalType":"uint256"}],"anonymous":false},{"type":"event","name":"Move","inputs":[{"name":"from","type":"uint256","indexed":true,"internalType":"uint256"},{"name":"to","type":"uint256","indexed":true,"internalType":"uint256"},{"name":"amount","type":"uint256","indexed":false,"internalType":"uint256"}],"anonymous":false},{"type":"event","name":"OwnershipTransferred","inputs":[{"name":"user","type":"address","indexed":true,"internalType":"address"},{"name":"newOwner","type":"address","indexed":true,"internalType":"address"}],"anonymous":false},{"type":"event","name":"Withdraw","inputs":[{"name":"from","type":"uint256","indexed":true,"internalType":"uint256"},{"name":"to","type":"address","indexed":true,"internalType":"address"},{"name":"amount","type":"uint256","indexed":false,"internalType":"uint256"}],"anonymous":false},{"type":"error","name":"IncompleteRound","inputs":[]},{"type":"error","name":"NotVaultManager","inputs":[]},{"type":"error","name":"StaleData","inputs":[]}],"bytecode":{"object":"0x6101003461015457601f610efc38819003918201601f19168301916001600160401b038311848410176101595780849260c094604052833981010312610154578051906001600160a01b039081831683036101545760208101519082821682036101545760408101518381168103610154576060820151908482168203610154576080830151928584168094036101545760a001519485168095036101545760008054336001600160a01b031991821681178355604051989196927f8be0079c531659141344cd1fd0a4f28419497f9722a3daafe3b4186f6b6457e08180a360805260a05260e05260c0528160015416176001556002541617600255610d8c9081610170823960805181818160f2015281816102320152818161034301526104ab015260a05181818161028f01526105d3015260c05181818161058f01526107ae015260e0518181816103ef01526108000152f35b600080fd5b634e487b7160e01b600052604160045260246000fdfe6080604081815260048036101561001557600080fd5b600092833560e01c90816301c767b01461064057508063073789e21461060257806338d52e0f146105be578063754870a91461057a5780637692b6aa146105535780637adbf973146105035780637dc0d1d0146104da5780638a4adf24146104965780638ace76bf146104465780638da5cb5b1461041e578063add95a51146103da578063d24378eb146103b6578063e2bbb15814610329578063e63697c8146101ff578063f2fde38b1461018e5763fa7c9bcf146100d357600080fd5b3461018a57606036600319011261018a576024359181359160443591907f00000000000000000000000000000000000000000000000000000000000000006001600160a01b0316330361017c57507f7b4419c9db600f9cf56a16ec031da555aed923fa8228e732ae1e135811ab92f5916020918487526003835280872061015b83825461077c565b90558587526003835280872061017283825461076f565b905551908152a380f35b905163027f480760e01b8152fd5b8280fd5b8382346101fb5760203660031901126101fb57356001600160a01b038181169182900361018a5781906101c6845491821633146106ae565b6001600160a01b031916178255337f8be0079c531659141344cd1fd0a4f28419497f9722a3daafe3b4186f6b6457e08380a380f35b5080fd5b503461018a57606036600319011261018a576001600160a01b0360243581811693833593909185900361032557604435927f000000000000000000000000000000000000000000000000000000000000000016330361017c57838652600360205281862061026e84825461077c565b90556020866044845163a9059cbb60e01b81528885820152866024820152827f00000000000000000000000000000000000000000000000000000000000000005af13d15601f3d116001895114161716156102f157507f9da6493a92039daf47d1f2d7a782299c5994c6323eb1e972f69c432089ec52bf9160209151908152a380f35b6020606492519162461bcd60e51b8352820152600f60248201526e1514905394d1915497d19052531151608a1b6044820152fd5b8580fd5b503461018a578160031936011261018a57803591602435917f00000000000000000000000000000000000000000000000000000000000000006001600160a01b0316330361017c57507fa3af609bf46297028ce551832669030f9effef2b02606d02cbbcc40fe6b47c5591602091848652600383528086206103ac83825461076f565b905551908152a280f35b5050346101fb57816003193601126101fb576020906103d3610789565b9051908152f35b5050346101fb57816003193601126101fb57517f00000000000000000000000000000000000000000000000000000000000000006001600160a01b03168152602090f35b5050346101fb57816003193601126101fb57905490516001600160a01b039091168152602090f35b8382346101fb5760203660031901126101fb57356001600160a01b038181169182900361018a5761047b9083541633146106ae565b6bffffffffffffffffffffffff60a01b600254161760025580f35b5050346101fb57816003193601126101fb57517f00000000000000000000000000000000000000000000000000000000000000006001600160a01b03168152602090f35b5050346101fb57816003193601126101fb5760015490516001600160a01b039091168152602090f35b8382346101fb5760203660031901126101fb57356001600160a01b038181169182900361018a576105389083541633146106ae565b6bffffffffffffffffffffffff60a01b600154161760015580f35b503461018a57602036600319011261018a5760209282913581526003845220549051908152f35b5050346101fb57816003193601126101fb57517f00000000000000000000000000000000000000000000000000000000000000006001600160a01b03168152602090f35b5050346101fb57816003193601126101fb57517f00000000000000000000000000000000000000000000000000000000000000006001600160a01b03168152602090f35b503461018a57602036600319011261018a57610638826020946305f5e10093358152600386522054610632610789565b90610665565b049051908152f35b8490346101fb57816003193601126101fb576002546001600160a01b03168152602090f35b8181029291811591840414171561067857565b634e487b7160e01b600052601160045260246000fd5b8115610698570490565b634e487b7160e01b600052601260045260246000fd5b156106b557565b60405162461bcd60e51b815260206004820152600c60248201526b15539055551213d49256915160a21b6044820152606490fd5b90601f8019910116810190811067ffffffffffffffff82111761070b57604052565b634e487b7160e01b600052604160045260246000fd5b9081602091031261074057516001600160a01b03811681036107405790565b600080fd5b90816020910312610740575160ff811681036107405790565b60ff16604d811161067857600a0a90565b9190820180921161067857565b9190820391821161067857565b6040805163226807c160e11b815260049291906001600160a01b0390600090818187817f000000000000000000000000000000000000000000000000000000000000000087165afa908115610d4c578291610c94575b50805182915b81831061098d57505083516318160ddd60e01b8082526020937f0000000000000000000000000000000000000000000000000000000000000000861693509184818a81875afa90811561098257600091610955575b5082106109495783908887518095819382525afa91821561093e57908793929160009261090a575b50829161086e9161077c565b93600254168551938480926396ce079560e01b82525afa93841561090057506000936108d0575b50506305f5e100908181029181830414901517156108bb576108b892935061068e565b90565b601184634e487b7160e01b6000525260246000fd5b9080929350813d83116108f9575b6108e881836106e9565b810103126107405751903880610895565b503d6108de565b513d6000823e3d90fd5b935090508183813d8111610937575b61092381836106e9565b81010312610740579151869261086e610862565b503d610919565b85513d6000823e3d90fd5b50600096505050505050565b90508481813d831161097b575b61096c81836106e9565b8101031261074057513861083a565b503d610962565b87513d6000823e3d90fd5b9091928151841015610c7f57602085818660051b85010151169087516338d52e0f60e01b9081815282818d81875afa908115610b8657838d8b938793600091610c62575b508d519384926370a0823160e01b8452830152816024958692165afa908115610bae57600091610c35575b508a5163d24378eb60e01b815284818f81895afa908115610c2a57600091610bfb575b50610a2991610665565b90670de0b6b3a764000091828102928184041490151715610be85750895191825282828d81875afa918215610b8657600092610bb9575b508b838b518092818d63313ce56760e01b97888352165afa908115610bae578d9392610a998693610a9f93600091610b91575b5061075e565b9061068e565b948b51938480926307dc0d1d60e41b82525afa918215610b8657918c84928b94600093610b41575b508c5194859384928352165afa918215610b365792610a9960019593610afa93610b0096600092610b09575b505061075e565b9061076f565b930191906107e5565b610b289250803d10610b2f575b610b2081836106e9565b810190610745565b3880610af3565b503d610b16565b89513d6000823e3d90fd5b9293839195508092503d8311610b7f575b610b5c81836106e9565b810103126101fb5751908982168203610b7c575088918c84929138610ac7565b80fd5b503d610b52565b8a513d6000823e3d90fd5b610ba89150853d8711610b2f57610b2081836106e9565b38610a93565b8b513d6000823e3d90fd5b610bda919250833d8511610be1575b610bd281836106e9565b810190610721565b9038610a60565b503d610bc8565b634e487b7160e01b600090815260118e52fd5b908582813d8311610c23575b610c1181836106e9565b81010312610b7c575051610a29610a1f565b503d610c07565b8c513d6000823e3d90fd5b908482813d8311610c5b575b610c4b81836106e9565b81010312610b7c575051386109fc565b503d610c41565b610c799150833d8511610be157610bd281836106e9565b386109d1565b603288634e487b7160e01b6000525260246000fd5b90503d8083833e610ca581836106e9565b81016020908183820312610d4857825167ffffffffffffffff93848211610325570181601f82011215610d44578051938411610d31578360051b90875194610cef858401876106e9565b85528380860192820101928311610325578301905b828210610d155750505050386107df565b81518781168103610d2d578152908301908301610d04565b8680fd5b634e487b7160e01b855260418952602485fd5b8480fd5b8380fd5b84513d84823e3d90fdfea26469706673582212207ce8e048b03768cdb442cd9fa337ebef00c578995d0e1cba6fa94b2426335c0664736f6c63430008180033","linkReferences":{}},"methodIdentifiers":{"asset()":"38d52e0f","assetPrice()":"d24378eb","deposit(uint256,uint256)":"e2bbb158","dyad()":"add95a51","getUsdValue(uint256)":"073789e2","id2asset(uint256)":"7692b6aa","kerosineDenominator()":"01c767b0","kerosineManager()":"754870a9","move(uint256,uint256,uint256)":"fa7c9bcf","oracle()":"7dc0d1d0","owner()":"8da5cb5b","setDenominator(address)":"8ace76bf","setOracle(address)":"7adbf973","transferOwnership(address)":"f2fde38b","vaultManager()":"8a4adf24","withdraw(uint256,address,uint256)":"e63697c8"},"id":7}