{"abi":[{"type":"function","name":"KEROSENE_VAULT","inputs":[],"outputs":[{"name":"","type":"address","internalType":"address"}],"stateMutability":"view"},{"type":"function","name":"LIQUIDATION_REWARD","inputs":[],"outputs":[{"name":"","type":"uint256","internalType":"uint256"}],"stateMutability":"view"},{"type":"function","name":"MAX_VAULTS","inputs":[],"outputs":[{"name":"","type":"uint256","internalType":"uint256"}],"stateMutability":"view"},{"type":"function","name":"MIN_COLLAT_RATIO","inputs":[],"outputs":[{"name":"","type":"uint256","internalType":"uint256"}],"stateMutability":"view"},{"type":"function","name":"add","inputs":[{"name":"id","type":"uint256","internalType":"uint256"},{"name":"vault","type":"address","internalType":"address"}],"outputs":[],"stateMutability":"nonpayable"},{"type":"function","name":"burnDyad","inputs":[{"name":"id","type":"uint256","internalType":"uint256"},{"name":"amount","type":"uint256","internalType":"uint256"}],"outputs":[],"stateMutability":"nonpayable"},{"type":"function","name":"collatRatio","inputs":[{"name":"id","type":"uint256","internalType":"uint256"}],"outputs":[{"name":"","type":"uint256","internalType":"uint256"}],"stateMutability":"view"},{"type":"function","name":"dNft","inputs":[],"outputs":[{"name":"","type":"address","internalType":"contract DNft"}],"stateMutability":"view"},{"type":"function","name":"deposit","inputs":[{"name":"id","type":"uint256","internalType":"uint256"},{"name":"vault","type":"address","internalType":"address"},{"name":"amount","type":"uint256","internalType":"uint256"}],"outputs":[],"stateMutability":"nonpayable"},{"type":"function","name":"dyad","inputs":[],"outputs":[{"name":"","type":"address","internalType":"contract Dyad"}],"stateMutability":"view"},{"type":"function","name":"dyadXP","inputs":[],"outputs":[{"name":"","type":"address","internalType":"contract DyadXP"}],"stateMutability":"view"},{"type":"function","name":"getTotalValue","inputs":[{"name":"id","type":"uint256","internalType":"uint256"}],"outputs":[{"name":"","type":"uint256","internalType":"uint256"}],"stateMutability":"view"},{"type":"function","name":"getVaults","inputs":[{"name":"id","type":"uint256","internalType":"uint256"}],"outputs":[{"name":"","type":"address[]","internalType":"address[]"}],"stateMutability":"view"},{"type":"function","name":"getVaultsValues","inputs":[{"name":"id","type":"uint256","internalType":"uint256"}],"outputs":[{"name":"exoValue","type":"uint256","internalType":"uint256"},{"name":"keroValue","type":"uint256","internalType":"uint256"}],"stateMutability":"view"},{"type":"function","name":"hasVault","inputs":[{"name":"id","type":"uint256","internalType":"uint256"},{"name":"vault","type":"address","internalType":"address"}],"outputs":[{"name":"","type":"bool","internalType":"bool"}],"stateMutability":"view"},{"type":"function","name":"initialize","inputs":[{"name":"dyadXPImpl","type":"address","internalType":"address"}],"outputs":[],"stateMutability":"nonpayable"},{"type":"function","name":"lastDeposit","inputs":[{"name":"","type":"uint256","internalType":"uint256"}],"outputs":[{"name":"","type":"uint256","internalType":"uint256"}],"stateMutability":"view"},{"type":"function","name":"liquidate","inputs":[{"name":"id","type":"uint256","internalType":"uint256"},{"name":"to","type":"uint256","internalType":"uint256"},{"name":"amount","type":"uint256","internalType":"uint256"}],"outputs":[],"stateMutability":"nonpayable"},{"type":"function","name":"mintDyad","inputs":[{"name":"id","type":"uint256","internalType":"uint256"},{"name":"amount","type":"uint256","internalType":"uint256"},{"name":"to","type":"address","internalType":"address"}],"outputs":[],"stateMutability":"nonpayable"},{"type":"function","name":"owner","inputs":[],"outputs":[{"name":"","type":"address","internalType":"address"}],"stateMutability":"view"},{"type":"function","name":"redeemDyad","inputs":[{"name":"id","type":"uint256","internalType":"uint256"},{"name":"vault","type":"address","internalType":"address"},{"name":"amount","type":"uint256","internalType":"uint256"},{"name":"to","type":"address","internalType":"address"}],"outputs":[{"name":"","type":"uint256","internalType":"uint256"}],"stateMutability":"nonpayable"},{"type":"function","name":"remove","inputs":[{"name":"id","type":"uint256","internalType":"uint256"},{"name":"vault","type":"address","internalType":"address"}],"outputs":[],"stateMutability":"nonpayable"},{"type":"function","name":"renounceOwnership","inputs":[],"outputs":[],"stateMutability":"nonpayable"},{"type":"function","name":"transferOwnership","inputs":[{"name":"newOwner","type":"address","internalType":"address"}],"outputs":[],"stateMutability":"nonpayable"},{"type":"function","name":"vaultLicenser","inputs":[],"outputs":[{"name":"","type":"address","internalType":"contract VaultLicenser"}],"stateMutability":"view"},{"type":"function","name":"withdraw","inputs":[{"name":"id","type":"uint256","internalType":"uint256"},{"name":"vault","type":"address","internalType":"address"},{"name":"amount","type":"uint256","internalType":"uint256"},{"name":"to","type":"address","internalType":"address"}],"outputs":[],"stateMutability":"nonpayable"},{"type":"event","name":"Added","inputs":[{"name":"id","type":"uint256","indexed":true,"internalType":"uint256"},{"name":"vault","type":"address","indexed":true,"internalType":"address"}],"anonymous":false},{"type":"event","name":"BurnDyad","inputs":[{"name":"id","type":"uint256","indexed":true,"internalType":"uint256"},{"name":"amount","type":"uint256","indexed":false,"internalType":"uint256"},{"name":"from","type":"address","indexed":true,"internalType":"address"}],"anonymous":false},{"type":"event","name":"Initialized","inputs":[{"name":"version","type":"uint64","indexed":false,"internalType":"uint64"}],"anonymous":false},{"type":"event","name":"Liquidate","inputs":[{"name":"id","type":"uint256","indexed":true,"internalType":"uint256"},{"name":"from","type":"address","indexed":true,"internalType":"address"},{"name":"to","type":"uint256","indexed":true,"internalType":"uint256"}],"anonymous":false},{"type":"event","name":"MintDyad","inputs":[{"name":"id","type":"uint256","indexed":true,"internalType":"uint256"},{"name":"amount","type":"uint256","indexed":false,"internalType":"uint256"},{"name":"to","type":"address","indexed":true,"internalType":"address"}],"anonymous":false},{"type":"event","name":"OwnershipTransferred","inputs":[{"name":"previousOwner","type":"address","indexed":true,"internalType":"address"},{"name":"newOwner","type":"address","indexed":true,"internalType":"address"}],"anonymous":false},{"type":"event","name":"RedeemDyad","inputs":[{"name":"id","type":"uint256","indexed":true,"internalType":"uint256"},{"name":"vault","type":"address","indexed":true,"internalType":"address"},{"name":"amount","type":"uint256","indexed":false,"internalType":"uint256"},{"name":"to","type":"address","indexed":true,"internalType":"address"}],"anonymous":false},{"type":"event","name":"Removed","inputs":[{"name":"id","type":"uint256","indexed":true,"internalType":"uint256"},{"name":"vault","type":"address","indexed":true,"internalType":"address"}],"anonymous":false},{"type":"error","name":"CanNotWithdrawInSameBlock","inputs":[]},{"type":"error","name":"CrTooHigh","inputs":[]},{"type":"error","name":"CrTooLow","inputs":[]},{"type":"error","name":"InvalidDNft","inputs":[]},{"type":"error","name":"InvalidInitialization","inputs":[]},{"type":"error","name":"NotDNftVault","inputs":[]},{"type":"error","name":"NotEnoughExoCollat","inputs":[]},{"type":"error","name":"NotInitializing","inputs":[]},{"type":"error","name":"NotLicensed","inputs":[]},{"type":"error","name":"NotOwner","inputs":[]},{"type":"error","name":"OwnableInvalidOwner","inputs":[{"name":"owner","type":"address","internalType":"address"}]},{"type":"error","name":"OwnableUnauthorizedAccount","inputs":[{"name":"account","type":"address","internalType":"address"}]},{"type":"error","name":"TooManyVaults","inputs":[]},{"type":"error","name":"VaultAlreadyAdded","inputs":[]},{"type":"error","name":"VaultHasAssets","inputs":[]},{"type":"error","name":"VaultNotAdded","inputs":[]},{"type":"error","name":"VaultNotKerosene","inputs":[]},{"type":"error","name":"VaultNotLicensed","inputs":[]}],"bytecode":{"object":"0x6080806040523461001657612b36908161001c8239f35b600080fdfe6080604090808252600491823610156200001857600080fd5b600092833560e01c928363065941f21462001769575082630f5eea91146200173f57826313661699146200171457826316ae57a314620015eb57826320dc208814620014d75782632b8bbbe81462001361578263468d16d014620012b35782634c3b7ee7146200128e5782635f0f48bd14620010c8578263628ab25a146200109b578263715018a6146200102b57826378d8b90714620010005782638da5cb5b1462000fc75782639c110fe11462000fa35782639dfa4e941462000e345782639f0784ba14620008fc578263a687a9dd14620008cb578263ad0d759414620008a6578263add95a51146200087b578263b6eaea17146200085d578263bc157ac11462000608578263c4d66de814620003b1578263ccf2e886146200022d578263d41f283c14620001f7578263dd7f27a4146200019757505063f2fde38b146200016057600080fd5b346200019457602036600319011262000194576200019162000181620017a5565b6200018b6200257c565b62002404565b80f35b80fd5b90915034620001f35781600319360112620001f357620001ea9082602094620001bf6200178e565b9235815260038652206001600160a01b03909116600090815260019091016020526040902054151590565b90519015158152f35b8280fd5b90833462000194576020366003190112620001945750620002266200021f6020933562002144565b9062001880565b9051908152f35b915034620001f3576060366003190112620001f3576001600160a01b03604435818116938035936024359390929190868303620003ac5760246020828a54168651928380926331a9108f60e11b82528b888301525afa908115620003a25789916200036c575b5081339116036200035d57908792916001541691823b156200035957845163020da84160e61b81529182018781526001600160a01b039091166020820152604081018690529091839183919082908490829060600103925af180156200034f5762000333575b50507f7f657cc58c2af5fee5c8056bebe6de1f2e33938cd0d3f6324198849bf504d35a916020916200032b85620024b0565b51908152a380f35b6200033e90620017f7565b6200034b578438620002f9565b8480fd5b83513d84823e3d90fd5b8380fd5b5082516330cd747160e01b8152fd5b62000393915060203d6020116200039a575b6200038a818362001822565b81019062001845565b3862000293565b503d6200037e565b85513d8b823e3d90fd5b600080fd5b90915034620001f35760209060206003193601126200035957620003d4620017a5565b917ff0c57e16840df040f15088dc2f81fe391c3923bec73e23a9662efc9c229c6a0092835460ff81871c16159367ffffffffffffffff9182811680159081620005ff575b6001149081620005f4575b159081620005ea575b50620005db5767ffffffffffffffff198116600117875585620005bb575b5062000455620027cb565b6200045f620027cb565b6200046a3362002404565b60018060a01b03938460008051602062002ae183398151915254169288519363189acdbd60e31b6020860152602485015260248452606084019484861082871117620005a657858a526102d38581019460608601938411888510176200059357509087916200280e88391690528760808301528251908160a0840152895b8281106200057e57505081810160c001899052601f01601f191601036060019086f080156200057457166bffffffffffffffffffffffff60a01b600554161760055562000533578280f35b805468ff00000000000000001916905551600181527fc7f505b2f371ae2175ee4913f4499e1f2633a7b5936321eed1cdaeb6115181d290602090a138808280f35b84513d87823e3d90fd5b84810182015184820160c001528101620004e8565b634e487b7160e01b8d526041905260248cfd5b604184634e487b7160e01b6000525260246000fd5b68ffffffffffffffffff191668010000000000000001178655386200044a565b50865163f92ee8a960e01b8152fd5b905015386200042c565b303b15915062000423565b87915062000418565b8382346200085957606036600319011262000859578235906200062a6200178e565b936044359260018060a01b038086541696845180986331a9108f60e11b8252848683015281602460209b8c935afa908115620007c257889162000837575b508233911603620008275781908388528489524386892055169684516338d52e0f60e01b8152818186818c5afa908115620007c257606483928a92839162000805575b50828951916323b872dd60e01b8352338a8401528d60248401528b60448401525af13d15601f3d1160018a511416171615620007cc57508686973b15620007be578451631c57762b60e31b81528385820152866024820152878160448183865af18015620007c257908891620007a6575b5050734808e4cc6a2ba764778a0351e1be198494af0b43146200073d578580f35b60055416803b15620007a2578592836044928651978895869463f256753d60e01b865285015260248401525af190811562000799575062000781575b808080808580f35b6200078c90620017f7565b6200019457808262000779565b513d84823e3d90fd5b8580fd5b620007b190620017f7565b620007be5786896200071c565b8680fd5b86513d8a823e3d90fd5b8360649186519162461bcd60e51b835282015260146024820152731514905394d1915497d19493d357d1905253115160621b6044820152fd5b620008209150843d86116200039a576200038a818362001822565b8c620006ab565b84516330cd747160e01b81528490fd5b620008529150893d8b116200039a576200038a818362001822565b8962000668565b5080fd5b83823462000859578160031936011262000859576020905160068152f35b838234620008595781600319360112620008595760015490516001600160a01b039091168152602090f35b8382346200085957816003193601126200085957602090516702c68af0bb1400008152f35b838234620008595781600319360112620008595760209051734808e4cc6a2ba764778a0351e1be198494af0b438152f35b83823462000859576200090f36620017bc565b855485516331a9108f60e11b808252818a0187905260209990989496909590946001600160a01b0394939092908516908b81602481855afa90811562000cff57849162000e12575b50853391160362000e02578a8a60248b518094819382528a8c8301525afa90811562000c7c57839162000de0575b50843391160362000dd0578360015416803b15620001f3578851634f752fb360e11b8152808801878152336020820152604081018a90529091849183919082908490829060600103925af1801562000c7c57859291849162000db3575b50508851888152867f0c3afe79693a0a8b287c7976e65c25875b65e90c75f5f3679c491cf27b7c1ab28d3393a3169487516307dc0d1d60e41b81528a8183818a5afa90811562000c7c57839162000d91575b508851908b8284818963313ce56760e01b95868352165afa91821562000cff57849262000d6d575b5089516338d52e0f60e01b8152908c8285818c5afa91821562000d635791848e92899594889362000d3f575b508d5195869384928352165afa91821562000cff5762000aca9262000ac39262000abd928f889362000d09575b5050620018bf565b620018d4565b88620018e6565b885163d24378eb60e01b81528b8184818b5afa90811562000cff57849162000cc4575b5062000b0390670de0b6b3a764000092620018fa565b04988a858454169160248b518094819382528a878301525afa90811562000c7c57839162000ca2575b50843391160362000c9457848252808a5287822054431462000c8657734808e4cc6a2ba764778a0351e1be198494af0b43861462000c1c575b853b1562000859578751631cc6d2f960e31b81529081018581526001600160a01b0384166020820152604081018a90528290829081906060010381838a5af1801562000c1257908a93929162000bf4575b5050917fca70a9c93e1c3bc9192e8a6c70bf383ab46895bade3f9498e048cb1cdac8a1d29262000be685620024b0565b87519687521694a451908152f35b8192935062000c0390620017f7565b62000194579081899262000bb6565b88513d84823e3d90fd5b8360055416803b15620001f35782809160448c8c5194859384926305978fdb60e31b84528c8985015260248401525af1801562000c7c5790839162000c64575b505062000b65565b62000c6f90620017f7565b6200085957818b62000c5c565b89513d85823e3d90fd5b87516306f5c2d560e31b8152fd5b87516330cd747160e01b8152fd5b62000cbd91508b3d8d116200039a576200038a818362001822565b8b62000b2c565b90508b81813d831162000cf7575b62000cde818362001822565b81010312620003ac5751670de0b6b3a764000062000aed565b503d62000cd2565b8a513d86823e3d90fd5b62000d2e929350803d1062000d37575b62000d25818362001822565b810190620018a4565b908f8f62000ab5565b503d62000d19565b62000d5b919350843d86116200039a576200038a818362001822565b913862000a88565b8b513d87823e3d90fd5b62000d899192508c8d3d1062000d375762000d25818362001822565b908c62000a5c565b62000dac91508b3d8d116200039a576200038a818362001822565b8b62000a34565b62000dc191929350620017f7565b62000859578390828c620009e2565b87516330cd747160e01b81528690fd5b62000dfb91508b3d8d116200039a576200038a818362001822565b8b62000985565b88516330cd747160e01b81528790fd5b62000e2d91508c8d3d106200039a576200038a818362001822565b8c62000957565b90915034620001f35781600319360112620001f35780359062000e566200178e565b9260018060a01b038086541694825180966331a9108f60e11b825286868301528160246020998a935afa90811562000f9957889162000f77575b50823391160362000f685716938151633b495b5560e11b815284848201528181602481895afa90811562000f5e57879162000f2b575b5062000f1d576003908487525262000ee184828720620026ce565b1562000f105750507f0d141fd7c77072fc48765e24d85a4727dc79f72cbb320ad2ba944e2914a51e6d8380a380f35b5163d3e232b360e01b8152fd5b50516314e93e6d60e21b8152fd5b90508181813d831162000f56575b62000f45818362001822565b81010312620003ac57513862000ec6565b503d62000f39565b83513d89823e3d90fd5b5050516330cd747160e01b8152fd5b62000f929150873d89116200039a576200038a818362001822565b3862000e90565b84513d8a823e3d90fd5b9083346200019457602036600319011262000194575062000226602092356200235d565b838234620008595781600319360112620008595760008051602062002ae18339815191525490516001600160a01b039091168152602090f35b838234620008595781600319360112620008595760055490516001600160a01b039091168152602090f35b83346200019457806003193601126200019457620010486200257c565b60008051602062002ae183398151915280546001600160a01b031981169091556000906001600160a01b03167f8be0079c531659141344cd1fd0a4f28419497f9722a3daafe3b4186f6b6457e08280a380f35b833462000194576020366003190112620001945750620010bc903562002144565b82519182526020820152f35b8390346200085957620010db36620017bc565b855487516331a9108f60e11b8152808701869052939794959294936001600160a01b03916020908290602490829086165afa9081156200128457889162001260575b50813391160362001250578587528260205283872054431462001240578087989796971690734808e4cc6a2ba764778a0351e1be198494af0b438214620011d9575b50803b15620007a2578351631cc6d2f960e31b81529283018781526001600160a01b03909216602083015260408201949094529092849184919082908490829060600103925af1908115620007995750620011c1575b506200019182620024b0565b620011cc90620017f7565b62000859578183620011b5565b60055416803b15620007be5786809160448751809481936305978fdb60e31b83528d8a8401528b60248401525af1801562001236579087916200121e575b506200115f565b6200122990620017f7565b620007a257858962001217565b85513d89823e3d90fd5b83516306f5c2d560e31b81528390fd5b83516330cd747160e01b81528390fd5b6200127d915060203d6020116200039a576200038a818362001822565b896200111d565b85513d8a823e3d90fd5b8382346200085957816003193601126200085957602090516714d1120d7b1600008152f35b8334620001945760209182600319360112620008595792919235815260038352818120908251808584549182815201908194845286842090845b8181106200134c57505050816200130691038262001822565b83519485948186019282875251809352850193925b8281106200132b57505050500390f35b83516001600160a01b0316855286955093810193928101926001016200131b565b825484529288019260019283019201620012ed565b90915034620001f35781600319360112620001f357803590620013836200178e565b9260018060a01b038086541690825180926331a9108f60e11b8252868683015281602460209586935afa90811562000f99578891620014b5575b50813391160362000f6857818160025416966024855180948193632950b0a960e21b835216998a898301525afa90811562000f5e57879162001481575b501562001473578386526003815260068287205410156200146657600390848752526200142a8482872062002656565b15620014595750507f8ba5cdc385bc6c37c9a05ad09fbc238589c43602f4cee09c46856027df8a935a8380a380f35b51630cb3e97f60e31b8152fd5b505162c9312160e41b8152fd5b50516301418aa760e71b8152fd5b620014a69150823d8411620014ad575b6200149d818362001822565b81019062001866565b38620013fa565b503d62001491565b620014d09150833d85116200039a576200038a818362001822565b38620013bd565b8382346200085957606036600319011262000859578235906024359060018060a01b03808554168251906331a9108f60e11b80835286898401526020928381602481865afa908115620015e1579085918a91620015bf575b501615620015af57829060248651809481938252898d8301525afa918215620015a557879262001583575b50501615620015745750906200019191604435916200191b565b51634ab600f960e11b81528490fd5b6200159d9250803d106200039a576200038a818362001822565b87806200155a565b84513d89823e3d90fd5b8451634ab600f960e11b81528990fd5b620015da9150853d87116200039a576200038a818362001822565b8b6200152f565b86513d8b823e3d90fd5b915034620001f35780600319360112620001f3578135906024359260018060a01b0360246020828854168551928380926331a9108f60e11b825289888301525afa908115620015a5578791620016f0575b508133911603620016e15785906001541691823b1562000859578351634f752fb360e11b8152908101858152336020820152604081018790529092839182908490829060600103925af18015620016d757620016c1575b50519182527f0c3afe79693a0a8b287c7976e65c25875b65e90c75f5f3679c491cf27b7c1ab260203393a380f35b620016cf90949194620017f7565b923862001693565b82513d87823e3d90fd5b5090516330cd747160e01b8152fd5b6200170d915060203d6020116200039a576200038a818362001822565b386200163c565b838234620008595781600319360112620008595760025490516001600160a01b039091168152602090f35b8382346200085957816003193601126200085957905490516001600160a01b039091168152602090f35b9250346200035957602036600319011262000359579283602094358252845220548152f35b602435906001600160a01b0382168203620003ac57565b600435906001600160a01b0382168203620003ac57565b6080906003190112620003ac57600435906001600160a01b036024358181168103620003ac5791604435916064359081168103620003ac5790565b67ffffffffffffffff81116200180c57604052565b634e487b7160e01b600052604160045260246000fd5b90601f8019910116810190811067ffffffffffffffff8211176200180c57604052565b90816020910312620003ac57516001600160a01b0381168103620003ac5790565b90816020910312620003ac57518015158103620003ac5790565b919082018092116200188e57565b634e487b7160e01b600052601160045260246000fd5b90816020910312620003ac575160ff81168103620003ac5790565b9060ff8091169116019060ff82116200188e57565b60ff16604d81116200188e57600a0a90565b818102929181159184041417156200188e57565b811562001905570490565b634e487b7160e01b600052601260045260246000fd5b91909162001929816200235d565b6714d1120d7b16000081101562002133576001546040516302d14bb360e31b815260048101849052600094916001600160a01b0316602082602481845afa918215620020ee578692620020f9575b50803b15620007a257604051634f752fb360e11b815260048101869052336024820152604481018490529086908290606490829084905af18015620020ee57620020d8575b508585526004602052436040862055620019da6200021f8562002144565b918215620020cf578486526003602052604086205493865b85811062001a27575050505050507ff2bcfabb628d3e0f92291f1e0bc5f2322f8ac3af9e187670152968100e6b60a6339280a4565b868852600360205262001a3e8160408a20620025fd565b60018060a01b0391549060031b1c166024602060018060a01b036002541660405192838092632950b0a960e21b82528660048301525afa908115620020a0578a91620020ab575b5062001a98575b506001905b01620019f2565b60405163039bc4f160e11b815260048101899052602081602481855afa908115620020a0578a9162002068575b5080156200205d576710a741a46278000084108062002052575b1562001dcf5750670de0b6b3a764000083101562001dc857670de0b6b3a76400005b670de0b6b3a763ffff19810181811162001db0576702c68af0bb14000090785c3bd5191b525a2484df7f5cfd6a43e17fc6f80abedcc69ba78111820215670de0b6b3a7640000021562001dc45790670de0b6b3a7640000910204670de0b6b3a76400008101811162001db05790670de0b6b3a764000062001b8392016200247a565b604051633b495b5560e11b8152600481018a905290602082602481865afa801562001cfd578b9062001d75575b62001bbc92506200262c565b84600019048111850215670de0b6b3a76400000215620003ac5785670de0b6b3a76400008662001bee9302046200247a565b905b734808e4cc6a2ba764778a0351e1be198494af0b43811462001d08575b803b1562001ce15760405163fa7c9bcf60e01b81528960048201528b60248201528260448201528a8160648183865af1801562001cfd57908b9162001ce5575b5050734808e4cc6a2ba764778a0351e1be198494af0b430362001a8c576005546001600160a01b031690813b1562001ce157899060448c83604051958694859363f256753d60e01b8552600485015260248401525af1801562001cd65790899162001cba575b5062001a8c565b62001cc590620017f7565b62001cd257873862001cb3565b8780fd5b6040513d8b823e3d90fd5b8980fd5b62001cf090620017f7565b62001ce157893862001c4d565b6040513d8d823e3d90fd5b6005546001600160a01b0316803b1562001d71578a809160448c60405194859384926305978fdb60e31b845260048401528860248401525af1801562001cfd57908b9162001d59575b505062001c0d565b62001d6490620017f7565b62001ce157893862001d51565b8a80fd5b506020823d60201162001da7575b8162001d926020938362001822565b81010312620003ac5762001bbc915162001bb0565b3d915062001d83565b634e487b7160e01b8b52601160045260248bfd5b8b80fd5b8262001b01565b62001de68562001de089846200247a565b6200262c565b62001df287876200247a565b785c3bd5191b525a2484df7f5cfd6a43e17fc6f80abedcc69ba781116702c68af0bb1400000215670de0b6b3a7640000021562001dc457906200021f670de0b6b3a76400006702c68af0bb14000062001e4e940204826200262c565b818111156200204a57505b6040516307dc0d1d60e41b8152602081600481865afa90811562001cfd576004916020918d9162002028575b5060405163313ce56760e01b815292839182906001600160a01b03165afa90811562001cfd578b9162002004575b506040516338d52e0f60e01b8152602081600481875afa90811562001fd757600492916020918e9162001fe2575b5060405163313ce56760e01b815293849182906001600160a01b03165afa91821562001fd75762001f2d939262001f269262000abd928f9262001fb1575b50620018bf565b90620018e6565b60405163d24378eb60e01b8152602081600481865afa90811562001cfd578b9162001f71575b5062001f6990670de0b6b3a764000092620018fa565b049062001bf0565b90506020813d60201162001fa8575b8162001f8f6020938362001822565b81010312620003ac5751670de0b6b3a764000062001f53565b3d915062001f80565b62001fcf91925060203d60201162000d375762000d25818362001822565b903862001f1f565b6040513d8e823e3d90fd5b62001ffd9150823d84116200039a576200038a818362001822565b3862001ee1565b62002021915060203d60201162000d375762000d25818362001822565b3862001eb3565b620020439150823d84116200039a576200038a818362001822565b3862001e85565b905062001e59565b508486141562001adf565b505060019062001a91565b90506020813d60201162002097575b81620020866020938362001822565b81010312620003ac57513862001ac5565b3d915062002077565b6040513d8c823e3d90fd5b620020c8915060203d602011620014ad576200149d818362001822565b3862001a85565b50505050505050565b620020e690959195620017f7565b9338620019bc565b6040513d88823e3d90fd5b9091506020813d6020116200212a575b81620021186020938362001822565b81010312620007a25751903862001977565b3d915062002109565b60405162bcccdd60e31b8152600490fd5b600091600091828181526003602091600383526040928382205494829360018060a01b03908160025416955b8881106200218357505050505050505050565b8386528185528262002198828a8920620025fd565b905490841b1c168851632950b0a960e21b8152600482818301528188818c60249586915afa90811562002331578a916200233b575b50620021e0575b50505060010162002170565b8a516369cbf52d60e11b8152818101849052939d93888184818e5afa90811562002331578a916200230f575b501562002296578a5163039bc4f160e11b8152908101879052918791839182905afa9081156200228c57879162002258575b506200224d9060019262001880565b9a5b903880620021d4565b90508581813d831162002284575b62002272818362001822565b81010312620007be575160016200223e565b503d62002266565b89513d89823e3d90fd5b8a5163039bc4f160e11b81529081018790529c9d929c918791839182905afa9081156200228c578791620022db575b50620022d49060019262001880565b9b6200224f565b90508581813d831162002307575b620022f5818362001822565b81010312620007be57516001620022c5565b503d620022e9565b6200232a9150893d8b11620014ad576200149d818362001822565b386200220c565b8c513d8c823e3d90fd5b620023569150893d8b11620014ad576200149d818362001822565b38620021cd565b6001546040516302d14bb360e31b8152600481018390529190602090839060249082906001600160a01b03165afa918215620023f857600092620023bb575b5090620023b16200021f620023b89362002144565b90620025b7565b90565b91506020823d602011620023ef575b81620023d96020938362001822565b81010312620003ac57905190620023b16200239c565b3d9150620023ca565b6040513d6000823e3d90fd5b6001600160a01b03908116908115620024615760008051602062002ae183398151915280546001600160a01b031981168417909155167f8be0079c531659141344cd1fd0a4f28419497f9722a3daafe3b4186f6b6457e0600080a3565b604051631e4fbdf760e01b815260006004820152602490fd5b670de0b6b3a7640000907812725dd1d243aba0e75fe645cc4873f9e65afe688c928e1f218111820215830215620003ac57020490565b620024bb8162002144565b9091602060018060a01b0360015416916024604051809481936302d14bb360e31b835260048301525afa908115620023f85760009162002544575b508083106200253257620023b162002518926714d1120d7b1600009462001880565b106200252057565b60405163206d2abd60e11b8152600490fd5b604051633269bd2960e21b8152600490fd5b90506020813d60201162002573575b81620025626020938362001822565b81010312620003ac575138620024f6565b3d915062002553565b60008051602062002ae1833981519152546001600160a01b031633036200259f57565b60405163118cdaa760e01b8152336004820152602490fd5b908115620025f557670de0b6b3a7640000907812725dd1d243aba0e75fe645cc4873f9e65afe688c928e1f218111820215830215620003ac57020490565b505060001990565b8054821015620026165760005260206000200190600090565b634e487b7160e01b600052603260045260246000fd5b90670de0b6b3a76400009181600019048111820215830215620003ac570290808204910615150190565b6000828152600182016020526040902054620026c757805490680100000000000000008210156200180c5782620026b062002699846001809601855584620025fd565b819391549060031b91821b91600019901b19161790565b905580549260005201602052604060002055600190565b5050600090565b90600182019060009281845282602052604084205490811515600014620027c45760001991808301818111620027b0578254908482019182116200279c5781810362002761575b505050805480156200274d57820191620027308383620025fd565b909182549160031b1b191690555582526020526040812055600190565b634e487b7160e01b86526031600452602486fd5b6200278662002775620026999386620025fd565b90549060031b1c92839286620025fd565b9055865284602052604086205538808062002715565b634e487b7160e01b88526011600452602488fd5b634e487b7160e01b87526011600452602487fd5b5050505090565b60ff7ff0c57e16840df040f15088dc2f81fe391c3923bec73e23a9662efc9c229c6a005460401c1615620027fb57565b604051631afcd79f60e31b8152600490fdfe60806040526102d38038038061001481610194565b92833981019060408183031261018f5780516001600160a01b03811680820361018f5760208381015190936001600160401b03821161018f570184601f8201121561018f5780519061006d610068836101cf565b610194565b9582875285838301011161018f57849060005b83811061017b57505060009186010152813b15610163577f360894a13ba1a3210667c828492db98dca3e2076cc3735a920a3ca505d382bbc80546001600160a01b03191682179055604051907fbc7cd75a20ee27fd9adebab32041f755214dbc6bffa90cc0225b39da2e5c2d3b600080a28351156101455750600080848461012c96519101845af4903d1561013c573d61011c610068826101cf565b908152600081943d92013e6101ea565b505b6040516085908161024e8239f35b606092506101ea565b9250505034610154575061012e565b63b398979f60e01b8152600490fd5b60249060405190634c9c8ce360e01b82526004820152fd5b818101830151888201840152869201610080565b600080fd5b6040519190601f01601f191682016001600160401b038111838210176101b957604052565b634e487b7160e01b600052604160045260246000fd5b6001600160401b0381116101b957601f01601f191660200190565b9061021157508051156101ff57805190602001fd5b604051630a12f52160e11b8152600490fd5b81511580610244575b610222575090565b604051639996b31560e01b81526001600160a01b039091166004820152602490fd5b50803b1561021a56fe60806040527f360894a13ba1a3210667c828492db98dca3e2076cc3735a920a3ca505d382bbc54600090819081906001600160a01b0316368280378136915af43d82803e15604b573d90f35b3d90fdfea2646970667358221220d717f6b028b6d76303321c62692b25f33b7807725ad990e609edfc5123b7dabf64736f6c634300081800339016d09d72d40fdae2fd8ceac6b6234c7706214fd39c1cd1e609a0528c199300a2646970667358221220ce204073b454ff8366cde578379a219862335e12c1983ade83e0c0cc4fa5f09e64736f6c63430008180033","linkReferences":{}},"methodIdentifiers":{"KEROSENE_VAULT()":"a687a9dd","LIQUIDATION_REWARD()":"ad0d7594","MAX_VAULTS()":"b6eaea17","MIN_COLLAT_RATIO()":"4c3b7ee7","add(uint256,address)":"2b8bbbe8","burnDyad(uint256,uint256)":"16ae57a3","collatRatio(uint256)":"9c110fe1","dNft()":"0f5eea91","deposit(uint256,address,uint256)":"bc157ac1","dyad()":"add95a51","dyadXP()":"78d8b907","getTotalValue(uint256)":"d41f283c","getVaults(uint256)":"468d16d0","getVaultsValues(uint256)":"628ab25a","hasVault(uint256,address)":"dd7f27a4","initialize(address)":"c4d66de8","lastDeposit(uint256)":"065941f2","liquidate(uint256,uint256,uint256)":"20dc2088","mintDyad(uint256,uint256,address)":"ccf2e886","owner()":"8da5cb5b","redeemDyad(uint256,address,uint256,address)":"9f0784ba","remove(uint256,address)":"9dfa4e94","renounceOwnership()":"715018a6","transferOwnership(address)":"f2fde38b","vaultLicenser()":"13661699","withdraw(uint256,address,uint256,address)":"5f0f48bd"},"id":5}