{"abi":[{"type":"function","name":"LIQUIDATION_REWARD","inputs":[],"outputs":[{"name":"","type":"uint256","internalType":"uint256"}],"stateMutability":"view"},{"type":"function","name":"MAX_VAULTS","inputs":[],"outputs":[{"name":"","type":"uint256","internalType":"uint256"}],"stateMutability":"view"},{"type":"function","name":"MIN_COLLAT_RATIO","inputs":[],"outputs":[{"name":"","type":"uint256","internalType":"uint256"}],"stateMutability":"view"},{"type":"function","name":"add","inputs":[{"name":"id","type":"uint256","internalType":"uint256"},{"name":"vault","type":"address","internalType":"address"}],"outputs":[],"stateMutability":"nonpayable"},{"type":"function","name":"burnDyad","inputs":[{"name":"id","type":"uint256","internalType":"uint256"},{"name":"amount","type":"uint256","internalType":"uint256"}],"outputs":[],"stateMutability":"nonpayable"},{"type":"function","name":"collatRatio","inputs":[{"name":"id","type":"uint256","internalType":"uint256"}],"outputs":[{"name":"","type":"uint256","internalType":"uint256"}],"stateMutability":"view"},{"type":"function","name":"dNft","inputs":[],"outputs":[{"name":"","type":"address","internalType":"contract DNft"}],"stateMutability":"view"},{"type":"function","name":"deposit","inputs":[{"name":"id","type":"uint256","internalType":"uint256"},{"name":"vault","type":"address","internalType":"address"},{"name":"amount","type":"uint256","internalType":"uint256"}],"outputs":[],"stateMutability":"nonpayable"},{"type":"function","name":"dyad","inputs":[],"outputs":[{"name":"","type":"address","internalType":"contract Dyad"}],"stateMutability":"view"},{"type":"function","name":"dyadXP","inputs":[],"outputs":[{"name":"","type":"address","internalType":"contract DyadXP"}],"stateMutability":"view"},{"type":"function","name":"getTotalValue","inputs":[{"name":"id","type":"uint256","internalType":"uint256"}],"outputs":[{"name":"","type":"uint256","internalType":"uint256"}],"stateMutability":"view"},{"type":"function","name":"getVaults","inputs":[{"name":"id","type":"uint256","internalType":"uint256"}],"outputs":[{"name":"","type":"address[]","internalType":"address[]"}],"stateMutability":"view"},{"type":"function","name":"getVaultsValues","inputs":[{"name":"id","type":"uint256","internalType":"uint256"}],"outputs":[{"name":"exoValue","type":"uint256","internalType":"uint256"},{"name":"keroValue","type":"uint256","internalType":"uint256"}],"stateMutability":"view"},{"type":"function","name":"hasVault","inputs":[{"name":"id","type":"uint256","internalType":"uint256"},{"name":"vault","type":"address","internalType":"address"}],"outputs":[{"name":"","type":"bool","internalType":"bool"}],"stateMutability":"view"},{"type":"function","name":"initialize","inputs":[{"name":"dyadXPImpl","type":"address","internalType":"address"},{"name":"_dNft","type":"address","internalType":"contract DNft"},{"name":"_dyad","type":"address","internalType":"contract Dyad"},{"name":"_vaultLicenser","type":"address","internalType":"contract VaultLicenser"}],"outputs":[],"stateMutability":"nonpayable"},{"type":"function","name":"keroseneVault","inputs":[],"outputs":[{"name":"","type":"address","internalType":"address"}],"stateMutability":"view"},{"type":"function","name":"lastDeposit","inputs":[{"name":"","type":"uint256","internalType":"uint256"}],"outputs":[{"name":"","type":"uint256","internalType":"uint256"}],"stateMutability":"view"},{"type":"function","name":"liquidate","inputs":[{"name":"id","type":"uint256","internalType":"uint256"},{"name":"to","type":"uint256","internalType":"uint256"},{"name":"amount","type":"uint256","internalType":"uint256"}],"outputs":[],"stateMutability":"nonpayable"},{"type":"function","name":"mintDyad","inputs":[{"name":"id","type":"uint256","internalType":"uint256"},{"name":"amount","type":"uint256","internalType":"uint256"},{"name":"to","type":"address","internalType":"address"}],"outputs":[],"stateMutability":"nonpayable"},{"type":"function","name":"owner","inputs":[],"outputs":[{"name":"","type":"address","internalType":"address"}],"stateMutability":"view"},{"type":"function","name":"redeemDyad","inputs":[{"name":"id","type":"uint256","internalType":"uint256"},{"name":"vault","type":"address","internalType":"address"},{"name":"amount","type":"uint256","internalType":"uint256"},{"name":"to","type":"address","internalType":"address"}],"outputs":[{"name":"","type":"uint256","internalType":"uint256"}],"stateMutability":"nonpayable"},{"type":"function","name":"remove","inputs":[{"name":"id","type":"uint256","internalType":"uint256"},{"name":"vault","type":"address","internalType":"address"}],"outputs":[],"stateMutability":"nonpayable"},{"type":"function","name":"renounceOwnership","inputs":[],"outputs":[],"stateMutability":"nonpayable"},{"type":"function","name":"setKeroseneVault","inputs":[{"name":"_keroseneVault","type":"address","internalType":"address"}],"outputs":[],"stateMutability":"nonpayable"},{"type":"function","name":"transferOwnership","inputs":[{"name":"newOwner","type":"address","internalType":"address"}],"outputs":[],"stateMutability":"nonpayable"},{"type":"function","name":"vaultLicenser","inputs":[],"outputs":[{"name":"","type":"address","internalType":"contract VaultLicenser"}],"stateMutability":"view"},{"type":"function","name":"withdraw","inputs":[{"name":"id","type":"uint256","internalType":"uint256"},{"name":"vault","type":"address","internalType":"address"},{"name":"amount","type":"uint256","internalType":"uint256"},{"name":"to","type":"address","internalType":"address"}],"outputs":[],"stateMutability":"nonpayable"},{"type":"event","name":"Added","inputs":[{"name":"id","type":"uint256","indexed":true,"internalType":"uint256"},{"name":"vault","type":"address","indexed":true,"internalType":"address"}],"anonymous":false},{"type":"event","name":"BurnDyad","inputs":[{"name":"id","type":"uint256","indexed":true,"internalType":"uint256"},{"name":"amount","type":"uint256","indexed":false,"internalType":"uint256"},{"name":"from","type":"address","indexed":true,"internalType":"address"}],"anonymous":false},{"type":"event","name":"Initialized","inputs":[{"name":"version","type":"uint64","indexed":false,"internalType":"uint64"}],"anonymous":false},{"type":"event","name":"Liquidate","inputs":[{"name":"id","type":"uint256","indexed":true,"internalType":"uint256"},{"name":"from","type":"address","indexed":true,"internalType":"address"},{"name":"to","type":"uint256","indexed":true,"internalType":"uint256"}],"anonymous":false},{"type":"event","name":"MintDyad","inputs":[{"name":"id","type":"uint256","indexed":true,"internalType":"uint256"},{"name":"amount","type":"uint256","indexed":false,"internalType":"uint256"},{"name":"to","type":"address","indexed":true,"internalType":"address"}],"anonymous":false},{"type":"event","name":"OwnershipTransferred","inputs":[{"name":"previousOwner","type":"address","indexed":true,"internalType":"address"},{"name":"newOwner","type":"address","indexed":true,"internalType":"address"}],"anonymous":false},{"type":"event","name":"RedeemDyad","inputs":[{"name":"id","type":"uint256","indexed":true,"internalType":"uint256"},{"name":"vault","type":"address","indexed":true,"internalType":"address"},{"name":"amount","type":"uint256","indexed":false,"internalType":"uint256"},{"name":"to","type":"address","indexed":true,"internalType":"address"}],"anonymous":false},{"type":"event","name":"Removed","inputs":[{"name":"id","type":"uint256","indexed":true,"internalType":"uint256"},{"name":"vault","type":"address","indexed":true,"internalType":"address"}],"anonymous":false},{"type":"error","name":"CanNotWithdrawInSameBlock","inputs":[]},{"type":"error","name":"CrTooHigh","inputs":[]},{"type":"error","name":"CrTooLow","inputs":[]},{"type":"error","name":"InvalidDNft","inputs":[]},{"type":"error","name":"InvalidInitialization","inputs":[]},{"type":"error","name":"NotDNftVault","inputs":[]},{"type":"error","name":"NotEnoughExoCollat","inputs":[]},{"type":"error","name":"NotInitializing","inputs":[]},{"type":"error","name":"NotLicensed","inputs":[]},{"type":"error","name":"NotOwner","inputs":[]},{"type":"error","name":"OwnableInvalidOwner","inputs":[{"name":"owner","type":"address","internalType":"address"}]},{"type":"error","name":"OwnableUnauthorizedAccount","inputs":[{"name":"account","type":"address","internalType":"address"}]},{"type":"error","name":"TooManyVaults","inputs":[]},{"type":"error","name":"VaultAlreadyAdded","inputs":[]},{"type":"error","name":"VaultHasAssets","inputs":[]},{"type":"error","name":"VaultNotAdded","inputs":[]},{"type":"error","name":"VaultNotKerosene","inputs":[]},{"type":"error","name":"VaultNotLicensed","inputs":[]}],"bytecode":{"object":"0x6080806040523461001657612cfb908161001c8239f35b600080fdfe608060408181526004803610156200001657600080fd5b600092833560e01c908163065941f214620017a15750806307b046e714620017565780630f5eea91146200172c57806313661699146200170157806316ae57a314620015d857806320dc208814620014c35780632b8bbbe81462001351578063468d16d014620012a35780634c3b7ee7146200127e5780635636357a14620012535780635f0f48bd146200109b578063628ab25a146200106d578063715018a61462000ffd57806378d8b9071462000fd25780638da5cb5b1462000f995780639c110fe11462000f755780639dfa4e941462000e095780639f0784ba14620008df578063ad0d759414620008ba578063add95a51146200088f578063b6eaea171462000871578063bc157ac11462000632578063ccf2e88614620004ae578063d41f283c1462000478578063dd7f27a4146200041f578063f2fde38b14620003e75763f8c8765e146200016857600080fd5b34620003e3576080366003190112620003e35762000185620017c9565b906024356001600160a01b0381811691829003620003df57604435818116809103620003db5760643592828416809403620003d7577ff0c57e16840df040f15088dc2f81fe391c3923bec73e23a9662efc9c229c6a009586549560ff878a1c16159667ffffffffffffffff9081811680159081620003ce575b6001149081620003c3575b159081620003b9575b50620003a95767ffffffffffffffff1981166001178a558862000389575b506200023b62002990565b6200024562002990565b6200025033620024bb565b8560008051602062002ca68339815191525416908a519163189acdbd60e31b60208401526024830152602482526060820193828510828611176200037457848c526102d3838101946060860193841187851017620003615750908891620029d38739169052896080830152620002cd60a0605f1993018262002531565b03019089f092831562000357576bffffffffffffffffffffffff60a01b931683600654161760065582885416178755816001541617600155600254161760025562000316578280f35b805468ff00000000000000001916905551600181527fc7f505b2f371ae2175ee4913f4499e1f2633a7b5936321eed1cdaeb6115181d290602090a138808280f35b87513d8a823e3d90fd5b634e487b7160e01b8f526041905260248efd5b604184634e487b7160e01b6000525260246000fd5b68ffffffffffffffffff1916680100000000000000011789553862000230565b8a5163f92ee8a960e01b81528390fd5b9050153862000212565b303b15915062000209565b8a9150620001fe565b8780fd5b8680fd5b8580fd5b8280fd5b83346200041c5760203660031901126200041c576200041962000409620017c9565b6200041362002573565b620024bb565b80f35b80fd5b5034620003e35781600319360112620003e3576200046f908260209462000445620017e0565b83358252928652206001600160a01b03909116600090815260019091016020526040902054151590565b90519015158152f35b5091346200041c5760203660031901126200041c5750620004a7620004a06020933562002204565b90620018bb565b9051908152f35b509034620003e3576060366003190112620003e3576001600160a01b036044358181169380359360243593909291908683036200062d5760246020828a54168651928380926331a9108f60e11b82528b888301525afa90811562000623578991620005ed575b508133911603620005de57908792916001541691823b15620005da57845163020da84160e61b81529182018781526001600160a01b039091166020820152604081018690529091839183919082908490829060600103925af18015620005d057620005b4575b50507f7f657cc58c2af5fee5c8056bebe6de1f2e33938cd0d3f6324198849bf504d35a91602091620005ac85620025e4565b51908152a380f35b620005bf9062001832565b620005cc5784386200057a565b8480fd5b83513d84823e3d90fd5b8380fd5b5082516330cd747160e01b8152fd5b62000614915060203d6020116200061b575b6200060b81836200185d565b81019062001880565b3862000514565b503d620005ff565b85513d8b823e3d90fd5b600080fd5b509190346200086d5760603660031901126200086d5782359062000655620017e0565b936044359260018060a01b038086541696845180986331a9108f60e11b8252848683015281602460209b8c935afa908115620007d65788916200084b575b5082339116036200083b578190838852600589524386892055169684516338d52e0f60e01b8152818186818c5afa908115620007d657606483928a92839162000819575b50828951916323b872dd60e01b8352338a8401528d60248401528b60448401525af13d15601f3d1160018a511416171615620007e057508686973b15620003db578451631c57762b60e31b81528385820152866024820152878160448183865af18015620007d657908891620007be575b505081600354161462000759578580f35b60065416803b15620003df578592836044928651978895869463f256753d60e01b865285015260248401525af1908115620007b557506200079d575b808080808580f35b620007a89062001832565b6200041c57803862000795565b513d84823e3d90fd5b620007c99062001832565b620003db57863862000748565b86513d8a823e3d90fd5b8360649186519162461bcd60e51b835282015260146024820152731514905394d1915497d19493d357d1905253115160621b6044820152fd5b620008349150843d86116200061b576200060b81836200185d565b38620006d7565b84516330cd747160e01b81528490fd5b620008669150893d8b116200061b576200060b81836200185d565b3862000693565b5080fd5b5050346200086d57816003193601126200086d576020905160068152f35b5050346200086d57816003193601126200086d5760015490516001600160a01b039091168152602090f35b5050346200086d57816003193601126200086d57602090516702c68af0bb1400008152f35b509190346200086d57620008f336620017f7565b855485516331a9108f60e11b808252818a0187905260209990989496909590946001600160a01b0394939092908516908b81602481855afa90811562000cd457849162000de7575b50853391160362000dd7578a8a60248b518094819382528a8c8301525afa90811562000c5157839162000db5575b50843391160362000da5578360015416803b15620003e3578851634f752fb360e11b8152808801878152336020820152604081018a90529091849183919082908490829060600103925af1801562000c5157859291849162000d88575b50508851888152867f0c3afe79693a0a8b287c7976e65c25875b65e90c75f5f3679c491cf27b7c1ab28d3393a3169487516307dc0d1d60e41b81528a8183818a5afa90811562000c5157839162000d66575b508851908b8284818963313ce56760e01b95868352165afa91821562000cd457849262000d42575b5089516338d52e0f60e01b8152908c8285818c5afa91821562000d385791848e92899594889362000d14575b508d5195869384928352165afa91821562000cd45762000aae9262000aa79262000aa1928f889362000cde575b5050620018fa565b6200190f565b8862001921565b885163d24378eb60e01b81528b8184818b5afa90811562000cd457849162000c99575b5062000ae790670de0b6b3a76400009262001935565b04988a858454169160248b518094819382528a878301525afa90811562000c5157839162000c77575b50843391160362000c695784825260058a5287822054431462000c5b578360035416861462000bf1575b853b156200086d578751631cc6d2f960e31b81529081018581526001600160a01b0384166020820152604081018a90528290829081906060010381838a5af1801562000be757908a93929162000bc9575b5050917fca70a9c93e1c3bc9192e8a6c70bf383ab46895bade3f9498e048cb1cdac8a1d29262000bbb85620025e4565b87519687521694a451908152f35b8192935062000bd89062001832565b6200041c579081899262000b8b565b88513d84823e3d90fd5b8360065416803b15620003e35782809160448c8c5194859384926305978fdb60e31b84528c8985015260248401525af1801562000c515790839162000c39575b505062000b3a565b62000c449062001832565b6200086d57813862000c31565b89513d85823e3d90fd5b87516306f5c2d560e31b8152fd5b87516330cd747160e01b8152fd5b62000c9291508b3d8d116200061b576200060b81836200185d565b3862000b10565b90508b81813d831162000ccc575b62000cb381836200185d565b810103126200062d5751670de0b6b3a764000062000ad1565b503d62000ca7565b8a513d86823e3d90fd5b62000d03929350803d1062000d0c575b62000cfa81836200185d565b810190620018df565b90388f62000a99565b503d62000cee565b62000d30919350843d86116200061b576200060b81836200185d565b913862000a6c565b8b513d87823e3d90fd5b62000d5e9192508c8d3d1062000d0c5762000cfa81836200185d565b903862000a40565b62000d8191508b3d8d116200061b576200060b81836200185d565b3862000a18565b62000d969192935062001832565b6200086d5783908238620009c6565b87516330cd747160e01b81528690fd5b62000dd091508b3d8d116200061b576200060b81836200185d565b3862000969565b88516330cd747160e01b81528790fd5b62000e0291508c8d3d106200061b576200060b81836200185d565b386200093b565b5034620003e35781600319360112620003e35780359062000e29620017e0565b9260018060a01b038086541694825180966331a9108f60e11b825286868301528160246020998a935afa90811562000f6b57889162000f49575b50823391160362000f3a5716938151633b495b5560e11b815284848201528181602481895afa90811562000f3057879162000efd575b5062000eef5782908487525262000eb38482872062002893565b1562000ee25750507f0d141fd7c77072fc48765e24d85a4727dc79f72cbb320ad2ba944e2914a51e6d8380a380f35b5163d3e232b360e01b8152fd5b50516314e93e6d60e21b8152fd5b90508181813d831162000f28575b62000f1781836200185d565b810103126200062d57513862000e99565b503d62000f0b565b83513d89823e3d90fd5b5050516330cd747160e01b8152fd5b62000f649150873d89116200061b576200060b81836200185d565b3862000e63565b84513d8a823e3d90fd5b5091346200041c5760203660031901126200041c5750620004a76020923562002414565b5050346200086d57816003193601126200086d5760008051602062002ca68339815191525490516001600160a01b039091168152602090f35b5050346200086d57816003193601126200086d5760065490516001600160a01b039091168152602090f35b83346200041c57806003193601126200041c576200101a62002573565b60008051602062002ca683398151915280546001600160a01b031981169091556000906001600160a01b03167f8be0079c531659141344cd1fd0a4f28419497f9722a3daafe3b4186f6b6457e08280a380f35b5082346200041c5760203660031901126200041c57506200108f903562002204565b82519182526020820152f35b508290346200086d57620010af36620017f7565b855487516331a9108f60e11b81528087018690526001600160a01b0398959693959491602090829060249082908d165afa9081156200124957889162001225575b508833911603620012155785875260056020528387205443146200120557878088996003999899541692169182146200119e575b50803b15620003df578351631cc6d2f960e31b81529283018781526001600160a01b03909216602083015260408201949094529092849184919082908490829060600103925af1908115620007b5575062001186575b506200041982620025e4565b620011919062001832565b6200086d5781836200117a565b60065416803b15620003db5786809160448751809481936305978fdb60e31b83528d8a8401528b60248401525af18015620011fb57908791620011e3575b5062001124565b620011ee9062001832565b620003df578589620011dc565b85513d89823e3d90fd5b83516306f5c2d560e31b81528390fd5b83516330cd747160e01b81528390fd5b62001242915060203d6020116200061b576200060b81836200185d565b89620010f0565b85513d8a823e3d90fd5b5050346200086d57816003193601126200086d5760035490516001600160a01b039091168152602090f35b5050346200086d57816003193601126200086d57602090516714d1120d7b1600008152f35b5082346200041c57602091826003193601126200086d57809392933582528352818120908251808584549182815201908194845286842090845b8181106200133c5750505081620012f69103826200185d565b83519485948186019282875251809352850193925b8281106200131b57505050500390f35b83516001600160a01b0316855286955093810193928101926001016200130b565b825484529288019260019283019201620012dd565b5034620003e35781600319360112620003e35780359062001371620017e0565b9260018060a01b038086541690825180926331a9108f60e11b8252868683015281602460209586935afa90811562000f6b578891620014a1575b50813391160362000f3a57818160025416966024855180948193632950b0a960e21b835216998a898301525afa90811562000f305787916200146d575b50156200145f578386528281526006828720541015620014525782908487525262001416848287206200281b565b15620014455750507f8ba5cdc385bc6c37c9a05ad09fbc238589c43602f4cee09c46856027df8a935a8380a380f35b51630cb3e97f60e31b8152fd5b505162c9312160e41b8152fd5b50516301418aa760e71b8152fd5b620014929150823d841162001499575b6200148981836200185d565b810190620018a1565b38620013e8565b503d6200147d565b620014bc9150833d85116200061b576200060b81836200185d565b38620013ab565b509190346200086d5760603660031901126200086d578235906024359060018060a01b03808554168251906331a9108f60e11b80835286898401526020928381602481865afa908115620015ce579085918a91620015ac575b5016156200159c57829060248651809481938252898d8301525afa9182156200159257879262001570575b505016156200156157509062000419916044359162001956565b51634ab600f960e11b81528490fd5b6200158a9250803d106200061b576200060b81836200185d565b388062001547565b84513d89823e3d90fd5b8451634ab600f960e11b81528990fd5b620015c79150853d87116200061b576200060b81836200185d565b386200151c565b86513d8b823e3d90fd5b509034620003e35780600319360112620003e3578135906024359260018060a01b0360246020828854168551928380926331a9108f60e11b825289888301525afa90811562001592578791620016dd575b508133911603620016ce5785906001541691823b156200086d578351634f752fb360e11b8152908101858152336020820152604081018790529092839182908490829060600103925af18015620016c457620016ae575b50519182527f0c3afe79693a0a8b287c7976e65c25875b65e90c75f5f3679c491cf27b7c1ab260203393a380f35b620016bc9094919462001832565b923862001680565b82513d87823e3d90fd5b5090516330cd747160e01b8152fd5b620016fa915060203d6020116200061b576200060b81836200185d565b3862001629565b5050346200086d57816003193601126200086d5760025490516001600160a01b039091168152602090f35b5050346200086d57816003193601126200086d57905490516001600160a01b039091168152602090f35b83346200041c5760203660031901126200041c5762001774620017c9565b6200177e62002573565b60018060a01b03166bffffffffffffffffffffffff60a01b600354161760035580f35b9291905034620005da576020366003190112620005da57926020933581526005845220548152f35b600435906001600160a01b03821682036200062d57565b602435906001600160a01b03821682036200062d57565b60809060031901126200062d57600435906001600160a01b0360243581811681036200062d57916044359160643590811681036200062d5790565b67ffffffffffffffff81116200184757604052565b634e487b7160e01b600052604160045260246000fd5b90601f8019910116810190811067ffffffffffffffff8211176200184757604052565b908160209103126200062d57516001600160a01b03811681036200062d5790565b908160209103126200062d575180151581036200062d5790565b91908201809211620018c957565b634e487b7160e01b600052601160045260246000fd5b908160209103126200062d575160ff811681036200062d5790565b9060ff8091169116019060ff8211620018c957565b60ff16604d8111620018c957600a0a90565b81810292918115918404141715620018c957565b811562001940570490565b634e487b7160e01b600052601260045260246000fd5b919091620019648162002414565b916714d1120d7b160000831015620021f3576001546040516302d14bb360e31b81526004810184905260009490916001600160a01b0316602083602481845afa928315620021ae578693620021b9575b50803b15620003df57604051634f752fb360e11b815260048101869052336024820152604481018590529086908290606490829084905af18015620021ae5762002198575b50858552600560205243604086205562001a17620004a08562002204565b9182156200218f578486526004602052604086205493865b85811062001a64575050505050507ff2bcfabb628d3e0f92291f1e0bc5f2322f8ac3af9e187670152968100e6b60a6339280a4565b868852600460205262001a7b8160408a20620027c2565b9054600254604051632950b0a960e21b81526001600160a01b03600385901b84901c81166004830152909160209183916024918391165afa90811562002160578b916200216b575b5062001ad7575b50506001905b0162001a2f565b60405163039bc4f160e11b8152600481018a9052602081602481600387901b86901c6001600160a01b03165afa90811562002160578b9162002128575b5080156200211c576710a741a46278000087108062002111575b1562001e5d5750670de0b6b3a764000086101562001e5657670de0b6b3a76400005b670de0b6b3a763ffff19810181811162001e3e576702c68af0bb14000090785c3bd5191b525a2484df7f5cfd6a43e17fc6f80abedcc69ba78111820215670de0b6b3a7640000021562001e525790670de0b6b3a7640000910204670de0b6b3a76400008101811162001e3e5790670de0b6b3a764000062001bd29201620025ae565b604051633b495b5560e11b8152600481018b905290602082602481600388901b87901c6001600160a01b03165afa801562001d8b578c9062001e03575b62001c1b9250620027f1565b84600019048111850215670de0b6b3a764000002156200062d5785670de0b6b3a76400008662001c4d930204620025ae565b915b600380546001600160a01b039081169183901b84901c161462001d96575b600381901b82901c6001600160a01b03163b1562001d875760405163fa7c9bcf60e01b8152600481018b9052602481018d9052604481018490528b8160648183600387901b88901c6001600160a01b03165af1801562001d8b57908c9162001d6f575b50506003805491901b9190911c6001600160a01b0390811691161462001cf8575b8062001aca565b6006546001600160a01b031690813b1562001d6b57899060448c83604051958694859363f256753d60e01b8552600485015260248401525af1801562001d605790899162001d48575b5062001cf1565b62001d539062001832565b620003d757873862001d41565b6040513d8b823e3d90fd5b8980fd5b62001d7a9062001832565b62001d87578a3862001cd0565b8a80fd5b6040513d8e823e3d90fd5b6006546001600160a01b0316803b1562001dff578b809160448d60405194859384926305978fdb60e31b845260048401528960248401525af1801562001d8b57908c9162001de7575b505062001c6d565b62001df29062001832565b62001d87578a3862001ddf565b8b80fd5b506020823d60201162001e35575b8162001e20602093836200185d565b810103126200062d5762001c1b915162001c0f565b3d915062001e11565b634e487b7160e01b8c52601160045260248cfd5b8c80fd5b8562001b50565b62001e748562001e6e8a84620025ae565b620027f1565b62001e808787620025ae565b785c3bd5191b525a2484df7f5cfd6a43e17fc6f80abedcc69ba781116702c68af0bb1400000215670de0b6b3a7640000021562001e525790620004a0670de0b6b3a76400006702c68af0bb14000062001edc94020482620027f1565b818111156200210957505b6040516307dc0d1d60e41b8152602081600481600388901b87901c6001600160a01b03165afa90811562001d8b576004916020918e91620020e7575b5060405163313ce56760e01b815292839182906001600160a01b03165afa90811562001d8b578c91620020c3575b506040516338d52e0f60e01b8152602081600481600389901b88901c6001600160a01b03165afa9081156200209657600492916020918f91620020a1575b5060405163313ce56760e01b815293849182906001600160a01b03165afa918215620020965762001fdc939262001fd5928f9262000aa1939262002070575b50620018fa565b9062001921565b60405163d24378eb60e01b8152602081600481600388901b87901c6001600160a01b03165afa90811562001d8b578c9162002030575b506200202890670de0b6b3a76400009262001935565b049162001c4f565b90506020813d60201162002067575b816200204e602093836200185d565b810103126200062d5751670de0b6b3a764000062002012565b3d91506200203f565b6200208e91925060203d60201162000d0c5762000cfa81836200185d565b903862001fce565b6040513d8f823e3d90fd5b620020bc9150823d84116200061b576200060b81836200185d565b3862001f8f565b620020e0915060203d60201162000d0c5762000cfa81836200185d565b3862001f51565b620021029150823d84116200061b576200060b81836200185d565b3862001f23565b905062001ee7565b508486141562001b2e565b50505060019062001ad0565b90506020813d60201162002157575b8162002146602093836200185d565b810103126200062d57513862001b14565b3d915062002137565b6040513d8d823e3d90fd5b62002188915060203d60201162001499576200148981836200185d565b3862001ac3565b50505050505050565b620021a69095919562001832565b9338620019f9565b6040513d88823e3d90fd5b9092506020813d602011620021ea575b81620021d8602093836200185d565b81010312620003df57519138620019b4565b3d9150620021c9565b60405162bcccdd60e31b8152600490fd5b6000916000809280825260049160208381526040928383205494839060018060a01b038060025416925b8881106200224157505050505050505050565b8487528286528162002256828a8a20620027c2565b90549060031b1c16885190632950b0a960e21b82528085830152602491888184818a5afa908115620023e8578a91620023f2575b506200229c575b50506001016200222e565b89516369cbf52d60e11b8152858101829052929c92888184818a5afa908115620023e8578a91620023c6575b50156200234f5787908a519283809263039bc4f160e11b82528a898301525afa9081156200234557889162002311575b506200230790600192620018bb565b9a5b903862002291565b90508681813d83116200233d575b6200232b81836200185d565b81010312620003d757516001620022f8565b503d6200231f565b89513d8a823e3d90fd5b87908a9e939d9e519283809263039bc4f160e11b82528a898301525afa9081156200234557889162002392575b506200238b90600192620018bb565b9b62002309565b90508681813d8311620023be575b620023ac81836200185d565b81010312620003d7575160016200237c565b503d620023a0565b620023e19150893d8b1162001499576200148981836200185d565b38620022c8565b8b513d8c823e3d90fd5b6200240d9150893d8b1162001499576200148981836200185d565b386200228a565b6001546040516302d14bb360e31b8152600481018390529190602090839060249082906001600160a01b03165afa918215620024af5760009262002472575b509062002468620004a06200246f9362002204565b906200277c565b90565b91506020823d602011620024a6575b8162002490602093836200185d565b810103126200062d579051906200246862002453565b3d915062002481565b6040513d6000823e3d90fd5b6001600160a01b03908116908115620025185760008051602062002ca683398151915280546001600160a01b031981168417909155167f8be0079c531659141344cd1fd0a4f28419497f9722a3daafe3b4186f6b6457e0600080a3565b604051631e4fbdf760e01b815260006004820152602490fd5b919082519283825260005b8481106200255e575050826000602080949584010152601f8019910116010190565b6020818301810151848301820152016200253c565b60008051602062002ca6833981519152546001600160a01b031633036200259657565b60405163118cdaa760e01b8152336004820152602490fd5b670de0b6b3a7640000907812725dd1d243aba0e75fe645cc4873f9e65afe688c928e1f2181118202158302156200062d57020490565b620025ef8162002204565b600154604080516302d14bb360e31b81526004810195909552936020939290918490839060249082906001600160a01b03165afa91821562002771576000926200273c575b508183106200272b57845190606082019382851067ffffffffffffffff86111762001847576000806200246894620026da620026fb6714d1120d7b1600009a620027129a8d52602b84527f65786f56616c75653a2025642c206b65726f56616c75653a2025642c206d696e818501526a1d1959111e58590e88095960aa1b8d8501528c5192839182019463a7a8785360e01b86526080602484015260a483019062002531565b8760448301528860648301528a608483015203601f1981018352826200185d565b51906a636f6e736f6c652e6c6f675afa50620018bb565b106200271b5750565b5163206d2abd60e11b8152600490fd5b8451633269bd2960e21b8152600490fd5b90918482813d831162002769575b6200275681836200185d565b810103126200041c575051903862002634565b503d6200274a565b85513d6000823e3d90fd5b908115620027ba57670de0b6b3a7640000907812725dd1d243aba0e75fe645cc4873f9e65afe688c928e1f2181118202158302156200062d57020490565b505060001990565b8054821015620027db5760005260206000200190600090565b634e487b7160e01b600052603260045260246000fd5b90670de0b6b3a764000091816000190481118202158302156200062d570290808204910615150190565b60008281526001820160205260409020546200288c5780549068010000000000000000821015620018475782620028756200285e846001809601855584620027c2565b819391549060031b91821b91600019901b19161790565b905580549260005201602052604060002055600190565b5050600090565b906001820190600092818452826020526040842054908115156000146200298957600019918083018181116200297557825490848201918211620029615781810362002926575b505050805480156200291257820191620028f58383620027c2565b909182549160031b1b191690555582526020526040812055600190565b634e487b7160e01b86526031600452602486fd5b6200294b6200293a6200285e9386620027c2565b90549060031b1c92839286620027c2565b90558652846020526040862055388080620028da565b634e487b7160e01b88526011600452602488fd5b634e487b7160e01b87526011600452602487fd5b5050505090565b60ff7ff0c57e16840df040f15088dc2f81fe391c3923bec73e23a9662efc9c229c6a005460401c1615620029c057565b604051631afcd79f60e31b8152600490fdfe60806040526102d38038038061001481610194565b92833981019060408183031261018f5780516001600160a01b03811680820361018f5760208381015190936001600160401b03821161018f570184601f8201121561018f5780519061006d610068836101cf565b610194565b9582875285838301011161018f57849060005b83811061017b57505060009186010152813b15610163577f360894a13ba1a3210667c828492db98dca3e2076cc3735a920a3ca505d382bbc80546001600160a01b03191682179055604051907fbc7cd75a20ee27fd9adebab32041f755214dbc6bffa90cc0225b39da2e5c2d3b600080a28351156101455750600080848461012c96519101845af4903d1561013c573d61011c610068826101cf565b908152600081943d92013e6101ea565b505b6040516085908161024e8239f35b606092506101ea565b9250505034610154575061012e565b63b398979f60e01b8152600490fd5b60249060405190634c9c8ce360e01b82526004820152fd5b818101830151888201840152869201610080565b600080fd5b6040519190601f01601f191682016001600160401b038111838210176101b957604052565b634e487b7160e01b600052604160045260246000fd5b6001600160401b0381116101b957601f01601f191660200190565b9061021157508051156101ff57805190602001fd5b604051630a12f52160e11b8152600490fd5b81511580610244575b610222575090565b604051639996b31560e01b81526001600160a01b039091166004820152602490fd5b50803b1561021a56fe60806040527f360894a13ba1a3210667c828492db98dca3e2076cc3735a920a3ca505d382bbc54600090819081906001600160a01b0316368280378136915af43d82803e15604b573d90f35b3d90fdfea2646970667358221220d717f6b028b6d76303321c62692b25f33b7807725ad990e609edfc5123b7dabf64736f6c634300081800339016d09d72d40fdae2fd8ceac6b6234c7706214fd39c1cd1e609a0528c199300a264697066735822122053d3401e1640d0c3200465a80ba5fee348b2b1882bdc7a76acef26244386202264736f6c63430008180033","linkReferences":{}},"methodIdentifiers":{"LIQUIDATION_REWARD()":"ad0d7594","MAX_VAULTS()":"b6eaea17","MIN_COLLAT_RATIO()":"4c3b7ee7","add(uint256,address)":"2b8bbbe8","burnDyad(uint256,uint256)":"16ae57a3","collatRatio(uint256)":"9c110fe1","dNft()":"0f5eea91","deposit(uint256,address,uint256)":"bc157ac1","dyad()":"add95a51","dyadXP()":"78d8b907","getTotalValue(uint256)":"d41f283c","getVaults(uint256)":"468d16d0","getVaultsValues(uint256)":"628ab25a","hasVault(uint256,address)":"dd7f27a4","initialize(address,address,address,address)":"f8c8765e","keroseneVault()":"5636357a","lastDeposit(uint256)":"065941f2","liquidate(uint256,uint256,uint256)":"20dc2088","mintDyad(uint256,uint256,address)":"ccf2e886","owner()":"8da5cb5b","redeemDyad(uint256,address,uint256,address)":"9f0784ba","remove(uint256,address)":"9dfa4e94","renounceOwnership()":"715018a6","setKeroseneVault(address)":"07b046e7","transferOwnership(address)":"f2fde38b","vaultLicenser()":"13661699","withdraw(uint256,address,uint256,address)":"5f0f48bd"},"id":5}