{"abi":[{"type":"function","name":"LIQUIDATION_REWARD","inputs":[],"outputs":[{"name":"","type":"uint256","internalType":"uint256"}],"stateMutability":"view"},{"type":"function","name":"MAX_VAULTS","inputs":[],"outputs":[{"name":"","type":"uint256","internalType":"uint256"}],"stateMutability":"view"},{"type":"function","name":"MIN_COLLAT_RATIO","inputs":[],"outputs":[{"name":"","type":"uint256","internalType":"uint256"}],"stateMutability":"view"},{"type":"function","name":"add","inputs":[{"name":"id","type":"uint256","internalType":"uint256"},{"name":"vault","type":"address","internalType":"address"}],"outputs":[],"stateMutability":"nonpayable"},{"type":"function","name":"burnDyad","inputs":[{"name":"id","type":"uint256","internalType":"uint256"},{"name":"amount","type":"uint256","internalType":"uint256"}],"outputs":[],"stateMutability":"nonpayable"},{"type":"function","name":"collatRatio","inputs":[{"name":"id","type":"uint256","internalType":"uint256"}],"outputs":[{"name":"","type":"uint256","internalType":"uint256"}],"stateMutability":"view"},{"type":"function","name":"dNft","inputs":[],"outputs":[{"name":"","type":"address","internalType":"contract DNft"}],"stateMutability":"view"},{"type":"function","name":"deposit","inputs":[{"name":"id","type":"uint256","internalType":"uint256"},{"name":"vault","type":"address","internalType":"address"},{"name":"amount","type":"uint256","internalType":"uint256"}],"outputs":[],"stateMutability":"nonpayable"},{"type":"function","name":"dyad","inputs":[],"outputs":[{"name":"","type":"address","internalType":"contract Dyad"}],"stateMutability":"view"},{"type":"function","name":"dyadXP","inputs":[],"outputs":[{"name":"","type":"address","internalType":"contract DyadXP"}],"stateMutability":"view"},{"type":"function","name":"getTotalValue","inputs":[{"name":"id","type":"uint256","internalType":"uint256"}],"outputs":[{"name":"","type":"uint256","internalType":"uint256"}],"stateMutability":"view"},{"type":"function","name":"getVaults","inputs":[{"name":"id","type":"uint256","internalType":"uint256"}],"outputs":[{"name":"","type":"address[]","internalType":"address[]"}],"stateMutability":"view"},{"type":"function","name":"getVaultsValues","inputs":[{"name":"id","type":"uint256","internalType":"uint256"}],"outputs":[{"name":"exoValue","type":"uint256","internalType":"uint256"},{"name":"keroValue","type":"uint256","internalType":"uint256"}],"stateMutability":"view"},{"type":"function","name":"hasVault","inputs":[{"name":"id","type":"uint256","internalType":"uint256"},{"name":"vault","type":"address","internalType":"address"}],"outputs":[{"name":"","type":"bool","internalType":"bool"}],"stateMutability":"view"},{"type":"function","name":"initialize","inputs":[{"name":"_dNft","type":"address","internalType":"contract DNft"},{"name":"_dyad","type":"address","internalType":"contract Dyad"},{"name":"_vaultLicenser","type":"address","internalType":"contract VaultLicenser"}],"outputs":[],"stateMutability":"nonpayable"},{"type":"function","name":"keroseneVault","inputs":[],"outputs":[{"name":"","type":"address","internalType":"address"}],"stateMutability":"view"},{"type":"function","name":"lastDeposit","inputs":[{"name":"","type":"uint256","internalType":"uint256"}],"outputs":[{"name":"","type":"uint256","internalType":"uint256"}],"stateMutability":"view"},{"type":"function","name":"liquidate","inputs":[{"name":"id","type":"uint256","internalType":"uint256"},{"name":"to","type":"uint256","internalType":"uint256"},{"name":"amount","type":"uint256","internalType":"uint256"}],"outputs":[],"stateMutability":"nonpayable"},{"type":"function","name":"mintDyad","inputs":[{"name":"id","type":"uint256","internalType":"uint256"},{"name":"amount","type":"uint256","internalType":"uint256"},{"name":"to","type":"address","internalType":"address"}],"outputs":[],"stateMutability":"nonpayable"},{"type":"function","name":"owner","inputs":[],"outputs":[{"name":"","type":"address","internalType":"address"}],"stateMutability":"view"},{"type":"function","name":"redeemDyad","inputs":[{"name":"id","type":"uint256","internalType":"uint256"},{"name":"vault","type":"address","internalType":"address"},{"name":"amount","type":"uint256","internalType":"uint256"},{"name":"to","type":"address","internalType":"address"}],"outputs":[{"name":"","type":"uint256","internalType":"uint256"}],"stateMutability":"nonpayable"},{"type":"function","name":"remove","inputs":[{"name":"id","type":"uint256","internalType":"uint256"},{"name":"vault","type":"address","internalType":"address"}],"outputs":[],"stateMutability":"nonpayable"},{"type":"function","name":"renounceOwnership","inputs":[],"outputs":[],"stateMutability":"nonpayable"},{"type":"function","name":"setKerosene","inputs":[{"name":"_keroseneVault","type":"address","internalType":"address"},{"name":"_dyadXP","type":"address","internalType":"contract DyadXP"}],"outputs":[],"stateMutability":"nonpayable"},{"type":"function","name":"transferOwnership","inputs":[{"name":"newOwner","type":"address","internalType":"address"}],"outputs":[],"stateMutability":"nonpayable"},{"type":"function","name":"vaultLicenser","inputs":[],"outputs":[{"name":"","type":"address","internalType":"contract VaultLicenser"}],"stateMutability":"view"},{"type":"function","name":"withdraw","inputs":[{"name":"id","type":"uint256","internalType":"uint256"},{"name":"vault","type":"address","internalType":"address"},{"name":"amount","type":"uint256","internalType":"uint256"},{"name":"to","type":"address","internalType":"address"}],"outputs":[],"stateMutability":"nonpayable"},{"type":"event","name":"Added","inputs":[{"name":"id","type":"uint256","indexed":true,"internalType":"uint256"},{"name":"vault","type":"address","indexed":true,"internalType":"address"}],"anonymous":false},{"type":"event","name":"BurnDyad","inputs":[{"name":"id","type":"uint256","indexed":true,"internalType":"uint256"},{"name":"amount","type":"uint256","indexed":false,"internalType":"uint256"},{"name":"from","type":"address","indexed":true,"internalType":"address"}],"anonymous":false},{"type":"event","name":"Init","inputs":[{"name":"dNft","type":"address","indexed":false,"internalType":"address"},{"name":"dyad","type":"address","indexed":false,"internalType":"address"},{"name":"vaultLicenser","type":"address","indexed":false,"internalType":"address"}],"anonymous":false},{"type":"event","name":"Initialized","inputs":[{"name":"version","type":"uint64","indexed":false,"internalType":"uint64"}],"anonymous":false},{"type":"event","name":"Liquidate","inputs":[{"name":"id","type":"uint256","indexed":true,"internalType":"uint256"},{"name":"from","type":"address","indexed":true,"internalType":"address"},{"name":"to","type":"uint256","indexed":true,"internalType":"uint256"},{"name":"amount","type":"uint256","indexed":false,"internalType":"uint256"}],"anonymous":false},{"type":"event","name":"MintDyad","inputs":[{"name":"id","type":"uint256","indexed":true,"internalType":"uint256"},{"name":"amount","type":"uint256","indexed":false,"internalType":"uint256"},{"name":"to","type":"address","indexed":true,"internalType":"address"}],"anonymous":false},{"type":"event","name":"OwnershipTransferred","inputs":[{"name":"previousOwner","type":"address","indexed":true,"internalType":"address"},{"name":"newOwner","type":"address","indexed":true,"internalType":"address"}],"anonymous":false},{"type":"event","name":"RedeemDyad","inputs":[{"name":"id","type":"uint256","indexed":true,"internalType":"uint256"},{"name":"vault","type":"address","indexed":true,"internalType":"address"},{"name":"amount","type":"uint256","indexed":false,"internalType":"uint256"},{"name":"to","type":"address","indexed":true,"internalType":"address"}],"anonymous":false},{"type":"event","name":"Removed","inputs":[{"name":"id","type":"uint256","indexed":true,"internalType":"uint256"},{"name":"vault","type":"address","indexed":true,"internalType":"address"}],"anonymous":false},{"type":"event","name":"SetKerosene","inputs":[{"name":"kerosenseVault","type":"address","indexed":false,"internalType":"address"},{"name":"DyadXP","type":"address","indexed":false,"internalType":"address"}],"anonymous":false},{"type":"error","name":"CanNotWithdrawInSameBlock","inputs":[]},{"type":"error","name":"CrTooHigh","inputs":[]},{"type":"error","name":"CrTooLow","inputs":[]},{"type":"error","name":"InvalidDNft","inputs":[]},{"type":"error","name":"InvalidInitialization","inputs":[]},{"type":"error","name":"NotDNftVault","inputs":[]},{"type":"error","name":"NotEnoughExoCollat","inputs":[]},{"type":"error","name":"NotInitializing","inputs":[]},{"type":"error","name":"NotLicensed","inputs":[]},{"type":"error","name":"NotOwner","inputs":[]},{"type":"error","name":"OwnableInvalidOwner","inputs":[{"name":"owner","type":"address","internalType":"address"}]},{"type":"error","name":"OwnableUnauthorizedAccount","inputs":[{"name":"account","type":"address","internalType":"address"}]},{"type":"error","name":"TooManyVaults","inputs":[]},{"type":"error","name":"VaultAlreadyAdded","inputs":[]},{"type":"error","name":"VaultHasAssets","inputs":[]},{"type":"error","name":"VaultNotAdded","inputs":[]},{"type":"error","name":"VaultNotKerosene","inputs":[]},{"type":"error","name":"VaultNotLicensed","inputs":[]}],"bytecode":{"object":"0x608080604052346100165761279d908161001c8239f35b600080fdfe60806040908082526004918236101561001757600080fd5b600092833560e01c928363065941f214611604575082630f5eea91146115dc57826313661699146115b357826316ae57a31461149a57826320dc20881461139a5782632b8bbbe814611240578263468d16d01461119b5782634c3b7ee7146111785782634f510210146110ea5782635636357a146110c15782635f0f48bd14610f19578263628ab25a14610ef0578263715018a614610e8557826378d8b90714610e5c5782638da5cb5b14610e265782639c110fe114610e065782639dfa4e9414610cb05782639f0784ba146107d7578263ad0d7594146107b4578263add95a511461078b578263b6eaea171461076f578263bc157ac11461053b578263c0c53b8b14610377578263ccf2e88614610209578263d41f283c146101d9578263dd7f27a41461017f57505063f2fde38b1461015057600080fd5b3461017c57602036600319011261017c5761017961016c61163e565b61017461231c565b612273565b80f35b80fd5b909150346101d557816003193601126101d5576101cc90826020946101a2611628565b83358252928652206001600160a01b03909116600090815260019091016020526040902054151590565b90519015158152f35b8280fd5b90833461017c57602036600319011261017c57506102026101fc60209335611ff4565b9061170f565b9051908152f35b9150346101d55760603660031901126101d5576001600160a01b036044358181169380359360243593909291908683036103725760246020828a54168651928380926331a9108f60e11b82528b888301525afa908115610368578991610339575b50813391160361032a57908792916001541691823b1561032657845163020da84160e61b81529182018781526001600160a01b039091166020820152604081018690529091839183919082908490829060600103925af1801561031c57610304575b50507f7f657cc58c2af5fee5c8056bebe6de1f2e33938cd0d3f6324198849bf504d35a916020916102fc85612355565b51908152a380f35b61030d9061168c565b6103185784386102cc565b8480fd5b83513d84823e3d90fd5b8380fd5b5082516330cd747160e01b8152fd5b61035b915060203d602011610361575b61035381836116b6565b8101906116d8565b3861026a565b503d610349565b85513d8b823e3d90fd5b600080fd5b909150346101d55760603660031901126101d5576001600160a01b0390803582811690819003610318576024359280841680940361053757604435908116809103610537577ff0c57e16840df040f15088dc2f81fe391c3923bec73e23a9662efc9c229c6a0093845460ff81881c16159467ffffffffffffffff82168015908161052f575b6001149081610525575b15908161051c575b5061050e5750917f30a8e4128bc3fa00e06603623cf0308c7f04b2260d5131bde0b4d17b797d746b939160609386600167ffffffffffffffff1983161789556104ef575b5061045b612706565b610463612706565b61046c33612273565b816bffffffffffffffffffffffff60a01b84818c5416178b558281600154161760015560025416176002558751928352602083015286820152a16104ae578280f35b805468ff00000000000000001916905551600181527fc7f505b2f371ae2175ee4913f4499e1f2633a7b5936321eed1cdaeb6115181d290602090a138808280f35b68ffffffffffffffffff19166801000000000000000117875538610452565b875163f92ee8a960e01b8152fd5b9050153861040e565b303b159150610406565b8791506103fc565b8580fd5b83823461076b57606036600319011261076b57823590610559611628565b936044359260018060a01b038086541696845180986331a9108f60e11b8252848683015281602460209b8c935afa9081156106de57889161074e575b50823391160361073e578190838852600589524386892055169684516338d52e0f60e01b8152818186818c5afa9081156106de57606483928a928391610721575b50828951916323b872dd60e01b8352338a8401528d60248401528b60448401525af13d15601f3d1160018a5114161716156106e857508686973b156106da578451631c57762b60e31b81528385820152866024820152878160448183865af180156106de579088916106c6575b5050816003541680151591826106bc575b505061065e578580f35b60065416803b15610537578592836044928651978895869463f256753d60e01b865285015260248401525af19081156106b3575061069f575b808080808580f35b6106a89061168c565b61017c578082610697565b513d84823e3d90fd5b1490508880610654565b6106cf9061168c565b6106da578689610643565b8680fd5b86513d8a823e3d90fd5b8360649186519162461bcd60e51b835282015260146024820152731514905394d1915497d19493d357d1905253115160621b6044820152fd5b6107389150843d86116103615761035381836116b6565b8c6105d6565b84516330cd747160e01b81528490fd5b6107659150893d8b116103615761035381836116b6565b89610595565b5080fd5b83823461076b578160031936011261076b576020905160068152f35b83823461076b578160031936011261076b5760015490516001600160a01b039091168152602090f35b83823461076b578160031936011261076b57602090516702c68af0bb1400008152f35b83823461076b576107e736611654565b855485516331a9108f60e11b808252818a0187905260209990989496909590946001600160a01b0394939092908516908b81602481855afa908115610b9f578491610c93575b508533911603610c83578a8a60248b518094819382528a8c8301525afa908115610b1d578391610c66575b508433911603610c56578360015416803b156101d5578851634f752fb360e11b8152808801878152336020820152604081018a90529091849183919082908490829060600103925af18015610b1d578592918491610c3d575b50508851888152867f0c3afe79693a0a8b287c7976e65c25875b65e90c75f5f3679c491cf27b7c1ab28d3393a3169487516307dc0d1d60e41b81528a8183818a5afa908115610b1d578391610c20575b508851908b8284818963313ce56760e01b95868352165afa918215610b9f578492610c01575b5089516338d52e0f60e01b8152908c8285818c5afa918215610bf75791848e928995948893610bd8575b508d5195869384928352165afa918215610b9f5761098b9261098592610980928f8893610ba9575b505061174b565b61175f565b88611770565b885163d24378eb60e01b81528b8184818b5afa908115610b9f578491610b6a575b506109c090670de0b6b3a764000092611783565b04988a858454169160248b518094819382528a878301525afa908115610b1d578391610b4d575b508433911603610b3f5784825260058a52878220544314610b315783600354168015159081610b27575b50610ac5575b853b1561076b578751631cc6d2f960e31b81529081018581526001600160a01b0384166020820152604081018a90528290829081906060010381838a5af18015610abb57908a939291610aa1575b5050917fca70a9c93e1c3bc9192e8a6c70bf383ab46895bade3f9498e048cb1cdac8a1d292610a9385612355565b87519687521694a451908152f35b81929350610aae9061168c565b61017c5790818992610a65565b88513d84823e3d90fd5b8360065416803b156101d55782809160448c8c5194859384926305978fdb60e31b84528c8985015260248401525af18015610b1d57908391610b09575b5050610a17565b610b129061168c565b61076b57818b610b02565b89513d85823e3d90fd5b905086148b610a11565b87516306f5c2d560e31b8152fd5b87516330cd747160e01b8152fd5b610b6491508b3d8d116103615761035381836116b6565b8b6109e7565b90508b81813d8311610b98575b610b8181836116b6565b810103126103725751670de0b6b3a76400006109ac565b503d610b77565b8a513d86823e3d90fd5b610bc9929350803d10610bd1575b610bc181836116b6565b810190611732565b908f8f610979565b503d610bb7565b610bf0919350843d86116103615761035381836116b6565b9138610951565b8b513d87823e3d90fd5b610c199192508c8d3d10610bd157610bc181836116b6565b908c610927565b610c3791508b3d8d116103615761035381836116b6565b8b610901565b610c499192935061168c565b61076b578390828c6108b1565b87516330cd747160e01b81528690fd5b610c7d91508b3d8d116103615761035381836116b6565b8b610858565b88516330cd747160e01b81528790fd5b610caa91508c8d3d106103615761035381836116b6565b8c61082d565b909150346101d557816003193601126101d557803590610cce611628565b9260018060a01b038086541694825180966331a9108f60e11b825286868301528160246020998a935afa908115610dfc578891610ddf575b508233911603610dd05716938151633b495b5560e11b815284848201528181602481895afa908115610dc6578791610d99575b50610d8b57829084875252610d5084828720612616565b15610d7e5750507f0d141fd7c77072fc48765e24d85a4727dc79f72cbb320ad2ba944e2914a51e6d8380a380f35b5163d3e232b360e01b8152fd5b50516314e93e6d60e21b8152fd5b90508181813d8311610dbf575b610db081836116b6565b81010312610372575138610d39565b503d610da6565b83513d89823e3d90fd5b5050516330cd747160e01b8152fd5b610df69150873d89116103615761035381836116b6565b38610d06565b84513d8a823e3d90fd5b90833461017c57602036600319011261017c5750610202602092356121da565b83823461076b578160031936011261076b576000805160206127488339815191525490516001600160a01b039091168152602090f35b83823461076b578160031936011261076b5760065490516001600160a01b039091168152602090f35b833461017c578060031936011261017c57610e9e61231c565b60008051602061274883398151915280546001600160a01b031981169091556000906001600160a01b03167f8be0079c531659141344cd1fd0a4f28419497f9722a3daafe3b4186f6b6457e08280a380f35b833461017c57602036600319011261017c5750610f0d9035611ff4565b82519182526020820152f35b83903461076b57610f2936611654565b855487516331a9108f60e11b8152808701869052939794959294936001600160a01b03916020908290602490829086165afa9081156110b7578891611098575b5081339116036110885785875260056020528387205443146110785786978160039897985416801515908161106c575b50611010575b16803b15610537578351631cc6d2f960e31b81529283018781526001600160a01b03909216602083015260408201949094529092849184919082908490829060600103925af19081156106b35750610ffc575b5061017982612355565b6110059061168c565b61076b578183610ff2565b8160065416803b156110685787809160448b895194859384926305978fdb60e31b84528b8401528c60248401525af180156106de57908891611054575b5050610f9f565b61105d9061168c565b6106da57868a61104d565b8780fd5b9050828216148a610f99565b83516306f5c2d560e31b81528390fd5b83516330cd747160e01b81528390fd5b6110b1915060203d6020116103615761035381836116b6565b89610f69565b85513d8a823e3d90fd5b83823461076b578160031936011261076b5760035490516001600160a01b039091168152602090f35b83823461076b578060031936011261076b5761110461163e565b906024356001600160a01b0381811691829003610318577f3f923834409b4bbded464fd34cc2a3612a9c433dcf2a7dc83b11ff7b5bf7b32a9361114561231c565b1690806bffffffffffffffffffffffff60a01b83816003541617600355600654161760065582519182526020820152a180f35b83823461076b578160031936011261076b57602090516714d1120d7b1600008152f35b833461017c576020918260031936011261076b57809392933582528352818120908251808584549182815201908194845286842090845b81811061122c57505050816111e89103826116b6565b83519485948186019282875251809352850193925b82811061120c57505050500390f35b83516001600160a01b0316855286955093810193928101926001016111fd565b8254845292880192600192830192016111d2565b909150346101d557816003193601126101d55780359061125e611628565b9260018060a01b038086541690825180926331a9108f60e11b8252868683015281602460209586935afa908115610dfc57889161137d575b508133911603610dd057818160025416966024855180948193632950b0a960e21b835216998a898301525afa908115610dc6578791611350575b5015611342578386528281526006828720541015611335578290848752526112fa848287206125a3565b156113285750507f8ba5cdc385bc6c37c9a05ad09fbc238589c43602f4cee09c46856027df8a935a8380a380f35b51630cb3e97f60e31b8152fd5b505162c9312160e41b8152fd5b50516301418aa760e71b8152fd5b6113709150823d8411611376575b61136881836116b6565b8101906116f7565b386112d0565b503d61135e565b6113949150833d85116103615761035381836116b6565b38611296565b83823461076b57606036600319011261076b578235906024359060018060a01b03808554168251906331a9108f60e11b80835286898401526020928381602481865afa908115611490579085918a91611473575b50161561146357829060248651809481938252898d8301525afa91821561145957879261143c575b5050161561142d57509061017991604435916117a3565b51634ab600f960e11b81528490fd5b6114529250803d106103615761035381836116b6565b8780611416565b84513d89823e3d90fd5b8451634ab600f960e11b81528990fd5b61148a9150853d87116103615761035381836116b6565b8b6113ee565b86513d8b823e3d90fd5b9150346101d557806003193601126101d5578135906024359260018060a01b0360246020828854168551928380926331a9108f60e11b825289888301525afa908115611459578791611594575b5081339116036115855785906001541691823b1561076b578351634f752fb360e11b8152908101858152336020820152604081018790529092839182908490829060600103925af1801561157b57611568575b50519182527f0c3afe79693a0a8b287c7976e65c25875b65e90c75f5f3679c491cf27b7c1ab260203393a380f35b6115749094919461168c565b923861153a565b82513d87823e3d90fd5b5090516330cd747160e01b8152fd5b6115ad915060203d6020116103615761035381836116b6565b386114e7565b83823461076b578160031936011261076b5760025490516001600160a01b039091168152602090f35b83823461076b578160031936011261076b57905490516001600160a01b039091168152602090f35b92503461032657602036600319011261032657926020933581526005845220548152f35b602435906001600160a01b038216820361037257565b600435906001600160a01b038216820361037257565b608090600319011261037257600435906001600160a01b03602435818116810361037257916044359160643590811681036103725790565b67ffffffffffffffff81116116a057604052565b634e487b7160e01b600052604160045260246000fd5b90601f8019910116810190811067ffffffffffffffff8211176116a057604052565b9081602091031261037257516001600160a01b03811681036103725790565b90816020910312610372575180151581036103725790565b9190820180921161171c57565b634e487b7160e01b600052601160045260246000fd5b90816020910312610372575160ff811681036103725790565b9060ff8091169116019060ff821161171c57565b60ff16604d811161171c57600a0a90565b8181029291811591840414171561171c57565b811561178d570490565b634e487b7160e01b600052601260045260246000fd5b9190916117af816121da565b6714d1120d7b160000811015611fe3576001546040516302d14bb360e31b81526004810184905260009290916001600160a01b0316602083602481845afa928315611fa4578493611faf575b50803b1561032657604051634f752fb360e11b815260048101869052336024820152604481018790529084908290606490829084905af18015611fa457611f91575b5085835260056020524360408420556118586101fc85611ff4565b908115611f88578484526004602052604084205492845b8481106118aa575050505050506040519182527fd47e75cd6a3c0e59e63919b525eb69ce3bfd7f8de011363e440f2c58273f74d960203393a4565b86865260046020526118bf816040882061254c565b9054600254604051632950b0a960e21b81526001600160a01b03600385901b84901c81166004830152909160209183916024918391165afa908115611f5e578991611f69575b50611917575b50506001905b0161186f565b60405163039bc4f160e11b8152600481018a9052602081602481600387901b86901c6001600160a01b03165afa908115611f5e578991611f2c575b508015611f21576710a741a462780000861080611f17575b15611c9c5750670de0b6b3a7640000851015611c9657670de0b6b3a76400005b670de0b6b3a763ffff198101818111611c7e576702c68af0bb14000090785c3bd5191b525a2484df7f5cfd6a43e17fc6f80abedcc69ba78111820215670de0b6b3a76400000215611c925790670de0b6b3a7640000910204670de0b6b3a764000081018111611c7e5790670de0b6b3a7640000611a0792016122e7565b604051633b495b5560e11b8152600481018b905290602082602481600388901b87901c6001600160a01b03165afa8015611bc0578a90611c4a575b611a4c925061257a565b8a6000190481118b0215670de0b6b3a764000002156103725784670de0b6b3a76400008c611a7b9302046122e7565b915b6003546001600160a01b03168015159081611c30575b50611bcb575b600381901b82901c6001600160a01b03163b15611bbc5760405163fa7c9bcf60e01b8152600481018b9052602481018d905260448101849052898160648183600387901b88901c6001600160a01b03165af18015611bc057908a91611ba8575b50506003546001600160a01b03168015159290919083611b8d575b505050611b22575b8061190b565b6006546001600160a01b031690813b1561106857879060448c83604051958694859363f256753d60e01b8552600485015260248401525af18015611b8257908791611b6e575b50611b1c565b611b779061168c565b610537578538611b68565b6040513d89823e3d90fd5b60039190911b1c6001600160a01b0316149050388080611b14565b611bb19061168c565b611bbc578838611af9565b8880fd5b6040513d8c823e3d90fd5b6006546001600160a01b0316803b15611c2c5789809160448d60405194859384926305978fdb60e31b845260048401528960248401525af18015611bc057908a91611c18575b5050611a99565b611c219061168c565b611bbc578838611c11565b8980fd5b600383901b84901c6001600160a01b031614905038611a93565b506020823d602011611c76575b81611c64602093836116b6565b8101031261037257611a4c9151611a42565b3d9150611c57565b634e487b7160e01b8a52601160045260248afd5b8a80fd5b8461198a565b611caf8b611caa89846122e7565b61257a565b611cb9868d6122e7565b785c3bd5191b525a2484df7f5cfd6a43e17fc6f80abedcc69ba781116702c68af0bb1400000215670de0b6b3a76400000215611c9257906101fc670de0b6b3a76400006702c68af0bb140000611d119402048261257a565b81811115611f1057505b6040516307dc0d1d60e41b8152602081600481600388901b87901c6001600160a01b03165afa908115611bc0576004916020918c91611ef3575b5060405163313ce56760e01b815292839182906001600160a01b03165afa908115611bc0578a91611ed4575b506040516338d52e0f60e01b8152602081600481600389901b88901c6001600160a01b03165afa908115611eac57600492916020918d91611eb7575b5060405163313ce56760e01b815293849182906001600160a01b03165afa918215611eac57611e029392611dfc92610980928e92611e8b575b5061174b565b90611770565b60405163d24378eb60e01b8152602081600481600388901b87901c6001600160a01b03165afa908115611bc0578a91611e51575b50611e4a90670de0b6b3a764000092611783565b0491611a7d565b90506020813d602011611e83575b81611e6c602093836116b6565b810103126103725751670de0b6b3a7640000611e36565b3d9150611e5f565b611ea591925060203d602011610bd157610bc181836116b6565b9038611df6565b6040513d8d823e3d90fd5b611ece9150823d84116103615761035381836116b6565b38611dbd565b611eed915060203d602011610bd157610bc181836116b6565b38611d81565b611f0a9150823d84116103615761035381836116b6565b38611d55565b9050611d1b565b508a85141561196a565b505050600190611911565b90506020813d602011611f56575b81611f47602093836116b6565b81010312610372575138611952565b3d9150611f3a565b6040513d8b823e3d90fd5b611f82915060203d6020116113765761136881836116b6565b38611905565b50505050505050565b611f9d9093919361168c565b913861183d565b6040513d86823e3d90fd5b9092506020813d602011611fdb575b81611fcb602093836116b6565b81010312610326575191386117fb565b3d9150611fbe565b60405162bcccdd60e31b8152600490fd5b6000916000809280825260049160208381526040928383205494839060018060a01b038060025416925b88811061203057505050505050505050565b84875282865281612043828a8a2061254c565b90549060031b1c16885190632950b0a960e21b82528085830152602491888184818a5afa9081156121b3578a916121bd575b50612085575b505060010161201e565b89516369cbf52d60e11b8152858101829052929c92888184818a5afa9081156121b3578a91612196575b501561212a5787908a519283809263039bc4f160e11b82528a898301525afa9081156121205788916120f2575b506120e99060019261170f565b9a5b903861207b565b90508681813d8311612119575b61210981836116b6565b81010312611068575160016120dc565b503d6120ff565b89513d8a823e3d90fd5b87908a9e939d9e519283809263039bc4f160e11b82528a898301525afa908115612120578891612168575b506121629060019261170f565b9b6120eb565b90508681813d831161218f575b61217f81836116b6565b8101031261106857516001612155565b503d612175565b6121ad9150893d8b116113765761136881836116b6565b386120af565b8b513d8c823e3d90fd5b6121d49150893d8b116113765761136881836116b6565b38612075565b6001546040516302d14bb360e31b8152600481018390529190602090839060249082906001600160a01b03165afa91821561226757600092612231575b50906122286101fc61222e93611ff4565b90612508565b90565b91506020823d60201161225f575b8161224c602093836116b6565b8101031261037257905190612228612217565b3d915061223f565b6040513d6000823e3d90fd5b6001600160a01b039081169081156122ce5760008051602061274883398151915280546001600160a01b031981168417909155167f8be0079c531659141344cd1fd0a4f28419497f9722a3daafe3b4186f6b6457e0600080a3565b604051631e4fbdf760e01b815260006004820152602490fd5b670de0b6b3a7640000907812725dd1d243aba0e75fe645cc4873f9e65afe688c928e1f21811182021583021561037257020490565b600080516020612748833981519152546001600160a01b0316330361233d57565b60405163118cdaa760e01b8152336004820152602490fd5b61235e81611ff4565b600154604080516302d14bb360e31b815260048101959095529392906020908190859060249082906001600160a01b03165afa9384156124fd576000946124ce575b508382106124bd5784516060810181811067ffffffffffffffff8211176116a0578652602b81527f65786f56616c75653a2025642c206b65726f56616c75653a2025642c206d696e828201526a1d1959111e58590e88095960aa1b868201528551908282019263a7a8785360e01b8452608060248401528151918260a485015260005b8381106124a95750505092600080612228948461247b60c4828a86836714d1120d7b1600009f9d6124919f9c0101528860448301528960648301528b6084830152601f801991011681010360a48101845201826116b6565b51906a636f6e736f6c652e6c6f675afa5061170f565b106124995750565b5163206d2abd60e11b8152600490fd5b81810183015185820160c401528201612423565b8451633269bd2960e21b8152600490fd5b90938482813d83116124f6575b6124e581836116b6565b8101031261017c57505192386123a0565b503d6124db565b85513d6000823e3d90fd5b90811561254457670de0b6b3a7640000907812725dd1d243aba0e75fe645cc4873f9e65afe688c928e1f21811182021583021561037257020490565b505060001990565b80548210156125645760005260206000200190600090565b634e487b7160e01b600052603260045260246000fd5b90670de0b6b3a76400009181600019048111820215830215610372570290808204910615150190565b600082815260018201602052604090205461260f57805490680100000000000000008210156116a057826125f86125e184600180960185558461254c565b819391549060031b91821b91600019901b19161790565b905580549260005201602052604060002055600190565b5050600090565b906001820190600092818452826020526040842054908115156000146126ff57600019918083018181116126eb578254908482019182116126d7578181036126a2575b5050508054801561268e57820191612671838361254c565b909182549160031b1b191690555582526020526040812055600190565b634e487b7160e01b86526031600452602486fd5b6126c26126b26125e1938661254c565b90549060031b1c9283928661254c565b90558652846020526040862055388080612659565b634e487b7160e01b88526011600452602488fd5b634e487b7160e01b87526011600452602487fd5b5050505090565b60ff7ff0c57e16840df040f15088dc2f81fe391c3923bec73e23a9662efc9c229c6a005460401c161561273557565b604051631afcd79f60e31b8152600490fdfe9016d09d72d40fdae2fd8ceac6b6234c7706214fd39c1cd1e609a0528c199300a2646970667358221220629faec8871f958348bd55ed2083367010856761a0e83912180000875a884be264736f6c63430008180033","linkReferences":{}},"methodIdentifiers":{"LIQUIDATION_REWARD()":"ad0d7594","MAX_VAULTS()":"b6eaea17","MIN_COLLAT_RATIO()":"4c3b7ee7","add(uint256,address)":"2b8bbbe8","burnDyad(uint256,uint256)":"16ae57a3","collatRatio(uint256)":"9c110fe1","dNft()":"0f5eea91","deposit(uint256,address,uint256)":"bc157ac1","dyad()":"add95a51","dyadXP()":"78d8b907","getTotalValue(uint256)":"d41f283c","getVaults(uint256)":"468d16d0","getVaultsValues(uint256)":"628ab25a","hasVault(uint256,address)":"dd7f27a4","initialize(address,address,address)":"c0c53b8b","keroseneVault()":"5636357a","lastDeposit(uint256)":"065941f2","liquidate(uint256,uint256,uint256)":"20dc2088","mintDyad(uint256,uint256,address)":"ccf2e886","owner()":"8da5cb5b","redeemDyad(uint256,address,uint256,address)":"9f0784ba","remove(uint256,address)":"9dfa4e94","renounceOwnership()":"715018a6","setKerosene(address,address)":"4f510210","transferOwnership(address)":"f2fde38b","vaultLicenser()":"13661699","withdraw(uint256,address,uint256,address)":"5f0f48bd"},"id":11}