{
  "_format": "hh-sol-artifact-1",
  "contractName": "DyadUpgradeable",
  "sourceName": "contracts/core/DyadUpgradeable.sol",
  "abi": [
    {
      "inputs": [
        {
          "internalType": "address",
          "name": "spender",
          "type": "address"
        },
        {
          "internalType": "uint256",
          "name": "allowance",
          "type": "uint256"
        },
        {
          "internalType": "uint256",
          "name": "needed",
          "type": "uint256"
        }
      ],
      "name": "ERC20InsufficientAllowance",
      "type": "error"
    },
    {
      "inputs": [
        {
          "internalType": "address",
          "name": "sender",
          "type": "address"
        },
        {
          "internalType": "uint256",
          "name": "balance",
          "type": "uint256"
        },
        {
          "internalType": "uint256",
          "name": "needed",
          "type": "uint256"
        }
      ],
      "name": "ERC20InsufficientBalance",
      "type": "error"
    },
    {
      "inputs": [
        {
          "internalType": "address",
          "name": "approver",
          "type": "address"
        }
      ],
      "name": "ERC20InvalidApprover",
      "type": "error"
    },
    {
      "inputs": [
        {
          "internalType": "address",
          "name": "receiver",
          "type": "address"
        }
      ],
      "name": "ERC20InvalidReceiver",
      "type": "error"
    },
    {
      "inputs": [
        {
          "internalType": "address",
          "name": "sender",
          "type": "address"
        }
      ],
      "name": "ERC20InvalidSender",
      "type": "error"
    },
    {
      "inputs": [
        {
          "internalType": "address",
          "name": "spender",
          "type": "address"
        }
      ],
      "name": "ERC20InvalidSpender",
      "type": "error"
    },
    {
      "inputs": [],
      "name": "InvalidInitialization",
      "type": "error"
    },
    {
      "inputs": [],
      "name": "NotInitializing",
      "type": "error"
    },
    {
      "inputs": [],
      "name": "NotLicensed",
      "type": "error"
    },
    {
      "anonymous": false,
      "inputs": [
        {
          "indexed": true,
          "internalType": "address",
          "name": "owner",
          "type": "address"
        },
        {
          "indexed": true,
          "internalType": "address",
          "name": "spender",
          "type": "address"
        },
        {
          "indexed": false,
          "internalType": "uint256",
          "name": "value",
          "type": "uint256"
        }
      ],
      "name": "Approval",
      "type": "event"
    },
    {
      "anonymous": false,
      "inputs": [
        {
          "indexed": false,
          "internalType": "uint64",
          "name": "version",
          "type": "uint64"
        }
      ],
      "name": "Initialized",
      "type": "event"
    },
    {
      "anonymous": false,
      "inputs": [
        {
          "indexed": true,
          "internalType": "address",
          "name": "from",
          "type": "address"
        },
        {
          "indexed": true,
          "internalType": "address",
          "name": "to",
          "type": "address"
        },
        {
          "indexed": false,
          "internalType": "uint256",
          "name": "value",
          "type": "uint256"
        }
      ],
      "name": "Transfer",
      "type": "event"
    },
    {
      "inputs": [
        {
          "internalType": "address",
          "name": "owner",
          "type": "address"
        },
        {
          "internalType": "address",
          "name": "spender",
          "type": "address"
        }
      ],
      "name": "allowance",
      "outputs": [
        {
          "internalType": "uint256",
          "name": "",
          "type": "uint256"
        }
      ],
      "stateMutability": "view",
      "type": "function"
    },
    {
      "inputs": [
        {
          "internalType": "address",
          "name": "spender",
          "type": "address"
        },
        {
          "internalType": "uint256",
          "name": "value",
          "type": "uint256"
        }
      ],
      "name": "approve",
      "outputs": [
        {
          "internalType": "bool",
          "name": "",
          "type": "bool"
        }
      ],
      "stateMutability": "nonpayable",
      "type": "function"
    },
    {
      "inputs": [
        {
          "internalType": "address",
          "name": "account",
          "type": "address"
        }
      ],
      "name": "balanceOf",
      "outputs": [
        {
          "internalType": "uint256",
          "name": "",
          "type": "uint256"
        }
      ],
      "stateMutability": "view",
      "type": "function"
    },
    {
      "inputs": [
        {
          "internalType": "uint256",
          "name": "id",
          "type": "uint256"
        },
        {
          "internalType": "address",
          "name": "from",
          "type": "address"
        },
        {
          "internalType": "uint256",
          "name": "amount",
          "type": "uint256"
        }
      ],
      "name": "burn",
      "outputs": [],
      "stateMutability": "nonpayable",
      "type": "function"
    },
    {
      "inputs": [],
      "name": "decimals",
      "outputs": [
        {
          "internalType": "uint8",
          "name": "",
          "type": "uint8"
        }
      ],
      "stateMutability": "view",
      "type": "function"
    },
    {
      "inputs": [
        {
          "internalType": "contract Licenser",
          "name": "_licenser",
          "type": "address"
        }
      ],
      "name": "initialize",
      "outputs": [],
      "stateMutability": "nonpayable",
      "type": "function"
    },
    {
      "inputs": [],
      "name": "licenser",
      "outputs": [
        {
          "internalType": "contract Licenser",
          "name": "",
          "type": "address"
        }
      ],
      "stateMutability": "view",
      "type": "function"
    },
    {
      "inputs": [
        {
          "internalType": "uint256",
          "name": "id",
          "type": "uint256"
        },
        {
          "internalType": "address",
          "name": "to",
          "type": "address"
        },
        {
          "internalType": "uint256",
          "name": "amount",
          "type": "uint256"
        }
      ],
      "name": "mint",
      "outputs": [],
      "stateMutability": "nonpayable",
      "type": "function"
    },
    {
      "inputs": [
        {
          "internalType": "uint256",
          "name": "",
          "type": "uint256"
        }
      ],
      "name": "mintedDyad",
      "outputs": [
        {
          "internalType": "uint256",
          "name": "",
          "type": "uint256"
        }
      ],
      "stateMutability": "view",
      "type": "function"
    },
    {
      "inputs": [],
      "name": "name",
      "outputs": [
        {
          "internalType": "string",
          "name": "",
          "type": "string"
        }
      ],
      "stateMutability": "view",
      "type": "function"
    },
    {
      "inputs": [],
      "name": "symbol",
      "outputs": [
        {
          "internalType": "string",
          "name": "",
          "type": "string"
        }
      ],
      "stateMutability": "view",
      "type": "function"
    },
    {
      "inputs": [],
      "name": "totalSupply",
      "outputs": [
        {
          "internalType": "uint256",
          "name": "",
          "type": "uint256"
        }
      ],
      "stateMutability": "view",
      "type": "function"
    },
    {
      "inputs": [
        {
          "internalType": "address",
          "name": "to",
          "type": "address"
        },
        {
          "internalType": "uint256",
          "name": "value",
          "type": "uint256"
        }
      ],
      "name": "transfer",
      "outputs": [
        {
          "internalType": "bool",
          "name": "",
          "type": "bool"
        }
      ],
      "stateMutability": "nonpayable",
      "type": "function"
    },
    {
      "inputs": [
        {
          "internalType": "address",
          "name": "from",
          "type": "address"
        },
        {
          "internalType": "address",
          "name": "to",
          "type": "address"
        },
        {
          "internalType": "uint256",
          "name": "value",
          "type": "uint256"
        }
      ],
      "name": "transferFrom",
      "outputs": [
        {
          "internalType": "bool",
          "name": "",
          "type": "bool"
        }
      ],
      "stateMutability": "nonpayable",
      "type": "function"
    }
  ],
  "bytecode": "0x6080806040523461001657610f28908161001c8239f35b600080fdfe608060408181526004918236101561001657600080fd5b600092833560e01c91826306fdde0314610ab957508163095ea7b314610a10578163168a5d98146109e857816318160ddd146109bc57816323b872dd146108d5578163313ce567146108b957816370a0823114610874578163836a10401461075c57816395d89b411461068d5781639eea5f661461052c578163a9059cbb146104fb578163c4d66de81461012f57508063dd62ed3e146100e95763f790d78f146100bf57600080fd5b346100e557816003193601126100e557905490516001600160a01b039091168152602090f35b5080fd5b50346100e557806003193601126100e55780602092610106610bc0565b610117610111610bdb565b91610ca9565b6001600160a01b039091168252845220549051908152f35b919050346104f757602090816003193601126104f35782356001600160a01b03811693908490036104ef57600080516020610ed38339815191528054909481841c60ff16159290916001600160401b0390818116801590816104e7575b60011490816104dd575b1590816104d4575b506104c4576001600160401b031981166001178855846104a9575b508451916101c683610c55565b600b83526a4459414420537461626c6560a81b878401528551926101e984610c55565b818452631116505160e21b88850152610200610e03565b610208610e03565b80518381116104965780600080516020610e338339815191529261022c8454610c1b565b601f8111610445575b508a908d601f84116001146103e257926103d7575b50508160011b916000199060031b1c19161790555b82519182116103c4575080600080516020610e73833981519152926102848454610c1b565b601f8111610376575b508790601f8311600114610313578a92610308575b50508160011b916000199060031b1c19161790555b85546001600160a01b0319161785556102ce578380f35b7fc7f505b2f371ae2175ee4913f4499e1f2633a7b5936321eed1cdaeb6115181d29260ff60401b1981541690555160018152a13880808380f35b0151905038806102a2565b848b52888b209250601f1984168b5b8a828210610360575050908460019594939210610347575b505050811b0190556102b7565b015160001960f88460031b161c1916905538808061033a565b6001859682939686015181550195019301610322565b909150838a52878a20601f840160051c8101918985106103ba575b90601f859493920160051c01905b8181106103ac575061028d565b8b815584935060010161039f565b9091508190610391565b634e487b7160e01b895260419052602488fd5b01519050388061024a565b8581528c81209350601f198516905b8d82821061042f575050908460019594939210610416575b505050811b01905561025f565b015160001960f88460031b161c19169055388080610409565b60018596829396860151815501950193016103f1565b909150838d528a8d20601f840160051c8101918c851061048c575b849392918f91601f0160051c0191905b82821061047e575050610235565b81558493506001018e610470565b9091508190610460565b634e487b7160e01b8b526041835260248bfd5b6001600160481b0319166001600160401b01178755386101b9565b855163f92ee8a960e01b81528390fd5b9050153861019e565b303b159150610196565b86915061018c565b8480fd5b8380fd5b8280fd5b5050346100e557806003193601126100e55760209061052561051b610bc0565b6024359033610d3b565b5160018152f35b9050346104f75761053c36610bf1565b939160018060a01b0391828754169284518094632950b0a960e21b8252338883015281602460209788935afa908115610683578991610656575b501561064657811690811561062f57818852600080516020610e53833981519152808552858920549188831061060f575091878992600196959483855286520386832055600080516020610e93833981519152888154039055600080516020610eb38339815191528487518a8152a386525283209081549283039283116105fc57505580f35b634e487b7160e01b845260119052602483fd5b8761062b8a858a5194859463391434e360e21b86528501610d1d565b0390fd5b8451634b637e8f60e11b8152808701899052602490fd5b84516396dcc1ef60e01b81528690fd5b6106769150853d871161067c575b61066e8183610c86565b810190610ce2565b38610576565b503d610664565b86513d8b823e3d90fd5b5050346100e557816003193601126100e55780519082600080516020610e738339815191529081546106be81610c1b565b9182865260209360019260018116908160001461073857506001146106fd575b6106f987876106ef828c0383610c86565b5191829182610b77565b0390f35b9080949750528583205b82841061072557505050826106f9946106ef928201019438806106de565b8054868501880152928601928101610707565b60ff19168887015250505050151560051b83010192506106ef826106f938806106de565b919050346104f75761076d36610bf1565b85548451632950b0a960e21b8152338188015291956020949390926001600160a01b039286908290602490829087165afa90811561086a57899161084d575b501561083d57169081156108265750916001916108219493600080516020610e938339815191526107de888254610cfa565b9055808852600080516020610e53833981519152835284882087815401905587600080516020610eb38339815191528487518a8152a38652528320918254610cfa565b905580f35b845163ec442f0560e01b8152908101879052602490fd5b85516396dcc1ef60e01b81528390fd5b6108649150863d881161067c5761066e8183610c86565b386107ac565b87513d8b823e3d90fd5b5050346100e55760203660031901126100e55760209181906001600160a01b0361089c610bc0565b168152600080516020610e53833981519152845220549051908152f35b5050346100e557816003193601126100e5576020905160128152f35b905082346109b95760603660031901126109b9576108f1610bc0565b6108f9610bdb565b916044359361090783610ca9565b338352602052858220549060018201610929575b602087610525888888610d3b565b85821061099d576001600160a01b0384161561098657331561096f57509161052593918686602098979561095c85610ca9565b3385528a5203912055919394819361091b565b8651634a1406b160e11b8152908101839052602490fd5b865163e602df0560e01b8152908101839052602490fd5b61062b868851938493637dc7a0d960e11b855233908501610d1d565b80fd5b5050346100e557816003193601126100e557602090600080516020610e93833981519152549051908152f35b9050346104f75760203660031901126104f75760209282913581526001845220549051908152f35b9050346104f757816003193601126104f757610a2a610bc0565b602435903315610aa2576001600160a01b0316918215610a8b57508083602095610a5333610ca9565b8582528752205582519081527f8c5be1e5ebec7d5bd14f71427d1e84f3dd0314c0f7b2291e5b200ac8c7c3b925843392a35160018152f35b8351634a1406b160e11b8152908101859052602490fd5b835163e602df0560e01b8152808401869052602490fd5b849084346104f757826003193601126104f75782600080516020610e33833981519152908154610ae881610c1b565b91828652602093600192600181169081600014610b535750600114610b18576106f987876106ef828c0383610c86565b9080949750528583205b828410610b4057505050826106f9946106ef928201019486806106de565b8054868501880152928601928101610b22565b60ff19168887015250505050151560051b83010192506106ef826106f986806106de565b6020808252825181830181905290939260005b828110610bac57505060409293506000838284010152601f8019910116010190565b818101860151848201604001528501610b8a565b600435906001600160a01b0382168203610bd657565b600080fd5b602435906001600160a01b0382168203610bd657565b6060906003190112610bd657600435906024356001600160a01b0381168103610bd6579060443590565b90600182811c92168015610c4b575b6020831014610c3557565b634e487b7160e01b600052602260045260246000fd5b91607f1691610c2a565b604081019081106001600160401b03821117610c7057604052565b634e487b7160e01b600052604160045260246000fd5b601f909101601f19168101906001600160401b03821190821017610c7057604052565b6001600160a01b031660009081527f52c63247e1f47db19d5ce0460030c497f067ca4cebf71ba98eeadabe20bace016020526040902090565b90816020910312610bd657518015158103610bd65790565b91908201809211610d0757565b634e487b7160e01b600052601160045260246000fd5b604091949392606082019560018060a01b0316825260208201520152565b916001600160a01b03808416928315610dea5716928315610dd157600090838252600080516020610e5383398151915280602052604083205491848310610db257508284600080516020610eb3833981519152959360409388602097528652038282205586815220818154019055604051908152a3565b905061062b8460405193849363391434e360e21b855260048501610d1d565b60405163ec442f0560e01b815260006004820152602490fd5b604051634b637e8f60e11b815260006004820152602490fd5b60ff600080516020610ed38339815191525460401c1615610e2057565b604051631afcd79f60e31b8152600490fdfe52c63247e1f47db19d5ce0460030c497f067ca4cebf71ba98eeadabe20bace0352c63247e1f47db19d5ce0460030c497f067ca4cebf71ba98eeadabe20bace0052c63247e1f47db19d5ce0460030c497f067ca4cebf71ba98eeadabe20bace0452c63247e1f47db19d5ce0460030c497f067ca4cebf71ba98eeadabe20bace02ddf252ad1be2c89b69c2b068fc378daa952ba7f163c4a11628f55a4df523b3eff0c57e16840df040f15088dc2f81fe391c3923bec73e23a9662efc9c229c6a00a2646970667358221220e55cd8405700b9ecc9e973a72e155d4217b012a87007a7c8175d1094f7a343d164736f6c63430008180033",
  "linkReferences": {},
  "deployedLinkReferences": {}
}