{
  "_format": "hh-sol-artifact-1",
  "contractName": "DyadXP",
  "sourceName": "contracts/staking/DyadXP.sol",
  "abi": [
    {
      "inputs": [
        {
          "internalType": "address",
          "name": "vaultManager",
          "type": "address"
        },
        {
          "internalType": "address",
          "name": "keroseneVault",
          "type": "address"
        },
        {
          "internalType": "address",
          "name": "dnft",
          "type": "address"
        }
      ],
      "stateMutability": "nonpayable",
      "type": "constructor"
    },
    {
      "inputs": [],
      "name": "ApproveNotAllowed",
      "type": "error"
    },
    {
      "inputs": [],
      "name": "InvalidInitialization",
      "type": "error"
    },
    {
      "inputs": [],
      "name": "NotInitializing",
      "type": "error"
    },
    {
      "inputs": [],
      "name": "NotVaultManager",
      "type": "error"
    },
    {
      "inputs": [
        {
          "internalType": "address",
          "name": "owner",
          "type": "address"
        }
      ],
      "name": "OwnableInvalidOwner",
      "type": "error"
    },
    {
      "inputs": [
        {
          "internalType": "address",
          "name": "account",
          "type": "address"
        }
      ],
      "name": "OwnableUnauthorizedAccount",
      "type": "error"
    },
    {
      "inputs": [],
      "name": "TransferNotAllowed",
      "type": "error"
    },
    {
      "anonymous": false,
      "inputs": [
        {
          "indexed": true,
          "internalType": "address",
          "name": "owner",
          "type": "address"
        },
        {
          "indexed": true,
          "internalType": "address",
          "name": "spender",
          "type": "address"
        },
        {
          "indexed": false,
          "internalType": "uint256",
          "name": "value",
          "type": "uint256"
        }
      ],
      "name": "Approval",
      "type": "event"
    },
    {
      "anonymous": false,
      "inputs": [
        {
          "indexed": false,
          "internalType": "uint64",
          "name": "version",
          "type": "uint64"
        }
      ],
      "name": "Initialized",
      "type": "event"
    },
    {
      "anonymous": false,
      "inputs": [
        {
          "indexed": true,
          "internalType": "address",
          "name": "previousOwner",
          "type": "address"
        },
        {
          "indexed": true,
          "internalType": "address",
          "name": "newOwner",
          "type": "address"
        }
      ],
      "name": "OwnershipTransferred",
      "type": "event"
    },
    {
      "anonymous": false,
      "inputs": [
        {
          "indexed": true,
          "internalType": "address",
          "name": "from",
          "type": "address"
        },
        {
          "indexed": true,
          "internalType": "address",
          "name": "to",
          "type": "address"
        },
        {
          "indexed": false,
          "internalType": "uint256",
          "name": "value",
          "type": "uint256"
        }
      ],
      "name": "Transfer",
      "type": "event"
    },
    {
      "inputs": [],
      "name": "DNFT",
      "outputs": [
        {
          "internalType": "contract IERC721Enumerable",
          "name": "",
          "type": "address"
        }
      ],
      "stateMutability": "view",
      "type": "function"
    },
    {
      "inputs": [],
      "name": "KEROSENE",
      "outputs": [
        {
          "internalType": "contract ERC20",
          "name": "",
          "type": "address"
        }
      ],
      "stateMutability": "view",
      "type": "function"
    },
    {
      "inputs": [],
      "name": "KEROSENE_VAULT",
      "outputs": [
        {
          "internalType": "contract IVault",
          "name": "",
          "type": "address"
        }
      ],
      "stateMutability": "view",
      "type": "function"
    },
    {
      "inputs": [],
      "name": "VAULT_MANAGER",
      "outputs": [
        {
          "internalType": "contract IVaultManager",
          "name": "",
          "type": "address"
        }
      ],
      "stateMutability": "view",
      "type": "function"
    },
    {
      "inputs": [
        {
          "internalType": "uint256",
          "name": "noteId",
          "type": "uint256"
        },
        {
          "internalType": "uint256",
          "name": "amountDeposited",
          "type": "uint256"
        }
      ],
      "name": "afterKeroseneDeposited",
      "outputs": [],
      "stateMutability": "nonpayable",
      "type": "function"
    },
    {
      "inputs": [
        {
          "internalType": "address",
          "name": "",
          "type": "address"
        },
        {
          "internalType": "address",
          "name": "",
          "type": "address"
        }
      ],
      "name": "allowance",
      "outputs": [
        {
          "internalType": "uint256",
          "name": "",
          "type": "uint256"
        }
      ],
      "stateMutability": "pure",
      "type": "function"
    },
    {
      "inputs": [
        {
          "internalType": "address",
          "name": "",
          "type": "address"
        },
        {
          "internalType": "uint256",
          "name": "",
          "type": "uint256"
        }
      ],
      "name": "approve",
      "outputs": [
        {
          "internalType": "bool",
          "name": "",
          "type": "bool"
        }
      ],
      "stateMutability": "pure",
      "type": "function"
    },
    {
      "inputs": [
        {
          "internalType": "address",
          "name": "account",
          "type": "address"
        }
      ],
      "name": "balanceOf",
      "outputs": [
        {
          "internalType": "uint256",
          "name": "",
          "type": "uint256"
        }
      ],
      "stateMutability": "view",
      "type": "function"
    },
    {
      "inputs": [
        {
          "internalType": "uint256",
          "name": "noteId",
          "type": "uint256"
        }
      ],
      "name": "balanceOfNote",
      "outputs": [
        {
          "internalType": "uint256",
          "name": "",
          "type": "uint256"
        }
      ],
      "stateMutability": "view",
      "type": "function"
    },
    {
      "inputs": [
        {
          "internalType": "uint256",
          "name": "noteId",
          "type": "uint256"
        },
        {
          "internalType": "uint256",
          "name": "amountWithdrawn",
          "type": "uint256"
        }
      ],
      "name": "beforeKeroseneWithdrawn",
      "outputs": [],
      "stateMutability": "nonpayable",
      "type": "function"
    },
    {
      "inputs": [],
      "name": "decimals",
      "outputs": [
        {
          "internalType": "uint8",
          "name": "",
          "type": "uint8"
        }
      ],
      "stateMutability": "view",
      "type": "function"
    },
    {
      "inputs": [
        {
          "internalType": "address",
          "name": "owner",
          "type": "address"
        }
      ],
      "name": "initialize",
      "outputs": [],
      "stateMutability": "nonpayable",
      "type": "function"
    },
    {
      "inputs": [],
      "name": "name",
      "outputs": [
        {
          "internalType": "string",
          "name": "",
          "type": "string"
        }
      ],
      "stateMutability": "view",
      "type": "function"
    },
    {
      "inputs": [
        {
          "internalType": "uint256",
          "name": "",
          "type": "uint256"
        }
      ],
      "name": "noteData",
      "outputs": [
        {
          "internalType": "uint40",
          "name": "lastAction",
          "type": "uint40"
        },
        {
          "internalType": "uint96",
          "name": "keroseneDeposited",
          "type": "uint96"
        },
        {
          "internalType": "uint120",
          "name": "lastXP",
          "type": "uint120"
        }
      ],
      "stateMutability": "view",
      "type": "function"
    },
    {
      "inputs": [],
      "name": "owner",
      "outputs": [
        {
          "internalType": "address",
          "name": "",
          "type": "address"
        }
      ],
      "stateMutability": "view",
      "type": "function"
    },
    {
      "inputs": [],
      "name": "renounceOwnership",
      "outputs": [],
      "stateMutability": "nonpayable",
      "type": "function"
    },
    {
      "inputs": [],
      "name": "symbol",
      "outputs": [
        {
          "internalType": "string",
          "name": "",
          "type": "string"
        }
      ],
      "stateMutability": "view",
      "type": "function"
    },
    {
      "inputs": [],
      "name": "totalSupply",
      "outputs": [
        {
          "internalType": "uint256",
          "name": "",
          "type": "uint256"
        }
      ],
      "stateMutability": "view",
      "type": "function"
    },
    {
      "inputs": [
        {
          "internalType": "address",
          "name": "",
          "type": "address"
        },
        {
          "internalType": "uint256",
          "name": "",
          "type": "uint256"
        }
      ],
      "name": "transfer",
      "outputs": [
        {
          "internalType": "bool",
          "name": "",
          "type": "bool"
        }
      ],
      "stateMutability": "pure",
      "type": "function"
    },
    {
      "inputs": [
        {
          "internalType": "address",
          "name": "",
          "type": "address"
        },
        {
          "internalType": "address",
          "name": "",
          "type": "address"
        },
        {
          "internalType": "uint256",
          "name": "",
          "type": "uint256"
        }
      ],
      "name": "transferFrom",
      "outputs": [
        {
          "internalType": "bool",
          "name": "",
          "type": "bool"
        }
      ],
      "stateMutability": "pure",
      "type": "function"
    },
    {
      "inputs": [
        {
          "internalType": "address",
          "name": "newOwner",
          "type": "address"
        }
      ],
      "name": "transferOwnership",
      "outputs": [],
      "stateMutability": "nonpayable",
      "type": "function"
    }
  ],
  "bytecode": "0x61010080604052346200015e57606081620013ea803803809162000024828562000163565b8339810103126200015e57600460206200003e836200019d565b620000596040620000518487016200019d565b95016200019d565b6001600160a01b03918216608052811660a05292831660c08190526040516338d52e0f60e01b815292839182905afa908115620001525760009162000109575b5060e0526040516112379081620001b38239608051818181610159015281816107c70152610b90015260a0518181816102ff01528181610550015281816108ec015281816109bb0152610d39015260c0518181816101f7015281816105860152610833015260e051816107830152f35b6020813d60201162000149575b81620001256020938362000163565b810103126200014557519182168203620001425750803862000099565b80fd5b5080fd5b3d915062000116565b6040513d6000823e3d90fd5b600080fd5b601f909101601f19168101906001600160401b038211908210176200018757604052565b634e487b7160e01b600052604160045260246000fd5b51906001600160a01b03821682036200015e5756fe608060409080825260048036101561001657600080fd5b600092833560e01c92836306fdde0314610ed857508263095ea7b314610eb057826318160ddd14610e6857826323b872dd14610e445782632cbc7ed814610b74578263313ce56714610b585782634908ceeb14610b0f57826370a0823114610973578263715018a61461091b5782637f2a2f93146108d75782638da5cb5b146108a157826395d89b4114610862578263a687a9dd1461081e578263a9059cbb146107f6578263bc22ff4e146107b2578263c230f0731461076e578263c4d66de814610488578263dd62ed3e1461045a578263e378bc21146103f7578263f256753d1461013c57505063f2fde38b1461010d57600080fd5b3461013957602036600319011261013957610136610129610fce565b610131611119565b611077565b80f35b80fd5b8390346103f35761014c36610fff565b9093906001600160a01b037f0000000000000000000000000000000000000000000000000000000000000000811633036103e357858552602091600283528486209085519161019a83610f16565b549164ffffffffff80841682526101ca60018060601b0392838660281c16888201528981019560881c86526110d9565b926101d78160015461104b565b600155814216928951633b495b5560e11b81528c8a82015288816024818b7f0000000000000000000000000000000000000000000000000000000000000000165afa9081156103d9578c916103a6575b509183918c9695938a6102b09f968e60018060781b039a81519561024a87610f16565b898752848701951685526002828701948d8d1686528b8352522093511691600160281b600160881b03905160281b169060018060881b0319905160881b1691171790556102b661029e8d5493841642611015565b60018060c01b039e8f93600154611015565b90611038565b168c8260281c16019b8c11610393578a9b600160289c9b9c1b600160e81b039060281b169062ffffff60e81b16171788558851966331a9108f60e11b88528701528486602481877f0000000000000000000000000000000000000000000000000000000000000000165afa918215610389576000805160206111c2833981519152968893610358575b5061034d9293511690611015565b95519586521693a380f35b61034d935061037c90873d8911610382575b6103748183610f62565b810190611058565b9261033f565b503d61036a565b88513d89823e3d90fd5b634e487b7160e01b8b526011895260248bfd5b90508881813d83116103d2575b6103bd8183610f62565b810103126103ce57516102b0610227565b8b80fd5b503d6103b3565b8b513d8e823e3d90fd5b835163027f480760e01b81528390fd5b5080fd5b915034610456576020366003190112610456578160209361044f92358152600285522082519061042682610f16565b5464ffffffffff81168252602881901c6001600160601b03168583015260881c838201526110d9565b9051908152f35b8280fd5b8390346103f357806003193601126103f35790602091610478610fce565b50610481610fe9565b5051908152f35b915034610456576020908160031936011261076a576104a5610fce565b6000805160206111e2833981519152805490946001600160401b03821693909282841c60ff161592851580610763575b60018097149081610759575b159081610750575b50610740576001600160401b0319811686178855610519919084610725575b50610511611152565b610131611152565b865464ffffffffff19164264ffffffffff908116918217895584516318160ddd60e01b81526001600160a01b0393909190888382817f000000000000000000000000000000000000000000000000000000000000000089165afa92831561071b578b936106e8575b5091937f000000000000000000000000000000000000000000000000000000000000000016918a5b8581106105fa575050505050506105be578480f35b835460ff60401b191690935591519182527fc7f505b2f371ae2175ee4913f4499e1f2633a7b5936321eed1cdaeb6115181d291a1388080808480f35b8b8851633b495b5560e11b815282848201528b81602481895afa9081156106de579082918c9493916106ad575b5080156106a65761063981855461104b565b84558c868c80519461064a86610f16565b8b86526001600160601b039094168386019081528186018581528786526002909452932093519251915160289290921b600160281b600160881b031692169190911760889190911b6001600160881b0319161790555b016105a9565b50506106a0565b8094508d8092503d83116106d7575b6106c68183610f62565b81010312610139578a925138610627565b503d6106bc565b8a513d84823e3d90fd5b9092508881813d8311610714575b6107008183610f62565b8101031261071057519138610581565b8a80fd5b503d6106f6565b87513d8d823e3d90fd5b6001600160481b0319166001600160401b0117885538610508565b845163f92ee8a960e01b81528390fd5b905015386104e9565b303b1591506104e1565b50836104d5565b8380fd5b8390346103f357816003193601126103f357517f00000000000000000000000000000000000000000000000000000000000000006001600160a01b03168152602090f35b8390346103f357816003193601126103f357517f00000000000000000000000000000000000000000000000000000000000000006001600160a01b03168152602090f35b833461013957816003193601126101395750610810610fce565b5051638cd22d1960e01b8152fd5b8390346103f357816003193601126103f357517f00000000000000000000000000000000000000000000000000000000000000006001600160a01b03168152602090f35b8390346103f357816003193601126103f357805161089d9161088382610f47565b600382526206458560ec1b60208301525191829182610f85565b0390f35b8390346103f357816003193601126103f3576000805160206111828339815191525490516001600160a01b039091168152602090f35b8390346103f357816003193601126103f357517f00000000000000000000000000000000000000000000000000000000000000006001600160a01b03168152602090f35b8334610139578060031936011261013957610934611119565b60008051602061118283398151915280546001600160a01b0319811690915581906001600160a01b03166000805160206111a28339815191528280a380f35b90915034610456576020928360031936011261013957610991610fce565b82516370a0823160e01b81526001600160a01b0391821681860181905292948593919260249291907f00000000000000000000000000000000000000000000000000000000000000001688858581845afa948515610b05578695610ad2575b508594939291905b848710610a085789898951908152f35b909192939495978751632f745c5960e01b8152848482015289868201528a81604481865afa908115610ac8578891610a96575b50600191610a8991895260028c52610a838a8a208d8c5191610a5c83610f16565b549064ffffffffff82168352868060601b038260281c169083015260881c8c8201526110d9565b9061104b565b98019594939291906109f8565b90508a81813d8311610ac1575b610aad8183610f62565b81010312610abd57516001610a3b565b8780fd5b503d610aa3565b89513d8a823e3d90fd5b9094508881813d8311610afe575b610aea8183610f62565b81010312610afa575193386109f0565b8580fd5b503d610ae0565b87513d88823e3d90fd5b915034610456576020366003190112610456576060928291358152600260205220549080519164ffffffffff81168352600180851b038160281c16602084015260881c90820152f35b8390346103f357816003193601126103f3576020905160128152f35b8382346103f357610b8436610fff565b916001600160a01b03917f000000000000000000000000000000000000000000000000000000000000000083163303610e3557849581865260209260028452818720825190610bd282610f16565b5464ffffffffff97888216835260018060601b039889610c0589860195828660281c1687528881019560881c86526110d9565b94511699826000190485118302158b02156103ce578b908386028c80820491061515019b868d11610e2b575b928985938c8f968c8b9a9996869283421698610c4c91611015565b6001600160781b039d911694908d90610c66908c90611015565b1693825196610c7488610f16565b8988528188019687528388019586528252600290522093519251915160289290921b600160281b600160881b031692169190911760889190911b6001600160881b0319161790558d5490610cca90821642611015565b60015494600160281b600160e81b0391610ce5908790611038565b610cfc90602885901c6001600160c01b031661104b565b90610d0691611015565b60281b169062ffffff60e81b1617178c55610d2091611015565b60015584516331a9108f60e11b808252858201889052937f00000000000000000000000000000000000000000000000000000000000000008a169390898386815a91602492fa928315610e2157928d8c9a99989693602496938d99968394610dfe575b50610d92929394511690611015565b918851928352876000805160206111c28339815191529d8e921693a38551968794859384528301525afa918215610df4578792610dd5575b50519485521692a380f35b610ded919250843d8611610382576103748183610f62565b9088610dca565b81513d89823e3d90fd5b610d92939450610e1a908b3d8d11610382576103748183610f62565b9392610d83565b88513d8f823e3d90fd5b959b508b95610c31565b50845163027f480760e01b8152fd5b83346101395760603660031901126101395750610e5f610fce565b50610810610fe9565b8390346103f357816003193601126103f35761044f60209254610e9e610e9564ffffffffff831642611015565b60015490611038565b9060281c6001600160c01b031661104b565b833461013957816003193601126101395750610eca610fce565b5051632028747160e01b8152fd5b84913461045657826003193601126104565761089d9250610ef882610f47565b60078252660447961642058560cc1b60208301525191829182610f85565b606081019081106001600160401b03821117610f3157604052565b634e487b7160e01b600052604160045260246000fd5b604081019081106001600160401b03821117610f3157604052565b601f909101601f19168101906001600160401b03821190821017610f3157604052565b6020808252825181830181905290939260005b828110610fba57505060409293506000838284010152601f8019910116010190565b818101860151848201604001528501610f98565b600435906001600160a01b0382168203610fe457565b600080fd5b602435906001600160a01b0382168203610fe457565b6040906003190112610fe4576004359060243590565b9190820391821161102257565b634e487b7160e01b600052601160045260246000fd5b8181029291811591840414171561102257565b9190820180921161102257565b90816020910312610fe457516001600160a01b0381168103610fe45790565b6001600160a01b039081169081156110c05760008051602061118283398151915280546001600160a01b031981168417909155166000805160206111a2833981519152600080a3565b604051631e4fbdf760e01b815260006004820152602490fd5b61111690610a836110f264ffffffffff83511642611015565b60208301516040909301516001600160781b0316926001600160601b031690611038565b90565b600080516020611182833981519152546001600160a01b0316330361113a57565b60405163118cdaa760e01b8152336004820152602490fd5b60ff6000805160206111e28339815191525460401c161561116f57565b604051631afcd79f60e31b8152600490fdfe9016d09d72d40fdae2fd8ceac6b6234c7706214fd39c1cd1e609a0528c1993008be0079c531659141344cd1fd0a4f28419497f9722a3daafe3b4186f6b6457e0ddf252ad1be2c89b69c2b068fc378daa952ba7f163c4a11628f55a4df523b3eff0c57e16840df040f15088dc2f81fe391c3923bec73e23a9662efc9c229c6a00a264697066735822122024b95ccf1f9890ae3cf276179aa54a00fa16ccad734d81091771f69e5f7d28b664736f6c63430008180033",
  "linkReferences": {},
  "deployedLinkReferences": {}
}