{
  "_format": "hh-sol-artifact-1",
  "contractName": "KeroseneVault",
  "sourceName": "contracts/core/Vault.Kerosene.sol",
  "abi": [
    {
      "inputs": [
        {
          "internalType": "contract IVaultManager",
          "name": "_vaultManager",
          "type": "address"
        },
        {
          "internalType": "contract ERC20",
          "name": "_asset",
          "type": "address"
        },
        {
          "internalType": "contract Dyad",
          "name": "_dyad",
          "type": "address"
        },
        {
          "internalType": "contract KeroseneManager",
          "name": "_kerosineManager",
          "type": "address"
        },
        {
          "internalType": "contract IAggregatorV3",
          "name": "_oracle",
          "type": "address"
        },
        {
          "internalType": "contract KeroseneDenominatorV2",
          "name": "_kerosineDenominator",
          "type": "address"
        }
      ],
      "stateMutability": "nonpayable",
      "type": "constructor"
    },
    {
      "inputs": [],
      "name": "IncompleteRound",
      "type": "error"
    },
    {
      "inputs": [],
      "name": "NotVaultManager",
      "type": "error"
    },
    {
      "inputs": [],
      "name": "StaleData",
      "type": "error"
    },
    {
      "anonymous": false,
      "inputs": [
        {
          "indexed": true,
          "internalType": "uint256",
          "name": "id",
          "type": "uint256"
        },
        {
          "indexed": false,
          "internalType": "uint256",
          "name": "amount",
          "type": "uint256"
        }
      ],
      "name": "Deposit",
      "type": "event"
    },
    {
      "anonymous": false,
      "inputs": [
        {
          "indexed": true,
          "internalType": "uint256",
          "name": "from",
          "type": "uint256"
        },
        {
          "indexed": true,
          "internalType": "uint256",
          "name": "to",
          "type": "uint256"
        },
        {
          "indexed": false,
          "internalType": "uint256",
          "name": "amount",
          "type": "uint256"
        }
      ],
      "name": "Move",
      "type": "event"
    },
    {
      "anonymous": false,
      "inputs": [
        {
          "indexed": true,
          "internalType": "address",
          "name": "user",
          "type": "address"
        },
        {
          "indexed": true,
          "internalType": "address",
          "name": "newOwner",
          "type": "address"
        }
      ],
      "name": "OwnershipTransferred",
      "type": "event"
    },
    {
      "anonymous": false,
      "inputs": [
        {
          "indexed": true,
          "internalType": "uint256",
          "name": "from",
          "type": "uint256"
        },
        {
          "indexed": true,
          "internalType": "address",
          "name": "to",
          "type": "address"
        },
        {
          "indexed": false,
          "internalType": "uint256",
          "name": "amount",
          "type": "uint256"
        }
      ],
      "name": "Withdraw",
      "type": "event"
    },
    {
      "inputs": [],
      "name": "asset",
      "outputs": [
        {
          "internalType": "contract ERC20",
          "name": "",
          "type": "address"
        }
      ],
      "stateMutability": "view",
      "type": "function"
    },
    {
      "inputs": [],
      "name": "assetPrice",
      "outputs": [
        {
          "internalType": "uint256",
          "name": "",
          "type": "uint256"
        }
      ],
      "stateMutability": "view",
      "type": "function"
    },
    {
      "inputs": [
        {
          "internalType": "uint256",
          "name": "id",
          "type": "uint256"
        },
        {
          "internalType": "uint256",
          "name": "amount",
          "type": "uint256"
        }
      ],
      "name": "deposit",
      "outputs": [],
      "stateMutability": "nonpayable",
      "type": "function"
    },
    {
      "inputs": [],
      "name": "dyad",
      "outputs": [
        {
          "internalType": "contract Dyad",
          "name": "",
          "type": "address"
        }
      ],
      "stateMutability": "view",
      "type": "function"
    },
    {
      "inputs": [
        {
          "internalType": "uint256",
          "name": "id",
          "type": "uint256"
        }
      ],
      "name": "getUsdValue",
      "outputs": [
        {
          "internalType": "uint256",
          "name": "",
          "type": "uint256"
        }
      ],
      "stateMutability": "view",
      "type": "function"
    },
    {
      "inputs": [
        {
          "internalType": "uint256",
          "name": "",
          "type": "uint256"
        }
      ],
      "name": "id2asset",
      "outputs": [
        {
          "internalType": "uint256",
          "name": "",
          "type": "uint256"
        }
      ],
      "stateMutability": "view",
      "type": "function"
    },
    {
      "inputs": [],
      "name": "kerosineDenominator",
      "outputs": [
        {
          "internalType": "contract KeroseneDenominatorV2",
          "name": "",
          "type": "address"
        }
      ],
      "stateMutability": "view",
      "type": "function"
    },
    {
      "inputs": [],
      "name": "kerosineManager",
      "outputs": [
        {
          "internalType": "contract KeroseneManager",
          "name": "",
          "type": "address"
        }
      ],
      "stateMutability": "view",
      "type": "function"
    },
    {
      "inputs": [
        {
          "internalType": "uint256",
          "name": "from",
          "type": "uint256"
        },
        {
          "internalType": "uint256",
          "name": "to",
          "type": "uint256"
        },
        {
          "internalType": "uint256",
          "name": "amount",
          "type": "uint256"
        }
      ],
      "name": "move",
      "outputs": [],
      "stateMutability": "nonpayable",
      "type": "function"
    },
    {
      "inputs": [],
      "name": "oracle",
      "outputs": [
        {
          "internalType": "contract IAggregatorV3",
          "name": "",
          "type": "address"
        }
      ],
      "stateMutability": "view",
      "type": "function"
    },
    {
      "inputs": [],
      "name": "owner",
      "outputs": [
        {
          "internalType": "address",
          "name": "",
          "type": "address"
        }
      ],
      "stateMutability": "view",
      "type": "function"
    },
    {
      "inputs": [
        {
          "internalType": "contract KeroseneDenominatorV2",
          "name": "_kerosineDenominator",
          "type": "address"
        }
      ],
      "name": "setDenominator",
      "outputs": [],
      "stateMutability": "nonpayable",
      "type": "function"
    },
    {
      "inputs": [
        {
          "internalType": "contract IAggregatorV3",
          "name": "_oracle",
          "type": "address"
        }
      ],
      "name": "setOracle",
      "outputs": [],
      "stateMutability": "nonpayable",
      "type": "function"
    },
    {
      "inputs": [
        {
          "internalType": "address",
          "name": "newOwner",
          "type": "address"
        }
      ],
      "name": "transferOwnership",
      "outputs": [],
      "stateMutability": "nonpayable",
      "type": "function"
    },
    {
      "inputs": [],
      "name": "vaultManager",
      "outputs": [
        {
          "internalType": "contract IVaultManager",
          "name": "",
          "type": "address"
        }
      ],
      "stateMutability": "view",
      "type": "function"
    },
    {
      "inputs": [
        {
          "internalType": "uint256",
          "name": "id",
          "type": "uint256"
        },
        {
          "internalType": "address",
          "name": "to",
          "type": "address"
        },
        {
          "internalType": "uint256",
          "name": "amount",
          "type": "uint256"
        }
      ],
      "name": "withdraw",
      "outputs": [],
      "stateMutability": "nonpayable",
      "type": "function"
    }
  ],
  "bytecode": "0x6101003461015457601f610ef438819003918201601f19168301916001600160401b038311848410176101595780849260c094604052833981010312610154578051906001600160a01b039081831683036101545760208101519082821682036101545760408101518381168103610154576060820151908482168203610154576080830151928584168094036101545760a001519485168095036101545760008054336001600160a01b031991821681178355604051989196927f8be0079c531659141344cd1fd0a4f28419497f9722a3daafe3b4186f6b6457e08180a360805260a05260e05260c0528160015416176001556002541617600255610d849081610170823960805181818160f2015281816102320152818161034301526104a7015260a05181818161028f01526105cb015260c05181818161058701526107a7015260e0518181816103ef01526107f90152f35b600080fd5b634e487b7160e01b600052604160045260246000fdfe6080604081815260048036101561001557600080fd5b600092833560e01c90816301c767b01461063857508063073789e2146105fa57806338d52e0f146105b6578063754870a9146105725780637692b6aa1461054b5780637adbf973146104ff5780637dc0d1d0146104d65780638a4adf24146104925780638ace76bf146104465780638da5cb5b1461041e578063add95a51146103da578063d24378eb146103b6578063e2bbb15814610329578063e63697c8146101ff578063f2fde38b1461018e5763fa7c9bcf146100d357600080fd5b3461018a57606036600319011261018a576024359181359160443591907f00000000000000000000000000000000000000000000000000000000000000006001600160a01b0316330361017c57507f7b4419c9db600f9cf56a16ec031da555aed923fa8228e732ae1e135811ab92f5916020918487526003835280872061015b838254610775565b905585875260038352808720610172838254610768565b905551908152a380f35b905163027f480760e01b8152fd5b8280fd5b8382346101fb5760203660031901126101fb57356001600160a01b038181169182900361018a5781906101c6845491821633146106a6565b6001600160a01b031916178255337f8be0079c531659141344cd1fd0a4f28419497f9722a3daafe3b4186f6b6457e08380a380f35b5080fd5b503461018a57606036600319011261018a576001600160a01b0360243581811693833593909185900361032557604435927f000000000000000000000000000000000000000000000000000000000000000016330361017c57838652600360205281862061026e848254610775565b90556020866044845163a9059cbb60e01b81528885820152866024820152827f00000000000000000000000000000000000000000000000000000000000000005af13d15601f3d116001895114161716156102f157507f9da6493a92039daf47d1f2d7a782299c5994c6323eb1e972f69c432089ec52bf9160209151908152a380f35b6020606492519162461bcd60e51b8352820152600f60248201526e1514905394d1915497d19052531151608a1b6044820152fd5b8580fd5b503461018a578160031936011261018a57803591602435917f00000000000000000000000000000000000000000000000000000000000000006001600160a01b0316330361017c57507fa3af609bf46297028ce551832669030f9effef2b02606d02cbbcc40fe6b47c5591602091848652600383528086206103ac838254610768565b905551908152a280f35b5050346101fb57816003193601126101fb576020906103d3610782565b9051908152f35b5050346101fb57816003193601126101fb57517f00000000000000000000000000000000000000000000000000000000000000006001600160a01b03168152602090f35b5050346101fb57816003193601126101fb57905490516001600160a01b039091168152602090f35b8382346101fb5760203660031901126101fb57356001600160a01b038181169182900361018a5761047b9083541633146106a6565b600280546001600160a01b03191691909117905580f35b5050346101fb57816003193601126101fb57517f00000000000000000000000000000000000000000000000000000000000000006001600160a01b03168152602090f35b5050346101fb57816003193601126101fb5760015490516001600160a01b039091168152602090f35b8382346101fb5760203660031901126101fb57356001600160a01b038181169182900361018a576105349083541633146106a6565b600180546001600160a01b03191691909117905580f35b503461018a57602036600319011261018a5760209282913581526003845220549051908152f35b5050346101fb57816003193601126101fb57517f00000000000000000000000000000000000000000000000000000000000000006001600160a01b03168152602090f35b5050346101fb57816003193601126101fb57517f00000000000000000000000000000000000000000000000000000000000000006001600160a01b03168152602090f35b503461018a57602036600319011261018a57610630826020946305f5e1009335815260038652205461062a610782565b9061065d565b049051908152f35b8490346101fb57816003193601126101fb576002546001600160a01b03168152602090f35b8181029291811591840414171561067057565b634e487b7160e01b600052601160045260246000fd5b8115610690570490565b634e487b7160e01b600052601260045260246000fd5b156106ad57565b60405162461bcd60e51b815260206004820152600c60248201526b15539055551213d49256915160a21b6044820152606490fd5b601f909101601f19168101906001600160401b0382119082101761070457604052565b634e487b7160e01b600052604160045260246000fd5b9081602091031261073957516001600160a01b03811681036107395790565b600080fd5b90816020910312610739575160ff811681036107395790565b60ff16604d811161067057600a0a90565b9190820180921161067057565b9190820391821161067057565b6040805163226807c160e11b815260049291906001600160a01b0390600090818187817f000000000000000000000000000000000000000000000000000000000000000087165afa908115610d44578291610c8d575b50805182915b81831061098657505083516318160ddd60e01b8082526020937f0000000000000000000000000000000000000000000000000000000000000000861693509184818a81875afa90811561097b5760009161094e575b5082106109425783908887518095819382525afa918215610937579087939291600092610903575b50829161086791610775565b93600254168551938480926396ce079560e01b82525afa9384156108f957506000936108c9575b50506305f5e100908181029181830414901517156108b4576108b1929350610686565b90565b601184634e487b7160e01b6000525260246000fd5b9080929350813d83116108f2575b6108e181836106e1565b81010312610739575190388061088e565b503d6108d7565b513d6000823e3d90fd5b935090508183813d8111610930575b61091c81836106e1565b81010312610739579151869261086761085b565b503d610912565b85513d6000823e3d90fd5b50600096505050505050565b90508481813d8311610974575b61096581836106e1565b81010312610739575138610833565b503d61095b565b87513d6000823e3d90fd5b9091928151841015610c7857602085818660051b85010151169087516338d52e0f60e01b9081815282818d81875afa908115610b7f57838d8b938793600091610c5b575b508d519384926370a0823160e01b8452830152816024958692165afa908115610ba757600091610c2e575b508a5163d24378eb60e01b815284818f81895afa908115610c2357600091610bf4575b50610a229161065d565b90670de0b6b3a764000091828102928184041490151715610be15750895191825282828d81875afa918215610b7f57600092610bb2575b508b838b518092818d63313ce56760e01b97888352165afa908115610ba7578d9392610a928693610a9893600091610b8a575b50610757565b90610686565b948b51938480926307dc0d1d60e41b82525afa918215610b7f57918c84928b94600093610b3a575b508c5194859384928352165afa918215610b2f5792610a9260019593610af393610af996600092610b02575b5050610757565b90610768565b930191906107de565b610b219250803d10610b28575b610b1981836106e1565b81019061073e565b3880610aec565b503d610b0f565b89513d6000823e3d90fd5b9293839195508092503d8311610b78575b610b5581836106e1565b810103126101fb5751908982168203610b75575088918c84929138610ac0565b80fd5b503d610b4b565b8a513d6000823e3d90fd5b610ba19150853d8711610b2857610b1981836106e1565b38610a8c565b8b513d6000823e3d90fd5b610bd3919250833d8511610bda575b610bcb81836106e1565b81019061071a565b9038610a59565b503d610bc1565b634e487b7160e01b600090815260118e52fd5b908582813d8311610c1c575b610c0a81836106e1565b81010312610b75575051610a22610a18565b503d610c00565b8c513d6000823e3d90fd5b908482813d8311610c54575b610c4481836106e1565b81010312610b75575051386109f5565b503d610c3a565b610c729150833d8511610bda57610bcb81836106e1565b386109ca565b603288634e487b7160e01b6000525260246000fd5b90503d8083833e610c9e81836106e1565b81016020908183820312610d405782516001600160401b0393848211610325570181601f82011215610d3c578051938411610d29578360051b90875194610ce7858401876106e1565b85528380860192820101928311610325578301905b828210610d0d5750505050386107d8565b81518781168103610d25578152908301908301610cfc565b8680fd5b634e487b7160e01b855260418952602485fd5b8480fd5b8380fd5b84513d84823e3d90fdfea2646970667358221220b91e597bd4c65ea0f053590fae2bd7085ac72d5d0d18d14ad9abf33d0ebd30ef64736f6c63430008180033",
  "linkReferences": {},
  "deployedLinkReferences": {}
}