{
  "_format": "hh-sol-artifact-1",
  "contractName": "PProxy",
  "sourceName": "contracts/proxy/proxy.sol",
  "abi": [
    {
      "inputs": [
        {
          "internalType": "address",
          "name": "_logic",
          "type": "address"
        },
        {
          "internalType": "address",
          "name": "admin_",
          "type": "address"
        }
      ],
      "stateMutability": "nonpayable",
      "type": "constructor"
    },
    {
      "inputs": [
        {
          "internalType": "address",
          "name": "target",
          "type": "address"
        }
      ],
      "name": "AddressEmptyCode",
      "type": "error"
    },
    {
      "inputs": [
        {
          "internalType": "address",
          "name": "admin",
          "type": "address"
        }
      ],
      "name": "ERC1967InvalidAdmin",
      "type": "error"
    },
    {
      "inputs": [
        {
          "internalType": "address",
          "name": "implementation",
          "type": "address"
        }
      ],
      "name": "ERC1967InvalidImplementation",
      "type": "error"
    },
    {
      "inputs": [],
      "name": "ERC1967NonPayable",
      "type": "error"
    },
    {
      "inputs": [],
      "name": "FailedInnerCall",
      "type": "error"
    },
    {
      "inputs": [],
      "name": "ProxyDeniedAdminAccess",
      "type": "error"
    },
    {
      "anonymous": false,
      "inputs": [
        {
          "indexed": false,
          "internalType": "address",
          "name": "previousAdmin",
          "type": "address"
        },
        {
          "indexed": false,
          "internalType": "address",
          "name": "newAdmin",
          "type": "address"
        }
      ],
      "name": "AdminChanged",
      "type": "event"
    },
    {
      "anonymous": false,
      "inputs": [
        {
          "indexed": true,
          "internalType": "address",
          "name": "implementation",
          "type": "address"
        }
      ],
      "name": "Upgraded",
      "type": "event"
    },
    {
      "stateMutability": "payable",
      "type": "fallback"
    },
    {
      "inputs": [],
      "name": "getAdmin",
      "outputs": [
        {
          "internalType": "address",
          "name": "",
          "type": "address"
        }
      ],
      "stateMutability": "view",
      "type": "function"
    },
    {
      "inputs": [],
      "name": "getImplementation",
      "outputs": [
        {
          "internalType": "address",
          "name": "implementation_",
          "type": "address"
        }
      ],
      "stateMutability": "view",
      "type": "function"
    },
    {
      "inputs": [
        {
          "internalType": "address",
          "name": "_logic",
          "type": "address"
        }
      ],
      "name": "updateTo",
      "outputs": [],
      "stateMutability": "nonpayable",
      "type": "function"
    },
    {
      "stateMutability": "payable",
      "type": "receive"
    }
  ],
  "bytecode": "0x604060a081523461025957610c5581813803918261001c8161025e565b9384928339810103126102595761003281610283565b61003f6020809301610283565b83518084019390916001600160401b038086118487101761024357858752600094858552803b15610222577f360894a13ba1a3210667c828492db98dca3e2076cc3735a920a3ca505d382bbc80546001600160a01b038381166001600160a01b0319928316811790935598909688927fbc7cd75a20ee27fd9adebab32041f755214dbc6bffa90cc0225b39da2e5c2d3b8480a2518015610219578291845af43d1561020c573d918383116101f857610113929190610105601f8401601f1916880161025e565b9283523d898885013e610297565b505b8651916104a0808401928311848410176101e4579187849286946107b5853916815203019084f080156101da57841692836080527f7e644d79422f17c01e4894b5f4f588d331ebfa28653d42ae832dc59e38c9798f867fb53127684a568b3173ae13b9f8a6016e243e63b6e8ee1178d6a717850b5d6103968688549583519287168352820152a183156101c3575016179055516104ba90816102fb8239608051818181606b01526102ae0152f35b602490865190633173bdd160e11b82526004820152fd5b85513d85823e3d90fd5b634e487b7160e01b87526041600452602487fd5b634e487b7160e01b88526041600452602488fd5b9061011391606091610297565b50505050610115565b8751634c9c8ce360e01b81526001600160a01b039091166004820152602490fd5b634e487b7160e01b600052604160045260246000fd5b600080fd5b6040519190601f01601f191682016001600160401b0381118382101761024357604052565b51906001600160a01b038216820361025957565b906102be57508051156102ac57805190602001fd5b604051630a12f52160e11b8152600490fd5b815115806102f1575b6102cf575090565b604051639996b31560e01b81526001600160a01b039091166004820152602490fd5b50803b156102c756fe6080604052600436101561001e575b361561001c5761001c6102a3565b005b6000803560e01c9081636e9960c3146100f15781637a72d4791461004c575063aaf10f420361000e5761014c565b346100ee5760203660031901126100ee5760043561006981610136565b7f00000000000000000000000000000000000000000000000000000000000000006001600160a01b031633036100b1576100ae906100a5610198565b908382526101fc565b80f35b60405162461bcd60e51b81526020600482015260156024820152746f6e6c792061646d696e2063616e2075706461746560581b6044820152606490fd5b80fd5b346100ee57806003193601126100ee577fb53127684a568b3173ae13b9f8a6016e243e63b6e8ee1178d6a717850b5d6103546001600160a01b03166080908152602090f35b6001600160a01b0381160361014757565b600080fd5b3461014757600036600319011261014757600080516020610465833981519152546040516001600160a01b039091168152602090f35b634e487b7160e01b600052604160045260246000fd5b60405190602082016001600160401b038111838210176101b757604052565b610182565b6040519190601f01601f191682016001600160401b038111838210176101b757604052565b6001600160401b0381116101b757601f01601f191660200190565b90813b156102825760008051602061046583398151915280546001600160a01b0319166001600160a01b0384169081179091557fbc7cd75a20ee27fd9adebab32041f755214dbc6bffa90cc0225b39da2e5c2d3b600080a2805115610267576102649161033b565b50565b50503461027057565b60405163b398979f60e01b8152600490fd5b604051634c9c8ce360e01b81526001600160a01b0383166004820152602490fd5b6001600160a01b03337f000000000000000000000000000000000000000000000000000000000000000082160361030b57506000356001600160e01b03191663278f794360e11b14610301576040516334ad5dbb60e21b8152600490fd5b61030961037f565b565b60008051602061046583398151915254166000808092368280378136915af43d82803e15610337573d90f35b3d90fd5b60008061037493602081519101845af43d15610377573d9161036461035f846101e1565b6101bc565b9283523d6000602085013e610401565b90565b606091610401565b366004116101475760403660031901126101475760043561039f81610136565b602435906001600160401b0382116101475736602383011215610147578160040135906103ce61035f836101e1565b918083523660248286010111610147576020816000926024610309970183870137840101526001600160a01b03166101fc565b90610428575080511561041657805190602001fd5b604051630a12f52160e11b8152600490fd5b8151158061045b575b610439575090565b604051639996b31560e01b81526001600160a01b039091166004820152602490fd5b50803b1561043156fe360894a13ba1a3210667c828492db98dca3e2076cc3735a920a3ca505d382bbca2646970667358221220b410d9e58dfe0a86b2b76ba3b53d0546e251bde454822cdc86facab99453741664736f6c634300081800336080346100bb57601f6104a038819003918201601f19168301916001600160401b038311848410176100c0578084926020946040528339810103126100bb57516001600160a01b0390818116908190036100bb5780156100a257600080546001600160a01b03198116831782556040519316907f8be0079c531659141344cd1fd0a4f28419497f9722a3daafe3b4186f6b6457e09080a36103c990816100d78239f35b604051631e4fbdf760e01b815260006004820152602490fd5b600080fd5b634e487b7160e01b600052604160045260246000fdfe60406080815260048036101561001457600080fd5b600091823560e01c8063715018a6146102bf5780638da5cb5b146102935780639623609d1461014a578063ad3cb1cc146100d85763f2fde38b1461005757600080fd5b346100d45760203660031901126100d4576001600160a01b038235818116939192908490036100cf57610088610347565b83156100b95750506000548260018060a01b031982161760005516600080516020610374833981519152600080a380f35b51631e4fbdf760e01b8152908101849052602490fd5b600080fd5b8280fd5b508234610147578060031936011261014757508051908181016001600160401b038111838210176101325761012e9350815260058252640352e302e360dc1b602083015251918291602083526020830190610307565b0390f35b604184634e487b7160e01b6000525260246000fd5b80fd5b5060603660031901126100d4576001600160a01b03918035838116919082900361026357602491823594851680950361028f576001600160401b03906044359082821161028b573660238301121561028b578184013583811161027957865192601f8201601f19908116603f011684018581118582101761026757885281845289939291903682820189011161026357818592896020930183870137840101526101f2610347565b803b156100d45761022297875180998194829363278f794360e11b8452898401528a8a8401526044830190610307565b039134905af1801561025957610236578580f35b84116102485750505238808080808580f35b634e487b7160e01b85526041905283fd5b84513d88823e3d90fd5b8480fd5b634e487b7160e01b8b5260418752878bfd5b634e487b7160e01b8952604185528589fd5b8780fd5b8580fd5b8382346102bb57816003193601126102bb57905490516001600160a01b039091168152602090f35b5080fd5b83346101475780600319360112610147576102d8610347565b80546001600160a01b03198116825581906001600160a01b03166000805160206103748339815191528280a380f35b919082519283825260005b848110610333575050826000602080949584010152601f8019910116010190565b602081830181015184830182015201610312565b6000546001600160a01b0316330361035b57565b60405163118cdaa760e01b8152336004820152602490fdfe8be0079c531659141344cd1fd0a4f28419497f9722a3daafe3b4186f6b6457e0a264697066735822122049311d265649eef0e7e1cc412efa92d4efae85cc72d4f41c2d2c22ebebf6c4cb64736f6c63430008180033",
  "linkReferences": {},
  "deployedLinkReferences": {}
}