{
  "_format": "hh-sol-artifact-1",
  "contractName": "ProxyAdmin",
  "sourceName": "@openzeppelin/contracts/proxy/transparent/ProxyAdmin.sol",
  "abi": [
    {
      "inputs": [
        {
          "internalType": "address",
          "name": "initialOwner",
          "type": "address"
        }
      ],
      "stateMutability": "nonpayable",
      "type": "constructor"
    },
    {
      "inputs": [
        {
          "internalType": "address",
          "name": "owner",
          "type": "address"
        }
      ],
      "name": "OwnableInvalidOwner",
      "type": "error"
    },
    {
      "inputs": [
        {
          "internalType": "address",
          "name": "account",
          "type": "address"
        }
      ],
      "name": "OwnableUnauthorizedAccount",
      "type": "error"
    },
    {
      "anonymous": false,
      "inputs": [
        {
          "indexed": true,
          "internalType": "address",
          "name": "previousOwner",
          "type": "address"
        },
        {
          "indexed": true,
          "internalType": "address",
          "name": "newOwner",
          "type": "address"
        }
      ],
      "name": "OwnershipTransferred",
      "type": "event"
    },
    {
      "inputs": [],
      "name": "UPGRADE_INTERFACE_VERSION",
      "outputs": [
        {
          "internalType": "string",
          "name": "",
          "type": "string"
        }
      ],
      "stateMutability": "view",
      "type": "function"
    },
    {
      "inputs": [],
      "name": "owner",
      "outputs": [
        {
          "internalType": "address",
          "name": "",
          "type": "address"
        }
      ],
      "stateMutability": "view",
      "type": "function"
    },
    {
      "inputs": [],
      "name": "renounceOwnership",
      "outputs": [],
      "stateMutability": "nonpayable",
      "type": "function"
    },
    {
      "inputs": [
        {
          "internalType": "address",
          "name": "newOwner",
          "type": "address"
        }
      ],
      "name": "transferOwnership",
      "outputs": [],
      "stateMutability": "nonpayable",
      "type": "function"
    },
    {
      "inputs": [
        {
          "internalType": "contract ITransparentUpgradeableProxy",
          "name": "proxy",
          "type": "address"
        },
        {
          "internalType": "address",
          "name": "implementation",
          "type": "address"
        },
        {
          "internalType": "bytes",
          "name": "data",
          "type": "bytes"
        }
      ],
      "name": "upgradeAndCall",
      "outputs": [],
      "stateMutability": "payable",
      "type": "function"
    }
  ],
  "bytecode": "0x6080346100bb57601f6104a038819003918201601f19168301916001600160401b038311848410176100c0578084926020946040528339810103126100bb57516001600160a01b0390818116908190036100bb5780156100a257600080546001600160a01b03198116831782556040519316907f8be0079c531659141344cd1fd0a4f28419497f9722a3daafe3b4186f6b6457e09080a36103c990816100d78239f35b604051631e4fbdf760e01b815260006004820152602490fd5b600080fd5b634e487b7160e01b600052604160045260246000fdfe60406080815260048036101561001457600080fd5b600091823560e01c8063715018a6146102bf5780638da5cb5b146102935780639623609d1461014a578063ad3cb1cc146100d85763f2fde38b1461005757600080fd5b346100d45760203660031901126100d4576001600160a01b038235818116939192908490036100cf57610088610347565b83156100b95750506000548260018060a01b031982161760005516600080516020610374833981519152600080a380f35b51631e4fbdf760e01b8152908101849052602490fd5b600080fd5b8280fd5b508234610147578060031936011261014757508051908181016001600160401b038111838210176101325761012e9350815260058252640352e302e360dc1b602083015251918291602083526020830190610307565b0390f35b604184634e487b7160e01b6000525260246000fd5b80fd5b5060603660031901126100d4576001600160a01b03918035838116919082900361026357602491823594851680950361028f576001600160401b03906044359082821161028b573660238301121561028b578184013583811161027957865192601f8201601f19908116603f011684018581118582101761026757885281845289939291903682820189011161026357818592896020930183870137840101526101f2610347565b803b156100d45761022297875180998194829363278f794360e11b8452898401528a8a8401526044830190610307565b039134905af1801561025957610236578580f35b84116102485750505238808080808580f35b634e487b7160e01b85526041905283fd5b84513d88823e3d90fd5b8480fd5b634e487b7160e01b8b5260418752878bfd5b634e487b7160e01b8952604185528589fd5b8780fd5b8580fd5b8382346102bb57816003193601126102bb57905490516001600160a01b039091168152602090f35b5080fd5b83346101475780600319360112610147576102d8610347565b80546001600160a01b03198116825581906001600160a01b03166000805160206103748339815191528280a380f35b919082519283825260005b848110610333575050826000602080949584010152601f8019910116010190565b602081830181015184830182015201610312565b6000546001600160a01b0316330361035b57565b60405163118cdaa760e01b8152336004820152602490fdfe8be0079c531659141344cd1fd0a4f28419497f9722a3daafe3b4186f6b6457e0a264697066735822122049311d265649eef0e7e1cc412efa92d4efae85cc72d4f41c2d2c22ebebf6c4cb64736f6c63430008180033",
  "linkReferences": {},
  "deployedLinkReferences": {}
}