{
  "_format": "hh-sol-artifact-1",
  "contractName": "StakerFactory",
  "sourceName": "contracts/staking/StakerFactory.sol",
  "abi": [
    {
      "inputs": [
        {
          "internalType": "address",
          "name": "_kero",
          "type": "address"
        },
        {
          "internalType": "address",
          "name": "_nonfungiblePositionManager",
          "type": "address"
        },
        {
          "internalType": "address",
          "name": "_token0",
          "type": "address"
        },
        {
          "internalType": "address",
          "name": "_token1",
          "type": "address"
        },
        {
          "internalType": "address",
          "name": "_owner",
          "type": "address"
        }
      ],
      "stateMutability": "nonpayable",
      "type": "constructor"
    },
    {
      "anonymous": false,
      "inputs": [
        {
          "indexed": true,
          "internalType": "address",
          "name": "user",
          "type": "address"
        },
        {
          "indexed": true,
          "internalType": "address",
          "name": "newOwner",
          "type": "address"
        }
      ],
      "name": "OwnershipTransferred",
      "type": "event"
    },
    {
      "anonymous": false,
      "inputs": [
        {
          "indexed": false,
          "internalType": "uint256",
          "name": "index",
          "type": "uint256"
        },
        {
          "indexed": false,
          "internalType": "address",
          "name": "staker",
          "type": "address"
        }
      ],
      "name": "StakerCreated",
      "type": "event"
    },
    {
      "inputs": [
        {
          "internalType": "uint24",
          "name": "fee",
          "type": "uint24"
        },
        {
          "internalType": "int24",
          "name": "lowTick",
          "type": "int24"
        },
        {
          "internalType": "int24",
          "name": "upTick",
          "type": "int24"
        },
        {
          "internalType": "uint256",
          "name": "startTime",
          "type": "uint256"
        },
        {
          "internalType": "uint256",
          "name": "endTime",
          "type": "uint256"
        },
        {
          "internalType": "uint256",
          "name": "keroPerTime",
          "type": "uint256"
        }
      ],
      "name": "createStaker",
      "outputs": [
        {
          "internalType": "address",
          "name": "",
          "type": "address"
        }
      ],
      "stateMutability": "nonpayable",
      "type": "function"
    },
    {
      "inputs": [
        {
          "internalType": "uint256",
          "name": "_amount",
          "type": "uint256"
        }
      ],
      "name": "dropToStaker",
      "outputs": [],
      "stateMutability": "nonpayable",
      "type": "function"
    },
    {
      "inputs": [],
      "name": "epochCreatedIndex",
      "outputs": [
        {
          "internalType": "uint256",
          "name": "",
          "type": "uint256"
        }
      ],
      "stateMutability": "view",
      "type": "function"
    },
    {
      "inputs": [
        {
          "internalType": "address",
          "name": "",
          "type": "address"
        }
      ],
      "name": "isStaker",
      "outputs": [
        {
          "internalType": "bool",
          "name": "",
          "type": "bool"
        }
      ],
      "stateMutability": "view",
      "type": "function"
    },
    {
      "inputs": [],
      "name": "kero",
      "outputs": [
        {
          "internalType": "contract Kerosene",
          "name": "",
          "type": "address"
        }
      ],
      "stateMutability": "view",
      "type": "function"
    },
    {
      "inputs": [],
      "name": "nonfungiblePositionManager",
      "outputs": [
        {
          "internalType": "contract INonfungiblePositionManager",
          "name": "",
          "type": "address"
        }
      ],
      "stateMutability": "view",
      "type": "function"
    },
    {
      "inputs": [],
      "name": "owner",
      "outputs": [
        {
          "internalType": "address",
          "name": "",
          "type": "address"
        }
      ],
      "stateMutability": "view",
      "type": "function"
    },
    {
      "inputs": [
        {
          "internalType": "address",
          "name": "_user",
          "type": "address"
        },
        {
          "internalType": "uint256",
          "name": "_tokenId",
          "type": "uint256"
        },
        {
          "internalType": "address",
          "name": "_staker",
          "type": "address"
        },
        {
          "internalType": "bool",
          "name": "isStaked",
          "type": "bool"
        }
      ],
      "name": "setUserToStaker",
      "outputs": [],
      "stateMutability": "nonpayable",
      "type": "function"
    },
    {
      "inputs": [
        {
          "internalType": "uint256",
          "name": "",
          "type": "uint256"
        }
      ],
      "name": "stakers",
      "outputs": [
        {
          "internalType": "address",
          "name": "",
          "type": "address"
        }
      ],
      "stateMutability": "view",
      "type": "function"
    },
    {
      "inputs": [],
      "name": "token0",
      "outputs": [
        {
          "internalType": "address",
          "name": "",
          "type": "address"
        }
      ],
      "stateMutability": "view",
      "type": "function"
    },
    {
      "inputs": [],
      "name": "token1",
      "outputs": [
        {
          "internalType": "address",
          "name": "",
          "type": "address"
        }
      ],
      "stateMutability": "view",
      "type": "function"
    },
    {
      "inputs": [
        {
          "internalType": "address",
          "name": "newOwner",
          "type": "address"
        }
      ],
      "name": "transferOwnership",
      "outputs": [],
      "stateMutability": "nonpayable",
      "type": "function"
    },
    {
      "inputs": [
        {
          "internalType": "address",
          "name": "",
          "type": "address"
        }
      ],
      "name": "userToStaker",
      "outputs": [
        {
          "internalType": "address",
          "name": "",
          "type": "address"
        }
      ],
      "stateMutability": "view",
      "type": "function"
    }
  ],
  "bytecode": "0x60803461011357601f611e7138819003918201601f19168301916001600160401b038311848410176101185780849260a094604052833981010312610113576100478161012e565b906100886100576020830161012e565b9160806100666040830161012e565b6100726060840161012e565b6001600160a01b0394909385938492910161012e565b16958260018060a01b031996816000938a8a8654161785556040519a857f8be0079c531659141344cd1fd0a4f28419497f9722a3daafe3b4186f6b6457e08180a31688600654161760065516866008541617600855508183168282161060001461010e57915b1683600254161760025516906001541617600155611d2e90816101438239f35b6100ee565b600080fd5b634e487b7160e01b600052604160045260246000fd5b51906001600160a01b03821682036101135756fe6080604052600436101561001257600080fd5b60003560e01c80630664e8d4146108175780630dfe1681146107ee578063175e54e614610752578063187a0dae1461072957806338c64359146102625780636f1e8533146102235780638da5cb5b146101fa5780639b26e409146101dc578063b44a2722146101b3578063d21220a71461018a578063f2fde38b1461011f578063f6b8a411146100e45763fd5e6dd1146100ab57600080fd5b346100df5760203660031901126100df576004356000526003602052602060018060a01b0360406000205416604051908152f35b600080fd5b346100df5760203660031901126100df5760206001600160a01b03806101086108ac565b166000526005825260406000205416604051908152f35b346100df5760203660031901126100df576101386108ac565b600054906001600160a01b03906101523383851614610957565b16809160018060a01b03191617600055337f8be0079c531659141344cd1fd0a4f28419497f9722a3daafe3b4186f6b6457e0600080a3005b346100df5760003660031901126100df576002546040516001600160a01b039091168152602090f35b346100df5760003660031901126100df576008546040516001600160a01b039091168152602090f35b346100df5760003660031901126100df576020600754604051908152f35b346100df5760003660031901126100df576000546040516001600160a01b039091168152602090f35b346100df5760203660031901126100df576001600160a01b036102446108ac565b166000526004602052602060ff604060002054166040519015158152f35b346100df5760c03660031901126100df5760043562ffffff811681036100df5760249081358060020b81036100df57604435918260020b83036100df576102b460018060a01b03600054163314610957565b60843560643510156106c8578260020b8260020b121561066a57600654600854600154600254604051966001600160a01b039485169691851694928316939092166001600160401b036101608901908111908911176106555762ffffff966101608901604052885260a4356020890152604088015260020b606087015260020b608086015260643560a086015260843560c086015260e08501526101008401521661012082015230610140820152600754806104fc575b50604051906001600160401b036113448301908111908311176104e7576113446109b5833980516001600160a01b03908116611344840190815260208084015190820152604080840151831690820152606080840151600290810b9183019190915260808085015190910b9082015260a0838101519082015260c0808401519082015260e080840151831690820152610100808401518316908201526101208084015162ffffff1690820152610140928301519091169181019190915281900361016001906000f080156104db576007549160001983146104c75750600160209201908160075560018060a01b0316906000526003825260406000208160018060a01b031982541617905580600052600482526040600020600160ff198254161790557fcf594b9c89b88189a6cd7e3312d50fc8dfa97a18a9c479db5c21799841e112a6604060075481519081528385820152a1604051908152f35b634e487b7160e01b60009081526011600452fd5b6040513d6000823e3d90fd5b82634e487b7160e01b60005260416004526000fd5b600052600360205260046101c060018060a01b036040600020541660405192838092635a2f3d0960e01b82525afa9081156104db57600091610597575b506064351115610549578261036b565b60405162461bcd60e51b8152602060048201526021818401527f5374616b6572466163746f72793a2065706f6368206e6f742066696e697368656044820152601960fa1b6064820152608490fd5b90506101c0813d6101c01161064d575b816105b56101c0938361091e565b810103126100df5760408101516001600160a01b038116036100df5760808101516001600160a01b038116036100df576105f160a08201610992565b506105fe60c08201610992565b506101008101519061061361012082016109a0565b5061062161014082016109a0565b5061016081015162ffffff8116036100df5761018001516001600160a01b038116036100df5783610539565b3d91506105a7565b88634e487b7160e01b60005260416004526000fd5b60405162461bcd60e51b8152602060048201526031818601527f5374616b6572466163746f72793a206c6f775469636b2073686f756c64206265604482015270206c657373207468616e2075705469636b60781b6064820152608490fd5b60405162461bcd60e51b8152602060048201526034818601527f5374616b6572466163746f72793a20737461727454696d652073686f756c64206044820152736265206c657373207468616e20656e6454696d6560601b6064820152608490fd5b346100df5760003660031901126100df576006546040516001600160a01b039091168152602090f35b346100df5760803660031901126100df5761076b6108ac565b6001600160a01b0360443581811692908390036100df5760643580151581036100df573360005260046020526107a860ff604060002054166108c2565b156107cf5716600090815260056020526040902080546001600160a01b0319169091179055005b16600090815260056020526040902080546001600160a01b0319169055005b346100df5760003660031901126100df576001546040516001600160a01b039091168152602090f35b346100df576020806003193601126100df576000903382526004815261084360ff6040842054166108c2565b8060018060a01b036006541660446040518095819363a9059cbb60e01b835233600484015260043560248401525af180156104db5761087e57005b81813d83116108a5575b610892818361091e565b810103126100df5751801515036100df57005b503d610888565b600435906001600160a01b03821682036100df57565b156108c957565b60405162461bcd60e51b815260206004820152602760248201527f5374616b6572466163746f72793a2063616c6c6572206973206e6f74207468656044820152661039ba30b5b2b960c91b6064820152608490fd5b601f909101601f19168101906001600160401b0382119082101761094157604052565b634e487b7160e01b600052604160045260246000fd5b1561095e57565b60405162461bcd60e51b815260206004820152600c60248201526b15539055551213d49256915160a21b6044820152606490fd5b51908160020b82036100df57565b51906001600160a01b03821682036100df5756fe608034620001b957601f6200134438819003918201601f1916830192916001600160401b039081851184861017620001be578084936040968752843961016093849181010312620001b957835192830190811183821017620001be57835280516001600160a01b0380821691828103620001b95784526020830151806020860152858401519180831692838103620001b95787870152620000a360608601620001d4565b92836060880152620000b860808701620001d4565b9687608082015260a0870151978860a083015260c08801518060c0840152620000e460e08a01620001e3565b918260e085015261010097620000fc898c01620001e3565b809986015261012097888c01519862ffffff8a168a03620001b9578990870152610140809c01518881169c8d8203620001b9578997015260018060a01b03199a8b60025416176002556003556004549162ffffff60a01b96879160b81b62ffffff60b81b169360018060d01b031916179160a01b16171760045589600555600655168560075416176007556008549260a01b1692169060018060b81b031916171760085560095416176009556000555161114b9081620001f98239f35b600080fd5b634e487b7160e01b600052604160045260246000fd5b51908160020b8203620001b957565b51906001600160a01b0382168203620001b95756fe60806040908082526004918236101561001757600080fd5b600092833560e01c928363150b7a0214610bce575082631959a00214610b805782632e1a7d4d14610a0b5782634641257d14610971578383635312ea8e1461084d575082635a2f3d091461079c5782635defa7d0146106a95782638aa2855014610689578263a694fc3a146100b557505063e3161ddd1461009757600080fd5b346100b257806003193601126100b2576100af610e51565b80f35b80fd5b9091503461068557602091826003193601126103af578135926005544210610655576006544211610622578254825163133f757160e31b8082528186018790529460249290916001600160a01b039161018091908a838388818886165afa9283156106165788828b888592869587996105c6575b50908161016f849372706f6f6c496e666f2e746f6b656e313a20257360681b96955161015481610cd9565b600a815269746f6b656e303a20257360b01b89820152611082565b61019984845161017e81610cd9565b600a815269746f6b656e313a20257360b01b89820152611082565b6101f68260075416936101d58582516101b181610cd9565b6013815272706f6f6c496e666f2e746f6b656e303a20257360681b8b820152611082565b6008549784891697889251916101ea83610cd9565b60138352820152611082565b160361058b578816036105505762ffffff809160a01c16911603610518578160a01c60020b9060020b036104da5760b81c60020b9060020b0361049c578385836009541688519283809263f6b8a41160e01b825233898301525afa908115610492579083918b91610456575b501661041a579088939291338552600b865286852097610280610e51565b828454169088519081528a8582015282818781855afa9283156104105787936103d5575b5050803b156103d157856102d081928c8b51948580948193632142170760e11b835230338d8501610d17565b03925af180156103c7579086916103b3575b505060018060801b031696876002820155600164e8d4a5100061030682548b610c5a565b0491015561031687600a54610d63565b600a556009541691823b156103af5760848492838a9589519687958694630baf2a7360e11b86523390860152840152306044840152600160648401525af180156103a55761038d575b50507f90890809c654f11d6e72a28fa60149770a0d11ec6c92319d6ceb2bb0a4ea1a1591519283523392a380f35b61039690610cb0565b6103a157843861035f565b8480fd5b84513d84823e3d90fd5b8380fd5b6103bc90610cb0565b6103a15784386102e2565b88513d88823e3d90fd5b8580fd5b6103f5929350803d10610409575b6103ed8183610cf4565b810190610da6565b5050505096505050505050509038806102a4565b503d6103e3565b89513d89823e3d90fd5b855162461bcd60e51b8152808401869052601781860152767573657220697320616c7265616479207374616b696e6760481b6044820152606490fd5b809250878092503d831161048b575b61046f8183610cf4565b81010312610487576104818391610d70565b38610262565b8980fd5b503d610465565b87513d8c823e3d90fd5b855162461bcd60e51b8152808401869052601981860152787469636b5570706572206973206e6f74207468652073616d6560381b6044820152606490fd5b875162461bcd60e51b8152808601889052601981880152787469636b4c6f776572206973206e6f74207468652073616d6560381b6044820152606490fd5b885162461bcd60e51b815280870189905260138189015272666565206973206e6f74207468652073616d6560681b6044820152606490fd5b8a5162461bcd60e51b81528089018b90526016818b015275746f6b656e31206973206e6f74207468652073616d6560501b6044820152606490fd5b8c5162461bcd60e51b8152808b018d90526016818d015275746f6b656e30206973206e6f74207468652073616d6560501b6044820152606490fd5b92955050965072706f6f6c496e666f2e746f6b656e313a20257360681b94506105fc9150873d8911610409576103ed8183610cf4565b50939e949c959b9699509597509295945061012992505050565b508851903d90823e3d90fd5b905162461bcd60e51b815291820152600f60248201526e6f6e6c792070726f63657373696e6760881b6044820152606490fd5b905162461bcd60e51b815291820152600c60248201526b1bdb9b1e481cdd185c9d195960a21b6044820152606490fd5b8280fd5b8382346106a557816003193601126106a55760209051600a8152f35b5080fd5b9083346100b25760203660031901126100b2576001600160a01b036106cc610c3f565b168152600b6020528181209060015490600654804211600014610795575b8154108061078a575b610726575b60208461071f85600164e8d4a51000610715886002850154610c5a565b0491015490610ca3565b9051908152f35b6003549064e8d4a510009182810292818404149015171561077757506020945064e8d4a5100061071561071f949361076c610766600195600a5490610c83565b82610d63565b5093945050506106f8565b634e487b7160e01b815260118652602490fd5b50600a5415156106f3565b50426106ea565b909150346106855782600319360112610685576101c092549162ffffff6001549260018060a01b0380600254169160035490546005546006549184600754169360085496866009541699600a549b602082519e8f90815201528c015260608b015284811660808b01528060a01c60020b60a08b015260b81c60020b60c08a015260e0890152610100880152610120870152811661014086015260a01c166101608401526101808301526101a0820152f35b9250903461096d57602036600319011261096d57338352600b60205280832082548335916001600160a01b03918216803b15610969578451632142170760e11b815290879082908183816108a58a33308f8501610d17565b03925af1801561095f5790879161094b575b509060019085518581527f5fafa99d0643513820be26656b45130b01e1c03062e1266bf36f88cbd3bd969560203392a282600282015501556009541692833b156103a15761091f938592838551809781958294630baf2a7360e11b8452309133908501610d39565b03925af190811561094257506109325750f35b61093b90610cb0565b6100b25780f35b513d84823e3d90fd5b61095490610cb0565b6103d15785386108b7565b85513d89823e3d90fd5b8680fd5b5050fd5b8382346106a557816003193601126106a557338252600b60205280822090610997610e51565b60028201916109ba6109db6109c66001865464e8d4a51000948591835490610c5a565b04940193845490610ca3565b946109d18633610f60565b5460015490610c5a565b049055519081527fc9695243a805adb74c91f28311176c65b417e842d5699893cef56d18bfa48cba60203392a280f35b9091503461068557602036600319011261068557803591338452600b60205280842091610a36610e51565b600283019285845494610a6a610a64600164e8d4a51000610a5882548b610c5a565b04950194855490610ca3565b33610f60565b556001541560011715610b6d5785905580546001600160a01b03908116803b15610969578684518092632142170760e11b8252818381610aae8c33308c8501610d17565b03925af18015610b6357610b4e575b5090859160095416803b1561068557610af283929183928651948580948193630baf2a7360e11b83528c309133908501610d39565b03925af18015610b4457610b30575b5050519081527ff279e6a1f5e320cca91135676d9cb6e44ca8a08c0b88342bcdb1144f6511b56860203392a380f35b610b3990610cb0565b6103af578338610b01565b83513d84823e3d90fd5b610b5b9096919296610cb0565b949038610abd565b84513d89823e3d90fd5b634e487b7160e01b865260118252602486fd5b8382346106a55760203660031901126106a55760609181906001600160a01b03610ba8610c3f565b168152600b60205220805491600260018301549201549181519384526020840152820152f35b84913461068557608036600319011261068557610be9610c3f565b506024356001600160a01b0381160361068557606435906001600160401b03908183116103a157366023840112156103a1578201359081116103af57369101602401116106a557630a85bd0160e11b8152602090f35b600435906001600160a01b0382168203610c5557565b600080fd5b81810292918115918404141715610c6d57565b634e487b7160e01b600052601160045260246000fd5b8115610c8d570490565b634e487b7160e01b600052601260045260246000fd5b91908203918211610c6d57565b6001600160401b038111610cc357604052565b634e487b7160e01b600052604160045260246000fd5b604081019081106001600160401b03821117610cc357604052565b601f909101601f19168101906001600160401b03821190821017610cc357604052565b6001600160a01b03918216815291166020820152604081019190915260600190565b6001600160a01b039182168152602081019290925290911660408201526000606082015260800190565b91908201809211610c6d57565b51906001600160a01b0382168203610c5557565b51908160020b8203610c5557565b51906001600160801b0382168203610c5557565b919082610180910312610c555781516001600160601b0381168103610c555791610dd260208201610d70565b91610ddf60408301610d70565b91610dec60608201610d70565b91608082015162ffffff81168103610c555791610e0b60a08201610d84565b91610e1860c08301610d84565b91610e2560e08201610d92565b916101008201519161012081015191610e4e610160610e476101408501610d92565b9301610d92565b90565b600654600090804211600014610f2557905b8054821115610f2157600a5415610f1e576003546009549091906001600160a01b0316803b156106a5578180916024604051809481936301993a3560e21b83528860048401525af18015610f1357610f04575b50906001549064e8d4a5100090818102918183041490151715610ef05790610ee4610eea92600a5490610c83565b90610d63565b60015555565b634e487b7160e01b83526011600452602483fd5b610f0d90610cb0565b38610eb6565b6040513d84823e3d90fd5b55565b5050565b504290610e63565b90816020910312610c5557518015158103610c555790565b6001600160a01b039091168152602081019190915260400190565b600254604080516370a0823160e01b81523060048201526020946001600160a01b03938416949293919291908684602481895afa93841561107757908794939291600094611046575b50838111156110215750610fda955060025416906000855180978195829463a9059cbb60e01b845260048401610f45565b03925af19081156110175750610fee575050565b8161100d92903d10611010575b6110058183610cf4565b810190610f2d565b50565b503d610ffb565b513d6000823e3d90fd5b92505093610fda946000855180978195829463a9059cbb60e01b845260048401610f45565b8581969295503d8311611070575b61105e8183610cf4565b81010312610c55578693519238610fa9565b503d611054565b85513d6000823e3d90fd5b60405190602092602083019363319af33360e01b85526040602485015282519283606486015260005b84811061110157505050916110ee608482846000979596888481998501015260018060a01b03166044830152601f80199101168101036064810184520182610cf4565b51906a636f6e736f6c652e6c6f675afa50565b8181018301518682016084015282016110ab56fea2646970667358221220e5c9cdf6ca0f6695ffa5f638b1a92620e37cf53be56199e63e1f5ad6327ab67564736f6c63430008180033a2646970667358221220810b0430354c9678ac0f75e0982e70601454b3d7bd25d7da2a20e365d6d8ff0764736f6c63430008180033",
  "linkReferences": {},
  "deployedLinkReferences": {}
}