{
  "_format": "hh-sol-artifact-1",
  "contractName": "VaultManager",
  "sourceName": "contracts/core/VaultManager.sol",
  "abi": [
    {
      "inputs": [],
      "name": "CanNotWithdrawInSameBlock",
      "type": "error"
    },
    {
      "inputs": [],
      "name": "CrTooHigh",
      "type": "error"
    },
    {
      "inputs": [],
      "name": "CrTooLow",
      "type": "error"
    },
    {
      "inputs": [],
      "name": "InvalidDNft",
      "type": "error"
    },
    {
      "inputs": [],
      "name": "InvalidInitialization",
      "type": "error"
    },
    {
      "inputs": [],
      "name": "NotDNftVault",
      "type": "error"
    },
    {
      "inputs": [],
      "name": "NotEnoughExoCollat",
      "type": "error"
    },
    {
      "inputs": [],
      "name": "NotInitializing",
      "type": "error"
    },
    {
      "inputs": [],
      "name": "NotLicensed",
      "type": "error"
    },
    {
      "inputs": [],
      "name": "NotOwner",
      "type": "error"
    },
    {
      "inputs": [
        {
          "internalType": "address",
          "name": "owner",
          "type": "address"
        }
      ],
      "name": "OwnableInvalidOwner",
      "type": "error"
    },
    {
      "inputs": [
        {
          "internalType": "address",
          "name": "account",
          "type": "address"
        }
      ],
      "name": "OwnableUnauthorizedAccount",
      "type": "error"
    },
    {
      "inputs": [],
      "name": "TooManyVaults",
      "type": "error"
    },
    {
      "inputs": [],
      "name": "VaultAlreadyAdded",
      "type": "error"
    },
    {
      "inputs": [],
      "name": "VaultHasAssets",
      "type": "error"
    },
    {
      "inputs": [],
      "name": "VaultNotAdded",
      "type": "error"
    },
    {
      "inputs": [],
      "name": "VaultNotKerosene",
      "type": "error"
    },
    {
      "inputs": [],
      "name": "VaultNotLicensed",
      "type": "error"
    },
    {
      "anonymous": false,
      "inputs": [
        {
          "indexed": true,
          "internalType": "uint256",
          "name": "id",
          "type": "uint256"
        },
        {
          "indexed": true,
          "internalType": "address",
          "name": "vault",
          "type": "address"
        }
      ],
      "name": "Added",
      "type": "event"
    },
    {
      "anonymous": false,
      "inputs": [
        {
          "indexed": true,
          "internalType": "uint256",
          "name": "id",
          "type": "uint256"
        },
        {
          "indexed": false,
          "internalType": "uint256",
          "name": "amount",
          "type": "uint256"
        },
        {
          "indexed": true,
          "internalType": "address",
          "name": "from",
          "type": "address"
        }
      ],
      "name": "BurnDyad",
      "type": "event"
    },
    {
      "anonymous": false,
      "inputs": [
        {
          "indexed": false,
          "internalType": "address",
          "name": "dNft",
          "type": "address"
        },
        {
          "indexed": false,
          "internalType": "address",
          "name": "dyad",
          "type": "address"
        },
        {
          "indexed": false,
          "internalType": "address",
          "name": "vaultLicenser",
          "type": "address"
        }
      ],
      "name": "Init",
      "type": "event"
    },
    {
      "anonymous": false,
      "inputs": [
        {
          "indexed": false,
          "internalType": "uint64",
          "name": "version",
          "type": "uint64"
        }
      ],
      "name": "Initialized",
      "type": "event"
    },
    {
      "anonymous": false,
      "inputs": [
        {
          "indexed": true,
          "internalType": "uint256",
          "name": "id",
          "type": "uint256"
        },
        {
          "indexed": true,
          "internalType": "address",
          "name": "from",
          "type": "address"
        },
        {
          "indexed": true,
          "internalType": "uint256",
          "name": "to",
          "type": "uint256"
        },
        {
          "indexed": false,
          "internalType": "uint256",
          "name": "amount",
          "type": "uint256"
        }
      ],
      "name": "Liquidate",
      "type": "event"
    },
    {
      "anonymous": false,
      "inputs": [
        {
          "indexed": true,
          "internalType": "uint256",
          "name": "id",
          "type": "uint256"
        },
        {
          "indexed": false,
          "internalType": "uint256",
          "name": "amount",
          "type": "uint256"
        },
        {
          "indexed": true,
          "internalType": "address",
          "name": "to",
          "type": "address"
        }
      ],
      "name": "MintDyad",
      "type": "event"
    },
    {
      "anonymous": false,
      "inputs": [
        {
          "indexed": true,
          "internalType": "address",
          "name": "previousOwner",
          "type": "address"
        },
        {
          "indexed": true,
          "internalType": "address",
          "name": "newOwner",
          "type": "address"
        }
      ],
      "name": "OwnershipTransferred",
      "type": "event"
    },
    {
      "anonymous": false,
      "inputs": [
        {
          "indexed": true,
          "internalType": "uint256",
          "name": "id",
          "type": "uint256"
        },
        {
          "indexed": true,
          "internalType": "address",
          "name": "vault",
          "type": "address"
        },
        {
          "indexed": false,
          "internalType": "uint256",
          "name": "amount",
          "type": "uint256"
        },
        {
          "indexed": true,
          "internalType": "address",
          "name": "to",
          "type": "address"
        }
      ],
      "name": "RedeemDyad",
      "type": "event"
    },
    {
      "anonymous": false,
      "inputs": [
        {
          "indexed": true,
          "internalType": "uint256",
          "name": "id",
          "type": "uint256"
        },
        {
          "indexed": true,
          "internalType": "address",
          "name": "vault",
          "type": "address"
        }
      ],
      "name": "Removed",
      "type": "event"
    },
    {
      "anonymous": false,
      "inputs": [
        {
          "indexed": false,
          "internalType": "address",
          "name": "kerosenseVault",
          "type": "address"
        },
        {
          "indexed": false,
          "internalType": "address",
          "name": "DyadXP",
          "type": "address"
        }
      ],
      "name": "SetKerosene",
      "type": "event"
    },
    {
      "inputs": [],
      "name": "LIQUIDATION_REWARD",
      "outputs": [
        {
          "internalType": "uint256",
          "name": "",
          "type": "uint256"
        }
      ],
      "stateMutability": "view",
      "type": "function"
    },
    {
      "inputs": [],
      "name": "MAX_VAULTS",
      "outputs": [
        {
          "internalType": "uint256",
          "name": "",
          "type": "uint256"
        }
      ],
      "stateMutability": "view",
      "type": "function"
    },
    {
      "inputs": [],
      "name": "MIN_COLLAT_RATIO",
      "outputs": [
        {
          "internalType": "uint256",
          "name": "",
          "type": "uint256"
        }
      ],
      "stateMutability": "view",
      "type": "function"
    },
    {
      "inputs": [
        {
          "internalType": "uint256",
          "name": "id",
          "type": "uint256"
        },
        {
          "internalType": "address",
          "name": "vault",
          "type": "address"
        }
      ],
      "name": "add",
      "outputs": [],
      "stateMutability": "nonpayable",
      "type": "function"
    },
    {
      "inputs": [
        {
          "internalType": "uint256",
          "name": "id",
          "type": "uint256"
        },
        {
          "internalType": "uint256",
          "name": "amount",
          "type": "uint256"
        }
      ],
      "name": "burnDyad",
      "outputs": [],
      "stateMutability": "nonpayable",
      "type": "function"
    },
    {
      "inputs": [
        {
          "internalType": "uint256",
          "name": "id",
          "type": "uint256"
        }
      ],
      "name": "collatRatio",
      "outputs": [
        {
          "internalType": "uint256",
          "name": "",
          "type": "uint256"
        }
      ],
      "stateMutability": "view",
      "type": "function"
    },
    {
      "inputs": [],
      "name": "dNft",
      "outputs": [
        {
          "internalType": "contract DNft",
          "name": "",
          "type": "address"
        }
      ],
      "stateMutability": "view",
      "type": "function"
    },
    {
      "inputs": [
        {
          "internalType": "uint256",
          "name": "id",
          "type": "uint256"
        },
        {
          "internalType": "address",
          "name": "vault",
          "type": "address"
        },
        {
          "internalType": "uint256",
          "name": "amount",
          "type": "uint256"
        }
      ],
      "name": "deposit",
      "outputs": [],
      "stateMutability": "nonpayable",
      "type": "function"
    },
    {
      "inputs": [],
      "name": "dyad",
      "outputs": [
        {
          "internalType": "contract Dyad",
          "name": "",
          "type": "address"
        }
      ],
      "stateMutability": "view",
      "type": "function"
    },
    {
      "inputs": [],
      "name": "dyadXP",
      "outputs": [
        {
          "internalType": "contract DyadXP",
          "name": "",
          "type": "address"
        }
      ],
      "stateMutability": "view",
      "type": "function"
    },
    {
      "inputs": [
        {
          "internalType": "uint256",
          "name": "id",
          "type": "uint256"
        }
      ],
      "name": "getTotalValue",
      "outputs": [
        {
          "internalType": "uint256",
          "name": "",
          "type": "uint256"
        }
      ],
      "stateMutability": "view",
      "type": "function"
    },
    {
      "inputs": [
        {
          "internalType": "uint256",
          "name": "id",
          "type": "uint256"
        }
      ],
      "name": "getVaults",
      "outputs": [
        {
          "internalType": "address[]",
          "name": "",
          "type": "address[]"
        }
      ],
      "stateMutability": "view",
      "type": "function"
    },
    {
      "inputs": [
        {
          "internalType": "uint256",
          "name": "id",
          "type": "uint256"
        }
      ],
      "name": "getVaultsValues",
      "outputs": [
        {
          "internalType": "uint256",
          "name": "exoValue",
          "type": "uint256"
        },
        {
          "internalType": "uint256",
          "name": "keroValue",
          "type": "uint256"
        }
      ],
      "stateMutability": "view",
      "type": "function"
    },
    {
      "inputs": [
        {
          "internalType": "uint256",
          "name": "id",
          "type": "uint256"
        },
        {
          "internalType": "address",
          "name": "vault",
          "type": "address"
        }
      ],
      "name": "hasVault",
      "outputs": [
        {
          "internalType": "bool",
          "name": "",
          "type": "bool"
        }
      ],
      "stateMutability": "view",
      "type": "function"
    },
    {
      "inputs": [
        {
          "internalType": "contract DNft",
          "name": "_dNft",
          "type": "address"
        },
        {
          "internalType": "contract Dyad",
          "name": "_dyad",
          "type": "address"
        },
        {
          "internalType": "contract VaultLicenser",
          "name": "_vaultLicenser",
          "type": "address"
        }
      ],
      "name": "initialize",
      "outputs": [],
      "stateMutability": "nonpayable",
      "type": "function"
    },
    {
      "inputs": [],
      "name": "keroseneVault",
      "outputs": [
        {
          "internalType": "address",
          "name": "",
          "type": "address"
        }
      ],
      "stateMutability": "view",
      "type": "function"
    },
    {
      "inputs": [
        {
          "internalType": "uint256",
          "name": "",
          "type": "uint256"
        }
      ],
      "name": "lastDeposit",
      "outputs": [
        {
          "internalType": "uint256",
          "name": "",
          "type": "uint256"
        }
      ],
      "stateMutability": "view",
      "type": "function"
    },
    {
      "inputs": [
        {
          "internalType": "uint256",
          "name": "id",
          "type": "uint256"
        },
        {
          "internalType": "uint256",
          "name": "to",
          "type": "uint256"
        },
        {
          "internalType": "uint256",
          "name": "amount",
          "type": "uint256"
        }
      ],
      "name": "liquidate",
      "outputs": [],
      "stateMutability": "nonpayable",
      "type": "function"
    },
    {
      "inputs": [
        {
          "internalType": "uint256",
          "name": "id",
          "type": "uint256"
        },
        {
          "internalType": "uint256",
          "name": "amount",
          "type": "uint256"
        },
        {
          "internalType": "address",
          "name": "to",
          "type": "address"
        }
      ],
      "name": "mintDyad",
      "outputs": [],
      "stateMutability": "nonpayable",
      "type": "function"
    },
    {
      "inputs": [],
      "name": "owner",
      "outputs": [
        {
          "internalType": "address",
          "name": "",
          "type": "address"
        }
      ],
      "stateMutability": "view",
      "type": "function"
    },
    {
      "inputs": [
        {
          "internalType": "uint256",
          "name": "id",
          "type": "uint256"
        },
        {
          "internalType": "address",
          "name": "vault",
          "type": "address"
        },
        {
          "internalType": "uint256",
          "name": "amount",
          "type": "uint256"
        },
        {
          "internalType": "address",
          "name": "to",
          "type": "address"
        }
      ],
      "name": "redeemDyad",
      "outputs": [
        {
          "internalType": "uint256",
          "name": "",
          "type": "uint256"
        }
      ],
      "stateMutability": "nonpayable",
      "type": "function"
    },
    {
      "inputs": [
        {
          "internalType": "uint256",
          "name": "id",
          "type": "uint256"
        },
        {
          "internalType": "address",
          "name": "vault",
          "type": "address"
        }
      ],
      "name": "remove",
      "outputs": [],
      "stateMutability": "nonpayable",
      "type": "function"
    },
    {
      "inputs": [],
      "name": "renounceOwnership",
      "outputs": [],
      "stateMutability": "nonpayable",
      "type": "function"
    },
    {
      "inputs": [
        {
          "internalType": "address",
          "name": "_keroseneVault",
          "type": "address"
        },
        {
          "internalType": "contract DyadXP",
          "name": "_dyadXP",
          "type": "address"
        }
      ],
      "name": "setKerosene",
      "outputs": [],
      "stateMutability": "nonpayable",
      "type": "function"
    },
    {
      "inputs": [
        {
          "internalType": "address",
          "name": "newOwner",
          "type": "address"
        }
      ],
      "name": "transferOwnership",
      "outputs": [],
      "stateMutability": "nonpayable",
      "type": "function"
    },
    {
      "inputs": [],
      "name": "vaultLicenser",
      "outputs": [
        {
          "internalType": "contract VaultLicenser",
          "name": "",
          "type": "address"
        }
      ],
      "stateMutability": "view",
      "type": "function"
    },
    {
      "inputs": [
        {
          "internalType": "uint256",
          "name": "id",
          "type": "uint256"
        },
        {
          "internalType": "address",
          "name": "vault",
          "type": "address"
        },
        {
          "internalType": "uint256",
          "name": "amount",
          "type": "uint256"
        },
        {
          "internalType": "address",
          "name": "to",
          "type": "address"
        }
      ],
      "name": "withdraw",
      "outputs": [],
      "stateMutability": "nonpayable",
      "type": "function"
    }
  ],
  "bytecode": "0x6080806040523461001657612736908161001c8239f35b600080fdfe60806040908082526004918236101561001757600080fd5b600092833560e01c928363065941f21461154f575082630f5eea911461152757826313661699146114fe57826316ae57a31461140057826320dc2088146113005782632b8bbbe8146111a6578263468d16d0146111015782634c3b7ee7146110de5782634f510210146110585782635636357a1461102f5782635f0f48bd14610ea0578263628ab25a14610e77578263715018a614610e1e57826378d8b90714610df55782638da5cb5b14610dbf5782639c110fe114610d9f5782639dfa4e9414610c495782639f0784ba1461079d578263ad0d75941461077a578263add95a5114610751578263b6eaea1714610735578263bc157ac114610501578263c0c53b8b14610361578263ccf2e88614610209578263d41f283c146101d9578263dd7f27a41461017f57505063f2fde38b1461015057600080fd5b3461017c57602036600319011261017c5761017961016c611589565b61017461226d565b6121d6565b80f35b80fd5b909150346101d557816003193601126101d5576101cc90826020946101a2611573565b83358252928652206001600160a01b03909116600090815260019091016020526040902054151590565b90519015158152f35b8280fd5b90833461017c57602036600319011261017c57506102026101fc60209335611f57565b9061167b565b9051908152f35b9150346101d55760603660031901126101d5576001600160a01b0360443581811693803593602435939092919086830361035c5760246020828a54168651928380926331a9108f60e11b82528b888301525afa908115610352578991610323575b50813391160361031457908792916001541691823b15610310578592878580946102a789519788968795869463020da84160e61b86528501611642565b03925af18015610306576102ee575b50507f7f657cc58c2af5fee5c8056bebe6de1f2e33938cd0d3f6324198849bf504d35a916020916102e6856122a6565b51908152a380f35b6102f7906115d7565b6103025784386102b6565b8480fd5b83513d84823e3d90fd5b8380fd5b5082516330cd747160e01b8152fd5b610345915060203d60201161034b575b61033d8183611600565b810190611623565b3861026a565b503d610333565b85513d8b823e3d90fd5b600080fd5b909150346101d55760603660031901126101d5576001600160a01b039080358281169081900361030257602435928084168094036104fd576044359081168091036104fd576000805160206126e183398151915293845460ff81881c16159460018060401b038216801590816104f5575b60011490816104eb575b1590816104e2575b506104d457506001600160401b0319811660011786557f30a8e4128bc3fa00e06603623cf0308c7f04b2260d5131bde0b4d17b797d746b9360609390929091866104b9575b50610432612651565b61043a612651565b610443336121d6565b8160018060a01b031984818c5416178b558281600154161760015560025416176002558751928352602083015286820152a161047d578280f35b805460ff60401b1916905551600181527fc7f505b2f371ae2175ee4913f4499e1f2633a7b5936321eed1cdaeb6115181d290602090a138808280f35b6001600160481b0319166001600160401b0117875538610429565b875163f92ee8a960e01b8152fd5b905015386103e4565b303b1591506103dc565b8791506103d2565b8580fd5b8382346107315760603660031901126107315782359061051f611573565b936044359260018060a01b038086541696845180986331a9108f60e11b8252848683015281602460209b8c935afa9081156106a4578891610714575b508233911603610704578190838852600589524386892055169684516338d52e0f60e01b8152818186818c5afa9081156106a457606483928a9283916106e7575b50828951916323b872dd60e01b8352338a8401528d60248401528b60448401525af13d15601f3d1160018a5114161716156106ae57508686973b156106a0578451631c57762b60e31b81528385820152866024820152878160448183865af180156106a45790889161068c575b505081600354168015159182610682575b5050610624578580f35b60065416803b156104fd578592836044928651978895869463f256753d60e01b865285015260248401525af19081156106795750610665575b808080808580f35b61066e906115d7565b61017c57808261065d565b513d84823e3d90fd5b149050888061061a565b610695906115d7565b6106a0578689610609565b8680fd5b86513d8a823e3d90fd5b8360649186519162461bcd60e51b835282015260146024820152731514905394d1915497d19493d357d1905253115160621b6044820152fd5b6106fe9150843d861161034b5761033d8183611600565b8c61059c565b84516330cd747160e01b81528490fd5b61072b9150893d8b1161034b5761033d8183611600565b8961055b565b5080fd5b8382346107315781600319360112610731576020905160068152f35b83823461073157816003193601126107315760015490516001600160a01b039091168152602090f35b838234610731578160031936011261073157602090516702c68af0bb1400008152f35b838234610731576107ad3661159f565b855485516331a9108f60e11b808252818a0187905260209990989496909590946001600160a01b0394939092908516908b81602481855afa908115610b38578491610c2c575b508533911603610c1c578a8a60248b518094819382528a8c8301525afa908115610ab6578391610bff575b508433911603610bef578360015416803b156101d55782886108599289838a8e5196879586948593634f752fb360e11b855233918501611642565b03925af18015610ab6578592918491610bd6575b50508851888152866000805160206126818339815191528d3393a3169487516307dc0d1d60e41b81528a8183818a5afa908115610ab6578391610bb9575b508851908b8284818963313ce56760e01b95868352165afa918215610b38578492610b9a575b5089516338d52e0f60e01b8152908c8285818c5afa918215610b905791848e928995948893610b71575b508d5195869384928352165afa918215610b38576109359261092f9261092a928f8893610b42575b50506116b7565b6116cb565b886116dc565b885163d24378eb60e01b81528b8184818b5afa908115610b38578491610b03575b5061096a90670de0b6b3a7640000926116ef565b04988a858454169160248b518094819382528a878301525afa908115610ab6578391610ae6575b508433911603610ad85784825260058a52878220544314610aca5783600354168015159081610ac0575b50610a5e575b853b1561073157818584926109e88c8c519586948594631cc6d2f960e31b86528501611642565b0381838a5af18015610a5457908a939291610a3a575b5050917fca70a9c93e1c3bc9192e8a6c70bf383ab46895bade3f9498e048cb1cdac8a1d292610a2c856122a6565b87519687521694a451908152f35b81929350610a47906115d7565b61017c57908189926109fe565b88513d84823e3d90fd5b8360065416803b156101d55782809160448c8c5194859384926305978fdb60e31b84528c8985015260248401525af18015610ab657908391610aa2575b50506109c1565b610aab906115d7565b61073157818b610a9b565b89513d85823e3d90fd5b905086148b6109bb565b87516306f5c2d560e31b8152fd5b87516330cd747160e01b8152fd5b610afd91508b3d8d1161034b5761033d8183611600565b8b610991565b90508b81813d8311610b31575b610b1a8183611600565b8101031261035c5751670de0b6b3a7640000610956565b503d610b10565b8a513d86823e3d90fd5b610b62929350803d10610b6a575b610b5a8183611600565b81019061169e565b908f8f610923565b503d610b50565b610b89919350843d861161034b5761033d8183611600565b91386108fb565b8b513d87823e3d90fd5b610bb29192508c8d3d10610b6a57610b5a8183611600565b908c6108d1565b610bd091508b3d8d1161034b5761033d8183611600565b8b6108ab565b610be2919293506115d7565b610731578390828c61086d565b87516330cd747160e01b81528690fd5b610c1691508b3d8d1161034b5761033d8183611600565b8b61081e565b88516330cd747160e01b81528790fd5b610c4391508c8d3d1061034b5761033d8183611600565b8c6107f3565b909150346101d557816003193601126101d557803590610c67611573565b9260018060a01b038086541694825180966331a9108f60e11b825286868301528160246020998a935afa908115610d95578891610d78575b508233911603610d695716938151633b495b5560e11b815284848201528181602481895afa908115610d5f578791610d32575b50610d2457829084875252610ce984828720612561565b15610d175750507f0d141fd7c77072fc48765e24d85a4727dc79f72cbb320ad2ba944e2914a51e6d8380a380f35b5163d3e232b360e01b8152fd5b50516314e93e6d60e21b8152fd5b90508181813d8311610d58575b610d498183611600565b8101031261035c575138610cd2565b503d610d3f565b83513d89823e3d90fd5b5050516330cd747160e01b8152fd5b610d8f9150873d891161034b5761033d8183611600565b38610c9f565b84513d8a823e3d90fd5b90833461017c57602036600319011261017c57506102026020923561213d565b8382346107315781600319360112610731576000805160206126a18339815191525490516001600160a01b039091168152602090f35b83823461073157816003193601126107315760065490516001600160a01b039091168152602090f35b833461017c578060031936011261017c57610e3761226d565b6000805160206126a183398151915280546001600160a01b031981169091556000906001600160a01b03166000805160206126c18339815191528280a380f35b833461017c57602036600319011261017c5750610e949035611f57565b82519182526020820152f35b83903461073157610eb03661159f565b855487516331a9108f60e11b8152808701869052939794959294936001600160a01b03916020908290602490829086165afa908115611025578891611006575b508133911603610ff6578587526005602052838720544314610fe657869781600398979854168015159081610fda575b50610f7e575b16803b156104fd5786868094610f4f875198899687958694631cc6d2f960e31b86528501611642565b03925af19081156106795750610f6a575b50610179826122a6565b610f73906115d7565b610731578183610f60565b8160065416803b15610fd65787809160448b895194859384926305978fdb60e31b84528b8401528c60248401525af180156106a457908891610fc2575b5050610f26565b610fcb906115d7565b6106a057868a610fbb565b8780fd5b9050828216148a610f20565b83516306f5c2d560e31b81528390fd5b83516330cd747160e01b81528390fd5b61101f915060203d60201161034b5761033d8183611600565b89610ef0565b85513d8a823e3d90fd5b83823461073157816003193601126107315760035490516001600160a01b039091168152602090f35b838234610731578060031936011261073157611072611589565b906024356001600160a01b0381811691829003610302577f3f923834409b4bbded464fd34cc2a3612a9c433dcf2a7dc83b11ff7b5bf7b32a936110b361226d565b16908060018060a01b031983816003541617600355600654161760065582519182526020820152a180f35b838234610731578160031936011261073157602090516714d1120d7b1600008152f35b833461017c576020918260031936011261073157809392933582528352818120908251808584549182815201908194845286842090845b818110611192575050508161114e910382611600565b83519485948186019282875251809352850193925b82811061117257505050500390f35b83516001600160a01b031685528695509381019392810192600101611163565b825484529288019260019283019201611138565b909150346101d557816003193601126101d5578035906111c4611573565b9260018060a01b038086541690825180926331a9108f60e11b8252868683015281602460209586935afa908115610d955788916112e3575b508133911603610d6957818160025416966024855180948193632950b0a960e21b835216998a898301525afa908115610d5f5787916112b6575b50156112a857838652828152600682872054101561129b57829084875252611260848287206124f3565b1561128e5750507f8ba5cdc385bc6c37c9a05ad09fbc238589c43602f4cee09c46856027df8a935a8380a380f35b51630cb3e97f60e31b8152fd5b505162c9312160e41b8152fd5b50516301418aa760e71b8152fd5b6112d69150823d84116112dc575b6112ce8183611600565b810190611663565b38611236565b503d6112c4565b6112fa9150833d851161034b5761033d8183611600565b386111fc565b838234610731576060366003190112610731578235906024359060018060a01b03808554168251906331a9108f60e11b80835286898401526020928381602481865afa9081156113f6579085918a916113d9575b5016156113c957829060248651809481938252898d8301525afa9182156113bf5787926113a2575b50501615611393575090610179916044359161170f565b51634ab600f960e11b81528490fd5b6113b89250803d1061034b5761033d8183611600565b878061137c565b84513d89823e3d90fd5b8451634ab600f960e11b81528990fd5b6113f09150853d871161034b5761033d8183611600565b8b611354565b86513d8b823e3d90fd5b9150346101d557806003193601126101d5578135906024359260018060a01b0360246020828854168551928380926331a9108f60e11b825289888301525afa9081156113bf5787916114df575b5081339116036114d05785906001541691823b1561073157611488928691838651809681958294634f752fb360e11b84528b33918501611642565b03925af180156114c6576114b3575b505191825260008051602061268183398151915260203393a380f35b6114bf909491946115d7565b9238611497565b82513d87823e3d90fd5b5090516330cd747160e01b8152fd5b6114f8915060203d60201161034b5761033d8183611600565b3861144d565b83823461073157816003193601126107315760025490516001600160a01b039091168152602090f35b838234610731578160031936011261073157905490516001600160a01b039091168152602090f35b92503461031057602036600319011261031057926020933581526005845220548152f35b602435906001600160a01b038216820361035c57565b600435906001600160a01b038216820361035c57565b608090600319011261035c57600435906001600160a01b03602435818116810361035c579160443591606435908116810361035c5790565b6001600160401b0381116115ea57604052565b634e487b7160e01b600052604160045260246000fd5b601f909101601f19168101906001600160401b038211908210176115ea57604052565b9081602091031261035c57516001600160a01b038116810361035c5790565b9081526001600160a01b039091166020820152604081019190915260600190565b9081602091031261035c5751801515810361035c5790565b9190820180921161168857565b634e487b7160e01b600052601160045260246000fd5b9081602091031261035c575160ff8116810361035c5790565b9060ff8091169116019060ff821161168857565b60ff16604d811161168857600a0a90565b8181029291811591840414171561168857565b81156116f9570490565b634e487b7160e01b600052601260045260246000fd5b91909161171b8161213d565b6714d1120d7b160000811015611f46576001546040516302d14bb360e31b81526004810184905260009290916001600160a01b0316602083602481845afa928315611f07578493611f12575b50803b1561031057836040518092634f752fb360e11b82528183816117918c338d60048501611642565b03925af18015611f0757611ef4575b5085835260056020524360408420556117bb6101fc85611f57565b908115611eeb578484526004602052604084205492845b84811061180d575050505050506040519182527fd47e75cd6a3c0e59e63919b525eb69ce3bfd7f8de011363e440f2c58273f74d960203393a4565b8686526004602052611822816040882061249c565b9054600254604051632950b0a960e21b81526001600160a01b03600385901b84901c81166004830152909160209183916024918391165afa908115611ec1578991611ecc575b5061187a575b50506001905b016117d2565b60405163039bc4f160e11b8152600481018a9052602081602481600387901b86901c6001600160a01b03165afa908115611ec1578991611e8f575b508015611e84576710a741a462780000861080611e7a575b15611bff5750670de0b6b3a7640000851015611bf957670de0b6b3a76400005b670de0b6b3a763ffff198101818111611be1576702c68af0bb14000090785c3bd5191b525a2484df7f5cfd6a43e17fc6f80abedcc69ba78111820215670de0b6b3a76400000215611bf55790670de0b6b3a7640000910204670de0b6b3a764000081018111611be15790670de0b6b3a764000061196a9201612238565b604051633b495b5560e11b8152600481018b905290602082602481600388901b87901c6001600160a01b03165afa8015611b23578a90611bad575b6119af92506124ca565b8a6000190481118b0215670de0b6b3a7640000021561035c5784670de0b6b3a76400008c6119de930204612238565b915b6003546001600160a01b03168015159081611b93575b50611b2e575b600381901b82901c6001600160a01b03163b15611b1f5760405163fa7c9bcf60e01b8152600481018b9052602481018d905260448101849052898160648183600387901b88901c6001600160a01b03165af18015611b2357908a91611b0b575b50506003546001600160a01b03168015159290919083611af0575b505050611a85575b8061186e565b6006546001600160a01b031690813b15610fd657879060448c83604051958694859363f256753d60e01b8552600485015260248401525af18015611ae557908791611ad1575b50611a7f565b611ada906115d7565b6104fd578538611acb565b6040513d89823e3d90fd5b60039190911b1c6001600160a01b0316149050388080611a77565b611b14906115d7565b611b1f578838611a5c565b8880fd5b6040513d8c823e3d90fd5b6006546001600160a01b0316803b15611b8f5789809160448d60405194859384926305978fdb60e31b845260048401528960248401525af18015611b2357908a91611b7b575b50506119fc565b611b84906115d7565b611b1f578838611b74565b8980fd5b600383901b84901c6001600160a01b0316149050386119f6565b506020823d602011611bd9575b81611bc760209383611600565b8101031261035c576119af91516119a5565b3d9150611bba565b634e487b7160e01b8a52601160045260248afd5b8a80fd5b846118ed565b611c128b611c0d8984612238565b6124ca565b611c1c868d612238565b785c3bd5191b525a2484df7f5cfd6a43e17fc6f80abedcc69ba781116702c68af0bb1400000215670de0b6b3a76400000215611bf557906101fc670de0b6b3a76400006702c68af0bb140000611c74940204826124ca565b81811115611e7357505b6040516307dc0d1d60e41b8152602081600481600388901b87901c6001600160a01b03165afa908115611b23576004916020918c91611e56575b5060405163313ce56760e01b815292839182906001600160a01b03165afa908115611b23578a91611e37575b506040516338d52e0f60e01b8152602081600481600389901b88901c6001600160a01b03165afa908115611e0f57600492916020918d91611e1a575b5060405163313ce56760e01b815293849182906001600160a01b03165afa918215611e0f57611d659392611d5f9261092a928e92611dee575b506116b7565b906116dc565b60405163d24378eb60e01b8152602081600481600388901b87901c6001600160a01b03165afa908115611b23578a91611db4575b50611dad90670de0b6b3a7640000926116ef565b04916119e0565b90506020813d602011611de6575b81611dcf60209383611600565b8101031261035c5751670de0b6b3a7640000611d99565b3d9150611dc2565b611e0891925060203d602011610b6a57610b5a8183611600565b9038611d59565b6040513d8d823e3d90fd5b611e319150823d841161034b5761033d8183611600565b38611d20565b611e50915060203d602011610b6a57610b5a8183611600565b38611ce4565b611e6d9150823d841161034b5761033d8183611600565b38611cb8565b9050611c7e565b508a8514156118cd565b505050600190611874565b90506020813d602011611eb9575b81611eaa60209383611600565b8101031261035c5751386118b5565b3d9150611e9d565b6040513d8b823e3d90fd5b611ee5915060203d6020116112dc576112ce8183611600565b38611868565b50505050505050565b611f00909391936115d7565b91386117a0565b6040513d86823e3d90fd5b9092506020813d602011611f3e575b81611f2e60209383611600565b8101031261031057519138611767565b3d9150611f21565b60405162bcccdd60e31b8152600490fd5b6000916000809280825260049160208381526040928383205494839060018060a01b038060025416925b888110611f9357505050505050505050565b84875282865281611fa6828a8a2061249c565b90549060031b1c16885190632950b0a960e21b82528085830152602491888184818a5afa908115612116578a91612120575b50611fe8575b5050600101611f81565b89516369cbf52d60e11b8152858101829052929c92888184818a5afa908115612116578a916120f9575b501561208d5787908a519283809263039bc4f160e11b82528a898301525afa908115612083578891612055575b5061204c9060019261167b565b9a5b9038611fde565b90508681813d831161207c575b61206c8183611600565b81010312610fd65751600161203f565b503d612062565b89513d8a823e3d90fd5b87908a9e939d9e519283809263039bc4f160e11b82528a898301525afa9081156120835788916120cb575b506120c59060019261167b565b9b61204e565b90508681813d83116120f2575b6120e28183611600565b81010312610fd6575160016120b8565b503d6120d8565b6121109150893d8b116112dc576112ce8183611600565b38612012565b8b513d8c823e3d90fd5b6121379150893d8b116112dc576112ce8183611600565b38611fd8565b6001546040516302d14bb360e31b8152600481018390529190602090839060249082906001600160a01b03165afa9182156121ca57600092612194575b509061218b6101fc61219193611f57565b90612458565b90565b91506020823d6020116121c2575b816121af60209383611600565b8101031261035c5790519061218b61217a565b3d91506121a2565b6040513d6000823e3d90fd5b6001600160a01b0390811690811561221f576000805160206126a183398151915280546001600160a01b031981168417909155166000805160206126c1833981519152600080a3565b604051631e4fbdf760e01b815260006004820152602490fd5b670de0b6b3a7640000907812725dd1d243aba0e75fe645cc4873f9e65afe688c928e1f21811182021583021561035c57020490565b6000805160206126a1833981519152546001600160a01b0316330361228e57565b60405163118cdaa760e01b8152336004820152602490fd5b6122af81611f57565b600154604080516302d14bb360e31b815260048101959095529392906020908190859060249082906001600160a01b03165afa93841561244d5760009461241e575b5083821061240d578451606081016001600160401b038111828210176115ea578652602b81527f65786f56616c75653a2025642c206b65726f56616c75653a2025642c206d696e828201526a1d1959111e58590e88095960aa1b868201528551908282019263a7a8785360e01b8452608060248401528151918260a485015260005b8381106123f9575050509260008061218b94846123cb60c4828a86836714d1120d7b1600009f9d6123e19f9c0101528860448301528960648301528b6084830152601f801991011681010360a4810184520182611600565b51906a636f6e736f6c652e6c6f675afa5061167b565b106123e95750565b5163206d2abd60e11b8152600490fd5b81810183015185820160c401528201612373565b8451633269bd2960e21b8152600490fd5b90938482813d8311612446575b6124358183611600565b8101031261017c57505192386122f1565b503d61242b565b85513d6000823e3d90fd5b90811561249457670de0b6b3a7640000907812725dd1d243aba0e75fe645cc4873f9e65afe688c928e1f21811182021583021561035c57020490565b505060001990565b80548210156124b45760005260206000200190600090565b634e487b7160e01b600052603260045260246000fd5b90670de0b6b3a7640000918160001904811182021583021561035c570290808204910615150190565b600082815260018201602052604090205461255a57805490600160401b8210156115ea578261254361252c84600180960185558461249c565b819391549060031b91821b91600019901b19161790565b905580549260005201602052604060002055600190565b5050600090565b9060018201906000928184528260205260408420549081151560001461264a576000199180830181811161263657825490848201918211612622578181036125ed575b505050805480156125d9578201916125bc838361249c565b909182549160031b1b191690555582526020526040812055600190565b634e487b7160e01b86526031600452602486fd5b61260d6125fd61252c938661249c565b90549060031b1c9283928661249c565b905586528460205260408620553880806125a4565b634e487b7160e01b88526011600452602488fd5b634e487b7160e01b87526011600452602487fd5b5050505090565b60ff6000805160206126e18339815191525460401c161561266e57565b604051631afcd79f60e31b8152600490fdfe0c3afe79693a0a8b287c7976e65c25875b65e90c75f5f3679c491cf27b7c1ab29016d09d72d40fdae2fd8ceac6b6234c7706214fd39c1cd1e609a0528c1993008be0079c531659141344cd1fd0a4f28419497f9722a3daafe3b4186f6b6457e0f0c57e16840df040f15088dc2f81fe391c3923bec73e23a9662efc9c229c6a00a2646970667358221220b5bd71bf46d7991f604a2365d811b2d3050b8f30e9f83e5fe263bf873e44cfd364736f6c63430008180033",
  "linkReferences": {},
  "deployedLinkReferences": {}
}