{"abi":[{"type":"constructor","inputs":[{"name":"_vaultManager","type":"address","internalType":"contract IVaultManager"},{"name":"_asset","type":"address","internalType":"contract ERC20"},{"name":"_oracle","type":"address","internalType":"contract IAggregatorV3"}],"stateMutability":"nonpayable"},{"type":"function","name":"STALE_DATA_TIMEOUT","inputs":[],"outputs":[{"name":"","type":"uint256","internalType":"uint256"}],"stateMutability":"view"},{"type":"function","name":"asset","inputs":[],"outputs":[{"name":"","type":"address","internalType":"contract ERC20"}],"stateMutability":"view"},{"type":"function","name":"assetPrice","inputs":[],"outputs":[{"name":"","type":"uint256","internalType":"uint256"}],"stateMutability":"view"},{"type":"function","name":"deposit","inputs":[{"name":"id","type":"uint256","internalType":"uint256"},{"name":"amount","type":"uint256","internalType":"uint256"}],"outputs":[],"stateMutability":"nonpayable"},{"type":"function","name":"getUsdValue","inputs":[{"name":"id","type":"uint256","internalType":"uint256"}],"outputs":[{"name":"","type":"uint256","internalType":"uint256"}],"stateMutability":"view"},{"type":"function","name":"id2asset","inputs":[{"name":"","type":"uint256","internalType":"uint256"}],"outputs":[{"name":"","type":"uint256","internalType":"uint256"}],"stateMutability":"view"},{"type":"function","name":"move","inputs":[{"name":"from","type":"uint256","internalType":"uint256"},{"name":"to","type":"uint256","internalType":"uint256"},{"name":"amount","type":"uint256","internalType":"uint256"}],"outputs":[],"stateMutability":"nonpayable"},{"type":"function","name":"oracle","inputs":[],"outputs":[{"name":"","type":"address","internalType":"contract IAggregatorV3"}],"stateMutability":"view"},{"type":"function","name":"vaultManager","inputs":[],"outputs":[{"name":"","type":"address","internalType":"contract IVaultManager"}],"stateMutability":"view"},{"type":"function","name":"withdraw","inputs":[{"name":"id","type":"uint256","internalType":"uint256"},{"name":"to","type":"address","internalType":"address"},{"name":"amount","type":"uint256","internalType":"uint256"}],"outputs":[],"stateMutability":"nonpayable"},{"type":"event","name":"Deposit","inputs":[{"name":"id","type":"uint256","indexed":true,"internalType":"uint256"},{"name":"amount","type":"uint256","indexed":false,"internalType":"uint256"}],"anonymous":false},{"type":"event","name":"Move","inputs":[{"name":"from","type":"uint256","indexed":true,"internalType":"uint256"},{"name":"to","type":"uint256","indexed":true,"internalType":"uint256"},{"name":"amount","type":"uint256","indexed":false,"internalType":"uint256"}],"anonymous":false},{"type":"event","name":"Withdraw","inputs":[{"name":"from","type":"uint256","indexed":true,"internalType":"uint256"},{"name":"to","type":"address","indexed":true,"internalType":"address"},{"name":"amount","type":"uint256","indexed":false,"internalType":"uint256"}],"anonymous":false},{"type":"error","name":"IncompleteRound","inputs":[]},{"type":"error","name":"NotVaultManager","inputs":[]},{"type":"error","name":"SafeCastOverflowedIntToUint","inputs":[{"name":"value","type":"int256","internalType":"int256"}]},{"type":"error","name":"StaleData","inputs":[]}],"bytecode":{"object":"0x60e0346100d957601f61092b38819003918201601f19168301916001600160401b038311848410176100de578084926060946040528339810103126100d95780516001600160a01b03919082811681036100d95760208201519183831683036100d9576040015192831683036100d95760805260a05260c05260405161083690816100f5823960805181818160ae0152818161017b0152818161028b0152610357015260a0518181816101d701528181610405015281816104ef01526106dc015260c05181818161039b0152818161049c01526106770152f35b600080fd5b634e487b7160e01b600052604160045260246000fdfe6040608081526004908136101561001557600080fd5b600091823560e01c8063073789e21461043457806338d52e0f146103f05780637692b6aa146103ca5780637dc0d1d0146103865780638a4adf2414610342578063aed350b314610325578063d24378eb146102fd578063e2bbb15814610271578063e63697c8146101485763fa7c9bcf1461008f57600080fd5b34610144576060366003190112610144576024359181359160443591907f00000000000000000000000000000000000000000000000000000000000000006001600160a01b0316330361013657507f7b4419c9db600f9cf56a16ec031da555aed923fa8228e732ae1e135811ab92f5916020918487528683528087206101168382546107f3565b905585875286835280872061012c83825461064b565b905551908152a380f35b905163027f480760e01b8152fd5b8280fd5b5034610144576060366003190112610144576001600160a01b0360243581811693833593909185900361026d57604435927f000000000000000000000000000000000000000000000000000000000000000016330361013657838652856020528186206101b68482546107f3565b90556020866044845163a9059cbb60e01b81528885820152866024820152827f00000000000000000000000000000000000000000000000000000000000000005af13d15601f3d1160018951141617161561023957507f9da6493a92039daf47d1f2d7a782299c5994c6323eb1e972f69c432089ec52bf9160209151908152a380f35b6020606492519162461bcd60e51b8352820152600f60248201526e1514905394d1915497d19052531151608a1b6044820152fd5b8580fd5b5034610144578160031936011261014457803591602435917f00000000000000000000000000000000000000000000000000000000000000006001600160a01b0316330361013657507fa3af609bf46297028ce551832669030f9effef2b02606d02cbbcc40fe6b47c55916020918486528583528086206102f383825461064b565b905551908152a280f35b50503461032157816003193601126103215760209061031a610658565b9051908152f35b5080fd5b505034610321578160031936011261032157602090516115188152f35b505034610321578160031936011261032157517f00000000000000000000000000000000000000000000000000000000000000006001600160a01b03168152602090f35b505034610321578160031936011261032157517f00000000000000000000000000000000000000000000000000000000000000006001600160a01b03168152602090f35b503461014457602036600319011261014457602092829135815280845220549051908152f35b505034610321578160031936011261032157517f00000000000000000000000000000000000000000000000000000000000000006001600160a01b03168152602090f35b5034610144576020928360031936011261058157813581528084526104648382205461045e610658565b90610584565b670de0b6b3a76400009081810291818304149015171561056e57835163313ce56760e01b8082526001600160a01b03929091878187817f000000000000000000000000000000000000000000000000000000000000000088165afa90811561056457916104de6104e4928a9594889161052c575b50610603565b90610614565b9486518094819382527f0000000000000000000000000000000000000000000000000000000000000000165afa9182156105595761031a93926104de929061052c5750610603565b61054c9150863d8811610552575b61054481836105ad565b8101906105e5565b386104d8565b503d61053a565b8451903d90823e3d90fd5b87513d87823e3d90fd5b506011602492634e487b7160e01b835252fd5b80fd5b8181029291811591840414171561059757565b634e487b7160e01b600052601160045260246000fd5b90601f8019910116810190811067ffffffffffffffff8211176105cf57604052565b634e487b7160e01b600052604160045260246000fd5b908160209103126105fe575160ff811681036105fe5790565b600080fd5b60ff16604d811161059757600a0a90565b811561061e570490565b634e487b7160e01b600052601260045260246000fd5b519069ffffffffffffffffffff821682036105fe57565b9190820180921161059757565b60408051633fabe5a360e21b8152906001600160a01b0360a0836004817f000000000000000000000000000000000000000000000000000000000000000085165afa80156107e8576000938491610793575b506115188101809111610597574211610782576000831261076a5760206004918351928380926301afd7c160e11b82527f0000000000000000000000000000000000000000000000000000000000000000165afa9182156107605750600091610726575b5061072290670de0b6b3a764000092610584565b0490565b90506020813d602011610758575b81610741602093836105ad565b810103126105fe5751670de0b6b3a764000061070e565b3d9150610734565b513d6000823e3d90fd5b8151635467221960e11b815260048101849052602490fd5b8151636ead710b60e01b8152600490fd5b93905060a0843d60a0116107e0575b816107af60a093836105ad565b8101031261058157506107c183610634565b5060208301516107d8608060608601519501610634565b5092386106aa565b3d91506107a2565b82513d6000823e3d90fd5b919082039182116105975756fea2646970667358221220bd9f56d8d42e6556e1ab694f8a148f0ff2240900db0ad10015e56042e0c02f4964736f6c63430008180033","linkReferences":{}},"methodIdentifiers":{"STALE_DATA_TIMEOUT()":"aed350b3","asset()":"38d52e0f","assetPrice()":"d24378eb","deposit(uint256,uint256)":"e2bbb158","getUsdValue(uint256)":"073789e2","id2asset(uint256)":"7692b6aa","move(uint256,uint256,uint256)":"fa7c9bcf","oracle()":"7dc0d1d0","vaultManager()":"8a4adf24","withdraw(uint256,address,uint256)":"e63697c8"},"id":9}