{"abi":[{"type":"constructor","inputs":[{"name":"params","type":"tuple","internalType":"struct StakerFactory.StakeDeployedStruct","components":[{"name":"kero","type":"address","internalType":"contract Kerosene"},{"name":"keroPerBlock","type":"uint256","internalType":"uint256"},{"name":"nonfungiblePositionManager","type":"address","internalType":"contract INonfungiblePositionManager"},{"name":"lowTick","type":"int24","internalType":"int24"},{"name":"upTick","type":"int24","internalType":"int24"},{"name":"startBlock","type":"uint256","internalType":"uint256"},{"name":"endBlock","type":"uint256","internalType":"uint256"},{"name":"token0","type":"address","internalType":"address"},{"name":"token1","type":"address","internalType":"address"},{"name":"fee","type":"uint24","internalType":"uint24"},{"name":"factory","type":"address","internalType":"contract StakerFactory"}]}],"stateMutability":"nonpayable"},{"type":"function","name":"BONUS_MULTIPLIER","inputs":[],"outputs":[{"name":"","type":"uint256","internalType":"uint256"}],"stateMutability":"view"},{"type":"function","name":"emergencyWithdraw","inputs":[{"name":"tokenId","type":"uint256","internalType":"uint256"}],"outputs":[],"stateMutability":"nonpayable"},{"type":"function","name":"harvest","inputs":[],"outputs":[],"stateMutability":"nonpayable"},{"type":"function","name":"onERC721Received","inputs":[{"name":"","type":"address","internalType":"address"},{"name":"from","type":"address","internalType":"address"},{"name":"tokenId","type":"uint256","internalType":"uint256"},{"name":"data","type":"bytes","internalType":"bytes"}],"outputs":[{"name":"","type":"bytes4","internalType":"bytes4"}],"stateMutability":"nonpayable"},{"type":"function","name":"pendingKero","inputs":[{"name":"account","type":"address","internalType":"address"}],"outputs":[{"name":"","type":"uint256","internalType":"uint256"}],"stateMutability":"view"},{"type":"function","name":"poolInfo","inputs":[],"outputs":[{"name":"lastRewardBlock","type":"uint256","internalType":"uint256"},{"name":"accKeroPerShare","type":"uint256","internalType":"uint256"},{"name":"kero","type":"address","internalType":"contract Kerosene"},{"name":"keroPerBlock","type":"uint256","internalType":"uint256"},{"name":"nonfungiblePositionManager","type":"address","internalType":"contract INonfungiblePositionManager"},{"name":"lowTick","type":"int24","internalType":"int24"},{"name":"upTick","type":"int24","internalType":"int24"},{"name":"startBlock","type":"uint256","internalType":"uint256"},{"name":"endBlock","type":"uint256","internalType":"uint256"},{"name":"token0","type":"address","internalType":"address"},{"name":"token1","type":"address","internalType":"address"},{"name":"fee","type":"uint24","internalType":"uint24"},{"name":"factory","type":"address","internalType":"contract StakerFactory"},{"name":"totalLiquidity","type":"uint256","internalType":"uint256"}],"stateMutability":"view"},{"type":"function","name":"stake","inputs":[{"name":"tokenId","type":"uint256","internalType":"uint256"}],"outputs":[],"stateMutability":"nonpayable"},{"type":"function","name":"updatePool","inputs":[],"outputs":[],"stateMutability":"nonpayable"},{"type":"function","name":"userInfo","inputs":[{"name":"","type":"address","internalType":"address"}],"outputs":[{"name":"tokenId","type":"uint256","internalType":"uint256"},{"name":"rewardDebt","type":"uint256","internalType":"uint256"},{"name":"liquidity","type":"uint256","internalType":"uint256"}],"stateMutability":"view"},{"type":"function","name":"withdraw","inputs":[{"name":"tokenId","type":"uint256","internalType":"uint256"}],"outputs":[],"stateMutability":"nonpayable"},{"type":"event","name":"Deposit","inputs":[{"name":"user","type":"address","indexed":true,"internalType":"address"},{"name":"tokenId","type":"uint256","indexed":true,"internalType":"uint256"},{"name":"amount","type":"uint256","indexed":false,"internalType":"uint256"}],"anonymous":false},{"type":"event","name":"EmergencyWithdraw","inputs":[{"name":"user","type":"address","indexed":true,"internalType":"address"},{"name":"tokenId","type":"uint256","indexed":false,"internalType":"uint256"}],"anonymous":false},{"type":"event","name":"Harvest","inputs":[{"name":"user","type":"address","indexed":true,"internalType":"address"},{"name":"amount","type":"uint256","indexed":false,"internalType":"uint256"}],"anonymous":false},{"type":"event","name":"Withdraw","inputs":[{"name":"user","type":"address","indexed":true,"internalType":"address"},{"name":"tokenId","type":"uint256","indexed":true,"internalType":"uint256"},{"name":"amount","type":"uint256","indexed":false,"internalType":"uint256"}],"anonymous":false}],"bytecode":{"object":"0x608034620001b957601f620011d338819003918201601f1916830192916001600160401b039081851184861017620001be578084936040968752843961016093849181010312620001b957835192830190811183821017620001be57835280516001600160a01b0380821691828103620001b95784526020830151806020860152858401519180831692838103620001b95787870152620000a360608601620001d4565b92836060880152620000b860808701620001d4565b9687608082015260a0870151978860a083015260c08801518060c0840152620000e460e08a01620001e3565b918260e085015261010097620000fc898c01620001e3565b809986015261012097888c01519862ffffff8a168a03620001b9578990870152610140809c01518881169c8d8203620001b9578997015260018060a01b03199a8b60025416176002556003556004549162ffffff60a01b96879160b81b62ffffff60b81b169360018060d01b031916179160a01b16171760045589600555600655168560075416176007556008549260a01b1692169060018060b81b0319161717600855600954161760095560005551610fda9081620001f98239f35b600080fd5b634e487b7160e01b600052604160045260246000fd5b51908160020b8203620001b957565b51906001600160a01b0382168203620001b95756fe60806040908082526004918236101561001757600080fd5b600092833560e01c928363150b7a0214610b4f575082631959a00214610b015782632e1a7d4d1461096d5782634641257d146108d3578383635312ea8e1461078d575082635a2f3d09146106dc5782635defa7d0146105e95782638aa28550146105c9578263a694fc3a146100b557505063e3161ddd1461009757600080fd5b346100b257806003193601126100b2576100af610d71565b80f35b80fd5b909150346105c557602091826003193601126102fd578135926005544310610595576006544311610562578254825163133f757160e31b8082528186018790529460249290916001600160a01b039161018091908a838388818886165afa9283156105565781829083928496610522575b508780600754169116036104e75760085490878083169116036104ac5762ffffff809160a01c16911603610474578160a01c60020b9060020b036104325760b81c60020b9060020b036103f0578385836009541688519283809263f6b8a41160e01b825233898301525afa9081156103e6579083918b916103aa575b5016610368579088939291338552600b8652868520976101c0610d71565b828454169088519081528a8582015282818781855afa92831561035e578793610323575b5050803b1561031f578751632142170760e11b815233858201908152306020820152604081018c90529091879183919082908490829060600103925af1801561031557908691610301575b50506001600160801b031696876002820155600164e8d4a5100061025482548b610bdc565b0491015561026487600a54610c7e565b600a556009541691823b156102fd5760848492838a9589519687958694630baf2a7360e11b86523390860152840152306044840152600160648401525af180156102f3576102db575b50507f90890809c654f11d6e72a28fa60149770a0d11ec6c92319d6ceb2bb0a4ea1a1591519283523392a380f35b6102e490610c32565b6102ef5784386102ad565b8480fd5b84513d84823e3d90fd5b8380fd5b61030a90610c32565b6102ef57843861022f565b88513d88823e3d90fd5b8580fd5b610343929350803d10610357575b61033b8183610c5c565b810190610cc1565b5050505096505050505050509038806101e4565b503d610331565b89513d89823e3d90fd5b855162461bcd60e51b81528084018690526017818601527f7573657220697320616c7265616479207374616b696e670000000000000000006044820152606490fd5b809250878092503d83116103df575b6103c38183610c5c565b810103126103db576103d58391610c8b565b386101a2565b8980fd5b503d6103b9565b87513d8c823e3d90fd5b855162461bcd60e51b81528084018690526019818601527f7469636b5570706572206973206e6f74207468652073616d65000000000000006044820152606490fd5b875162461bcd60e51b81528086018890526019818801527f7469636b4c6f776572206973206e6f74207468652073616d65000000000000006044820152606490fd5b885162461bcd60e51b815280870189905260138189015272666565206973206e6f74207468652073616d6560681b6044820152606490fd5b8a5162461bcd60e51b81528089018b90526016818b015275746f6b656e31206973206e6f74207468652073616d6560501b6044820152606490fd5b8a5162461bcd60e51b81528089018b90526016818b015275746f6b656e30206973206e6f74207468652073616d6560501b6044820152606490fd5b935050505061053f919250833d85116103575761033b8183610c5c565b50939a995093975093959350389250610126915050565b508851903d90823e3d90fd5b905162461bcd60e51b815291820152600f60248201526e6f6e6c792070726f63657373696e6760881b6044820152606490fd5b905162461bcd60e51b815291820152600c60248201526b1bdb9b1e481cdd185c9d195960a21b6044820152606490fd5b8280fd5b8382346105e557816003193601126105e55760209051600a8152f35b5080fd5b9083346100b25760203660031901126100b2576001600160a01b0361060c610bc1565b168152600b60205281812090600154906006548043116000146106d5575b815410806106ca575b610666575b60208461065f85600164e8d4a51000610655886002850154610bdc565b0491015490610c25565b9051908152f35b6003549064e8d4a51000918281029281840414901517156106b757506020945064e8d4a5100061065561065f94936106ac6106a6600195600a5490610c05565b82610c7e565b509394505050610638565b634e487b7160e01b815260118652602490fd5b50600a541515610633565b504361062a565b909150346105c557826003193601126105c5576101c092549162ffffff6001549260018060a01b0380600254169160035490546005546006549184600754169360085496866009541699600a549b602082519e8f90815201528c015260608b015284811660808b01528060a01c60020b60a08b015260b81c60020b60c08a015260e0890152610100880152610120870152811661014086015260a01c166101608401526101808301526101a0820152f35b925090346108cf5760203660031901126108cf57338352600b60205280832082548335916001600160a01b03918216803b156108cb578451632142170760e11b815230878201908152336020820152604081018690529091889183919082908490829060600103925af180156108c1579087916108ad575b509060019085518581527f5fafa99d0643513820be26656b45130b01e1c03062e1266bf36f88cbd3bd969560203392a282600282015501556009541692833b156102ef578251630baf2a7360e11b8152339181019182526020820192909252306040820152600060608201529092849184919082908490829060800103925af19081156108a457506108945750f35b61089d90610c32565b6100b25780f35b513d84823e3d90fd5b6108b690610c32565b61031f578538610805565b85513d89823e3d90fd5b8680fd5b5050fd5b8382346105e557816003193601126105e557338252600b602052808220906108f9610d71565b600282019161091c61093d6109286001865464e8d4a51000948591835490610bdc565b04940193845490610c25565b946109338633610e65565b5460015490610bdc565b049055519081527fc9695243a805adb74c91f28311176c65b417e842d5699893cef56d18bfa48cba60203392a280f35b909150346105c55760203660031901126105c557803591338452600b60205280842091610998610d71565b6002830192858454946109cc6109c6600164e8d4a510006109ba82548b610bdc565b04950194855490610c25565b33610e65565b556001541560011715610aee5785905580546001600160a01b03908116803b156108cb578351632142170760e11b815230848201908152336020820152604081018890529091889183919082908490829060600103925af18015610ae457610acf575b5090859160095416803b156105c5578351630baf2a7360e11b8152339281019283526020830187905230604084015260006060840152918391839182908490829060800103925af18015610ac557610ab1575b5050519081527ff279e6a1f5e320cca91135676d9cb6e44ca8a08c0b88342bcdb1144f6511b56860203392a380f35b610aba90610c32565b6102fd578338610a82565b83513d84823e3d90fd5b610adc9096919296610c32565b949038610a2f565b84513d89823e3d90fd5b634e487b7160e01b865260118252602486fd5b8382346105e55760203660031901126105e55760609181906001600160a01b03610b29610bc1565b168152600b60205220805491600260018301549201549181519384526020840152820152f35b8491346105c55760803660031901126105c557610b6a610bc1565b506024356001600160a01b038116036105c5576064359067ffffffffffffffff908183116102ef57366023840112156102ef578201359081116102fd57369101602401116105e557630a85bd0160e11b8152602090f35b600435906001600160a01b0382168203610bd757565b600080fd5b81810292918115918404141715610bef57565b634e487b7160e01b600052601160045260246000fd5b8115610c0f570490565b634e487b7160e01b600052601260045260246000fd5b91908203918211610bef57565b67ffffffffffffffff8111610c4657604052565b634e487b7160e01b600052604160045260246000fd5b90601f8019910116810190811067ffffffffffffffff821117610c4657604052565b91908201809211610bef57565b51906001600160a01b0382168203610bd757565b51908160020b8203610bd757565b51906001600160801b0382168203610bd757565b919082610180910312610bd75781516bffffffffffffffffffffffff81168103610bd75791610cf260208201610c8b565b91610cff60408301610c8b565b91610d0c60608201610c8b565b91608082015162ffffff81168103610bd75791610d2b60a08201610c9f565b91610d3860c08301610c9f565b91610d4560e08201610cad565b916101008201519161012081015191610d6e610160610d676101408501610cad565b9301610cad565b90565b600654600090804311600014610e4557905b8054821115610e4157600a5415610e3e576003546009549091906001600160a01b0316803b156105e5578180916024604051809481936301993a3560e21b83528860048401525af18015610e3357610e24575b50906001549064e8d4a5100090818102918183041490151715610e105790610e04610e0a92600a5490610c05565b90610c7e565b60015555565b634e487b7160e01b83526011600452602483fd5b610e2d90610c32565b38610dd6565b6040513d84823e3d90fd5b55565b5050565b504390610d83565b90816020910312610bd757518015158103610bd75790565b600254604080516370a0823160e01b81523060048201526020946001600160a01b03938416949293919291908684602481895afa938415610f9957908794939291600094610f68575b5083811115610f355750600254855163a9059cbb60e01b81526001600160a01b039093166004840152602483019390935290945084911681600081604481015b03925af1908115610f2b5750610f02575050565b81610f2192903d10610f24575b610f198183610c5c565b810190610e4d565b50565b503d610f0f565b513d6000823e3d90fd5b855163a9059cbb60e01b81526001600160a01b039093166004840152602483015250938491508160008160448101610eee565b8581969295503d8311610f92575b610f808183610c5c565b81010312610bd7578693519238610eae565b503d610f76565b85513d6000823e3d90fdfea2646970667358221220433fa4d1e558f5582fc7e275501436f62949c3636f57bf942e3001827a44799e64736f6c63430008180033","linkReferences":{}},"methodIdentifiers":{"BONUS_MULTIPLIER()":"8aa28550","emergencyWithdraw(uint256)":"5312ea8e","harvest()":"4641257d","onERC721Received(address,address,uint256,bytes)":"150b7a02","pendingKero(address)":"5defa7d0","poolInfo()":"5a2f3d09","stake(uint256)":"a694fc3a","updatePool()":"e3161ddd","userInfo(address)":"1959a002","withdraw(uint256)":"2e1a7d4d"},"id":32}