{"abi":[{"type":"function","name":"INSIDER_MINTS","inputs":[],"outputs":[{"name":"","type":"uint256","internalType":"uint256"}],"stateMutability":"view"},{"type":"function","name":"PRICE_INCREASE","inputs":[],"outputs":[{"name":"","type":"uint256","internalType":"uint256"}],"stateMutability":"view"},{"type":"function","name":"START_PRICE","inputs":[],"outputs":[{"name":"","type":"uint256","internalType":"uint256"}],"stateMutability":"view"},{"type":"function","name":"approve","inputs":[{"name":"to","type":"address","internalType":"address"},{"name":"tokenId","type":"uint256","internalType":"uint256"}],"outputs":[],"stateMutability":"nonpayable"},{"type":"function","name":"balanceOf","inputs":[{"name":"owner","type":"address","internalType":"address"}],"outputs":[{"name":"","type":"uint256","internalType":"uint256"}],"stateMutability":"view"},{"type":"function","name":"drain","inputs":[{"name":"to","type":"address","internalType":"address"}],"outputs":[],"stateMutability":"nonpayable"},{"type":"function","name":"getApproved","inputs":[{"name":"tokenId","type":"uint256","internalType":"uint256"}],"outputs":[{"name":"","type":"address","internalType":"address"}],"stateMutability":"view"},{"type":"function","name":"initialize","inputs":[],"outputs":[],"stateMutability":"nonpayable"},{"type":"function","name":"insiderMints","inputs":[],"outputs":[{"name":"","type":"uint256","internalType":"uint256"}],"stateMutability":"view"},{"type":"function","name":"isApprovedForAll","inputs":[{"name":"owner","type":"address","internalType":"address"},{"name":"operator","type":"address","internalType":"address"}],"outputs":[{"name":"","type":"bool","internalType":"bool"}],"stateMutability":"view"},{"type":"function","name":"mintInsiderNft","inputs":[{"name":"to","type":"address","internalType":"address"}],"outputs":[{"name":"","type":"uint256","internalType":"uint256"}],"stateMutability":"nonpayable"},{"type":"function","name":"mintNft","inputs":[{"name":"to","type":"address","internalType":"address"}],"outputs":[{"name":"","type":"uint256","internalType":"uint256"}],"stateMutability":"payable"},{"type":"function","name":"name","inputs":[],"outputs":[{"name":"","type":"string","internalType":"string"}],"stateMutability":"view"},{"type":"function","name":"owner","inputs":[],"outputs":[{"name":"","type":"address","internalType":"address"}],"stateMutability":"view"},{"type":"function","name":"ownerOf","inputs":[{"name":"tokenId","type":"uint256","internalType":"uint256"}],"outputs":[{"name":"","type":"address","internalType":"address"}],"stateMutability":"view"},{"type":"function","name":"publicMints","inputs":[],"outputs":[{"name":"","type":"uint256","internalType":"uint256"}],"stateMutability":"view"},{"type":"function","name":"renounceOwnership","inputs":[],"outputs":[],"stateMutability":"nonpayable"},{"type":"function","name":"safeTransferFrom","inputs":[{"name":"from","type":"address","internalType":"address"},{"name":"to","type":"address","internalType":"address"},{"name":"tokenId","type":"uint256","internalType":"uint256"}],"outputs":[],"stateMutability":"nonpayable"},{"type":"function","name":"safeTransferFrom","inputs":[{"name":"from","type":"address","internalType":"address"},{"name":"to","type":"address","internalType":"address"},{"name":"tokenId","type":"uint256","internalType":"uint256"},{"name":"data","type":"bytes","internalType":"bytes"}],"outputs":[],"stateMutability":"nonpayable"},{"type":"function","name":"setApprovalForAll","inputs":[{"name":"operator","type":"address","internalType":"address"},{"name":"approved","type":"bool","internalType":"bool"}],"outputs":[],"stateMutability":"nonpayable"},{"type":"function","name":"supportsInterface","inputs":[{"name":"interfaceId","type":"bytes4","internalType":"bytes4"}],"outputs":[{"name":"","type":"bool","internalType":"bool"}],"stateMutability":"view"},{"type":"function","name":"symbol","inputs":[],"outputs":[{"name":"","type":"string","internalType":"string"}],"stateMutability":"view"},{"type":"function","name":"tokenByIndex","inputs":[{"name":"index","type":"uint256","internalType":"uint256"}],"outputs":[{"name":"","type":"uint256","internalType":"uint256"}],"stateMutability":"view"},{"type":"function","name":"tokenOfOwnerByIndex","inputs":[{"name":"owner","type":"address","internalType":"address"},{"name":"index","type":"uint256","internalType":"uint256"}],"outputs":[{"name":"","type":"uint256","internalType":"uint256"}],"stateMutability":"view"},{"type":"function","name":"tokenURI","inputs":[{"name":"tokenId","type":"uint256","internalType":"uint256"}],"outputs":[{"name":"","type":"string","internalType":"string"}],"stateMutability":"view"},{"type":"function","name":"totalSupply","inputs":[],"outputs":[{"name":"","type":"uint256","internalType":"uint256"}],"stateMutability":"view"},{"type":"function","name":"transferFrom","inputs":[{"name":"from","type":"address","internalType":"address"},{"name":"to","type":"address","internalType":"address"},{"name":"tokenId","type":"uint256","internalType":"uint256"}],"outputs":[],"stateMutability":"nonpayable"},{"type":"function","name":"transferOwnership","inputs":[{"name":"newOwner","type":"address","internalType":"address"}],"outputs":[],"stateMutability":"nonpayable"},{"type":"event","name":"Approval","inputs":[{"name":"owner","type":"address","indexed":true,"internalType":"address"},{"name":"approved","type":"address","indexed":true,"internalType":"address"},{"name":"tokenId","type":"uint256","indexed":true,"internalType":"uint256"}],"anonymous":false},{"type":"event","name":"ApprovalForAll","inputs":[{"name":"owner","type":"address","indexed":true,"internalType":"address"},{"name":"operator","type":"address","indexed":true,"internalType":"address"},{"name":"approved","type":"bool","indexed":false,"internalType":"bool"}],"anonymous":false},{"type":"event","name":"Drained","inputs":[{"name":"to","type":"address","indexed":true,"internalType":"address"},{"name":"amount","type":"uint256","indexed":false,"internalType":"uint256"}],"anonymous":false},{"type":"event","name":"Initialized","inputs":[{"name":"version","type":"uint64","indexed":false,"internalType":"uint64"}],"anonymous":false},{"type":"event","name":"MintedInsiderNft","inputs":[{"name":"id","type":"uint256","indexed":true,"internalType":"uint256"},{"name":"to","type":"address","indexed":true,"internalType":"address"}],"anonymous":false},{"type":"event","name":"MintedNft","inputs":[{"name":"id","type":"uint256","indexed":true,"internalType":"uint256"},{"name":"to","type":"address","indexed":true,"internalType":"address"}],"anonymous":false},{"type":"event","name":"OwnershipTransferred","inputs":[{"name":"previousOwner","type":"address","indexed":true,"internalType":"address"},{"name":"newOwner","type":"address","indexed":true,"internalType":"address"}],"anonymous":false},{"type":"event","name":"Transfer","inputs":[{"name":"from","type":"address","indexed":true,"internalType":"address"},{"name":"to","type":"address","indexed":true,"internalType":"address"},{"name":"tokenId","type":"uint256","indexed":true,"internalType":"uint256"}],"anonymous":false},{"type":"error","name":"ERC721EnumerableForbiddenBatchMint","inputs":[]},{"type":"error","name":"ERC721IncorrectOwner","inputs":[{"name":"sender","type":"address","internalType":"address"},{"name":"tokenId","type":"uint256","internalType":"uint256"},{"name":"owner","type":"address","internalType":"address"}]},{"type":"error","name":"ERC721InsufficientApproval","inputs":[{"name":"operator","type":"address","internalType":"address"},{"name":"tokenId","type":"uint256","internalType":"uint256"}]},{"type":"error","name":"ERC721InvalidApprover","inputs":[{"name":"approver","type":"address","internalType":"address"}]},{"type":"error","name":"ERC721InvalidOperator","inputs":[{"name":"operator","type":"address","internalType":"address"}]},{"type":"error","name":"ERC721InvalidOwner","inputs":[{"name":"owner","type":"address","internalType":"address"}]},{"type":"error","name":"ERC721InvalidReceiver","inputs":[{"name":"receiver","type":"address","internalType":"address"}]},{"type":"error","name":"ERC721InvalidSender","inputs":[{"name":"sender","type":"address","internalType":"address"}]},{"type":"error","name":"ERC721NonexistentToken","inputs":[{"name":"tokenId","type":"uint256","internalType":"uint256"}]},{"type":"error","name":"ERC721OutOfBoundsIndex","inputs":[{"name":"owner","type":"address","internalType":"address"},{"name":"index","type":"uint256","internalType":"uint256"}]},{"type":"error","name":"InsiderMintsExceeded","inputs":[]},{"type":"error","name":"InsufficientFunds","inputs":[]},{"type":"error","name":"InvalidInitialization","inputs":[]},{"type":"error","name":"NotInitializing","inputs":[]},{"type":"error","name":"OwnableInvalidOwner","inputs":[{"name":"owner","type":"address","internalType":"address"}]},{"type":"error","name":"OwnableUnauthorizedAccount","inputs":[{"name":"account","type":"address","internalType":"address"}]}],"bytecode":{"object":"0x6080806040523461001657611e0a908161001c8239f35b600080fdfe60806040908082526004918236101561001757600080fd5b600092833560e01c92836301ffc9a714610fdb5750826306fdde0314610f09578263081812fc14610ebe578263095ea7b314610ddb5782630b56f8b614610d4f57826318160ddd14610d235782632115724614610d065782632336296a14610ce957826323b872dd14610cd1578263279e4a6314610cb25782632f745c5914610c215782633609ac8f14610c0057826342842e0e14610bd15782634f6ccce714610b6e5782636352211e14610b3d57826370a0823114610b10578263715018a614610aa6578263799b6d2b14610a865782638129fc1c146106235782638da5cb5b146105ed57826395d89b41146104e1578263a22cb46514610442578263b88d4fde146103ad578263c87b56dd1461035b578263e985e9c51461030f578263e9c2e14b146101f257508163ece531321461018a575063f2fde38b1461015b57600080fd5b34610187576020366003190112610187576101846101776110a0565b61017f61173b565b61166d565b80f35b80fd5b9050346101ee5760203660031901126101ee577fb2559daa129ad136aac2133ac6a0c75920abbef7d6663a017a94e181b13786c360206101c86110a0565b6101d061173b565b47936101dc8583611ca8565b519384526001600160a01b031692a280f35b5080fd5b838260203660031901126101ee576102086110a0565b91805491610215836111cc565b825564174876e80092808402938404036102fc576509184e72a000928084018094116102d9578334106102ec5761024b85611774565b93341161028e575b505160209450926001600160a01b03169082907fb069a28fab2f4a275fc364c15d220c5884271a144db6d116d13dcb79c8181c6c9080a38152f35b6509184e729fff19903403013481116102d9576020955083916102d27fb069a28fab2f4a275fc364c15d220c5884271a144db6d116d13dcb79c8181c6c9287611ca8565b9150610253565b634e487b7160e01b835260118652602483fd5b815163356680b760e01b81528690fd5b634e487b7160e01b825260118552602482fd5b8382346101ee57806003193601126101ee5760ff8160209361032f6110a0565b61034061033a6110bb565b9161156d565b6001600160a01b039091168252855220549151911615158152f35b8382346101ee5760203660031901126101ee5761037b6103a993356116e1565b5081815161038881611106565b5280519161039583611106565b825251918291602083526020830190611060565b0390f35b91503461043e57608036600319011261043e576103c86110a0565b6103d06110bb565b60443591856064359567ffffffffffffffff87116101ee57366023880112156101ee578601359561040c61040388611176565b96519687611154565b86865236602488830101116101ee57866101849760246020930183890137860101526104398383836111f1565b611b64565b8280fd5b91503461043e578060031936011261043e5761045c6110a0565b90602435918215158093036104dd576001600160a01b03169283156104c857506104853361156d565b83855260205280842060ff1981541660ff8416179055519081527f17307eab39ab6107e8899845ad3d59bd9653f200f220920489ca2b5937696c3160203392a380f35b836024925191630b61174360e31b8352820152fd5b8480fd5b50823461018757806003193601126101875781519182827f80bb2b638cc20bc4d0a60d66940f3ab4a00c1d7b313497ca82fb0b4ab007930193845461052581611192565b91828552602096600192886001821691826000146105c3575050600114610568575b85886103a989610559848a0385611154565b51928284938452830190611060565b815286935091907ff4bad0a69248f59680a4f2b3000328cec71a413447c96781cfe5996daa8c456e5b8284106105ab57505050820101816105596103a988610547565b8054848a018601528895508794909301928101610591565b60ff19168882015294151560051b8701909401945085935061055992506103a99150899050610547565b8382346101ee57816003193601126101ee57600080516020611d758339815191525490516001600160a01b039091168152602090f35b9091503461043e578260031936011261043e577ff0c57e16840df040f15088dc2f81fe391c3923bec73e23a9662efc9c229c6a009182549060ff82821c161567ffffffffffffffff80841693841580610a7f575b60018096149081610a75575b159081610a6c575b50610a5c5767ffffffffffffffff1981168517875582610a3d575b508251906106b382611138565b6008825260209567111e58590813919560c21b878401528451926106d684611138565b818452631913919560e21b888501526106ed611cf3565b6106f5611cf3565b8051838111610a2a57807f80bb2b638cc20bc4d0a60d66940f3ab4a00c1d7b313497ca82fb0b4ab00793009261072b8454611192565b601f81116109b9575b508a908d601f841160011461093a579261092f575b5050600019600383901b1c191690881b1790555b825191821161091c5750807f80bb2b638cc20bc4d0a60d66940f3ab4a00c1d7b313497ca82fb0b4ab0079301926107948454611192565b601f81116108ae575b508790601f8311600114610831578a92610826575b5050600019600383901b1c191690851b1790555b6107ce611cf3565b6107d6611cf3565b6107df3361166d565b6107e7578480f35b7fc7f505b2f371ae2175ee4913f4499e1f2633a7b5936321eed1cdaeb6115181d29368ff000000000000000019815416905551908152a1388080808480f35b0151905038806107b2565b848b528793507ff4bad0a69248f59680a4f2b3000328cec71a413447c96781cfe5996daa8c456e9190601f1984168c5b8b828210610898575050841161087f575b505050811b0190556107c6565b015160001960f88460031b161c19169055388080610872565b8385015186558b97909501949384019301610861565b909150838a527ff4bad0a69248f59680a4f2b3000328cec71a413447c96781cfe5996daa8c456e601f840160051c810191898510610912575b84939291601f8a920160051c01915b82811061090457505061079d565b8c81558594508991016108f6565b90915081906108e7565b634e487b7160e01b895260419052602488fd5b015190503880610749565b8581528b94507f37c58c799b6609234b945e882912ee9ad34948a1dfaa20a97485e1a7752bbf81929190601f198516908e5b8282106109a25750508411610989575b505050811b01905561075d565b015160001960f88460031b161c1916905538808061097c565b8385015186558e979095019493840193018e61096c565b909150838d527f37c58c799b6609234b945e882912ee9ad34948a1dfaa20a97485e1a7752bbf81601f840160051c8101918c8510610a20575b8e85949392601f8e930160051c0192905b838210610a1257505050610734565b81558594508c91018f610a03565b90915081906109f2565b634e487b7160e01b8b526041835260248bfd5b68ffffffffffffffffff191668010000000000000001178655386106a6565b835163f92ee8a960e01b81528690fd5b9050153861068b565b303b159150610683565b5082610677565b8382346101ee57816003193601126101ee576020905164174876e8008152f35b8334610187578060031936011261018757610abf61173b565b600080516020611d7583398151915280546001600160a01b0319811690915581906001600160a01b03167f8be0079c531659141344cd1fd0a4f28419497f9722a3daafe3b4186f6b6457e08280a380f35b8382346101ee5760203660031901126101ee57602090610b36610b316110a0565b611638565b9051908152f35b9083346101875760203660031901126101875750610b5d602092356116e1565b90516001600160a01b039091168152f35b9091503461043e57602036600319011261043e57803592600080516020611d9583398151915254841015610bb657602083610ba8866115df565b91905490519160031b1c8152f35b6044939192519263295f44f760e21b84528301526024820152fd5b8382346101ee5761018490610be5366110d1565b91925192610bf284611106565b8584526104398383836111f1565b8382346101ee57816003193601126101ee57602090516509184e72a0008152f35b908334610187578160031936011261018757610c3b6110a0565b9260243590610c4985611638565b821015610c8657506001600160a01b039093168152600080516020611d558339815191526020908152828220938252928352819020549051908152f35b925163295f44f760e21b81526001600160a01b0390941692840192835260208301525081906040010390fd5b8382346101ee57816003193601126101ee576020906001549051908152f35b833461018757610184610ce3366110d1565b916111f1565b8382346101ee57816003193601126101ee57602091549051908152f35b8382346101ee57816003193601126101ee5760209051610fa08152f35b8382346101ee57816003193601126101ee57602090600080516020611d95833981519152549051908152f35b91503461043e57602036600319011261043e57610d6a6110a0565b91610d7361173b565b610fa0610d816001546111cc565b8060015511610dcd57506020927f9a898aa15205b61d8f9396a555948af42817f07d647aef6c7102b2adff2517d691610db984611774565b928391519460018060a01b03169280a38152f35b9051639652890b60e01b8152fd5b91503461043e578060031936011261043e57610df56110a0565b9160243590610e03826116e1565b9033151580610eab575b80610e8e575b610e7757506001600160a01b039384169382918591167f8c5be1e5ebec7d5bd14f71427d1e84f3dd0314c0f7b2291e5b200ac8c7c3b9258780a48352600080516020611db5833981519152602052822080546001600160a01b031916909117905580f35b60249084519063a9fbf51f60e01b82523390820152fd5b50610e988261156d565b33875260205260ff848720541615610e13565b506001600160a01b038216331415610e0d565b9091503461043e57602036600319011261043e579160209235610ee0816116e1565b508152600080516020611db583398151915283528190205490516001600160a01b039091168152f35b50823461018757806003193601126101875781519182827f80bb2b638cc20bc4d0a60d66940f3ab4a00c1d7b313497ca82fb0b4ab0079300938454610f4d81611192565b91828552602096600192886001821691826000146105c3575050600114610f805785886103a989610559848a0385611154565b815286935091907f37c58c799b6609234b945e882912ee9ad34948a1dfaa20a97485e1a7752bbf815b828410610fc357505050820101816105596103a988610547565b8054848a018601528895508794909301928101610fa9565b84913461043e57602036600319011261043e573563ffffffff60e01b811680910361043e576020925063780e9d6360e01b811490811561101d575b5015158152f35b6380ac58cd60e01b81149150811561104f575b811561103e575b5083611016565b6301ffc9a760e01b14905083611037565b635b5e139f60e01b81149150611030565b919082519283825260005b84811061108c575050826000602080949584010152601f8019910116010190565b60208183018101518483018201520161106b565b600435906001600160a01b03821682036110b657565b600080fd5b602435906001600160a01b03821682036110b657565b60609060031901126110b6576001600160a01b039060043582811681036110b6579160243590811681036110b6579060443590565b6020810190811067ffffffffffffffff82111761112257604052565b634e487b7160e01b600052604160045260246000fd5b6040810190811067ffffffffffffffff82111761112257604052565b90601f8019910116810190811067ffffffffffffffff82111761112257604052565b67ffffffffffffffff811161112257601f01601f191660200190565b90600182811c921680156111c2575b60208310146111ac57565b634e487b7160e01b600052602260045260246000fd5b91607f16916111a1565b60001981146111db5760010190565b634e487b7160e01b600052601160045260246000fd5b90916001600160a01b03808416928315611554576000938385527f80bb2b638cc20bc4d0a60d66940f3ab4a00c1d7b313497ca82fb0b4ab007930294602086815260409785898420541697331515806114ba575b50881590811561147b575b611259836115a6565b80546001019055888552835289842080546001600160a01b0319168617905587858a7fddf252ad1be2c89b69c2b068fc378daa952ba7f163c4a11628f55a4df523b3ef8780a4156113d657600080516020611d958339815191528054908885527f645e039705490088daad89bae25049a34f4a9072d398537b1ab2425f24cbed038452818b862055600160401b8210156113c257611301828a92600161131a950190556115df565b90919082549060031b91821b91600019901b1916179055565b838803611356575b5050505016928383036113355750505050565b6064945051926364283d7b60e01b8452600484015260248301526044820152fd5b61135f90611638565b6000198101939084116113ae578291600080516020611d35833981519152918a9452600080516020611d5583398151915281528383208584528152878484205587835252205538808080611322565b634e487b7160e01b83526011600452602483fd5b634e487b7160e01b85526041600452602485fd5b87841461131a576113e688611638565b878452600080516020611d358339815191528084528a85205490828203611438575b5050878452838a812055888452600080516020611d5583398151915283528984209084528252828981205561131a565b8a8652600080516020611d558339815191528086528c872084885286528c872054908c885286528c87208388528652808d882055865284528a8520553880611408565b6000898152600080516020611db58339815191526020526040902080546001600160a01b03191690556114ad8a6115a6565b8054600019019055611250565b80611507575b156114cb5738611245565b89888a6114e8576024915190637e27328960e01b82526004820152fd5b905163177e802f60e01b81523360048201526024810191909152604490fd5b503389148015611539575b806114c05750878452600080516020611db5833981519152835233878b86205416146114c0565b506115438961156d565b338552835260ff8a85205416611512565b604051633250574960e11b815260006004820152602490fd5b6001600160a01b031660009081527f80bb2b638cc20bc4d0a60d66940f3ab4a00c1d7b313497ca82fb0b4ab00793056020526040902090565b6001600160a01b031660009081527f80bb2b638cc20bc4d0a60d66940f3ab4a00c1d7b313497ca82fb0b4ab00793036020526040902090565b600080516020611d958339815191528054821015611622576000527fa42f15e5d656f8155fd7419d740a6073999f19cd6e061449ce4a257150545bf20190600090565b634e487b7160e01b600052603260045260246000fd5b6001600160a01b0381161561165457611650906115a6565b5490565b6040516322718ad960e21b815260006004820152602490fd5b6001600160a01b039081169081156116c857600080516020611d7583398151915280546001600160a01b031981168417909155167f8be0079c531659141344cd1fd0a4f28419497f9722a3daafe3b4186f6b6457e0600080a3565b604051631e4fbdf760e01b815260006004820152602490fd5b60008181527f80bb2b638cc20bc4d0a60d66940f3ab4a00c1d7b313497ca82fb0b4ab007930260205260409020546001600160a01b0316908115611723575090565b60249060405190637e27328960e01b82526004820152fd5b600080516020611d75833981519152546001600160a01b0316330361175c57565b60405163118cdaa760e01b8152336004820152602490fd5b600080516020611d95833981519152908154916040805161179481611106565b60008082526001600160a01b0394808616949192918515611b4c578784527f80bb2b638cc20bc4d0a60d66940f3ab4a00c1d7b313497ca82fb0b4ab00793029060209782895286862054169087821580159485611b0d575b6117f5876115a6565b805460010190558c89528b5288882080546001600160a01b031916831790558b82857fddf252ad1be2c89b69c2b068fc378daa952ba7f163c4a11628f55a4df523b3ef8b80a415611a6557508054908a87527f645e039705490088daad89bae25049a34f4a9072d398537b1ab2425f24cbed038a528188882055600160401b821015611a51578a611301836118919360018d97960190556115df565b036119ea575b6119d2573b6118a9575b505050505090565b8294969295919395518781806118e7630a85bd0160e11b95868352336004840152896024840152876044840152608060648401526084830190611060565b0381888b5af185918161198e575b5061195557505050503d60001461194d573d61191081611176565b9061191d84519283611154565b81528091853d92013e5b80519384611947578251633250574960e11b815260048101859052602490fd5b84925001fd5b506060611927565b919594935091955063ffffffff60e01b160361197757505038808080806118a1565b602492505190633250574960e11b82526004820152fd5b9091508881813d83116119cb575b6119a68183611154565b810103126119c757516001600160e01b0319811681036119c75790386118f5565b8580fd5b503d61199c565b83516339e3563760e11b815260048101849052602490fd5b6119f382611638565b6000198101908111611a3d57868552600080516020611d55833981519152885285852081865288528886862055888552600080516020611d35833981519152885285852055611897565b634e487b7160e01b85526011600452602485fd5b634e487b7160e01b87526041600452602487fd5b91905081811461189157611a7881611638565b8a8752600080516020611d35833981519152808b528888205490828203611aca575b50508a87528688812055818752600080516020611d558339815191528a5287872090875289528587812055611891565b838952600080516020611d55833981519152808d528a8a20848b528d528a8a205490858b528d528a8a20838b528d52808b8b205589528b52888820553880611a9a565b60008d8152600080516020611db58339815191526020526040902080546001600160a01b0319169055611b3f856115a6565b80546000190190556117ec565b8451633250574960e11b815260048101859052602490fd5b813b611b71575b50505050565b604051630a85bd0160e11b8082523360048301526001600160a01b03928316602483015260448201949094526080606482015260209592909116939092908390611bbf906084830190611060565b039285816000958187895af1849181611c68575b50611c33575050503d600014611c2b573d611bed81611176565b90611bfb6040519283611154565b81528091843d92013e5b80519283611c2657604051633250574960e11b815260048101849052602490fd5b019050fd5b506060611c05565b919450915063ffffffff60e01b1603611c50575038808080611b6b565b60249060405190633250574960e11b82526004820152fd5b9091508681813d8311611ca1575b611c808183611154565b810103126104dd57516001600160e01b0319811681036104dd579038611bd3565b503d611c76565b600080809381935af115611cb857565b60405162461bcd60e51b815260206004820152601360248201527211551217d514905394d1915497d19052531151606a1b6044820152606490fd5b60ff7ff0c57e16840df040f15088dc2f81fe391c3923bec73e23a9662efc9c229c6a005460401c1615611d2257565b604051631afcd79f60e31b8152600490fdfe645e039705490088daad89bae25049a34f4a9072d398537b1ab2425f24cbed01645e039705490088daad89bae25049a34f4a9072d398537b1ab2425f24cbed009016d09d72d40fdae2fd8ceac6b6234c7706214fd39c1cd1e609a0528c199300645e039705490088daad89bae25049a34f4a9072d398537b1ab2425f24cbed0280bb2b638cc20bc4d0a60d66940f3ab4a00c1d7b313497ca82fb0b4ab0079304a2646970667358221220ff1f2821455340f31dc9ddb3eca41dc4f4821d1a57ea1ea2dad9c43e05eb24b364736f6c63430008180033","linkReferences":{}},"methodIdentifiers":{"INSIDER_MINTS()":"21157246","PRICE_INCREASE()":"799b6d2b","START_PRICE()":"3609ac8f","approve(address,uint256)":"095ea7b3","balanceOf(address)":"70a08231","drain(address)":"ece53132","getApproved(uint256)":"081812fc","initialize()":"8129fc1c","insiderMints()":"279e4a63","isApprovedForAll(address,address)":"e985e9c5","mintInsiderNft(address)":"0b56f8b6","mintNft(address)":"e9c2e14b","name()":"06fdde03","owner()":"8da5cb5b","ownerOf(uint256)":"6352211e","publicMints()":"2336296a","renounceOwnership()":"715018a6","safeTransferFrom(address,address,uint256)":"42842e0e","safeTransferFrom(address,address,uint256,bytes)":"b88d4fde","setApprovalForAll(address,bool)":"a22cb465","supportsInterface(bytes4)":"01ffc9a7","symbol()":"95d89b41","tokenByIndex(uint256)":"4f6ccce7","tokenOfOwnerByIndex(address,uint256)":"2f745c59","tokenURI(uint256)":"c87b56dd","totalSupply()":"18160ddd","transferFrom(address,address,uint256)":"23b872dd","transferOwnership(address)":"f2fde38b"},"id":1}