{"abi":[{"type":"constructor","inputs":[],"stateMutability":"nonpayable"},{"type":"function","name":"add","inputs":[{"name":"vault","type":"address","internalType":"address"}],"outputs":[],"stateMutability":"nonpayable"},{"type":"function","name":"isLicensed","inputs":[{"name":"","type":"address","internalType":"address"}],"outputs":[{"name":"","type":"bool","internalType":"bool"}],"stateMutability":"view"},{"type":"function","name":"owner","inputs":[],"outputs":[{"name":"","type":"address","internalType":"address"}],"stateMutability":"view"},{"type":"function","name":"remove","inputs":[{"name":"vault","type":"address","internalType":"address"}],"outputs":[],"stateMutability":"nonpayable"},{"type":"function","name":"transferOwnership","inputs":[{"name":"newOwner","type":"address","internalType":"address"}],"outputs":[],"stateMutability":"nonpayable"},{"type":"event","name":"OwnershipTransferred","inputs":[{"name":"user","type":"address","indexed":true,"internalType":"address"},{"name":"newOwner","type":"address","indexed":true,"internalType":"address"}],"anonymous":false}],"bytecode":{"object":"0x6080806040523461004f57600080546001600160a01b031916339081178255907f8be0079c531659141344cd1fd0a4f28419497f9722a3daafe3b4186f6b6457e08180a361024790816100558239f35b600080fdfe604060808152600436101561001357600080fd5b600090813560e01c9081630a3b0a4f1461018857816329092d0e146101395781638da5cb5b14610111578163a542c2a4146100cc575063f2fde38b1461005857600080fd5b346100c95760203660031901126100c9576004356001600160a01b03818116918290036100c5578190610090845491821633146101d6565b6001600160a01b031916178255337f8be0079c531659141344cd1fd0a4f28419497f9722a3daafe3b4186f6b6457e08380a380f35b8280fd5b80fd5b90503461010d57602036600319011261010d576004356001600160a01b038116908190036100c557818360ff92602095526001855220541690519015158152f35b5080fd5b90503461010d578160031936011261010d57905490516001600160a01b039091168152602090f35b90503461010d57602036600319011261010d576004356001600160a01b0381811691829003610184576101709084541633146101d6565b825260016020528120805460ff1916905580f35b8380fd5b90503461010d57602036600319011261010d576004356001600160a01b0381811691829003610184576101bf9084541633146101d6565b825260016020528120600160ff1982541617905580f35b156101dd57565b60405162461bcd60e51b815260206004820152600c60248201526b15539055551213d49256915160a21b6044820152606490fdfea264697066735822122018c7c0431d66d55a617dcad275f2d14205d41620a155d8c3e6b6e3688676348e64736f6c63430008180033","linkReferences":{}},"methodIdentifiers":{"add(address)":"0a3b0a4f","isLicensed(address)":"a542c2a4","owner()":"8da5cb5b","remove(address)":"29092d0e","transferOwnership(address)":"f2fde38b"},"id":5}