{"abi":[{"type":"function","name":"INSIDER_MINTS","inputs":[],"outputs":[{"name":"","type":"uint256","internalType":"uint256"}],"stateMutability":"view"},{"type":"function","name":"PRICE_INCREASE","inputs":[],"outputs":[{"name":"","type":"uint256","internalType":"uint256"}],"stateMutability":"view"},{"type":"function","name":"START_PRICE","inputs":[],"outputs":[{"name":"","type":"uint256","internalType":"uint256"}],"stateMutability":"view"}],"bytecode":{"object":"0x608080604052346100155760d5908161001b8239f35b600080fdfe6080806040526004361015601257600080fd5b600090813560e01c90816321157246146081575080633609ac8f1460605763799b6d2b14603e57600080fd5b34605d5780600319360112605d57602060405166038d7ea4c680008152f35b80fd5b5034605d5780600319360112605d57602060405167016345785d8a00008152f35b905034609b5781600319360112609b5780610fa060209252f35b5080fdfea26469706673582212202e86f66247289e19e37191833e9ec9998fe5134ac8ea5a33867c2ca7021d9cbe64736f6c63430008180033","linkReferences":{}},"methodIdentifiers":{"INSIDER_MINTS()":"21157246","PRICE_INCREASE()":"799b6d2b","START_PRICE()":"3609ac8f"},"id":16}