{"abi":[{"type":"function","name":"INSIDER_MINTS","inputs":[],"outputs":[{"name":"","type":"uint256","internalType":"uint256"}],"stateMutability":"view"},{"type":"function","name":"PRICE_INCREASE","inputs":[],"outputs":[{"name":"","type":"uint256","internalType":"uint256"}],"stateMutability":"view"},{"type":"function","name":"START_PRICE","inputs":[],"outputs":[{"name":"","type":"uint256","internalType":"uint256"}],"stateMutability":"view"}],"bytecode":{"object":"0x608080604052346100155760d1908161001b8239f35b600080fdfe6080806040526004361015601257600080fd5b600090813560e01c9081632115724614607d575080633609ac8f14605e5763799b6d2b14603e57600080fd5b34605b5780600319360112605b57602060405164174876e8008152f35b80fd5b5034605b5780600319360112605b5760206040516509184e72a0008152f35b9050346097578160031936011260975780610fa060209252f35b5080fdfea2646970667358221220eadc215979e5d66a6f605ea4944986f10384d8675124d6c6864cd12d47b26b6c64736f6c63430008180033","linkReferences":{}},"methodIdentifiers":{"INSIDER_MINTS()":"21157246","PRICE_INCREASE()":"799b6d2b","START_PRICE()":"3609ac8f"},"id":24}