{
	"data": {
		"bytecode": {
			"linkReferences": {},
			"object": "6080604052348015600e575f80fd5b506134fb8061001c5f395ff3fe6080604052600436106101b6575f3560e01c80636352211e116100eb578063a22cb46511610089578063e985e9c511610063578063e985e9c514610608578063e9c2e14b14610644578063ece5313214610674578063f2fde38b1461069c576101b6565b8063a22cb4651461057c578063b88d4fde146105a4578063c87b56dd146105cc576101b6565b8063799b6d2b116100c5578063799b6d2b146104e85780638129fc1c146105125780638da5cb5b1461052857806395d89b4114610552576101b6565b80636352211e1461045a57806370a0823114610496578063715018a6146104d2576101b6565b80632336296a116101585780632f745c59116101325780632f745c59146103905780633609ac8f146103cc57806342842e0e146103f65780634f6ccce71461041e576101b6565b80632336296a1461031457806323b872dd1461033e578063279e4a6314610366576101b6565b8063095ea7b311610194578063095ea7b31461025c5780630b56f8b61461028457806318160ddd146102c057806321157246146102ea576101b6565b806301ffc9a7146101ba57806306fdde03146101f6578063081812fc14610220575b5f80fd5b3480156101c5575f80fd5b506101e060048036038101906101db91906128f8565b6106c4565b6040516101ed919061293d565b60405180910390f35b348015610201575f80fd5b5061020a61073d565b60405161021791906129c6565b60405180910390f35b34801561022b575f80fd5b5061024660048036038101906102419190612a19565b6107da565b6040516102539190612a83565b60405180910390f35b348015610267575f80fd5b50610282600480360381019061027d9190612ac6565b6107f5565b005b34801561028f575f80fd5b506102aa60048036038101906102a59190612b04565b61080b565b6040516102b79190612b3e565b60405180910390f35b3480156102cb575f80fd5b506102d46108bc565b6040516102e19190612b3e565b60405180910390f35b3480156102f5575f80fd5b506102fe6108d6565b60405161030b9190612b3e565b60405180910390f35b34801561031f575f80fd5b506103286108dc565b6040516103359190612b3e565b60405180910390f35b348015610349575f80fd5b50610364600480360381019061035f9190612b57565b6108e1565b005b348015610371575f80fd5b5061037a6109e0565b6040516103879190612b3e565b60405180910390f35b34801561039b575f80fd5b506103b660048036038101906103b19190612ac6565b6109e6565b6040516103c39190612b3e565b60405180910390f35b3480156103d7575f80fd5b506103e0610a97565b6040516103ed9190612b3e565b60405180910390f35b348015610401575f80fd5b5061041c60048036038101906104179190612b57565b610aa1565b005b348015610429575f80fd5b50610444600480360381019061043f9190612a19565b610ac0565b6040516104519190612b3e565b60405180910390f35b348015610465575f80fd5b50610480600480360381019061047b9190612a19565b610b40565b60405161048d9190612a83565b60405180910390f35b3480156104a1575f80fd5b506104bc60048036038101906104b79190612b04565b610b51565b6040516104c99190612b3e565b60405180910390f35b3480156104dd575f80fd5b506104e6610c15565b005b3480156104f3575f80fd5b506104fc610c28565b6040516105099190612b3e565b60405180910390f35b34801561051d575f80fd5b50610526610c31565b005b348015610533575f80fd5b5061053c610e25565b6040516105499190612a83565b60405180910390f35b34801561055d575f80fd5b50610566610e5a565b60405161057391906129c6565b60405180910390f35b348015610587575f80fd5b506105a2600480360381019061059d9190612bd1565b610ef8565b005b3480156105af575f80fd5b506105ca60048036038101906105c59190612d3b565b610f0e565b005b3480156105d7575f80fd5b506105f260048036038101906105ed9190612a19565b610f2b565b6040516105ff91906129c6565b60405180910390f35b348015610613575f80fd5b5061062e60048036038101906106299190612dbb565b610f91565b60405161063b919061293d565b60405180910390f35b61065e60048036038101906106599190612b04565b61102d565b60405161066b9190612b3e565b60405180910390f35b34801561067f575f80fd5b5061069a60048036038101906106959190612b04565b611138565b005b3480156106a7575f80fd5b506106c260048036038101906106bd9190612b04565b6111bf565b005b5f7f780e9d63000000000000000000000000000000000000000000000000000000007bffffffffffffffffffffffffffffffffffffffffffffffffffffffff1916827bffffffffffffffffffffffffffffffffffffffffffffffffffffffff19161480610736575061073582611243565b5b9050919050565b60605f610748611324565b9050805f01805461075890612e26565b80601f016020809104026020016040519081016040528092919081815260200182805461078490612e26565b80156107cf5780601f106107a6576101008083540402835291602001916107cf565b820191905f5260205f20905b8154815290600101906020018083116107b257829003601f168201915b505050505091505090565b5f6107e48261134b565b506107ee826113d1565b9050919050565b6108078282610802611418565b61141f565b5050565b5f610814611431565b610fa060015f815461082590612e83565b9190508190551115610863576040517f9652890b00000000000000000000000000000000000000000000000000000000815260040160405180910390fd5b5f61086d836114b8565b90508273ffffffffffffffffffffffffffffffffffffffff16817f9a898aa15205b61d8f9396a555948af42817f07d647aef6c7102b2adff2517d660405160405180910390a380915050919050565b5f806108c66114d7565b9050806002018054905091505090565b610fa081565b5f5481565b5f73ffffffffffffffffffffffffffffffffffffffff168273ffffffffffffffffffffffffffffffffffffffff1603610951575f6040517f64a0ae920000000000000000000000000000000000000000000000000000000081526004016109489190612a83565b60405180910390fd5b5f610964838361095f611418565b6114fe565b90508373ffffffffffffffffffffffffffffffffffffffff168173ffffffffffffffffffffffffffffffffffffffff16146109da578382826040517f64283d7b0000000000000000000000000000000000000000000000000000000081526004016109d193929190612eca565b60405180910390fd5b50505050565b60015481565b5f806109f06114d7565b90506109fb84610b51565b8310610a405783836040517fa57d13dc000000000000000000000000000000000000000000000000000000008152600401610a37929190612eff565b60405180910390fd5b805f015f8573ffffffffffffffffffffffffffffffffffffffff1673ffffffffffffffffffffffffffffffffffffffff1681526020019081526020015f205f8481526020019081526020015f205491505092915050565b6509184e72a00081565b610abb83838360405180602001604052805f815250610f0e565b505050565b5f80610aca6114d7565b9050610ad46108bc565b8310610b19575f836040517fa57d13dc000000000000000000000000000000000000000000000000000000008152600401610b10929190612eff565b60405180910390fd5b806002018381548110610b2f57610b2e612f26565b5b905f5260205f200154915050919050565b5f610b4a8261134b565b9050919050565b5f80610b5b611324565b90505f73ffffffffffffffffffffffffffffffffffffffff168373ffffffffffffffffffffffffffffffffffffffff1603610bcd575f6040517f89c62b64000000000000000000000000000000000000000000000000000000008152600401610bc49190612a83565b60405180910390fd5b806003015f8473ffffffffffffffffffffffffffffffffffffffff1673ffffffffffffffffffffffffffffffffffffffff1681526020019081526020015f2054915050919050565b610c1d611431565b610c265f611618565b565b64174876e80081565b5f610c3a6116e9565b90505f815f0160089054906101000a900460ff161590505f825f015f9054906101000a900467ffffffffffffffff1690505f808267ffffffffffffffff16148015610c825750825b90505f60018367ffffffffffffffff16148015610cb557505f3073ffffffffffffffffffffffffffffffffffffffff163b145b905081158015610cc3575080155b15610cfa576040517ff92ee8a900000000000000000000000000000000000000000000000000000000815260040160405180910390fd5b6001855f015f6101000a81548167ffffffffffffffff021916908367ffffffffffffffff1602179055508315610d47576001855f0160086101000a81548160ff0219169083151502179055505b610dbb6040518060400160405280600881526020017f44796164204e46540000000000000000000000000000000000000000000000008152506040518060400160405280600481526020017f644e465400000000000000000000000000000000000000000000000000000000815250611710565b610dc433611726565b8315610e1e575f855f0160086101000a81548160ff0219169083151502179055507fc7f505b2f371ae2175ee4913f4499e1f2633a7b5936321eed1cdaeb6115181d26001604051610e159190612fa8565b60405180910390a15b5050505050565b5f80610e2f61173a565b9050805f015f9054906101000a900473ffffffffffffffffffffffffffffffffffffffff1691505090565b60605f610e65611324565b9050806001018054610e7690612e26565b80601f0160208091040260200160405190810160405280929190818152602001828054610ea290612e26565b8015610eed5780601f10610ec457610100808354040283529160200191610eed565b820191905f5260205f20905b815481529060010190602001808311610ed057829003601f168201915b505050505091505090565b610f0a610f03611418565b8383611761565b5050565b610f198484846108e1565b610f25848484846118d8565b50505050565b6060610f368261134b565b505f610f40611a8a565b90505f815111610f5e5760405180602001604052805f815250610f89565b80610f6884611aa0565b604051602001610f79929190612ffb565b6040516020818303038152906040525b915050919050565b5f80610f9b611324565b9050806005015f8573ffffffffffffffffffffffffffffffffffffffff1673ffffffffffffffffffffffffffffffffffffffff1681526020019081526020015f205f8473ffffffffffffffffffffffffffffffffffffffff1673ffffffffffffffffffffffffffffffffffffffff1681526020019081526020015f205f9054906101000a900460ff1691505092915050565b5f805f8081548092919061104090612e83565b9190505564174876e800611054919061301e565b6509184e72a000611065919061305f565b9050803410156110a1576040517f356680b700000000000000000000000000000000000000000000000000000000815260040160405180910390fd5b5f6110ab846114b8565b9050813411156110ea576110e982346110c49190613092565b8573ffffffffffffffffffffffffffffffffffffffff16611b6a90919063ffffffff16565b5b8373ffffffffffffffffffffffffffffffffffffffff16817fb069a28fab2f4a275fc364c15d220c5884271a144db6d116d13dcb79c8181c6c60405160405180910390a38092505050919050565b611140611431565b5f47905061116d818373ffffffffffffffffffffffffffffffffffffffff16611b6a90919063ffffffff16565b8173ffffffffffffffffffffffffffffffffffffffff167fb2559daa129ad136aac2133ac6a0c75920abbef7d6663a017a94e181b13786c3826040516111b39190612b3e565b60405180910390a25050565b6111c7611431565b5f73ffffffffffffffffffffffffffffffffffffffff168173ffffffffffffffffffffffffffffffffffffffff1603611237575f6040517f1e4fbdf700000000000000000000000000000000000000000000000000000000815260040161122e9190612a83565b60405180910390fd5b61124081611618565b50565b5f7f80ac58cd000000000000000000000000000000000000000000000000000000007bffffffffffffffffffffffffffffffffffffffffffffffffffffffff1916827bffffffffffffffffffffffffffffffffffffffffffffffffffffffff1916148061130d57507f5b5e139f000000000000000000000000000000000000000000000000000000007bffffffffffffffffffffffffffffffffffffffffffffffffffffffff1916827bffffffffffffffffffffffffffffffffffffffffffffffffffffffff1916145b8061131d575061131c82611bba565b5b9050919050565b5f7f80bb2b638cc20bc4d0a60d66940f3ab4a00c1d7b313497ca82fb0b4ab0079300905090565b5f8061135683611c23565b90505f73ffffffffffffffffffffffffffffffffffffffff168173ffffffffffffffffffffffffffffffffffffffff16036113c857826040517f7e2732890000000000000000000000000000000000000000000000000000000081526004016113bf9190612b3e565b60405180910390fd5b80915050919050565b5f806113db611324565b9050806004015f8481526020019081526020015f205f9054906101000a900473ffffffffffffffffffffffffffffffffffffffff16915050919050565b5f33905090565b61142c8383836001611c6a565b505050565b611439611418565b73ffffffffffffffffffffffffffffffffffffffff16611457610e25565b73ffffffffffffffffffffffffffffffffffffffff16146114b65761147a611418565b6040517f118cdaa70000000000000000000000000000000000000000000000000000000081526004016114ad9190612a83565b60405180910390fd5b565b5f806114c26108bc565b90506114ce8382611e37565b80915050919050565b5f7f645e039705490088daad89bae25049a34f4a9072d398537b1ab2425f24cbed00905090565b5f8061150b858585611e54565b90505f73ffffffffffffffffffffffffffffffffffffffff168173ffffffffffffffffffffffffffffffffffffffff160361154e5761154984612071565b61158d565b8473ffffffffffffffffffffffffffffffffffffffff168173ffffffffffffffffffffffffffffffffffffffff161461158c5761158b81856120c7565b5b5b5f73ffffffffffffffffffffffffffffffffffffffff168573ffffffffffffffffffffffffffffffffffffffff16036115ce576115c984612226565b61160d565b8473ffffffffffffffffffffffffffffffffffffffff168173ffffffffffffffffffffffffffffffffffffffff161461160c5761160b8585612300565b5b5b809150509392505050565b5f61162161173a565b90505f815f015f9054906101000a900473ffffffffffffffffffffffffffffffffffffffff16905082825f015f6101000a81548173ffffffffffffffffffffffffffffffffffffffff021916908373ffffffffffffffffffffffffffffffffffffffff1602179055508273ffffffffffffffffffffffffffffffffffffffff168173ffffffffffffffffffffffffffffffffffffffff167f8be0079c531659141344cd1fd0a4f28419497f9722a3daafe3b4186f6b6457e060405160405180910390a3505050565b5f7ff0c57e16840df040f15088dc2f81fe391c3923bec73e23a9662efc9c229c6a00905090565b611718612393565b61172282826123d3565b5050565b61172e612393565b6117378161240e565b50565b5f7f9016d09d72d40fdae2fd8ceac6b6234c7706214fd39c1cd1e609a0528c199300905090565b5f61176a611324565b90505f73ffffffffffffffffffffffffffffffffffffffff168373ffffffffffffffffffffffffffffffffffffffff16036117dc57826040517f5b08ba180000000000000000000000000000000000000000000000000000000081526004016117d39190612a83565b60405180910390fd5b81816005015f8673ffffffffffffffffffffffffffffffffffffffff1673ffffffffffffffffffffffffffffffffffffffff1681526020019081526020015f205f8573ffffffffffffffffffffffffffffffffffffffff1673ffffffffffffffffffffffffffffffffffffffff1681526020019081526020015f205f6101000a81548160ff0219169083151502179055508273ffffffffffffffffffffffffffffffffffffffff168473ffffffffffffffffffffffffffffffffffffffff167f17307eab39ab6107e8899845ad3d59bd9653f200f220920489ca2b5937696c31846040516118ca919061293d565b60405180910390a350505050565b5f8373ffffffffffffffffffffffffffffffffffffffff163b1115611a84578273ffffffffffffffffffffffffffffffffffffffff1663150b7a0261191b611418565b8685856040518563ffffffff1660e01b815260040161193d9493929190613117565b6020604051808303815f875af192505050801561197857506040513d601f19601f820116820180604052508101906119759190613175565b60015b6119f9573d805f81146119a6576040519150601f19603f3d011682016040523d82523d5f602084013e6119ab565b606091505b505f8151036119f157836040517f64a0ae920000000000000000000000000000000000000000000000000000000081526004016119e89190612a83565b60405180910390fd5b805181602001fd5b63150b7a0260e01b7bffffffffffffffffffffffffffffffffffffffffffffffffffffffff1916817bffffffffffffffffffffffffffffffffffffffffffffffffffffffff191614611a8257836040517f64a0ae92000000000000000000000000000000000000000000000000000000008152600401611a799190612a83565b60405180910390fd5b505b50505050565b606060405180602001604052805f815250905090565b60605f6001611aae84612492565b0190505f8167ffffffffffffffff811115611acc57611acb612c17565b5b6040519080825280601f01601f191660200182016040528015611afe5781602001600182028036833780820191505090505b5090505f82602001820190505b600115611b5f578080600190039150507f3031323334353637383961626364656600000000000000000000000000000000600a86061a8153600a8581611b5457611b536131a0565b5b0494505f8503611b0b575b819350505050919050565b5f805f805f85875af1905080611bb5576040517f08c379a0000000000000000000000000000000000000000000000000000000008152600401611bac90613217565b60405180910390fd5b505050565b5f7f01ffc9a7000000000000000000000000000000000000000000000000000000007bffffffffffffffffffffffffffffffffffffffffffffffffffffffff1916827bffffffffffffffffffffffffffffffffffffffffffffffffffffffff1916149050919050565b5f80611c2d611324565b9050806002015f8481526020019081526020015f205f9054906101000a900473ffffffffffffffffffffffffffffffffffffffff16915050919050565b5f611c73611324565b90508180611cad57505f73ffffffffffffffffffffffffffffffffffffffff168373ffffffffffffffffffffffffffffffffffffffff1614155b15611ddf575f611cbc8561134b565b90505f73ffffffffffffffffffffffffffffffffffffffff168473ffffffffffffffffffffffffffffffffffffffff1614158015611d2657508373ffffffffffffffffffffffffffffffffffffffff168173ffffffffffffffffffffffffffffffffffffffff1614155b8015611d395750611d378185610f91565b155b15611d7b57836040517fa9fbf51f000000000000000000000000000000000000000000000000000000008152600401611d729190612a83565b60405180910390fd5b8215611ddd57848673ffffffffffffffffffffffffffffffffffffffff168273ffffffffffffffffffffffffffffffffffffffff167f8c5be1e5ebec7d5bd14f71427d1e84f3dd0314c0f7b2291e5b200ac8c7c3b92560405160405180910390a45b505b84816004015f8681526020019081526020015f205f6101000a81548173ffffffffffffffffffffffffffffffffffffffff021916908373ffffffffffffffffffffffffffffffffffffffff1602179055505050505050565b611e50828260405180602001604052805f8152506125e3565b5050565b5f80611e5e611324565b90505f611e6a85611c23565b90505f73ffffffffffffffffffffffffffffffffffffffff168473ffffffffffffffffffffffffffffffffffffffff1614611eab57611eaa8185876125fe565b5b5f73ffffffffffffffffffffffffffffffffffffffff168173ffffffffffffffffffffffffffffffffffffffff1614611f3857611eea5f865f80611c6a565b6001826003015f8373ffffffffffffffffffffffffffffffffffffffff1673ffffffffffffffffffffffffffffffffffffffff1681526020019081526020015f205f82825403925050819055505b5f73ffffffffffffffffffffffffffffffffffffffff168673ffffffffffffffffffffffffffffffffffffffff1614611fb9576001826003015f8873ffffffffffffffffffffffffffffffffffffffff1673ffffffffffffffffffffffffffffffffffffffff1681526020019081526020015f205f82825401925050819055505b85826002015f8781526020019081526020015f205f6101000a81548173ffffffffffffffffffffffffffffffffffffffff021916908373ffffffffffffffffffffffffffffffffffffffff160217905550848673ffffffffffffffffffffffffffffffffffffffff168273ffffffffffffffffffffffffffffffffffffffff167fddf252ad1be2c89b69c2b068fc378daa952ba7f163c4a11628f55a4df523b3ef60405160405180910390a480925050509392505050565b5f61207a6114d7565b90508060020180549050816003015f8481526020019081526020015f20819055508060020182908060018154018082558091505060019003905f5260205f20015f90919091909150555050565b5f6120d06114d7565b90505f6120dc84610b51565b90505f826001015f8581526020019081526020015f205490508181146121b9575f835f015f8773ffffffffffffffffffffffffffffffffffffffff1673ffffffffffffffffffffffffffffffffffffffff1681526020019081526020015f205f8481526020019081526020015f2054905080845f015f8873ffffffffffffffffffffffffffffffffffffffff1673ffffffffffffffffffffffffffffffffffffffff1681526020019081526020015f205f8481526020019081526020015f208190555081846001015f8381526020019081526020015f2081905550505b826001015f8581526020019081526020015f205f9055825f015f8673ffffffffffffffffffffffffffffffffffffffff1673ffffffffffffffffffffffffffffffffffffffff1681526020019081526020015f205f8381526020019081526020015f205f90555050505050565b5f61222f6114d7565b90505f600182600201805490506122469190613092565b90505f826003015f8581526020019081526020015f205490505f83600201838154811061227657612275612f26565b5b905f5260205f20015490508084600201838154811061229857612297612f26565b5b905f5260205f20018190555081846003015f8381526020019081526020015f2081905550836003015f8681526020019081526020015f205f9055836002018054806122e6576122e5613235565b5b600190038181905f5260205f20015f905590555050505050565b5f6123096114d7565b90505f600161231785610b51565b6123219190613092565b905082825f015f8673ffffffffffffffffffffffffffffffffffffffff1673ffffffffffffffffffffffffffffffffffffffff1681526020019081526020015f205f8381526020019081526020015f208190555080826001015f8581526020019081526020015f208190555050505050565b61239b6126c1565b6123d1576040517fd7e6bcf800000000000000000000000000000000000000000000000000000000815260040160405180910390fd5b565b6123db612393565b5f6123e4611324565b905082815f0190816123f691906133f6565b508181600101908161240891906133f6565b50505050565b612416612393565b5f73ffffffffffffffffffffffffffffffffffffffff168173ffffffffffffffffffffffffffffffffffffffff1603612486575f6040517f1e4fbdf700000000000000000000000000000000000000000000000000000000815260040161247d9190612a83565b60405180910390fd5b61248f81611618565b50565b5f805f90507a184f03e93ff9f4daa797ed6e38ed64bf6a1f01000000000000000083106124ee577a184f03e93ff9f4daa797ed6e38ed64bf6a1f01000000000000000083816124e4576124e36131a0565b5b0492506040810190505b6d04ee2d6d415b85acef8100000000831061252b576d04ee2d6d415b85acef81000000008381612521576125206131a0565b5b0492506020810190505b662386f26fc10000831061255a57662386f26fc1000083816125505761254f6131a0565b5b0492506010810190505b6305f5e1008310612583576305f5e1008381612579576125786131a0565b5b0492506008810190505b61271083106125a857612710838161259e5761259d6131a0565b5b0492506004810190505b606483106125cb57606483816125c1576125c06131a0565b5b0492506002810190505b600a83106125da576001810190505b80915050919050565b6125ed83836126df565b6125f95f8484846118d8565b505050565b6126098383836127d2565b6126bc575f73ffffffffffffffffffffffffffffffffffffffff168373ffffffffffffffffffffffffffffffffffffffff160361267d57806040517f7e2732890000000000000000000000000000000000000000000000000000000081526004016126749190612b3e565b60405180910390fd5b81816040517f177e802f0000000000000000000000000000000000000000000000000000000081526004016126b3929190612eff565b60405180910390fd5b505050565b5f6126ca6116e9565b5f0160089054906101000a900460ff16905090565b5f73ffffffffffffffffffffffffffffffffffffffff168273ffffffffffffffffffffffffffffffffffffffff160361274f575f6040517f64a0ae920000000000000000000000000000000000000000000000000000000081526004016127469190612a83565b60405180910390fd5b5f61275b83835f6114fe565b90505f73ffffffffffffffffffffffffffffffffffffffff168173ffffffffffffffffffffffffffffffffffffffff16146127cd575f6040517f73c6ac6e0000000000000000000000000000000000000000000000000000000081526004016127c49190612a83565b60405180910390fd5b505050565b5f8073ffffffffffffffffffffffffffffffffffffffff168373ffffffffffffffffffffffffffffffffffffffff161415801561288957508273ffffffffffffffffffffffffffffffffffffffff168473ffffffffffffffffffffffffffffffffffffffff16148061284a57506128498484610f91565b5b8061288857508273ffffffffffffffffffffffffffffffffffffffff16612870836113d1565b73ffffffffffffffffffffffffffffffffffffffff16145b5b90509392505050565b5f604051905090565b5f80fd5b5f80fd5b5f7fffffffff0000000000000000000000000000000000000000000000000000000082169050919050565b6128d7816128a3565b81146128e1575f80fd5b50565b5f813590506128f2816128ce565b92915050565b5f6020828403121561290d5761290c61289b565b5b5f61291a848285016128e4565b91505092915050565b5f8115159050919050565b61293781612923565b82525050565b5f6020820190506129505f83018461292e565b92915050565b5f81519050919050565b5f82825260208201905092915050565b8281835e5f83830152505050565b5f601f19601f8301169050919050565b5f61299882612956565b6129a28185612960565b93506129b2818560208601612970565b6129bb8161297e565b840191505092915050565b5f6020820190508181035f8301526129de818461298e565b905092915050565b5f819050919050565b6129f8816129e6565b8114612a02575f80fd5b50565b5f81359050612a13816129ef565b92915050565b5f60208284031215612a2e57612a2d61289b565b5b5f612a3b84828501612a05565b91505092915050565b5f73ffffffffffffffffffffffffffffffffffffffff82169050919050565b5f612a6d82612a44565b9050919050565b612a7d81612a63565b82525050565b5f602082019050612a965f830184612a74565b92915050565b612aa581612a63565b8114612aaf575f80fd5b50565b5f81359050612ac081612a9c565b92915050565b5f8060408385031215612adc57612adb61289b565b5b5f612ae985828601612ab2565b9250506020612afa85828601612a05565b9150509250929050565b5f60208284031215612b1957612b1861289b565b5b5f612b2684828501612ab2565b91505092915050565b612b38816129e6565b82525050565b5f602082019050612b515f830184612b2f565b92915050565b5f805f60608486031215612b6e57612b6d61289b565b5b5f612b7b86828701612ab2565b9350506020612b8c86828701612ab2565b9250506040612b9d86828701612a05565b9150509250925092565b612bb081612923565b8114612bba575f80fd5b50565b5f81359050612bcb81612ba7565b92915050565b5f8060408385031215612be757612be661289b565b5b5f612bf485828601612ab2565b9250506020612c0585828601612bbd565b9150509250929050565b5f80fd5b5f80fd5b7f4e487b71000000000000000000000000000000000000000000000000000000005f52604160045260245ffd5b612c4d8261297e565b810181811067ffffffffffffffff82111715612c6c57612c6b612c17565b5b80604052505050565b5f612c7e612892565b9050612c8a8282612c44565b919050565b5f67ffffffffffffffff821115612ca957612ca8612c17565b5b612cb28261297e565b9050602081019050919050565b828183375f83830152505050565b5f612cdf612cda84612c8f565b612c75565b905082815260208101848484011115612cfb57612cfa612c13565b5b612d06848285612cbf565b509392505050565b5f82601f830112612d2257612d21612c0f565b5b8135612d32848260208601612ccd565b91505092915050565b5f805f8060808587031215612d5357612d5261289b565b5b5f612d6087828801612ab2565b9450506020612d7187828801612ab2565b9350506040612d8287828801612a05565b925050606085013567ffffffffffffffff811115612da357612da261289f565b5b612daf87828801612d0e565b91505092959194509250565b5f8060408385031215612dd157612dd061289b565b5b5f612dde85828601612ab2565b9250506020612def85828601612ab2565b9150509250929050565b7f4e487b71000000000000000000000000000000000000000000000000000000005f52602260045260245ffd5b5f6002820490506001821680612e3d57607f821691505b602082108103612e5057612e4f612df9565b5b50919050565b7f4e487b71000000000000000000000000000000000000000000000000000000005f52601160045260245ffd5b5f612e8d826129e6565b91507fffffffffffffffffffffffffffffffffffffffffffffffffffffffffffffffff8203612ebf57612ebe612e56565b5b600182019050919050565b5f606082019050612edd5f830186612a74565b612eea6020830185612b2f565b612ef76040830184612a74565b949350505050565b5f604082019050612f125f830185612a74565b612f1f6020830184612b2f565b9392505050565b7f4e487b71000000000000000000000000000000000000000000000000000000005f52603260045260245ffd5b5f819050919050565b5f67ffffffffffffffff82169050919050565b5f819050919050565b5f612f92612f8d612f8884612f53565b612f6f565b612f5c565b9050919050565b612fa281612f78565b82525050565b5f602082019050612fbb5f830184612f99565b92915050565b5f81905092915050565b5f612fd582612956565b612fdf8185612fc1565b9350612fef818560208601612970565b80840191505092915050565b5f6130068285612fcb565b91506130128284612fcb565b91508190509392505050565b5f613028826129e6565b9150613033836129e6565b9250828202613041816129e6565b9150828204841483151761305857613057612e56565b5b5092915050565b5f613069826129e6565b9150613074836129e6565b925082820190508082111561308c5761308b612e56565b5b92915050565b5f61309c826129e6565b91506130a7836129e6565b92508282039050818111156130bf576130be612e56565b5b92915050565b5f81519050919050565b5f82825260208201905092915050565b5f6130e9826130c5565b6130f381856130cf565b9350613103818560208601612970565b61310c8161297e565b840191505092915050565b5f60808201905061312a5f830187612a74565b6131376020830186612a74565b6131446040830185612b2f565b818103606083015261315681846130df565b905095945050505050565b5f8151905061316f816128ce565b92915050565b5f6020828403121561318a5761318961289b565b5b5f61319784828501613161565b91505092915050565b7f4e487b71000000000000000000000000000000000000000000000000000000005f52601260045260245ffd5b7f4554485f5452414e534645525f4641494c4544000000000000000000000000005f82015250565b5f613201601383612960565b915061320c826131cd565b602082019050919050565b5f6020820190508181035f83015261322e816131f5565b9050919050565b7f4e487b71000000000000000000000000000000000000000000000000000000005f52603160045260245ffd5b5f819050815f5260205f209050919050565b5f6020601f8301049050919050565b5f82821b905092915050565b5f600883026132be7fffffffffffffffffffffffffffffffffffffffffffffffffffffffffffffffff82613283565b6132c88683613283565b95508019841693508086168417925050509392505050565b5f6132fa6132f56132f0846129e6565b612f6f565b6129e6565b9050919050565b5f819050919050565b613313836132e0565b61332761331f82613301565b84845461328f565b825550505050565b5f90565b61333b61332f565b61334681848461330a565b505050565b5b818110156133695761335e5f82613333565b60018101905061334c565b5050565b601f8211156133ae5761337f81613262565b61338884613274565b81016020851015613397578190505b6133ab6133a385613274565b83018261334b565b50505b505050565b5f82821c905092915050565b5f6133ce5f19846008026133b3565b1980831691505092915050565b5f6133e683836133bf565b9150826002028217905092915050565b6133ff82612956565b67ffffffffffffffff81111561341857613417612c17565b5b6134228254612e26565b61342d82828561336d565b5f60209050601f83116001811461345e575f841561344c578287015190505b61345685826133db565b8655506134bd565b601f19841661346c86613262565b5f5b828110156134935784890151825560018201915060208501945060208101905061346e565b868310156134b057848901516134ac601f8916826133bf565b8355505b6001600288020188555050505b50505050505056fea2646970667358221220e7b590c5c753da2fec866101e770cf80da83c74c940d47ea486e51555386de8464736f6c634300081a0033",
			"opcodes": "PUSH1 0x80 PUSH1 0x40 MSTORE CALLVALUE DUP1 ISZERO PUSH1 0xE JUMPI PUSH0 DUP1 REVERT JUMPDEST POP PUSH2 0x34FB DUP1 PUSH2 0x1C PUSH0 CODECOPY PUSH0 RETURN INVALID PUSH1 0x80 PUSH1 0x40 MSTORE PUSH1 0x4 CALLDATASIZE LT PUSH2 0x1B6 JUMPI PUSH0 CALLDATALOAD PUSH1 0xE0 SHR DUP1 PUSH4 0x6352211E GT PUSH2 0xEB JUMPI DUP1 PUSH4 0xA22CB465 GT PUSH2 0x89 JUMPI DUP1 PUSH4 0xE985E9C5 GT PUSH2 0x63 JUMPI DUP1 PUSH4 0xE985E9C5 EQ PUSH2 0x608 JUMPI DUP1 PUSH4 0xE9C2E14B EQ PUSH2 0x644 JUMPI DUP1 PUSH4 0xECE53132 EQ PUSH2 0x674 JUMPI DUP1 PUSH4 0xF2FDE38B EQ PUSH2 0x69C JUMPI PUSH2 0x1B6 JUMP JUMPDEST DUP1 PUSH4 0xA22CB465 EQ PUSH2 0x57C JUMPI DUP1 PUSH4 0xB88D4FDE EQ PUSH2 0x5A4 JUMPI DUP1 PUSH4 0xC87B56DD EQ PUSH2 0x5CC JUMPI PUSH2 0x1B6 JUMP JUMPDEST DUP1 PUSH4 0x799B6D2B GT PUSH2 0xC5 JUMPI DUP1 PUSH4 0x799B6D2B EQ PUSH2 0x4E8 JUMPI DUP1 PUSH4 0x8129FC1C EQ PUSH2 0x512 JUMPI DUP1 PUSH4 0x8DA5CB5B EQ PUSH2 0x528 JUMPI DUP1 PUSH4 0x95D89B41 EQ PUSH2 0x552 JUMPI PUSH2 0x1B6 JUMP JUMPDEST DUP1 PUSH4 0x6352211E EQ PUSH2 0x45A JUMPI DUP1 PUSH4 0x70A08231 EQ PUSH2 0x496 JUMPI DUP1 PUSH4 0x715018A6 EQ PUSH2 0x4D2 JUMPI PUSH2 0x1B6 JUMP JUMPDEST DUP1 PUSH4 0x2336296A GT PUSH2 0x158 JUMPI DUP1 PUSH4 0x2F745C59 GT PUSH2 0x132 JUMPI DUP1 PUSH4 0x2F745C59 EQ PUSH2 0x390 JUMPI DUP1 PUSH4 0x3609AC8F EQ PUSH2 0x3CC JUMPI DUP1 PUSH4 0x42842E0E EQ PUSH2 0x3F6 JUMPI DUP1 PUSH4 0x4F6CCCE7 EQ PUSH2 0x41E JUMPI PUSH2 0x1B6 JUMP JUMPDEST DUP1 PUSH4 0x2336296A EQ PUSH2 0x314 JUMPI DUP1 PUSH4 0x23B872DD EQ PUSH2 0x33E JUMPI DUP1 PUSH4 0x279E4A63 EQ PUSH2 0x366 JUMPI PUSH2 0x1B6 JUMP JUMPDEST DUP1 PUSH4 0x95EA7B3 GT PUSH2 0x194 JUMPI DUP1 PUSH4 0x95EA7B3 EQ PUSH2 0x25C JUMPI DUP1 PUSH4 0xB56F8B6 EQ PUSH2 0x284 JUMPI DUP1 PUSH4 0x18160DDD EQ PUSH2 0x2C0 JUMPI DUP1 PUSH4 0x21157246 EQ PUSH2 0x2EA JUMPI PUSH2 0x1B6 JUMP JUMPDEST DUP1 PUSH4 0x1FFC9A7 EQ PUSH2 0x1BA JUMPI DUP1 PUSH4 0x6FDDE03 EQ PUSH2 0x1F6 JUMPI DUP1 PUSH4 0x81812FC EQ PUSH2 0x220 JUMPI JUMPDEST PUSH0 DUP1 REVERT JUMPDEST CALLVALUE DUP1 ISZERO PUSH2 0x1C5 JUMPI PUSH0 DUP1 REVERT JUMPDEST POP PUSH2 0x1E0 PUSH1 0x4 DUP1 CALLDATASIZE SUB DUP2 ADD SWAP1 PUSH2 0x1DB SWAP2 SWAP1 PUSH2 0x28F8 JUMP JUMPDEST PUSH2 0x6C4 JUMP JUMPDEST PUSH1 0x40 MLOAD PUSH2 0x1ED SWAP2 SWAP1 PUSH2 0x293D JUMP JUMPDEST PUSH1 0x40 MLOAD DUP1 SWAP2 SUB SWAP1 RETURN JUMPDEST CALLVALUE DUP1 ISZERO PUSH2 0x201 JUMPI PUSH0 DUP1 REVERT JUMPDEST POP PUSH2 0x20A PUSH2 0x73D JUMP JUMPDEST PUSH1 0x40 MLOAD PUSH2 0x217 SWAP2 SWAP1 PUSH2 0x29C6 JUMP JUMPDEST PUSH1 0x40 MLOAD DUP1 SWAP2 SUB SWAP1 RETURN JUMPDEST CALLVALUE DUP1 ISZERO PUSH2 0x22B JUMPI PUSH0 DUP1 REVERT JUMPDEST POP PUSH2 0x246 PUSH1 0x4 DUP1 CALLDATASIZE SUB DUP2 ADD SWAP1 PUSH2 0x241 SWAP2 SWAP1 PUSH2 0x2A19 JUMP JUMPDEST PUSH2 0x7DA JUMP JUMPDEST PUSH1 0x40 MLOAD PUSH2 0x253 SWAP2 SWAP1 PUSH2 0x2A83 JUMP JUMPDEST PUSH1 0x40 MLOAD DUP1 SWAP2 SUB SWAP1 RETURN JUMPDEST CALLVALUE DUP1 ISZERO PUSH2 0x267 JUMPI PUSH0 DUP1 REVERT JUMPDEST POP PUSH2 0x282 PUSH1 0x4 DUP1 CALLDATASIZE SUB DUP2 ADD SWAP1 PUSH2 0x27D SWAP2 SWAP1 PUSH2 0x2AC6 JUMP JUMPDEST PUSH2 0x7F5 JUMP JUMPDEST STOP JUMPDEST CALLVALUE DUP1 ISZERO PUSH2 0x28F JUMPI PUSH0 DUP1 REVERT JUMPDEST POP PUSH2 0x2AA PUSH1 0x4 DUP1 CALLDATASIZE SUB DUP2 ADD SWAP1 PUSH2 0x2A5 SWAP2 SWAP1 PUSH2 0x2B04 JUMP JUMPDEST PUSH2 0x80B JUMP JUMPDEST PUSH1 0x40 MLOAD PUSH2 0x2B7 SWAP2 SWAP1 PUSH2 0x2B3E JUMP JUMPDEST PUSH1 0x40 MLOAD DUP1 SWAP2 SUB SWAP1 RETURN JUMPDEST CALLVALUE DUP1 ISZERO PUSH2 0x2CB JUMPI PUSH0 DUP1 REVERT JUMPDEST POP PUSH2 0x2D4 PUSH2 0x8BC JUMP JUMPDEST PUSH1 0x40 MLOAD PUSH2 0x2E1 SWAP2 SWAP1 PUSH2 0x2B3E JUMP JUMPDEST PUSH1 0x40 MLOAD DUP1 SWAP2 SUB SWAP1 RETURN JUMPDEST CALLVALUE DUP1 ISZERO PUSH2 0x2F5 JUMPI PUSH0 DUP1 REVERT JUMPDEST POP PUSH2 0x2FE PUSH2 0x8D6 JUMP JUMPDEST PUSH1 0x40 MLOAD PUSH2 0x30B SWAP2 SWAP1 PUSH2 0x2B3E JUMP JUMPDEST PUSH1 0x40 MLOAD DUP1 SWAP2 SUB SWAP1 RETURN JUMPDEST CALLVALUE DUP1 ISZERO PUSH2 0x31F JUMPI PUSH0 DUP1 REVERT JUMPDEST POP PUSH2 0x328 PUSH2 0x8DC JUMP JUMPDEST PUSH1 0x40 MLOAD PUSH2 0x335 SWAP2 SWAP1 PUSH2 0x2B3E JUMP JUMPDEST PUSH1 0x40 MLOAD DUP1 SWAP2 SUB SWAP1 RETURN JUMPDEST CALLVALUE DUP1 ISZERO PUSH2 0x349 JUMPI PUSH0 DUP1 REVERT JUMPDEST POP PUSH2 0x364 PUSH1 0x4 DUP1 CALLDATASIZE SUB DUP2 ADD SWAP1 PUSH2 0x35F SWAP2 SWAP1 PUSH2 0x2B57 JUMP JUMPDEST PUSH2 0x8E1 JUMP JUMPDEST STOP JUMPDEST CALLVALUE DUP1 ISZERO PUSH2 0x371 JUMPI PUSH0 DUP1 REVERT JUMPDEST POP PUSH2 0x37A PUSH2 0x9E0 JUMP JUMPDEST PUSH1 0x40 MLOAD PUSH2 0x387 SWAP2 SWAP1 PUSH2 0x2B3E JUMP JUMPDEST PUSH1 0x40 MLOAD DUP1 SWAP2 SUB SWAP1 RETURN JUMPDEST CALLVALUE DUP1 ISZERO PUSH2 0x39B JUMPI PUSH0 DUP1 REVERT JUMPDEST POP PUSH2 0x3B6 PUSH1 0x4 DUP1 CALLDATASIZE SUB DUP2 ADD SWAP1 PUSH2 0x3B1 SWAP2 SWAP1 PUSH2 0x2AC6 JUMP JUMPDEST PUSH2 0x9E6 JUMP JUMPDEST PUSH1 0x40 MLOAD PUSH2 0x3C3 SWAP2 SWAP1 PUSH2 0x2B3E JUMP JUMPDEST PUSH1 0x40 MLOAD DUP1 SWAP2 SUB SWAP1 RETURN JUMPDEST CALLVALUE DUP1 ISZERO PUSH2 0x3D7 JUMPI PUSH0 DUP1 REVERT JUMPDEST POP PUSH2 0x3E0 PUSH2 0xA97 JUMP JUMPDEST PUSH1 0x40 MLOAD PUSH2 0x3ED SWAP2 SWAP1 PUSH2 0x2B3E JUMP JUMPDEST PUSH1 0x40 MLOAD DUP1 SWAP2 SUB SWAP1 RETURN JUMPDEST CALLVALUE DUP1 ISZERO PUSH2 0x401 JUMPI PUSH0 DUP1 REVERT JUMPDEST POP PUSH2 0x41C PUSH1 0x4 DUP1 CALLDATASIZE SUB DUP2 ADD SWAP1 PUSH2 0x417 SWAP2 SWAP1 PUSH2 0x2B57 JUMP JUMPDEST PUSH2 0xAA1 JUMP JUMPDEST STOP JUMPDEST CALLVALUE DUP1 ISZERO PUSH2 0x429 JUMPI PUSH0 DUP1 REVERT JUMPDEST POP PUSH2 0x444 PUSH1 0x4 DUP1 CALLDATASIZE SUB DUP2 ADD SWAP1 PUSH2 0x43F SWAP2 SWAP1 PUSH2 0x2A19 JUMP JUMPDEST PUSH2 0xAC0 JUMP JUMPDEST PUSH1 0x40 MLOAD PUSH2 0x451 SWAP2 SWAP1 PUSH2 0x2B3E JUMP JUMPDEST PUSH1 0x40 MLOAD DUP1 SWAP2 SUB SWAP1 RETURN JUMPDEST CALLVALUE DUP1 ISZERO PUSH2 0x465 JUMPI PUSH0 DUP1 REVERT JUMPDEST POP PUSH2 0x480 PUSH1 0x4 DUP1 CALLDATASIZE SUB DUP2 ADD SWAP1 PUSH2 0x47B SWAP2 SWAP1 PUSH2 0x2A19 JUMP JUMPDEST PUSH2 0xB40 JUMP JUMPDEST PUSH1 0x40 MLOAD PUSH2 0x48D SWAP2 SWAP1 PUSH2 0x2A83 JUMP JUMPDEST PUSH1 0x40 MLOAD DUP1 SWAP2 SUB SWAP1 RETURN JUMPDEST CALLVALUE DUP1 ISZERO PUSH2 0x4A1 JUMPI PUSH0 DUP1 REVERT JUMPDEST POP PUSH2 0x4BC PUSH1 0x4 DUP1 CALLDATASIZE SUB DUP2 ADD SWAP1 PUSH2 0x4B7 SWAP2 SWAP1 PUSH2 0x2B04 JUMP JUMPDEST PUSH2 0xB51 JUMP JUMPDEST PUSH1 0x40 MLOAD PUSH2 0x4C9 SWAP2 SWAP1 PUSH2 0x2B3E JUMP JUMPDEST PUSH1 0x40 MLOAD DUP1 SWAP2 SUB SWAP1 RETURN JUMPDEST CALLVALUE DUP1 ISZERO PUSH2 0x4DD JUMPI PUSH0 DUP1 REVERT JUMPDEST POP PUSH2 0x4E6 PUSH2 0xC15 JUMP JUMPDEST STOP JUMPDEST CALLVALUE DUP1 ISZERO PUSH2 0x4F3 JUMPI PUSH0 DUP1 REVERT JUMPDEST POP PUSH2 0x4FC PUSH2 0xC28 JUMP JUMPDEST PUSH1 0x40 MLOAD PUSH2 0x509 SWAP2 SWAP1 PUSH2 0x2B3E JUMP JUMPDEST PUSH1 0x40 MLOAD DUP1 SWAP2 SUB SWAP1 RETURN JUMPDEST CALLVALUE DUP1 ISZERO PUSH2 0x51D JUMPI PUSH0 DUP1 REVERT JUMPDEST POP PUSH2 0x526 PUSH2 0xC31 JUMP JUMPDEST STOP JUMPDEST CALLVALUE DUP1 ISZERO PUSH2 0x533 JUMPI PUSH0 DUP1 REVERT JUMPDEST POP PUSH2 0x53C PUSH2 0xE25 JUMP JUMPDEST PUSH1 0x40 MLOAD PUSH2 0x549 SWAP2 SWAP1 PUSH2 0x2A83 JUMP JUMPDEST PUSH1 0x40 MLOAD DUP1 SWAP2 SUB SWAP1 RETURN JUMPDEST CALLVALUE DUP1 ISZERO PUSH2 0x55D JUMPI PUSH0 DUP1 REVERT JUMPDEST POP PUSH2 0x566 PUSH2 0xE5A JUMP JUMPDEST PUSH1 0x40 MLOAD PUSH2 0x573 SWAP2 SWAP1 PUSH2 0x29C6 JUMP JUMPDEST PUSH1 0x40 MLOAD DUP1 SWAP2 SUB SWAP1 RETURN JUMPDEST CALLVALUE DUP1 ISZERO PUSH2 0x587 JUMPI PUSH0 DUP1 REVERT JUMPDEST POP PUSH2 0x5A2 PUSH1 0x4 DUP1 CALLDATASIZE SUB DUP2 ADD SWAP1 PUSH2 0x59D SWAP2 SWAP1 PUSH2 0x2BD1 JUMP JUMPDEST PUSH2 0xEF8 JUMP JUMPDEST STOP JUMPDEST CALLVALUE DUP1 ISZERO PUSH2 0x5AF JUMPI PUSH0 DUP1 REVERT JUMPDEST POP PUSH2 0x5CA PUSH1 0x4 DUP1 CALLDATASIZE SUB DUP2 ADD SWAP1 PUSH2 0x5C5 SWAP2 SWAP1 PUSH2 0x2D3B JUMP JUMPDEST PUSH2 0xF0E JUMP JUMPDEST STOP JUMPDEST CALLVALUE DUP1 ISZERO PUSH2 0x5D7 JUMPI PUSH0 DUP1 REVERT JUMPDEST POP PUSH2 0x5F2 PUSH1 0x4 DUP1 CALLDATASIZE SUB DUP2 ADD SWAP1 PUSH2 0x5ED SWAP2 SWAP1 PUSH2 0x2A19 JUMP JUMPDEST PUSH2 0xF2B JUMP JUMPDEST PUSH1 0x40 MLOAD PUSH2 0x5FF SWAP2 SWAP1 PUSH2 0x29C6 JUMP JUMPDEST PUSH1 0x40 MLOAD DUP1 SWAP2 SUB SWAP1 RETURN JUMPDEST CALLVALUE DUP1 ISZERO PUSH2 0x613 JUMPI PUSH0 DUP1 REVERT JUMPDEST POP PUSH2 0x62E PUSH1 0x4 DUP1 CALLDATASIZE SUB DUP2 ADD SWAP1 PUSH2 0x629 SWAP2 SWAP1 PUSH2 0x2DBB JUMP JUMPDEST PUSH2 0xF91 JUMP JUMPDEST PUSH1 0x40 MLOAD PUSH2 0x63B SWAP2 SWAP1 PUSH2 0x293D JUMP JUMPDEST PUSH1 0x40 MLOAD DUP1 SWAP2 SUB SWAP1 RETURN JUMPDEST PUSH2 0x65E PUSH1 0x4 DUP1 CALLDATASIZE SUB DUP2 ADD SWAP1 PUSH2 0x659 SWAP2 SWAP1 PUSH2 0x2B04 JUMP JUMPDEST PUSH2 0x102D JUMP JUMPDEST PUSH1 0x40 MLOAD PUSH2 0x66B SWAP2 SWAP1 PUSH2 0x2B3E JUMP JUMPDEST PUSH1 0x40 MLOAD DUP1 SWAP2 SUB SWAP1 RETURN JUMPDEST CALLVALUE DUP1 ISZERO PUSH2 0x67F JUMPI PUSH0 DUP1 REVERT JUMPDEST POP PUSH2 0x69A PUSH1 0x4 DUP1 CALLDATASIZE SUB DUP2 ADD SWAP1 PUSH2 0x695 SWAP2 SWAP1 PUSH2 0x2B04 JUMP JUMPDEST PUSH2 0x1138 JUMP JUMPDEST STOP JUMPDEST CALLVALUE DUP1 ISZERO PUSH2 0x6A7 JUMPI PUSH0 DUP1 REVERT JUMPDEST POP PUSH2 0x6C2 PUSH1 0x4 DUP1 CALLDATASIZE SUB DUP2 ADD SWAP1 PUSH2 0x6BD SWAP2 SWAP1 PUSH2 0x2B04 JUMP JUMPDEST PUSH2 0x11BF JUMP JUMPDEST STOP JUMPDEST PUSH0 PUSH32 0x780E9D6300000000000000000000000000000000000000000000000000000000 PUSH28 0xFFFFFFFFFFFFFFFFFFFFFFFFFFFFFFFFFFFFFFFFFFFFFFFFFFFFFFFF NOT AND DUP3 PUSH28 0xFFFFFFFFFFFFFFFFFFFFFFFFFFFFFFFFFFFFFFFFFFFFFFFFFFFFFFFF NOT AND EQ DUP1 PUSH2 0x736 JUMPI POP PUSH2 0x735 DUP3 PUSH2 0x1243 JUMP JUMPDEST JUMPDEST SWAP1 POP SWAP2 SWAP1 POP JUMP JUMPDEST PUSH1 0x60 PUSH0 PUSH2 0x748 PUSH2 0x1324 JUMP JUMPDEST SWAP1 POP DUP1 PUSH0 ADD DUP1 SLOAD PUSH2 0x758 SWAP1 PUSH2 0x2E26 JUMP JUMPDEST DUP1 PUSH1 0x1F ADD PUSH1 0x20 DUP1 SWAP2 DIV MUL PUSH1 0x20 ADD PUSH1 0x40 MLOAD SWAP1 DUP2 ADD PUSH1 0x40 MSTORE DUP1 SWAP3 SWAP2 SWAP1 DUP2 DUP2 MSTORE PUSH1 0x20 ADD DUP3 DUP1 SLOAD PUSH2 0x784 SWAP1 PUSH2 0x2E26 JUMP JUMPDEST DUP1 ISZERO PUSH2 0x7CF JUMPI DUP1 PUSH1 0x1F LT PUSH2 0x7A6 JUMPI PUSH2 0x100 DUP1 DUP4 SLOAD DIV MUL DUP4 MSTORE SWAP2 PUSH1 0x20 ADD SWAP2 PUSH2 0x7CF JUMP JUMPDEST DUP3 ADD SWAP2 SWAP1 PUSH0 MSTORE PUSH1 0x20 PUSH0 KECCAK256 SWAP1 JUMPDEST DUP2 SLOAD DUP2 MSTORE SWAP1 PUSH1 0x1 ADD SWAP1 PUSH1 0x20 ADD DUP1 DUP4 GT PUSH2 0x7B2 JUMPI DUP3 SWAP1 SUB PUSH1 0x1F AND DUP3 ADD SWAP2 JUMPDEST POP POP POP POP POP SWAP2 POP POP SWAP1 JUMP JUMPDEST PUSH0 PUSH2 0x7E4 DUP3 PUSH2 0x134B JUMP JUMPDEST POP PUSH2 0x7EE DUP3 PUSH2 0x13D1 JUMP JUMPDEST SWAP1 POP SWAP2 SWAP1 POP JUMP JUMPDEST PUSH2 0x807 DUP3 DUP3 PUSH2 0x802 PUSH2 0x1418 JUMP JUMPDEST PUSH2 0x141F JUMP JUMPDEST POP POP JUMP JUMPDEST PUSH0 PUSH2 0x814 PUSH2 0x1431 JUMP JUMPDEST PUSH2 0xFA0 PUSH1 0x1 PUSH0 DUP2 SLOAD PUSH2 0x825 SWAP1 PUSH2 0x2E83 JUMP JUMPDEST SWAP2 SWAP1 POP DUP2 SWAP1 SSTORE GT ISZERO PUSH2 0x863 JUMPI PUSH1 0x40 MLOAD PUSH32 0x9652890B00000000000000000000000000000000000000000000000000000000 DUP2 MSTORE PUSH1 0x4 ADD PUSH1 0x40 MLOAD DUP1 SWAP2 SUB SWAP1 REVERT JUMPDEST PUSH0 PUSH2 0x86D DUP4 PUSH2 0x14B8 JUMP JUMPDEST SWAP1 POP DUP3 PUSH20 0xFFFFFFFFFFFFFFFFFFFFFFFFFFFFFFFFFFFFFFFF AND DUP2 PUSH32 0x9A898AA15205B61D8F9396A555948AF42817F07D647AEF6C7102B2ADFF2517D6 PUSH1 0x40 MLOAD PUSH1 0x40 MLOAD DUP1 SWAP2 SUB SWAP1 LOG3 DUP1 SWAP2 POP POP SWAP2 SWAP1 POP JUMP JUMPDEST PUSH0 DUP1 PUSH2 0x8C6 PUSH2 0x14D7 JUMP JUMPDEST SWAP1 POP DUP1 PUSH1 0x2 ADD DUP1 SLOAD SWAP1 POP SWAP2 POP POP SWAP1 JUMP JUMPDEST PUSH2 0xFA0 DUP2 JUMP JUMPDEST PUSH0 SLOAD DUP2 JUMP JUMPDEST PUSH0 PUSH20 0xFFFFFFFFFFFFFFFFFFFFFFFFFFFFFFFFFFFFFFFF AND DUP3 PUSH20 0xFFFFFFFFFFFFFFFFFFFFFFFFFFFFFFFFFFFFFFFF AND SUB PUSH2 0x951 JUMPI PUSH0 PUSH1 0x40 MLOAD PUSH32 0x64A0AE9200000000000000000000000000000000000000000000000000000000 DUP2 MSTORE PUSH1 0x4 ADD PUSH2 0x948 SWAP2 SWAP1 PUSH2 0x2A83 JUMP JUMPDEST PUSH1 0x40 MLOAD DUP1 SWAP2 SUB SWAP1 REVERT JUMPDEST PUSH0 PUSH2 0x964 DUP4 DUP4 PUSH2 0x95F PUSH2 0x1418 JUMP JUMPDEST PUSH2 0x14FE JUMP JUMPDEST SWAP1 POP DUP4 PUSH20 0xFFFFFFFFFFFFFFFFFFFFFFFFFFFFFFFFFFFFFFFF AND DUP2 PUSH20 0xFFFFFFFFFFFFFFFFFFFFFFFFFFFFFFFFFFFFFFFF AND EQ PUSH2 0x9DA JUMPI DUP4 DUP3 DUP3 PUSH1 0x40 MLOAD PUSH32 0x64283D7B00000000000000000000000000000000000000000000000000000000 DUP2 MSTORE PUSH1 0x4 ADD PUSH2 0x9D1 SWAP4 SWAP3 SWAP2 SWAP1 PUSH2 0x2ECA JUMP JUMPDEST PUSH1 0x40 MLOAD DUP1 SWAP2 SUB SWAP1 REVERT JUMPDEST POP POP POP POP JUMP JUMPDEST PUSH1 0x1 SLOAD DUP2 JUMP JUMPDEST PUSH0 DUP1 PUSH2 0x9F0 PUSH2 0x14D7 JUMP JUMPDEST SWAP1 POP PUSH2 0x9FB DUP5 PUSH2 0xB51 JUMP JUMPDEST DUP4 LT PUSH2 0xA40 JUMPI DUP4 DUP4 PUSH1 0x40 MLOAD PUSH32 0xA57D13DC00000000000000000000000000000000000000000000000000000000 DUP2 MSTORE PUSH1 0x4 ADD PUSH2 0xA37 SWAP3 SWAP2 SWAP1 PUSH2 0x2EFF JUMP JUMPDEST PUSH1 0x40 MLOAD DUP1 SWAP2 SUB SWAP1 REVERT JUMPDEST DUP1 PUSH0 ADD PUSH0 DUP6 PUSH20 0xFFFFFFFFFFFFFFFFFFFFFFFFFFFFFFFFFFFFFFFF AND PUSH20 0xFFFFFFFFFFFFFFFFFFFFFFFFFFFFFFFFFFFFFFFF AND DUP2 MSTORE PUSH1 0x20 ADD SWAP1 DUP2 MSTORE PUSH1 0x20 ADD PUSH0 KECCAK256 PUSH0 DUP5 DUP2 MSTORE PUSH1 0x20 ADD SWAP1 DUP2 MSTORE PUSH1 0x20 ADD PUSH0 KECCAK256 SLOAD SWAP2 POP POP SWAP3 SWAP2 POP POP JUMP JUMPDEST PUSH6 0x9184E72A000 DUP2 JUMP JUMPDEST PUSH2 0xABB DUP4 DUP4 DUP4 PUSH1 0x40 MLOAD DUP1 PUSH1 0x20 ADD PUSH1 0x40 MSTORE DUP1 PUSH0 DUP2 MSTORE POP PUSH2 0xF0E JUMP JUMPDEST POP POP POP JUMP JUMPDEST PUSH0 DUP1 PUSH2 0xACA PUSH2 0x14D7 JUMP JUMPDEST SWAP1 POP PUSH2 0xAD4 PUSH2 0x8BC JUMP JUMPDEST DUP4 LT PUSH2 0xB19 JUMPI PUSH0 DUP4 PUSH1 0x40 MLOAD PUSH32 0xA57D13DC00000000000000000000000000000000000000000000000000000000 DUP2 MSTORE PUSH1 0x4 ADD PUSH2 0xB10 SWAP3 SWAP2 SWAP1 PUSH2 0x2EFF JUMP JUMPDEST PUSH1 0x40 MLOAD DUP1 SWAP2 SUB SWAP1 REVERT JUMPDEST DUP1 PUSH1 0x2 ADD DUP4 DUP2 SLOAD DUP2 LT PUSH2 0xB2F JUMPI PUSH2 0xB2E PUSH2 0x2F26 JUMP JUMPDEST JUMPDEST SWAP1 PUSH0 MSTORE PUSH1 0x20 PUSH0 KECCAK256 ADD SLOAD SWAP2 POP POP SWAP2 SWAP1 POP JUMP JUMPDEST PUSH0 PUSH2 0xB4A DUP3 PUSH2 0x134B JUMP JUMPDEST SWAP1 POP SWAP2 SWAP1 POP JUMP JUMPDEST PUSH0 DUP1 PUSH2 0xB5B PUSH2 0x1324 JUMP JUMPDEST SWAP1 POP PUSH0 PUSH20 0xFFFFFFFFFFFFFFFFFFFFFFFFFFFFFFFFFFFFFFFF AND DUP4 PUSH20 0xFFFFFFFFFFFFFFFFFFFFFFFFFFFFFFFFFFFFFFFF AND SUB PUSH2 0xBCD JUMPI PUSH0 PUSH1 0x40 MLOAD PUSH32 0x89C62B6400000000000000000000000000000000000000000000000000000000 DUP2 MSTORE PUSH1 0x4 ADD PUSH2 0xBC4 SWAP2 SWAP1 PUSH2 0x2A83 JUMP JUMPDEST PUSH1 0x40 MLOAD DUP1 SWAP2 SUB SWAP1 REVERT JUMPDEST DUP1 PUSH1 0x3 ADD PUSH0 DUP5 PUSH20 0xFFFFFFFFFFFFFFFFFFFFFFFFFFFFFFFFFFFFFFFF AND PUSH20 0xFFFFFFFFFFFFFFFFFFFFFFFFFFFFFFFFFFFFFFFF AND DUP2 MSTORE PUSH1 0x20 ADD SWAP1 DUP2 MSTORE PUSH1 0x20 ADD PUSH0 KECCAK256 SLOAD SWAP2 POP POP SWAP2 SWAP1 POP JUMP JUMPDEST PUSH2 0xC1D PUSH2 0x1431 JUMP JUMPDEST PUSH2 0xC26 PUSH0 PUSH2 0x1618 JUMP JUMPDEST JUMP JUMPDEST PUSH5 0x174876E800 DUP2 JUMP JUMPDEST PUSH0 PUSH2 0xC3A PUSH2 0x16E9 JUMP JUMPDEST SWAP1 POP PUSH0 DUP2 PUSH0 ADD PUSH1 0x8 SWAP1 SLOAD SWAP1 PUSH2 0x100 EXP SWAP1 DIV PUSH1 0xFF AND ISZERO SWAP1 POP PUSH0 DUP3 PUSH0 ADD PUSH0 SWAP1 SLOAD SWAP1 PUSH2 0x100 EXP SWAP1 DIV PUSH8 0xFFFFFFFFFFFFFFFF AND SWAP1 POP PUSH0 DUP1 DUP3 PUSH8 0xFFFFFFFFFFFFFFFF AND EQ DUP1 ISZERO PUSH2 0xC82 JUMPI POP DUP3 JUMPDEST SWAP1 POP PUSH0 PUSH1 0x1 DUP4 PUSH8 0xFFFFFFFFFFFFFFFF AND EQ DUP1 ISZERO PUSH2 0xCB5 JUMPI POP PUSH0 ADDRESS PUSH20 0xFFFFFFFFFFFFFFFFFFFFFFFFFFFFFFFFFFFFFFFF AND EXTCODESIZE EQ JUMPDEST SWAP1 POP DUP2 ISZERO DUP1 ISZERO PUSH2 0xCC3 JUMPI POP DUP1 ISZERO JUMPDEST ISZERO PUSH2 0xCFA JUMPI PUSH1 0x40 MLOAD PUSH32 0xF92EE8A900000000000000000000000000000000000000000000000000000000 DUP2 MSTORE PUSH1 0x4 ADD PUSH1 0x40 MLOAD DUP1 SWAP2 SUB SWAP1 REVERT JUMPDEST PUSH1 0x1 DUP6 PUSH0 ADD PUSH0 PUSH2 0x100 EXP DUP2 SLOAD DUP2 PUSH8 0xFFFFFFFFFFFFFFFF MUL NOT AND SWAP1 DUP4 PUSH8 0xFFFFFFFFFFFFFFFF AND MUL OR SWAP1 SSTORE POP DUP4 ISZERO PUSH2 0xD47 JUMPI PUSH1 0x1 DUP6 PUSH0 ADD PUSH1 0x8 PUSH2 0x100 EXP DUP2 SLOAD DUP2 PUSH1 0xFF MUL NOT AND SWAP1 DUP4 ISZERO ISZERO MUL OR SWAP1 SSTORE POP JUMPDEST PUSH2 0xDBB PUSH1 0x40 MLOAD DUP1 PUSH1 0x40 ADD PUSH1 0x40 MSTORE DUP1 PUSH1 0x8 DUP2 MSTORE PUSH1 0x20 ADD PUSH32 0x44796164204E4654000000000000000000000000000000000000000000000000 DUP2 MSTORE POP PUSH1 0x40 MLOAD DUP1 PUSH1 0x40 ADD PUSH1 0x40 MSTORE DUP1 PUSH1 0x4 DUP2 MSTORE PUSH1 0x20 ADD PUSH32 0x644E465400000000000000000000000000000000000000000000000000000000 DUP2 MSTORE POP PUSH2 0x1710 JUMP JUMPDEST PUSH2 0xDC4 CALLER PUSH2 0x1726 JUMP JUMPDEST DUP4 ISZERO PUSH2 0xE1E JUMPI PUSH0 DUP6 PUSH0 ADD PUSH1 0x8 PUSH2 0x100 EXP DUP2 SLOAD DUP2 PUSH1 0xFF MUL NOT AND SWAP1 DUP4 ISZERO ISZERO MUL OR SWAP1 SSTORE POP PUSH32 0xC7F505B2F371AE2175EE4913F4499E1F2633A7B5936321EED1CDAEB6115181D2 PUSH1 0x1 PUSH1 0x40 MLOAD PUSH2 0xE15 SWAP2 SWAP1 PUSH2 0x2FA8 JUMP JUMPDEST PUSH1 0x40 MLOAD DUP1 SWAP2 SUB SWAP1 LOG1 JUMPDEST POP POP POP POP POP JUMP JUMPDEST PUSH0 DUP1 PUSH2 0xE2F PUSH2 0x173A JUMP JUMPDEST SWAP1 POP DUP1 PUSH0 ADD PUSH0 SWAP1 SLOAD SWAP1 PUSH2 0x100 EXP SWAP1 DIV PUSH20 0xFFFFFFFFFFFFFFFFFFFFFFFFFFFFFFFFFFFFFFFF AND SWAP2 POP POP SWAP1 JUMP JUMPDEST PUSH1 0x60 PUSH0 PUSH2 0xE65 PUSH2 0x1324 JUMP JUMPDEST SWAP1 POP DUP1 PUSH1 0x1 ADD DUP1 SLOAD PUSH2 0xE76 SWAP1 PUSH2 0x2E26 JUMP JUMPDEST DUP1 PUSH1 0x1F ADD PUSH1 0x20 DUP1 SWAP2 DIV MUL PUSH1 0x20 ADD PUSH1 0x40 MLOAD SWAP1 DUP2 ADD PUSH1 0x40 MSTORE DUP1 SWAP3 SWAP2 SWAP1 DUP2 DUP2 MSTORE PUSH1 0x20 ADD DUP3 DUP1 SLOAD PUSH2 0xEA2 SWAP1 PUSH2 0x2E26 JUMP JUMPDEST DUP1 ISZERO PUSH2 0xEED JUMPI DUP1 PUSH1 0x1F LT PUSH2 0xEC4 JUMPI PUSH2 0x100 DUP1 DUP4 SLOAD DIV MUL DUP4 MSTORE SWAP2 PUSH1 0x20 ADD SWAP2 PUSH2 0xEED JUMP JUMPDEST DUP3 ADD SWAP2 SWAP1 PUSH0 MSTORE PUSH1 0x20 PUSH0 KECCAK256 SWAP1 JUMPDEST DUP2 SLOAD DUP2 MSTORE SWAP1 PUSH1 0x1 ADD SWAP1 PUSH1 0x20 ADD DUP1 DUP4 GT PUSH2 0xED0 JUMPI DUP3 SWAP1 SUB PUSH1 0x1F AND DUP3 ADD SWAP2 JUMPDEST POP POP POP POP POP SWAP2 POP POP SWAP1 JUMP JUMPDEST PUSH2 0xF0A PUSH2 0xF03 PUSH2 0x1418 JUMP JUMPDEST DUP4 DUP4 PUSH2 0x1761 JUMP JUMPDEST POP POP JUMP JUMPDEST PUSH2 0xF19 DUP5 DUP5 DUP5 PUSH2 0x8E1 JUMP JUMPDEST PUSH2 0xF25 DUP5 DUP5 DUP5 DUP5 PUSH2 0x18D8 JUMP JUMPDEST POP POP POP POP JUMP JUMPDEST PUSH1 0x60 PUSH2 0xF36 DUP3 PUSH2 0x134B JUMP JUMPDEST POP PUSH0 PUSH2 0xF40 PUSH2 0x1A8A JUMP JUMPDEST SWAP1 POP PUSH0 DUP2 MLOAD GT PUSH2 0xF5E JUMPI PUSH1 0x40 MLOAD DUP1 PUSH1 0x20 ADD PUSH1 0x40 MSTORE DUP1 PUSH0 DUP2 MSTORE POP PUSH2 0xF89 JUMP JUMPDEST DUP1 PUSH2 0xF68 DUP5 PUSH2 0x1AA0 JUMP JUMPDEST PUSH1 0x40 MLOAD PUSH1 0x20 ADD PUSH2 0xF79 SWAP3 SWAP2 SWAP1 PUSH2 0x2FFB JUMP JUMPDEST PUSH1 0x40 MLOAD PUSH1 0x20 DUP2 DUP4 SUB SUB DUP2 MSTORE SWAP1 PUSH1 0x40 MSTORE JUMPDEST SWAP2 POP POP SWAP2 SWAP1 POP JUMP JUMPDEST PUSH0 DUP1 PUSH2 0xF9B PUSH2 0x1324 JUMP JUMPDEST SWAP1 POP DUP1 PUSH1 0x5 ADD PUSH0 DUP6 PUSH20 0xFFFFFFFFFFFFFFFFFFFFFFFFFFFFFFFFFFFFFFFF AND PUSH20 0xFFFFFFFFFFFFFFFFFFFFFFFFFFFFFFFFFFFFFFFF AND DUP2 MSTORE PUSH1 0x20 ADD SWAP1 DUP2 MSTORE PUSH1 0x20 ADD PUSH0 KECCAK256 PUSH0 DUP5 PUSH20 0xFFFFFFFFFFFFFFFFFFFFFFFFFFFFFFFFFFFFFFFF AND PUSH20 0xFFFFFFFFFFFFFFFFFFFFFFFFFFFFFFFFFFFFFFFF AND DUP2 MSTORE PUSH1 0x20 ADD SWAP1 DUP2 MSTORE PUSH1 0x20 ADD PUSH0 KECCAK256 PUSH0 SWAP1 SLOAD SWAP1 PUSH2 0x100 EXP SWAP1 DIV PUSH1 0xFF AND SWAP2 POP POP SWAP3 SWAP2 POP POP JUMP JUMPDEST PUSH0 DUP1 PUSH0 DUP1 DUP2 SLOAD DUP1 SWAP3 SWAP2 SWAP1 PUSH2 0x1040 SWAP1 PUSH2 0x2E83 JUMP JUMPDEST SWAP2 SWAP1 POP SSTORE PUSH5 0x174876E800 PUSH2 0x1054 SWAP2 SWAP1 PUSH2 0x301E JUMP JUMPDEST PUSH6 0x9184E72A000 PUSH2 0x1065 SWAP2 SWAP1 PUSH2 0x305F JUMP JUMPDEST SWAP1 POP DUP1 CALLVALUE LT ISZERO PUSH2 0x10A1 JUMPI PUSH1 0x40 MLOAD PUSH32 0x356680B700000000000000000000000000000000000000000000000000000000 DUP2 MSTORE PUSH1 0x4 ADD PUSH1 0x40 MLOAD DUP1 SWAP2 SUB SWAP1 REVERT JUMPDEST PUSH0 PUSH2 0x10AB DUP5 PUSH2 0x14B8 JUMP JUMPDEST SWAP1 POP DUP2 CALLVALUE GT ISZERO PUSH2 0x10EA JUMPI PUSH2 0x10E9 DUP3 CALLVALUE PUSH2 0x10C4 SWAP2 SWAP1 PUSH2 0x3092 JUMP JUMPDEST DUP6 PUSH20 0xFFFFFFFFFFFFFFFFFFFFFFFFFFFFFFFFFFFFFFFF AND PUSH2 0x1B6A SWAP1 SWAP2 SWAP1 PUSH4 0xFFFFFFFF AND JUMP JUMPDEST JUMPDEST DUP4 PUSH20 0xFFFFFFFFFFFFFFFFFFFFFFFFFFFFFFFFFFFFFFFF AND DUP2 PUSH32 0xB069A28FAB2F4A275FC364C15D220C5884271A144DB6D116D13DCB79C8181C6C PUSH1 0x40 MLOAD PUSH1 0x40 MLOAD DUP1 SWAP2 SUB SWAP1 LOG3 DUP1 SWAP3 POP POP POP SWAP2 SWAP1 POP JUMP JUMPDEST PUSH2 0x1140 PUSH2 0x1431 JUMP JUMPDEST PUSH0 SELFBALANCE SWAP1 POP PUSH2 0x116D DUP2 DUP4 PUSH20 0xFFFFFFFFFFFFFFFFFFFFFFFFFFFFFFFFFFFFFFFF AND PUSH2 0x1B6A SWAP1 SWAP2 SWAP1 PUSH4 0xFFFFFFFF AND JUMP JUMPDEST DUP2 PUSH20 0xFFFFFFFFFFFFFFFFFFFFFFFFFFFFFFFFFFFFFFFF AND PUSH32 0xB2559DAA129AD136AAC2133AC6A0C75920ABBEF7D6663A017A94E181B13786C3 DUP3 PUSH1 0x40 MLOAD PUSH2 0x11B3 SWAP2 SWAP1 PUSH2 0x2B3E JUMP JUMPDEST PUSH1 0x40 MLOAD DUP1 SWAP2 SUB SWAP1 LOG2 POP POP JUMP JUMPDEST PUSH2 0x11C7 PUSH2 0x1431 JUMP JUMPDEST PUSH0 PUSH20 0xFFFFFFFFFFFFFFFFFFFFFFFFFFFFFFFFFFFFFFFF AND DUP2 PUSH20 0xFFFFFFFFFFFFFFFFFFFFFFFFFFFFFFFFFFFFFFFF AND SUB PUSH2 0x1237 JUMPI PUSH0 PUSH1 0x40 MLOAD PUSH32 0x1E4FBDF700000000000000000000000000000000000000000000000000000000 DUP2 MSTORE PUSH1 0x4 ADD PUSH2 0x122E SWAP2 SWAP1 PUSH2 0x2A83 JUMP JUMPDEST PUSH1 0x40 MLOAD DUP1 SWAP2 SUB SWAP1 REVERT JUMPDEST PUSH2 0x1240 DUP2 PUSH2 0x1618 JUMP JUMPDEST POP JUMP JUMPDEST PUSH0 PUSH32 0x80AC58CD00000000000000000000000000000000000000000000000000000000 PUSH28 0xFFFFFFFFFFFFFFFFFFFFFFFFFFFFFFFFFFFFFFFFFFFFFFFFFFFFFFFF NOT AND DUP3 PUSH28 0xFFFFFFFFFFFFFFFFFFFFFFFFFFFFFFFFFFFFFFFFFFFFFFFFFFFFFFFF NOT AND EQ DUP1 PUSH2 0x130D JUMPI POP PUSH32 0x5B5E139F00000000000000000000000000000000000000000000000000000000 PUSH28 0xFFFFFFFFFFFFFFFFFFFFFFFFFFFFFFFFFFFFFFFFFFFFFFFFFFFFFFFF NOT AND DUP3 PUSH28 0xFFFFFFFFFFFFFFFFFFFFFFFFFFFFFFFFFFFFFFFFFFFFFFFFFFFFFFFF NOT AND EQ JUMPDEST DUP1 PUSH2 0x131D JUMPI POP PUSH2 0x131C DUP3 PUSH2 0x1BBA JUMP JUMPDEST JUMPDEST SWAP1 POP SWAP2 SWAP1 POP JUMP JUMPDEST PUSH0 PUSH32 0x80BB2B638CC20BC4D0A60D66940F3AB4A00C1D7B313497CA82FB0B4AB0079300 SWAP1 POP SWAP1 JUMP JUMPDEST PUSH0 DUP1 PUSH2 0x1356 DUP4 PUSH2 0x1C23 JUMP JUMPDEST SWAP1 POP PUSH0 PUSH20 0xFFFFFFFFFFFFFFFFFFFFFFFFFFFFFFFFFFFFFFFF AND DUP2 PUSH20 0xFFFFFFFFFFFFFFFFFFFFFFFFFFFFFFFFFFFFFFFF AND SUB PUSH2 0x13C8 JUMPI DUP3 PUSH1 0x40 MLOAD PUSH32 0x7E27328900000000000000000000000000000000000000000000000000000000 DUP2 MSTORE PUSH1 0x4 ADD PUSH2 0x13BF SWAP2 SWAP1 PUSH2 0x2B3E JUMP JUMPDEST PUSH1 0x40 MLOAD DUP1 SWAP2 SUB SWAP1 REVERT JUMPDEST DUP1 SWAP2 POP POP SWAP2 SWAP1 POP JUMP JUMPDEST PUSH0 DUP1 PUSH2 0x13DB PUSH2 0x1324 JUMP JUMPDEST SWAP1 POP DUP1 PUSH1 0x4 ADD PUSH0 DUP5 DUP2 MSTORE PUSH1 0x20 ADD SWAP1 DUP2 MSTORE PUSH1 0x20 ADD PUSH0 KECCAK256 PUSH0 SWAP1 SLOAD SWAP1 PUSH2 0x100 EXP SWAP1 DIV PUSH20 0xFFFFFFFFFFFFFFFFFFFFFFFFFFFFFFFFFFFFFFFF AND SWAP2 POP POP SWAP2 SWAP1 POP JUMP JUMPDEST PUSH0 CALLER SWAP1 POP SWAP1 JUMP JUMPDEST PUSH2 0x142C DUP4 DUP4 DUP4 PUSH1 0x1 PUSH2 0x1C6A JUMP JUMPDEST POP POP POP JUMP JUMPDEST PUSH2 0x1439 PUSH2 0x1418 JUMP JUMPDEST PUSH20 0xFFFFFFFFFFFFFFFFFFFFFFFFFFFFFFFFFFFFFFFF AND PUSH2 0x1457 PUSH2 0xE25 JUMP JUMPDEST PUSH20 0xFFFFFFFFFFFFFFFFFFFFFFFFFFFFFFFFFFFFFFFF AND EQ PUSH2 0x14B6 JUMPI PUSH2 0x147A PUSH2 0x1418 JUMP JUMPDEST PUSH1 0x40 MLOAD PUSH32 0x118CDAA700000000000000000000000000000000000000000000000000000000 DUP2 MSTORE PUSH1 0x4 ADD PUSH2 0x14AD SWAP2 SWAP1 PUSH2 0x2A83 JUMP JUMPDEST PUSH1 0x40 MLOAD DUP1 SWAP2 SUB SWAP1 REVERT JUMPDEST JUMP JUMPDEST PUSH0 DUP1 PUSH2 0x14C2 PUSH2 0x8BC JUMP JUMPDEST SWAP1 POP PUSH2 0x14CE DUP4 DUP3 PUSH2 0x1E37 JUMP JUMPDEST DUP1 SWAP2 POP POP SWAP2 SWAP1 POP JUMP JUMPDEST PUSH0 PUSH32 0x645E039705490088DAAD89BAE25049A34F4A9072D398537B1AB2425F24CBED00 SWAP1 POP SWAP1 JUMP JUMPDEST PUSH0 DUP1 PUSH2 0x150B DUP6 DUP6 DUP6 PUSH2 0x1E54 JUMP JUMPDEST SWAP1 POP PUSH0 PUSH20 0xFFFFFFFFFFFFFFFFFFFFFFFFFFFFFFFFFFFFFFFF AND DUP2 PUSH20 0xFFFFFFFFFFFFFFFFFFFFFFFFFFFFFFFFFFFFFFFF AND SUB PUSH2 0x154E JUMPI PUSH2 0x1549 DUP5 PUSH2 0x2071 JUMP JUMPDEST PUSH2 0x158D JUMP JUMPDEST DUP5 PUSH20 0xFFFFFFFFFFFFFFFFFFFFFFFFFFFFFFFFFFFFFFFF AND DUP2 PUSH20 0xFFFFFFFFFFFFFFFFFFFFFFFFFFFFFFFFFFFFFFFF AND EQ PUSH2 0x158C JUMPI PUSH2 0x158B DUP2 DUP6 PUSH2 0x20C7 JUMP JUMPDEST JUMPDEST JUMPDEST PUSH0 PUSH20 0xFFFFFFFFFFFFFFFFFFFFFFFFFFFFFFFFFFFFFFFF AND DUP6 PUSH20 0xFFFFFFFFFFFFFFFFFFFFFFFFFFFFFFFFFFFFFFFF AND SUB PUSH2 0x15CE JUMPI PUSH2 0x15C9 DUP5 PUSH2 0x2226 JUMP JUMPDEST PUSH2 0x160D JUMP JUMPDEST DUP5 PUSH20 0xFFFFFFFFFFFFFFFFFFFFFFFFFFFFFFFFFFFFFFFF AND DUP2 PUSH20 0xFFFFFFFFFFFFFFFFFFFFFFFFFFFFFFFFFFFFFFFF AND EQ PUSH2 0x160C JUMPI PUSH2 0x160B DUP6 DUP6 PUSH2 0x2300 JUMP JUMPDEST JUMPDEST JUMPDEST DUP1 SWAP2 POP POP SWAP4 SWAP3 POP POP POP JUMP JUMPDEST PUSH0 PUSH2 0x1621 PUSH2 0x173A JUMP JUMPDEST SWAP1 POP PUSH0 DUP2 PUSH0 ADD PUSH0 SWAP1 SLOAD SWAP1 PUSH2 0x100 EXP SWAP1 DIV PUSH20 0xFFFFFFFFFFFFFFFFFFFFFFFFFFFFFFFFFFFFFFFF AND SWAP1 POP DUP3 DUP3 PUSH0 ADD PUSH0 PUSH2 0x100 EXP DUP2 SLOAD DUP2 PUSH20 0xFFFFFFFFFFFFFFFFFFFFFFFFFFFFFFFFFFFFFFFF MUL NOT AND SWAP1 DUP4 PUSH20 0xFFFFFFFFFFFFFFFFFFFFFFFFFFFFFFFFFFFFFFFF AND MUL OR SWAP1 SSTORE POP DUP3 PUSH20 0xFFFFFFFFFFFFFFFFFFFFFFFFFFFFFFFFFFFFFFFF AND DUP2 PUSH20 0xFFFFFFFFFFFFFFFFFFFFFFFFFFFFFFFFFFFFFFFF AND PUSH32 0x8BE0079C531659141344CD1FD0A4F28419497F9722A3DAAFE3B4186F6B6457E0 PUSH1 0x40 MLOAD PUSH1 0x40 MLOAD DUP1 SWAP2 SUB SWAP1 LOG3 POP POP POP JUMP JUMPDEST PUSH0 PUSH32 0xF0C57E16840DF040F15088DC2F81FE391C3923BEC73E23A9662EFC9C229C6A00 SWAP1 POP SWAP1 JUMP JUMPDEST PUSH2 0x1718 PUSH2 0x2393 JUMP JUMPDEST PUSH2 0x1722 DUP3 DUP3 PUSH2 0x23D3 JUMP JUMPDEST POP POP JUMP JUMPDEST PUSH2 0x172E PUSH2 0x2393 JUMP JUMPDEST PUSH2 0x1737 DUP2 PUSH2 0x240E JUMP JUMPDEST POP JUMP JUMPDEST PUSH0 PUSH32 0x9016D09D72D40FDAE2FD8CEAC6B6234C7706214FD39C1CD1E609A0528C199300 SWAP1 POP SWAP1 JUMP JUMPDEST PUSH0 PUSH2 0x176A PUSH2 0x1324 JUMP JUMPDEST SWAP1 POP PUSH0 PUSH20 0xFFFFFFFFFFFFFFFFFFFFFFFFFFFFFFFFFFFFFFFF AND DUP4 PUSH20 0xFFFFFFFFFFFFFFFFFFFFFFFFFFFFFFFFFFFFFFFF AND SUB PUSH2 0x17DC JUMPI DUP3 PUSH1 0x40 MLOAD PUSH32 0x5B08BA1800000000000000000000000000000000000000000000000000000000 DUP2 MSTORE PUSH1 0x4 ADD PUSH2 0x17D3 SWAP2 SWAP1 PUSH2 0x2A83 JUMP JUMPDEST PUSH1 0x40 MLOAD DUP1 SWAP2 SUB SWAP1 REVERT JUMPDEST DUP2 DUP2 PUSH1 0x5 ADD PUSH0 DUP7 PUSH20 0xFFFFFFFFFFFFFFFFFFFFFFFFFFFFFFFFFFFFFFFF AND PUSH20 0xFFFFFFFFFFFFFFFFFFFFFFFFFFFFFFFFFFFFFFFF AND DUP2 MSTORE PUSH1 0x20 ADD SWAP1 DUP2 MSTORE PUSH1 0x20 ADD PUSH0 KECCAK256 PUSH0 DUP6 PUSH20 0xFFFFFFFFFFFFFFFFFFFFFFFFFFFFFFFFFFFFFFFF AND PUSH20 0xFFFFFFFFFFFFFFFFFFFFFFFFFFFFFFFFFFFFFFFF AND DUP2 MSTORE PUSH1 0x20 ADD SWAP1 DUP2 MSTORE PUSH1 0x20 ADD PUSH0 KECCAK256 PUSH0 PUSH2 0x100 EXP DUP2 SLOAD DUP2 PUSH1 0xFF MUL NOT AND SWAP1 DUP4 ISZERO ISZERO MUL OR SWAP1 SSTORE POP DUP3 PUSH20 0xFFFFFFFFFFFFFFFFFFFFFFFFFFFFFFFFFFFFFFFF AND DUP5 PUSH20 0xFFFFFFFFFFFFFFFFFFFFFFFFFFFFFFFFFFFFFFFF AND PUSH32 0x17307EAB39AB6107E8899845AD3D59BD9653F200F220920489CA2B5937696C31 DUP5 PUSH1 0x40 MLOAD PUSH2 0x18CA SWAP2 SWAP1 PUSH2 0x293D JUMP JUMPDEST PUSH1 0x40 MLOAD DUP1 SWAP2 SUB SWAP1 LOG3 POP POP POP POP JUMP JUMPDEST PUSH0 DUP4 PUSH20 0xFFFFFFFFFFFFFFFFFFFFFFFFFFFFFFFFFFFFFFFF AND EXTCODESIZE GT ISZERO PUSH2 0x1A84 JUMPI DUP3 PUSH20 0xFFFFFFFFFFFFFFFFFFFFFFFFFFFFFFFFFFFFFFFF AND PUSH4 0x150B7A02 PUSH2 0x191B PUSH2 0x1418 JUMP JUMPDEST DUP7 DUP6 DUP6 PUSH1 0x40 MLOAD DUP6 PUSH4 0xFFFFFFFF AND PUSH1 0xE0 SHL DUP2 MSTORE PUSH1 0x4 ADD PUSH2 0x193D SWAP5 SWAP4 SWAP3 SWAP2 SWAP1 PUSH2 0x3117 JUMP JUMPDEST PUSH1 0x20 PUSH1 0x40 MLOAD DUP1 DUP4 SUB DUP2 PUSH0 DUP8 GAS CALL SWAP3 POP POP POP DUP1 ISZERO PUSH2 0x1978 JUMPI POP PUSH1 0x40 MLOAD RETURNDATASIZE PUSH1 0x1F NOT PUSH1 0x1F DUP3 ADD AND DUP3 ADD DUP1 PUSH1 0x40 MSTORE POP DUP2 ADD SWAP1 PUSH2 0x1975 SWAP2 SWAP1 PUSH2 0x3175 JUMP JUMPDEST PUSH1 0x1 JUMPDEST PUSH2 0x19F9 JUMPI RETURNDATASIZE DUP1 PUSH0 DUP2 EQ PUSH2 0x19A6 JUMPI PUSH1 0x40 MLOAD SWAP2 POP PUSH1 0x1F NOT PUSH1 0x3F RETURNDATASIZE ADD AND DUP3 ADD PUSH1 0x40 MSTORE RETURNDATASIZE DUP3 MSTORE RETURNDATASIZE PUSH0 PUSH1 0x20 DUP5 ADD RETURNDATACOPY PUSH2 0x19AB JUMP JUMPDEST PUSH1 0x60 SWAP2 POP JUMPDEST POP PUSH0 DUP2 MLOAD SUB PUSH2 0x19F1 JUMPI DUP4 PUSH1 0x40 MLOAD PUSH32 0x64A0AE9200000000000000000000000000000000000000000000000000000000 DUP2 MSTORE PUSH1 0x4 ADD PUSH2 0x19E8 SWAP2 SWAP1 PUSH2 0x2A83 JUMP JUMPDEST PUSH1 0x40 MLOAD DUP1 SWAP2 SUB SWAP1 REVERT JUMPDEST DUP1 MLOAD DUP2 PUSH1 0x20 ADD REVERT JUMPDEST PUSH4 0x150B7A02 PUSH1 0xE0 SHL PUSH28 0xFFFFFFFFFFFFFFFFFFFFFFFFFFFFFFFFFFFFFFFFFFFFFFFFFFFFFFFF NOT AND DUP2 PUSH28 0xFFFFFFFFFFFFFFFFFFFFFFFFFFFFFFFFFFFFFFFFFFFFFFFFFFFFFFFF NOT AND EQ PUSH2 0x1A82 JUMPI DUP4 PUSH1 0x40 MLOAD PUSH32 0x64A0AE9200000000000000000000000000000000000000000000000000000000 DUP2 MSTORE PUSH1 0x4 ADD PUSH2 0x1A79 SWAP2 SWAP1 PUSH2 0x2A83 JUMP JUMPDEST PUSH1 0x40 MLOAD DUP1 SWAP2 SUB SWAP1 REVERT JUMPDEST POP JUMPDEST POP POP POP POP JUMP JUMPDEST PUSH1 0x60 PUSH1 0x40 MLOAD DUP1 PUSH1 0x20 ADD PUSH1 0x40 MSTORE DUP1 PUSH0 DUP2 MSTORE POP SWAP1 POP SWAP1 JUMP JUMPDEST PUSH1 0x60 PUSH0 PUSH1 0x1 PUSH2 0x1AAE DUP5 PUSH2 0x2492 JUMP JUMPDEST ADD SWAP1 POP PUSH0 DUP2 PUSH8 0xFFFFFFFFFFFFFFFF DUP2 GT ISZERO PUSH2 0x1ACC JUMPI PUSH2 0x1ACB PUSH2 0x2C17 JUMP JUMPDEST JUMPDEST PUSH1 0x40 MLOAD SWAP1 DUP1 DUP3 MSTORE DUP1 PUSH1 0x1F ADD PUSH1 0x1F NOT AND PUSH1 0x20 ADD DUP3 ADD PUSH1 0x40 MSTORE DUP1 ISZERO PUSH2 0x1AFE JUMPI DUP2 PUSH1 0x20 ADD PUSH1 0x1 DUP3 MUL DUP1 CALLDATASIZE DUP4 CALLDATACOPY DUP1 DUP3 ADD SWAP2 POP POP SWAP1 POP JUMPDEST POP SWAP1 POP PUSH0 DUP3 PUSH1 0x20 ADD DUP3 ADD SWAP1 POP JUMPDEST PUSH1 0x1 ISZERO PUSH2 0x1B5F JUMPI DUP1 DUP1 PUSH1 0x1 SWAP1 SUB SWAP2 POP POP PUSH32 0x3031323334353637383961626364656600000000000000000000000000000000 PUSH1 0xA DUP7 MOD BYTE DUP2 MSTORE8 PUSH1 0xA DUP6 DUP2 PUSH2 0x1B54 JUMPI PUSH2 0x1B53 PUSH2 0x31A0 JUMP JUMPDEST JUMPDEST DIV SWAP5 POP PUSH0 DUP6 SUB PUSH2 0x1B0B JUMPI JUMPDEST DUP2 SWAP4 POP POP POP POP SWAP2 SWAP1 POP JUMP JUMPDEST PUSH0 DUP1 PUSH0 DUP1 PUSH0 DUP6 DUP8 GAS CALL SWAP1 POP DUP1 PUSH2 0x1BB5 JUMPI PUSH1 0x40 MLOAD PUSH32 0x8C379A000000000000000000000000000000000000000000000000000000000 DUP2 MSTORE PUSH1 0x4 ADD PUSH2 0x1BAC SWAP1 PUSH2 0x3217 JUMP JUMPDEST PUSH1 0x40 MLOAD DUP1 SWAP2 SUB SWAP1 REVERT JUMPDEST POP POP POP JUMP JUMPDEST PUSH0 PUSH32 0x1FFC9A700000000000000000000000000000000000000000000000000000000 PUSH28 0xFFFFFFFFFFFFFFFFFFFFFFFFFFFFFFFFFFFFFFFFFFFFFFFFFFFFFFFF NOT AND DUP3 PUSH28 0xFFFFFFFFFFFFFFFFFFFFFFFFFFFFFFFFFFFFFFFFFFFFFFFFFFFFFFFF NOT AND EQ SWAP1 POP SWAP2 SWAP1 POP JUMP JUMPDEST PUSH0 DUP1 PUSH2 0x1C2D PUSH2 0x1324 JUMP JUMPDEST SWAP1 POP DUP1 PUSH1 0x2 ADD PUSH0 DUP5 DUP2 MSTORE PUSH1 0x20 ADD SWAP1 DUP2 MSTORE PUSH1 0x20 ADD PUSH0 KECCAK256 PUSH0 SWAP1 SLOAD SWAP1 PUSH2 0x100 EXP SWAP1 DIV PUSH20 0xFFFFFFFFFFFFFFFFFFFFFFFFFFFFFFFFFFFFFFFF AND SWAP2 POP POP SWAP2 SWAP1 POP JUMP JUMPDEST PUSH0 PUSH2 0x1C73 PUSH2 0x1324 JUMP JUMPDEST SWAP1 POP DUP2 DUP1 PUSH2 0x1CAD JUMPI POP PUSH0 PUSH20 0xFFFFFFFFFFFFFFFFFFFFFFFFFFFFFFFFFFFFFFFF AND DUP4 PUSH20 0xFFFFFFFFFFFFFFFFFFFFFFFFFFFFFFFFFFFFFFFF AND EQ ISZERO JUMPDEST ISZERO PUSH2 0x1DDF JUMPI PUSH0 PUSH2 0x1CBC DUP6 PUSH2 0x134B JUMP JUMPDEST SWAP1 POP PUSH0 PUSH20 0xFFFFFFFFFFFFFFFFFFFFFFFFFFFFFFFFFFFFFFFF AND DUP5 PUSH20 0xFFFFFFFFFFFFFFFFFFFFFFFFFFFFFFFFFFFFFFFF AND EQ ISZERO DUP1 ISZERO PUSH2 0x1D26 JUMPI POP DUP4 PUSH20 0xFFFFFFFFFFFFFFFFFFFFFFFFFFFFFFFFFFFFFFFF AND DUP2 PUSH20 0xFFFFFFFFFFFFFFFFFFFFFFFFFFFFFFFFFFFFFFFF AND EQ ISZERO JUMPDEST DUP1 ISZERO PUSH2 0x1D39 JUMPI POP PUSH2 0x1D37 DUP2 DUP6 PUSH2 0xF91 JUMP JUMPDEST ISZERO JUMPDEST ISZERO PUSH2 0x1D7B JUMPI DUP4 PUSH1 0x40 MLOAD PUSH32 0xA9FBF51F00000000000000000000000000000000000000000000000000000000 DUP2 MSTORE PUSH1 0x4 ADD PUSH2 0x1D72 SWAP2 SWAP1 PUSH2 0x2A83 JUMP JUMPDEST PUSH1 0x40 MLOAD DUP1 SWAP2 SUB SWAP1 REVERT JUMPDEST DUP3 ISZERO PUSH2 0x1DDD JUMPI DUP5 DUP7 PUSH20 0xFFFFFFFFFFFFFFFFFFFFFFFFFFFFFFFFFFFFFFFF AND DUP3 PUSH20 0xFFFFFFFFFFFFFFFFFFFFFFFFFFFFFFFFFFFFFFFF AND PUSH32 0x8C5BE1E5EBEC7D5BD14F71427D1E84F3DD0314C0F7B2291E5B200AC8C7C3B925 PUSH1 0x40 MLOAD PUSH1 0x40 MLOAD DUP1 SWAP2 SUB SWAP1 LOG4 JUMPDEST POP JUMPDEST DUP5 DUP2 PUSH1 0x4 ADD PUSH0 DUP7 DUP2 MSTORE PUSH1 0x20 ADD SWAP1 DUP2 MSTORE PUSH1 0x20 ADD PUSH0 KECCAK256 PUSH0 PUSH2 0x100 EXP DUP2 SLOAD DUP2 PUSH20 0xFFFFFFFFFFFFFFFFFFFFFFFFFFFFFFFFFFFFFFFF MUL NOT AND SWAP1 DUP4 PUSH20 0xFFFFFFFFFFFFFFFFFFFFFFFFFFFFFFFFFFFFFFFF AND MUL OR SWAP1 SSTORE POP POP POP POP POP POP JUMP JUMPDEST PUSH2 0x1E50 DUP3 DUP3 PUSH1 0x40 MLOAD DUP1 PUSH1 0x20 ADD PUSH1 0x40 MSTORE DUP1 PUSH0 DUP2 MSTORE POP PUSH2 0x25E3 JUMP JUMPDEST POP POP JUMP JUMPDEST PUSH0 DUP1 PUSH2 0x1E5E PUSH2 0x1324 JUMP JUMPDEST SWAP1 POP PUSH0 PUSH2 0x1E6A DUP6 PUSH2 0x1C23 JUMP JUMPDEST SWAP1 POP PUSH0 PUSH20 0xFFFFFFFFFFFFFFFFFFFFFFFFFFFFFFFFFFFFFFFF AND DUP5 PUSH20 0xFFFFFFFFFFFFFFFFFFFFFFFFFFFFFFFFFFFFFFFF AND EQ PUSH2 0x1EAB JUMPI PUSH2 0x1EAA DUP2 DUP6 DUP8 PUSH2 0x25FE JUMP JUMPDEST JUMPDEST PUSH0 PUSH20 0xFFFFFFFFFFFFFFFFFFFFFFFFFFFFFFFFFFFFFFFF AND DUP2 PUSH20 0xFFFFFFFFFFFFFFFFFFFFFFFFFFFFFFFFFFFFFFFF AND EQ PUSH2 0x1F38 JUMPI PUSH2 0x1EEA PUSH0 DUP7 PUSH0 DUP1 PUSH2 0x1C6A JUMP JUMPDEST PUSH1 0x1 DUP3 PUSH1 0x3 ADD PUSH0 DUP4 PUSH20 0xFFFFFFFFFFFFFFFFFFFFFFFFFFFFFFFFFFFFFFFF AND PUSH20 0xFFFFFFFFFFFFFFFFFFFFFFFFFFFFFFFFFFFFFFFF AND DUP2 MSTORE PUSH1 0x20 ADD SWAP1 DUP2 MSTORE PUSH1 0x20 ADD PUSH0 KECCAK256 PUSH0 DUP3 DUP3 SLOAD SUB SWAP3 POP POP DUP2 SWAP1 SSTORE POP JUMPDEST PUSH0 PUSH20 0xFFFFFFFFFFFFFFFFFFFFFFFFFFFFFFFFFFFFFFFF AND DUP7 PUSH20 0xFFFFFFFFFFFFFFFFFFFFFFFFFFFFFFFFFFFFFFFF AND EQ PUSH2 0x1FB9 JUMPI PUSH1 0x1 DUP3 PUSH1 0x3 ADD PUSH0 DUP9 PUSH20 0xFFFFFFFFFFFFFFFFFFFFFFFFFFFFFFFFFFFFFFFF AND PUSH20 0xFFFFFFFFFFFFFFFFFFFFFFFFFFFFFFFFFFFFFFFF AND DUP2 MSTORE PUSH1 0x20 ADD SWAP1 DUP2 MSTORE PUSH1 0x20 ADD PUSH0 KECCAK256 PUSH0 DUP3 DUP3 SLOAD ADD SWAP3 POP POP DUP2 SWAP1 SSTORE POP JUMPDEST DUP6 DUP3 PUSH1 0x2 ADD PUSH0 DUP8 DUP2 MSTORE PUSH1 0x20 ADD SWAP1 DUP2 MSTORE PUSH1 0x20 ADD PUSH0 KECCAK256 PUSH0 PUSH2 0x100 EXP DUP2 SLOAD DUP2 PUSH20 0xFFFFFFFFFFFFFFFFFFFFFFFFFFFFFFFFFFFFFFFF MUL NOT AND SWAP1 DUP4 PUSH20 0xFFFFFFFFFFFFFFFFFFFFFFFFFFFFFFFFFFFFFFFF AND MUL OR SWAP1 SSTORE POP DUP5 DUP7 PUSH20 0xFFFFFFFFFFFFFFFFFFFFFFFFFFFFFFFFFFFFFFFF AND DUP3 PUSH20 0xFFFFFFFFFFFFFFFFFFFFFFFFFFFFFFFFFFFFFFFF AND PUSH32 0xDDF252AD1BE2C89B69C2B068FC378DAA952BA7F163C4A11628F55A4DF523B3EF PUSH1 0x40 MLOAD PUSH1 0x40 MLOAD DUP1 SWAP2 SUB SWAP1 LOG4 DUP1 SWAP3 POP POP POP SWAP4 SWAP3 POP POP POP JUMP JUMPDEST PUSH0 PUSH2 0x207A PUSH2 0x14D7 JUMP JUMPDEST SWAP1 POP DUP1 PUSH1 0x2 ADD DUP1 SLOAD SWAP1 POP DUP2 PUSH1 0x3 ADD PUSH0 DUP5 DUP2 MSTORE PUSH1 0x20 ADD SWAP1 DUP2 MSTORE PUSH1 0x20 ADD PUSH0 KECCAK256 DUP2 SWAP1 SSTORE POP DUP1 PUSH1 0x2 ADD DUP3 SWAP1 DUP1 PUSH1 0x1 DUP2 SLOAD ADD DUP1 DUP3 SSTORE DUP1 SWAP2 POP POP PUSH1 0x1 SWAP1 SUB SWAP1 PUSH0 MSTORE PUSH1 0x20 PUSH0 KECCAK256 ADD PUSH0 SWAP1 SWAP2 SWAP1 SWAP2 SWAP1 SWAP2 POP SSTORE POP POP JUMP JUMPDEST PUSH0 PUSH2 0x20D0 PUSH2 0x14D7 JUMP JUMPDEST SWAP1 POP PUSH0 PUSH2 0x20DC DUP5 PUSH2 0xB51 JUMP JUMPDEST SWAP1 POP PUSH0 DUP3 PUSH1 0x1 ADD PUSH0 DUP6 DUP2 MSTORE PUSH1 0x20 ADD SWAP1 DUP2 MSTORE PUSH1 0x20 ADD PUSH0 KECCAK256 SLOAD SWAP1 POP DUP2 DUP2 EQ PUSH2 0x21B9 JUMPI PUSH0 DUP4 PUSH0 ADD PUSH0 DUP8 PUSH20 0xFFFFFFFFFFFFFFFFFFFFFFFFFFFFFFFFFFFFFFFF AND PUSH20 0xFFFFFFFFFFFFFFFFFFFFFFFFFFFFFFFFFFFFFFFF AND DUP2 MSTORE PUSH1 0x20 ADD SWAP1 DUP2 MSTORE PUSH1 0x20 ADD PUSH0 KECCAK256 PUSH0 DUP5 DUP2 MSTORE PUSH1 0x20 ADD SWAP1 DUP2 MSTORE PUSH1 0x20 ADD PUSH0 KECCAK256 SLOAD SWAP1 POP DUP1 DUP5 PUSH0 ADD PUSH0 DUP9 PUSH20 0xFFFFFFFFFFFFFFFFFFFFFFFFFFFFFFFFFFFFFFFF AND PUSH20 0xFFFFFFFFFFFFFFFFFFFFFFFFFFFFFFFFFFFFFFFF AND DUP2 MSTORE PUSH1 0x20 ADD SWAP1 DUP2 MSTORE PUSH1 0x20 ADD PUSH0 KECCAK256 PUSH0 DUP5 DUP2 MSTORE PUSH1 0x20 ADD SWAP1 DUP2 MSTORE PUSH1 0x20 ADD PUSH0 KECCAK256 DUP2 SWAP1 SSTORE POP DUP2 DUP5 PUSH1 0x1 ADD PUSH0 DUP4 DUP2 MSTORE PUSH1 0x20 ADD SWAP1 DUP2 MSTORE PUSH1 0x20 ADD PUSH0 KECCAK256 DUP2 SWAP1 SSTORE POP POP JUMPDEST DUP3 PUSH1 0x1 ADD PUSH0 DUP6 DUP2 MSTORE PUSH1 0x20 ADD SWAP1 DUP2 MSTORE PUSH1 0x20 ADD PUSH0 KECCAK256 PUSH0 SWAP1 SSTORE DUP3 PUSH0 ADD PUSH0 DUP7 PUSH20 0xFFFFFFFFFFFFFFFFFFFFFFFFFFFFFFFFFFFFFFFF AND PUSH20 0xFFFFFFFFFFFFFFFFFFFFFFFFFFFFFFFFFFFFFFFF AND DUP2 MSTORE PUSH1 0x20 ADD SWAP1 DUP2 MSTORE PUSH1 0x20 ADD PUSH0 KECCAK256 PUSH0 DUP4 DUP2 MSTORE PUSH1 0x20 ADD SWAP1 DUP2 MSTORE PUSH1 0x20 ADD PUSH0 KECCAK256 PUSH0 SWAP1 SSTORE POP POP POP POP POP JUMP JUMPDEST PUSH0 PUSH2 0x222F PUSH2 0x14D7 JUMP JUMPDEST SWAP1 POP PUSH0 PUSH1 0x1 DUP3 PUSH1 0x2 ADD DUP1 SLOAD SWAP1 POP PUSH2 0x2246 SWAP2 SWAP1 PUSH2 0x3092 JUMP JUMPDEST SWAP1 POP PUSH0 DUP3 PUSH1 0x3 ADD PUSH0 DUP6 DUP2 MSTORE PUSH1 0x20 ADD SWAP1 DUP2 MSTORE PUSH1 0x20 ADD PUSH0 KECCAK256 SLOAD SWAP1 POP PUSH0 DUP4 PUSH1 0x2 ADD DUP4 DUP2 SLOAD DUP2 LT PUSH2 0x2276 JUMPI PUSH2 0x2275 PUSH2 0x2F26 JUMP JUMPDEST JUMPDEST SWAP1 PUSH0 MSTORE PUSH1 0x20 PUSH0 KECCAK256 ADD SLOAD SWAP1 POP DUP1 DUP5 PUSH1 0x2 ADD DUP4 DUP2 SLOAD DUP2 LT PUSH2 0x2298 JUMPI PUSH2 0x2297 PUSH2 0x2F26 JUMP JUMPDEST JUMPDEST SWAP1 PUSH0 MSTORE PUSH1 0x20 PUSH0 KECCAK256 ADD DUP2 SWAP1 SSTORE POP DUP2 DUP5 PUSH1 0x3 ADD PUSH0 DUP4 DUP2 MSTORE PUSH1 0x20 ADD SWAP1 DUP2 MSTORE PUSH1 0x20 ADD PUSH0 KECCAK256 DUP2 SWAP1 SSTORE POP DUP4 PUSH1 0x3 ADD PUSH0 DUP7 DUP2 MSTORE PUSH1 0x20 ADD SWAP1 DUP2 MSTORE PUSH1 0x20 ADD PUSH0 KECCAK256 PUSH0 SWAP1 SSTORE DUP4 PUSH1 0x2 ADD DUP1 SLOAD DUP1 PUSH2 0x22E6 JUMPI PUSH2 0x22E5 PUSH2 0x3235 JUMP JUMPDEST JUMPDEST PUSH1 0x1 SWAP1 SUB DUP2 DUP2 SWAP1 PUSH0 MSTORE PUSH1 0x20 PUSH0 KECCAK256 ADD PUSH0 SWAP1 SSTORE SWAP1 SSTORE POP POP POP POP POP JUMP JUMPDEST PUSH0 PUSH2 0x2309 PUSH2 0x14D7 JUMP JUMPDEST SWAP1 POP PUSH0 PUSH1 0x1 PUSH2 0x2317 DUP6 PUSH2 0xB51 JUMP JUMPDEST PUSH2 0x2321 SWAP2 SWAP1 PUSH2 0x3092 JUMP JUMPDEST SWAP1 POP DUP3 DUP3 PUSH0 ADD PUSH0 DUP7 PUSH20 0xFFFFFFFFFFFFFFFFFFFFFFFFFFFFFFFFFFFFFFFF AND PUSH20 0xFFFFFFFFFFFFFFFFFFFFFFFFFFFFFFFFFFFFFFFF AND DUP2 MSTORE PUSH1 0x20 ADD SWAP1 DUP2 MSTORE PUSH1 0x20 ADD PUSH0 KECCAK256 PUSH0 DUP4 DUP2 MSTORE PUSH1 0x20 ADD SWAP1 DUP2 MSTORE PUSH1 0x20 ADD PUSH0 KECCAK256 DUP2 SWAP1 SSTORE POP DUP1 DUP3 PUSH1 0x1 ADD PUSH0 DUP6 DUP2 MSTORE PUSH1 0x20 ADD SWAP1 DUP2 MSTORE PUSH1 0x20 ADD PUSH0 KECCAK256 DUP2 SWAP1 SSTORE POP POP POP POP POP JUMP JUMPDEST PUSH2 0x239B PUSH2 0x26C1 JUMP JUMPDEST PUSH2 0x23D1 JUMPI PUSH1 0x40 MLOAD PUSH32 0xD7E6BCF800000000000000000000000000000000000000000000000000000000 DUP2 MSTORE PUSH1 0x4 ADD PUSH1 0x40 MLOAD DUP1 SWAP2 SUB SWAP1 REVERT JUMPDEST JUMP JUMPDEST PUSH2 0x23DB PUSH2 0x2393 JUMP JUMPDEST PUSH0 PUSH2 0x23E4 PUSH2 0x1324 JUMP JUMPDEST SWAP1 POP DUP3 DUP2 PUSH0 ADD SWAP1 DUP2 PUSH2 0x23F6 SWAP2 SWAP1 PUSH2 0x33F6 JUMP JUMPDEST POP DUP2 DUP2 PUSH1 0x1 ADD SWAP1 DUP2 PUSH2 0x2408 SWAP2 SWAP1 PUSH2 0x33F6 JUMP JUMPDEST POP POP POP POP JUMP JUMPDEST PUSH2 0x2416 PUSH2 0x2393 JUMP JUMPDEST PUSH0 PUSH20 0xFFFFFFFFFFFFFFFFFFFFFFFFFFFFFFFFFFFFFFFF AND DUP2 PUSH20 0xFFFFFFFFFFFFFFFFFFFFFFFFFFFFFFFFFFFFFFFF AND SUB PUSH2 0x2486 JUMPI PUSH0 PUSH1 0x40 MLOAD PUSH32 0x1E4FBDF700000000000000000000000000000000000000000000000000000000 DUP2 MSTORE PUSH1 0x4 ADD PUSH2 0x247D SWAP2 SWAP1 PUSH2 0x2A83 JUMP JUMPDEST PUSH1 0x40 MLOAD DUP1 SWAP2 SUB SWAP1 REVERT JUMPDEST PUSH2 0x248F DUP2 PUSH2 0x1618 JUMP JUMPDEST POP JUMP JUMPDEST PUSH0 DUP1 PUSH0 SWAP1 POP PUSH27 0x184F03E93FF9F4DAA797ED6E38ED64BF6A1F010000000000000000 DUP4 LT PUSH2 0x24EE JUMPI PUSH27 0x184F03E93FF9F4DAA797ED6E38ED64BF6A1F010000000000000000 DUP4 DUP2 PUSH2 0x24E4 JUMPI PUSH2 0x24E3 PUSH2 0x31A0 JUMP JUMPDEST JUMPDEST DIV SWAP3 POP PUSH1 0x40 DUP2 ADD SWAP1 POP JUMPDEST PUSH14 0x4EE2D6D415B85ACEF8100000000 DUP4 LT PUSH2 0x252B JUMPI PUSH14 0x4EE2D6D415B85ACEF8100000000 DUP4 DUP2 PUSH2 0x2521 JUMPI PUSH2 0x2520 PUSH2 0x31A0 JUMP JUMPDEST JUMPDEST DIV SWAP3 POP PUSH1 0x20 DUP2 ADD SWAP1 POP JUMPDEST PUSH7 0x2386F26FC10000 DUP4 LT PUSH2 0x255A JUMPI PUSH7 0x2386F26FC10000 DUP4 DUP2 PUSH2 0x2550 JUMPI PUSH2 0x254F PUSH2 0x31A0 JUMP JUMPDEST JUMPDEST DIV SWAP3 POP PUSH1 0x10 DUP2 ADD SWAP1 POP JUMPDEST PUSH4 0x5F5E100 DUP4 LT PUSH2 0x2583 JUMPI PUSH4 0x5F5E100 DUP4 DUP2 PUSH2 0x2579 JUMPI PUSH2 0x2578 PUSH2 0x31A0 JUMP JUMPDEST JUMPDEST DIV SWAP3 POP PUSH1 0x8 DUP2 ADD SWAP1 POP JUMPDEST PUSH2 0x2710 DUP4 LT PUSH2 0x25A8 JUMPI PUSH2 0x2710 DUP4 DUP2 PUSH2 0x259E JUMPI PUSH2 0x259D PUSH2 0x31A0 JUMP JUMPDEST JUMPDEST DIV SWAP3 POP PUSH1 0x4 DUP2 ADD SWAP1 POP JUMPDEST PUSH1 0x64 DUP4 LT PUSH2 0x25CB JUMPI PUSH1 0x64 DUP4 DUP2 PUSH2 0x25C1 JUMPI PUSH2 0x25C0 PUSH2 0x31A0 JUMP JUMPDEST JUMPDEST DIV SWAP3 POP PUSH1 0x2 DUP2 ADD SWAP1 POP JUMPDEST PUSH1 0xA DUP4 LT PUSH2 0x25DA JUMPI PUSH1 0x1 DUP2 ADD SWAP1 POP JUMPDEST DUP1 SWAP2 POP POP SWAP2 SWAP1 POP JUMP JUMPDEST PUSH2 0x25ED DUP4 DUP4 PUSH2 0x26DF JUMP JUMPDEST PUSH2 0x25F9 PUSH0 DUP5 DUP5 DUP5 PUSH2 0x18D8 JUMP JUMPDEST POP POP POP JUMP JUMPDEST PUSH2 0x2609 DUP4 DUP4 DUP4 PUSH2 0x27D2 JUMP JUMPDEST PUSH2 0x26BC JUMPI PUSH0 PUSH20 0xFFFFFFFFFFFFFFFFFFFFFFFFFFFFFFFFFFFFFFFF AND DUP4 PUSH20 0xFFFFFFFFFFFFFFFFFFFFFFFFFFFFFFFFFFFFFFFF AND SUB PUSH2 0x267D JUMPI DUP1 PUSH1 0x40 MLOAD PUSH32 0x7E27328900000000000000000000000000000000000000000000000000000000 DUP2 MSTORE PUSH1 0x4 ADD PUSH2 0x2674 SWAP2 SWAP1 PUSH2 0x2B3E JUMP JUMPDEST PUSH1 0x40 MLOAD DUP1 SWAP2 SUB SWAP1 REVERT JUMPDEST DUP2 DUP2 PUSH1 0x40 MLOAD PUSH32 0x177E802F00000000000000000000000000000000000000000000000000000000 DUP2 MSTORE PUSH1 0x4 ADD PUSH2 0x26B3 SWAP3 SWAP2 SWAP1 PUSH2 0x2EFF JUMP JUMPDEST PUSH1 0x40 MLOAD DUP1 SWAP2 SUB SWAP1 REVERT JUMPDEST POP POP POP JUMP JUMPDEST PUSH0 PUSH2 0x26CA PUSH2 0x16E9 JUMP JUMPDEST PUSH0 ADD PUSH1 0x8 SWAP1 SLOAD SWAP1 PUSH2 0x100 EXP SWAP1 DIV PUSH1 0xFF AND SWAP1 POP SWAP1 JUMP JUMPDEST PUSH0 PUSH20 0xFFFFFFFFFFFFFFFFFFFFFFFFFFFFFFFFFFFFFFFF AND DUP3 PUSH20 0xFFFFFFFFFFFFFFFFFFFFFFFFFFFFFFFFFFFFFFFF AND SUB PUSH2 0x274F JUMPI PUSH0 PUSH1 0x40 MLOAD PUSH32 0x64A0AE9200000000000000000000000000000000000000000000000000000000 DUP2 MSTORE PUSH1 0x4 ADD PUSH2 0x2746 SWAP2 SWAP1 PUSH2 0x2A83 JUMP JUMPDEST PUSH1 0x40 MLOAD DUP1 SWAP2 SUB SWAP1 REVERT JUMPDEST PUSH0 PUSH2 0x275B DUP4 DUP4 PUSH0 PUSH2 0x14FE JUMP JUMPDEST SWAP1 POP PUSH0 PUSH20 0xFFFFFFFFFFFFFFFFFFFFFFFFFFFFFFFFFFFFFFFF AND DUP2 PUSH20 0xFFFFFFFFFFFFFFFFFFFFFFFFFFFFFFFFFFFFFFFF AND EQ PUSH2 0x27CD JUMPI PUSH0 PUSH1 0x40 MLOAD PUSH32 0x73C6AC6E00000000000000000000000000000000000000000000000000000000 DUP2 MSTORE PUSH1 0x4 ADD PUSH2 0x27C4 SWAP2 SWAP1 PUSH2 0x2A83 JUMP JUMPDEST PUSH1 0x40 MLOAD DUP1 SWAP2 SUB SWAP1 REVERT JUMPDEST POP POP POP JUMP JUMPDEST PUSH0 DUP1 PUSH20 0xFFFFFFFFFFFFFFFFFFFFFFFFFFFFFFFFFFFFFFFF AND DUP4 PUSH20 0xFFFFFFFFFFFFFFFFFFFFFFFFFFFFFFFFFFFFFFFF AND EQ ISZERO DUP1 ISZERO PUSH2 0x2889 JUMPI POP DUP3 PUSH20 0xFFFFFFFFFFFFFFFFFFFFFFFFFFFFFFFFFFFFFFFF AND DUP5 PUSH20 0xFFFFFFFFFFFFFFFFFFFFFFFFFFFFFFFFFFFFFFFF AND EQ DUP1 PUSH2 0x284A JUMPI POP PUSH2 0x2849 DUP5 DUP5 PUSH2 0xF91 JUMP JUMPDEST JUMPDEST DUP1 PUSH2 0x2888 JUMPI POP DUP3 PUSH20 0xFFFFFFFFFFFFFFFFFFFFFFFFFFFFFFFFFFFFFFFF AND PUSH2 0x2870 DUP4 PUSH2 0x13D1 JUMP JUMPDEST PUSH20 0xFFFFFFFFFFFFFFFFFFFFFFFFFFFFFFFFFFFFFFFF AND EQ JUMPDEST JUMPDEST SWAP1 POP SWAP4 SWAP3 POP POP POP JUMP JUMPDEST PUSH0 PUSH1 0x40 MLOAD SWAP1 POP SWAP1 JUMP JUMPDEST PUSH0 DUP1 REVERT JUMPDEST PUSH0 DUP1 REVERT JUMPDEST PUSH0 PUSH32 0xFFFFFFFF00000000000000000000000000000000000000000000000000000000 DUP3 AND SWAP1 POP SWAP2 SWAP1 POP JUMP JUMPDEST PUSH2 0x28D7 DUP2 PUSH2 0x28A3 JUMP JUMPDEST DUP2 EQ PUSH2 0x28E1 JUMPI PUSH0 DUP1 REVERT JUMPDEST POP JUMP JUMPDEST PUSH0 DUP2 CALLDATALOAD SWAP1 POP PUSH2 0x28F2 DUP2 PUSH2 0x28CE JUMP JUMPDEST SWAP3 SWAP2 POP POP JUMP JUMPDEST PUSH0 PUSH1 0x20 DUP3 DUP5 SUB SLT ISZERO PUSH2 0x290D JUMPI PUSH2 0x290C PUSH2 0x289B JUMP JUMPDEST JUMPDEST PUSH0 PUSH2 0x291A DUP5 DUP3 DUP6 ADD PUSH2 0x28E4 JUMP JUMPDEST SWAP2 POP POP SWAP3 SWAP2 POP POP JUMP JUMPDEST PUSH0 DUP2 ISZERO ISZERO SWAP1 POP SWAP2 SWAP1 POP JUMP JUMPDEST PUSH2 0x2937 DUP2 PUSH2 0x2923 JUMP JUMPDEST DUP3 MSTORE POP POP JUMP JUMPDEST PUSH0 PUSH1 0x20 DUP3 ADD SWAP1 POP PUSH2 0x2950 PUSH0 DUP4 ADD DUP5 PUSH2 0x292E JUMP JUMPDEST SWAP3 SWAP2 POP POP JUMP JUMPDEST PUSH0 DUP2 MLOAD SWAP1 POP SWAP2 SWAP1 POP JUMP JUMPDEST PUSH0 DUP3 DUP3 MSTORE PUSH1 0x20 DUP3 ADD SWAP1 POP SWAP3 SWAP2 POP POP JUMP JUMPDEST DUP3 DUP2 DUP4 MCOPY PUSH0 DUP4 DUP4 ADD MSTORE POP POP POP JUMP JUMPDEST PUSH0 PUSH1 0x1F NOT PUSH1 0x1F DUP4 ADD AND SWAP1 POP SWAP2 SWAP1 POP JUMP JUMPDEST PUSH0 PUSH2 0x2998 DUP3 PUSH2 0x2956 JUMP JUMPDEST PUSH2 0x29A2 DUP2 DUP6 PUSH2 0x2960 JUMP JUMPDEST SWAP4 POP PUSH2 0x29B2 DUP2 DUP6 PUSH1 0x20 DUP7 ADD PUSH2 0x2970 JUMP JUMPDEST PUSH2 0x29BB DUP2 PUSH2 0x297E JUMP JUMPDEST DUP5 ADD SWAP2 POP POP SWAP3 SWAP2 POP POP JUMP JUMPDEST PUSH0 PUSH1 0x20 DUP3 ADD SWAP1 POP DUP2 DUP2 SUB PUSH0 DUP4 ADD MSTORE PUSH2 0x29DE DUP2 DUP5 PUSH2 0x298E JUMP JUMPDEST SWAP1 POP SWAP3 SWAP2 POP POP JUMP JUMPDEST PUSH0 DUP2 SWAP1 POP SWAP2 SWAP1 POP JUMP JUMPDEST PUSH2 0x29F8 DUP2 PUSH2 0x29E6 JUMP JUMPDEST DUP2 EQ PUSH2 0x2A02 JUMPI PUSH0 DUP1 REVERT JUMPDEST POP JUMP JUMPDEST PUSH0 DUP2 CALLDATALOAD SWAP1 POP PUSH2 0x2A13 DUP2 PUSH2 0x29EF JUMP JUMPDEST SWAP3 SWAP2 POP POP JUMP JUMPDEST PUSH0 PUSH1 0x20 DUP3 DUP5 SUB SLT ISZERO PUSH2 0x2A2E JUMPI PUSH2 0x2A2D PUSH2 0x289B JUMP JUMPDEST JUMPDEST PUSH0 PUSH2 0x2A3B DUP5 DUP3 DUP6 ADD PUSH2 0x2A05 JUMP JUMPDEST SWAP2 POP POP SWAP3 SWAP2 POP POP JUMP JUMPDEST PUSH0 PUSH20 0xFFFFFFFFFFFFFFFFFFFFFFFFFFFFFFFFFFFFFFFF DUP3 AND SWAP1 POP SWAP2 SWAP1 POP JUMP JUMPDEST PUSH0 PUSH2 0x2A6D DUP3 PUSH2 0x2A44 JUMP JUMPDEST SWAP1 POP SWAP2 SWAP1 POP JUMP JUMPDEST PUSH2 0x2A7D DUP2 PUSH2 0x2A63 JUMP JUMPDEST DUP3 MSTORE POP POP JUMP JUMPDEST PUSH0 PUSH1 0x20 DUP3 ADD SWAP1 POP PUSH2 0x2A96 PUSH0 DUP4 ADD DUP5 PUSH2 0x2A74 JUMP JUMPDEST SWAP3 SWAP2 POP POP JUMP JUMPDEST PUSH2 0x2AA5 DUP2 PUSH2 0x2A63 JUMP JUMPDEST DUP2 EQ PUSH2 0x2AAF JUMPI PUSH0 DUP1 REVERT JUMPDEST POP JUMP JUMPDEST PUSH0 DUP2 CALLDATALOAD SWAP1 POP PUSH2 0x2AC0 DUP2 PUSH2 0x2A9C JUMP JUMPDEST SWAP3 SWAP2 POP POP JUMP JUMPDEST PUSH0 DUP1 PUSH1 0x40 DUP4 DUP6 SUB SLT ISZERO PUSH2 0x2ADC JUMPI PUSH2 0x2ADB PUSH2 0x289B JUMP JUMPDEST JUMPDEST PUSH0 PUSH2 0x2AE9 DUP6 DUP3 DUP7 ADD PUSH2 0x2AB2 JUMP JUMPDEST SWAP3 POP POP PUSH1 0x20 PUSH2 0x2AFA DUP6 DUP3 DUP7 ADD PUSH2 0x2A05 JUMP JUMPDEST SWAP2 POP POP SWAP3 POP SWAP3 SWAP1 POP JUMP JUMPDEST PUSH0 PUSH1 0x20 DUP3 DUP5 SUB SLT ISZERO PUSH2 0x2B19 JUMPI PUSH2 0x2B18 PUSH2 0x289B JUMP JUMPDEST JUMPDEST PUSH0 PUSH2 0x2B26 DUP5 DUP3 DUP6 ADD PUSH2 0x2AB2 JUMP JUMPDEST SWAP2 POP POP SWAP3 SWAP2 POP POP JUMP JUMPDEST PUSH2 0x2B38 DUP2 PUSH2 0x29E6 JUMP JUMPDEST DUP3 MSTORE POP POP JUMP JUMPDEST PUSH0 PUSH1 0x20 DUP3 ADD SWAP1 POP PUSH2 0x2B51 PUSH0 DUP4 ADD DUP5 PUSH2 0x2B2F JUMP JUMPDEST SWAP3 SWAP2 POP POP JUMP JUMPDEST PUSH0 DUP1 PUSH0 PUSH1 0x60 DUP5 DUP7 SUB SLT ISZERO PUSH2 0x2B6E JUMPI PUSH2 0x2B6D PUSH2 0x289B JUMP JUMPDEST JUMPDEST PUSH0 PUSH2 0x2B7B DUP7 DUP3 DUP8 ADD PUSH2 0x2AB2 JUMP JUMPDEST SWAP4 POP POP PUSH1 0x20 PUSH2 0x2B8C DUP7 DUP3 DUP8 ADD PUSH2 0x2AB2 JUMP JUMPDEST SWAP3 POP POP PUSH1 0x40 PUSH2 0x2B9D DUP7 DUP3 DUP8 ADD PUSH2 0x2A05 JUMP JUMPDEST SWAP2 POP POP SWAP3 POP SWAP3 POP SWAP3 JUMP JUMPDEST PUSH2 0x2BB0 DUP2 PUSH2 0x2923 JUMP JUMPDEST DUP2 EQ PUSH2 0x2BBA JUMPI PUSH0 DUP1 REVERT JUMPDEST POP JUMP JUMPDEST PUSH0 DUP2 CALLDATALOAD SWAP1 POP PUSH2 0x2BCB DUP2 PUSH2 0x2BA7 JUMP JUMPDEST SWAP3 SWAP2 POP POP JUMP JUMPDEST PUSH0 DUP1 PUSH1 0x40 DUP4 DUP6 SUB SLT ISZERO PUSH2 0x2BE7 JUMPI PUSH2 0x2BE6 PUSH2 0x289B JUMP JUMPDEST JUMPDEST PUSH0 PUSH2 0x2BF4 DUP6 DUP3 DUP7 ADD PUSH2 0x2AB2 JUMP JUMPDEST SWAP3 POP POP PUSH1 0x20 PUSH2 0x2C05 DUP6 DUP3 DUP7 ADD PUSH2 0x2BBD JUMP JUMPDEST SWAP2 POP POP SWAP3 POP SWAP3 SWAP1 POP JUMP JUMPDEST PUSH0 DUP1 REVERT JUMPDEST PUSH0 DUP1 REVERT JUMPDEST PUSH32 0x4E487B7100000000000000000000000000000000000000000000000000000000 PUSH0 MSTORE PUSH1 0x41 PUSH1 0x4 MSTORE PUSH1 0x24 PUSH0 REVERT JUMPDEST PUSH2 0x2C4D DUP3 PUSH2 0x297E JUMP JUMPDEST DUP2 ADD DUP2 DUP2 LT PUSH8 0xFFFFFFFFFFFFFFFF DUP3 GT OR ISZERO PUSH2 0x2C6C JUMPI PUSH2 0x2C6B PUSH2 0x2C17 JUMP JUMPDEST JUMPDEST DUP1 PUSH1 0x40 MSTORE POP POP POP JUMP JUMPDEST PUSH0 PUSH2 0x2C7E PUSH2 0x2892 JUMP JUMPDEST SWAP1 POP PUSH2 0x2C8A DUP3 DUP3 PUSH2 0x2C44 JUMP JUMPDEST SWAP2 SWAP1 POP JUMP JUMPDEST PUSH0 PUSH8 0xFFFFFFFFFFFFFFFF DUP3 GT ISZERO PUSH2 0x2CA9 JUMPI PUSH2 0x2CA8 PUSH2 0x2C17 JUMP JUMPDEST JUMPDEST PUSH2 0x2CB2 DUP3 PUSH2 0x297E JUMP JUMPDEST SWAP1 POP PUSH1 0x20 DUP2 ADD SWAP1 POP SWAP2 SWAP1 POP JUMP JUMPDEST DUP3 DUP2 DUP4 CALLDATACOPY PUSH0 DUP4 DUP4 ADD MSTORE POP POP POP JUMP JUMPDEST PUSH0 PUSH2 0x2CDF PUSH2 0x2CDA DUP5 PUSH2 0x2C8F JUMP JUMPDEST PUSH2 0x2C75 JUMP JUMPDEST SWAP1 POP DUP3 DUP2 MSTORE PUSH1 0x20 DUP2 ADD DUP5 DUP5 DUP5 ADD GT ISZERO PUSH2 0x2CFB JUMPI PUSH2 0x2CFA PUSH2 0x2C13 JUMP JUMPDEST JUMPDEST PUSH2 0x2D06 DUP5 DUP3 DUP6 PUSH2 0x2CBF JUMP JUMPDEST POP SWAP4 SWAP3 POP POP POP JUMP JUMPDEST PUSH0 DUP3 PUSH1 0x1F DUP4 ADD SLT PUSH2 0x2D22 JUMPI PUSH2 0x2D21 PUSH2 0x2C0F JUMP JUMPDEST JUMPDEST DUP2 CALLDATALOAD PUSH2 0x2D32 DUP5 DUP3 PUSH1 0x20 DUP7 ADD PUSH2 0x2CCD JUMP JUMPDEST SWAP2 POP POP SWAP3 SWAP2 POP POP JUMP JUMPDEST PUSH0 DUP1 PUSH0 DUP1 PUSH1 0x80 DUP6 DUP8 SUB SLT ISZERO PUSH2 0x2D53 JUMPI PUSH2 0x2D52 PUSH2 0x289B JUMP JUMPDEST JUMPDEST PUSH0 PUSH2 0x2D60 DUP8 DUP3 DUP9 ADD PUSH2 0x2AB2 JUMP JUMPDEST SWAP5 POP POP PUSH1 0x20 PUSH2 0x2D71 DUP8 DUP3 DUP9 ADD PUSH2 0x2AB2 JUMP JUMPDEST SWAP4 POP POP PUSH1 0x40 PUSH2 0x2D82 DUP8 DUP3 DUP9 ADD PUSH2 0x2A05 JUMP JUMPDEST SWAP3 POP POP PUSH1 0x60 DUP6 ADD CALLDATALOAD PUSH8 0xFFFFFFFFFFFFFFFF DUP2 GT ISZERO PUSH2 0x2DA3 JUMPI PUSH2 0x2DA2 PUSH2 0x289F JUMP JUMPDEST JUMPDEST PUSH2 0x2DAF DUP8 DUP3 DUP9 ADD PUSH2 0x2D0E JUMP JUMPDEST SWAP2 POP POP SWAP3 SWAP6 SWAP2 SWAP5 POP SWAP3 POP JUMP JUMPDEST PUSH0 DUP1 PUSH1 0x40 DUP4 DUP6 SUB SLT ISZERO PUSH2 0x2DD1 JUMPI PUSH2 0x2DD0 PUSH2 0x289B JUMP JUMPDEST JUMPDEST PUSH0 PUSH2 0x2DDE DUP6 DUP3 DUP7 ADD PUSH2 0x2AB2 JUMP JUMPDEST SWAP3 POP POP PUSH1 0x20 PUSH2 0x2DEF DUP6 DUP3 DUP7 ADD PUSH2 0x2AB2 JUMP JUMPDEST SWAP2 POP POP SWAP3 POP SWAP3 SWAP1 POP JUMP JUMPDEST PUSH32 0x4E487B7100000000000000000000000000000000000000000000000000000000 PUSH0 MSTORE PUSH1 0x22 PUSH1 0x4 MSTORE PUSH1 0x24 PUSH0 REVERT JUMPDEST PUSH0 PUSH1 0x2 DUP3 DIV SWAP1 POP PUSH1 0x1 DUP3 AND DUP1 PUSH2 0x2E3D JUMPI PUSH1 0x7F DUP3 AND SWAP2 POP JUMPDEST PUSH1 0x20 DUP3 LT DUP2 SUB PUSH2 0x2E50 JUMPI PUSH2 0x2E4F PUSH2 0x2DF9 JUMP JUMPDEST JUMPDEST POP SWAP2 SWAP1 POP JUMP JUMPDEST PUSH32 0x4E487B7100000000000000000000000000000000000000000000000000000000 PUSH0 MSTORE PUSH1 0x11 PUSH1 0x4 MSTORE PUSH1 0x24 PUSH0 REVERT JUMPDEST PUSH0 PUSH2 0x2E8D DUP3 PUSH2 0x29E6 JUMP JUMPDEST SWAP2 POP PUSH32 0xFFFFFFFFFFFFFFFFFFFFFFFFFFFFFFFFFFFFFFFFFFFFFFFFFFFFFFFFFFFFFFFF DUP3 SUB PUSH2 0x2EBF JUMPI PUSH2 0x2EBE PUSH2 0x2E56 JUMP JUMPDEST JUMPDEST PUSH1 0x1 DUP3 ADD SWAP1 POP SWAP2 SWAP1 POP JUMP JUMPDEST PUSH0 PUSH1 0x60 DUP3 ADD SWAP1 POP PUSH2 0x2EDD PUSH0 DUP4 ADD DUP7 PUSH2 0x2A74 JUMP JUMPDEST PUSH2 0x2EEA PUSH1 0x20 DUP4 ADD DUP6 PUSH2 0x2B2F JUMP JUMPDEST PUSH2 0x2EF7 PUSH1 0x40 DUP4 ADD DUP5 PUSH2 0x2A74 JUMP JUMPDEST SWAP5 SWAP4 POP POP POP POP JUMP JUMPDEST PUSH0 PUSH1 0x40 DUP3 ADD SWAP1 POP PUSH2 0x2F12 PUSH0 DUP4 ADD DUP6 PUSH2 0x2A74 JUMP JUMPDEST PUSH2 0x2F1F PUSH1 0x20 DUP4 ADD DUP5 PUSH2 0x2B2F JUMP JUMPDEST SWAP4 SWAP3 POP POP POP JUMP JUMPDEST PUSH32 0x4E487B7100000000000000000000000000000000000000000000000000000000 PUSH0 MSTORE PUSH1 0x32 PUSH1 0x4 MSTORE PUSH1 0x24 PUSH0 REVERT JUMPDEST PUSH0 DUP2 SWAP1 POP SWAP2 SWAP1 POP JUMP JUMPDEST PUSH0 PUSH8 0xFFFFFFFFFFFFFFFF DUP3 AND SWAP1 POP SWAP2 SWAP1 POP JUMP JUMPDEST PUSH0 DUP2 SWAP1 POP SWAP2 SWAP1 POP JUMP JUMPDEST PUSH0 PUSH2 0x2F92 PUSH2 0x2F8D PUSH2 0x2F88 DUP5 PUSH2 0x2F53 JUMP JUMPDEST PUSH2 0x2F6F JUMP JUMPDEST PUSH2 0x2F5C JUMP JUMPDEST SWAP1 POP SWAP2 SWAP1 POP JUMP JUMPDEST PUSH2 0x2FA2 DUP2 PUSH2 0x2F78 JUMP JUMPDEST DUP3 MSTORE POP POP JUMP JUMPDEST PUSH0 PUSH1 0x20 DUP3 ADD SWAP1 POP PUSH2 0x2FBB PUSH0 DUP4 ADD DUP5 PUSH2 0x2F99 JUMP JUMPDEST SWAP3 SWAP2 POP POP JUMP JUMPDEST PUSH0 DUP2 SWAP1 POP SWAP3 SWAP2 POP POP JUMP JUMPDEST PUSH0 PUSH2 0x2FD5 DUP3 PUSH2 0x2956 JUMP JUMPDEST PUSH2 0x2FDF DUP2 DUP6 PUSH2 0x2FC1 JUMP JUMPDEST SWAP4 POP PUSH2 0x2FEF DUP2 DUP6 PUSH1 0x20 DUP7 ADD PUSH2 0x2970 JUMP JUMPDEST DUP1 DUP5 ADD SWAP2 POP POP SWAP3 SWAP2 POP POP JUMP JUMPDEST PUSH0 PUSH2 0x3006 DUP3 DUP6 PUSH2 0x2FCB JUMP JUMPDEST SWAP2 POP PUSH2 0x3012 DUP3 DUP5 PUSH2 0x2FCB JUMP JUMPDEST SWAP2 POP DUP2 SWAP1 POP SWAP4 SWAP3 POP POP POP JUMP JUMPDEST PUSH0 PUSH2 0x3028 DUP3 PUSH2 0x29E6 JUMP JUMPDEST SWAP2 POP PUSH2 0x3033 DUP4 PUSH2 0x29E6 JUMP JUMPDEST SWAP3 POP DUP3 DUP3 MUL PUSH2 0x3041 DUP2 PUSH2 0x29E6 JUMP JUMPDEST SWAP2 POP DUP3 DUP3 DIV DUP5 EQ DUP4 ISZERO OR PUSH2 0x3058 JUMPI PUSH2 0x3057 PUSH2 0x2E56 JUMP JUMPDEST JUMPDEST POP SWAP3 SWAP2 POP POP JUMP JUMPDEST PUSH0 PUSH2 0x3069 DUP3 PUSH2 0x29E6 JUMP JUMPDEST SWAP2 POP PUSH2 0x3074 DUP4 PUSH2 0x29E6 JUMP JUMPDEST SWAP3 POP DUP3 DUP3 ADD SWAP1 POP DUP1 DUP3 GT ISZERO PUSH2 0x308C JUMPI PUSH2 0x308B PUSH2 0x2E56 JUMP JUMPDEST JUMPDEST SWAP3 SWAP2 POP POP JUMP JUMPDEST PUSH0 PUSH2 0x309C DUP3 PUSH2 0x29E6 JUMP JUMPDEST SWAP2 POP PUSH2 0x30A7 DUP4 PUSH2 0x29E6 JUMP JUMPDEST SWAP3 POP DUP3 DUP3 SUB SWAP1 POP DUP2 DUP2 GT ISZERO PUSH2 0x30BF JUMPI PUSH2 0x30BE PUSH2 0x2E56 JUMP JUMPDEST JUMPDEST SWAP3 SWAP2 POP POP JUMP JUMPDEST PUSH0 DUP2 MLOAD SWAP1 POP SWAP2 SWAP1 POP JUMP JUMPDEST PUSH0 DUP3 DUP3 MSTORE PUSH1 0x20 DUP3 ADD SWAP1 POP SWAP3 SWAP2 POP POP JUMP JUMPDEST PUSH0 PUSH2 0x30E9 DUP3 PUSH2 0x30C5 JUMP JUMPDEST PUSH2 0x30F3 DUP2 DUP6 PUSH2 0x30CF JUMP JUMPDEST SWAP4 POP PUSH2 0x3103 DUP2 DUP6 PUSH1 0x20 DUP7 ADD PUSH2 0x2970 JUMP JUMPDEST PUSH2 0x310C DUP2 PUSH2 0x297E JUMP JUMPDEST DUP5 ADD SWAP2 POP POP SWAP3 SWAP2 POP POP JUMP JUMPDEST PUSH0 PUSH1 0x80 DUP3 ADD SWAP1 POP PUSH2 0x312A PUSH0 DUP4 ADD DUP8 PUSH2 0x2A74 JUMP JUMPDEST PUSH2 0x3137 PUSH1 0x20 DUP4 ADD DUP7 PUSH2 0x2A74 JUMP JUMPDEST PUSH2 0x3144 PUSH1 0x40 DUP4 ADD DUP6 PUSH2 0x2B2F JUMP JUMPDEST DUP2 DUP2 SUB PUSH1 0x60 DUP4 ADD MSTORE PUSH2 0x3156 DUP2 DUP5 PUSH2 0x30DF JUMP JUMPDEST SWAP1 POP SWAP6 SWAP5 POP POP POP POP POP JUMP JUMPDEST PUSH0 DUP2 MLOAD SWAP1 POP PUSH2 0x316F DUP2 PUSH2 0x28CE JUMP JUMPDEST SWAP3 SWAP2 POP POP JUMP JUMPDEST PUSH0 PUSH1 0x20 DUP3 DUP5 SUB SLT ISZERO PUSH2 0x318A JUMPI PUSH2 0x3189 PUSH2 0x289B JUMP JUMPDEST JUMPDEST PUSH0 PUSH2 0x3197 DUP5 DUP3 DUP6 ADD PUSH2 0x3161 JUMP JUMPDEST SWAP2 POP POP SWAP3 SWAP2 POP POP JUMP JUMPDEST PUSH32 0x4E487B7100000000000000000000000000000000000000000000000000000000 PUSH0 MSTORE PUSH1 0x12 PUSH1 0x4 MSTORE PUSH1 0x24 PUSH0 REVERT JUMPDEST PUSH32 0x4554485F5452414E534645525F4641494C454400000000000000000000000000 PUSH0 DUP3 ADD MSTORE POP JUMP JUMPDEST PUSH0 PUSH2 0x3201 PUSH1 0x13 DUP4 PUSH2 0x2960 JUMP JUMPDEST SWAP2 POP PUSH2 0x320C DUP3 PUSH2 0x31CD JUMP JUMPDEST PUSH1 0x20 DUP3 ADD SWAP1 POP SWAP2 SWAP1 POP JUMP JUMPDEST PUSH0 PUSH1 0x20 DUP3 ADD SWAP1 POP DUP2 DUP2 SUB PUSH0 DUP4 ADD MSTORE PUSH2 0x322E DUP2 PUSH2 0x31F5 JUMP JUMPDEST SWAP1 POP SWAP2 SWAP1 POP JUMP JUMPDEST PUSH32 0x4E487B7100000000000000000000000000000000000000000000000000000000 PUSH0 MSTORE PUSH1 0x31 PUSH1 0x4 MSTORE PUSH1 0x24 PUSH0 REVERT JUMPDEST PUSH0 DUP2 SWAP1 POP DUP2 PUSH0 MSTORE PUSH1 0x20 PUSH0 KECCAK256 SWAP1 POP SWAP2 SWAP1 POP JUMP JUMPDEST PUSH0 PUSH1 0x20 PUSH1 0x1F DUP4 ADD DIV SWAP1 POP SWAP2 SWAP1 POP JUMP JUMPDEST PUSH0 DUP3 DUP3 SHL SWAP1 POP SWAP3 SWAP2 POP POP JUMP JUMPDEST PUSH0 PUSH1 0x8 DUP4 MUL PUSH2 0x32BE PUSH32 0xFFFFFFFFFFFFFFFFFFFFFFFFFFFFFFFFFFFFFFFFFFFFFFFFFFFFFFFFFFFFFFFF DUP3 PUSH2 0x3283 JUMP JUMPDEST PUSH2 0x32C8 DUP7 DUP4 PUSH2 0x3283 JUMP JUMPDEST SWAP6 POP DUP1 NOT DUP5 AND SWAP4 POP DUP1 DUP7 AND DUP5 OR SWAP3 POP POP POP SWAP4 SWAP3 POP POP POP JUMP JUMPDEST PUSH0 PUSH2 0x32FA PUSH2 0x32F5 PUSH2 0x32F0 DUP5 PUSH2 0x29E6 JUMP JUMPDEST PUSH2 0x2F6F JUMP JUMPDEST PUSH2 0x29E6 JUMP JUMPDEST SWAP1 POP SWAP2 SWAP1 POP JUMP JUMPDEST PUSH0 DUP2 SWAP1 POP SWAP2 SWAP1 POP JUMP JUMPDEST PUSH2 0x3313 DUP4 PUSH2 0x32E0 JUMP JUMPDEST PUSH2 0x3327 PUSH2 0x331F DUP3 PUSH2 0x3301 JUMP JUMPDEST DUP5 DUP5 SLOAD PUSH2 0x328F JUMP JUMPDEST DUP3 SSTORE POP POP POP POP JUMP JUMPDEST PUSH0 SWAP1 JUMP JUMPDEST PUSH2 0x333B PUSH2 0x332F JUMP JUMPDEST PUSH2 0x3346 DUP2 DUP5 DUP5 PUSH2 0x330A JUMP JUMPDEST POP POP POP JUMP JUMPDEST JUMPDEST DUP2 DUP2 LT ISZERO PUSH2 0x3369 JUMPI PUSH2 0x335E PUSH0 DUP3 PUSH2 0x3333 JUMP JUMPDEST PUSH1 0x1 DUP2 ADD SWAP1 POP PUSH2 0x334C JUMP JUMPDEST POP POP JUMP JUMPDEST PUSH1 0x1F DUP3 GT ISZERO PUSH2 0x33AE JUMPI PUSH2 0x337F DUP2 PUSH2 0x3262 JUMP JUMPDEST PUSH2 0x3388 DUP5 PUSH2 0x3274 JUMP JUMPDEST DUP2 ADD PUSH1 0x20 DUP6 LT ISZERO PUSH2 0x3397 JUMPI DUP2 SWAP1 POP JUMPDEST PUSH2 0x33AB PUSH2 0x33A3 DUP6 PUSH2 0x3274 JUMP JUMPDEST DUP4 ADD DUP3 PUSH2 0x334B JUMP JUMPDEST POP POP JUMPDEST POP POP POP JUMP JUMPDEST PUSH0 DUP3 DUP3 SHR SWAP1 POP SWAP3 SWAP2 POP POP JUMP JUMPDEST PUSH0 PUSH2 0x33CE PUSH0 NOT DUP5 PUSH1 0x8 MUL PUSH2 0x33B3 JUMP JUMPDEST NOT DUP1 DUP4 AND SWAP2 POP POP SWAP3 SWAP2 POP POP JUMP JUMPDEST PUSH0 PUSH2 0x33E6 DUP4 DUP4 PUSH2 0x33BF JUMP JUMPDEST SWAP2 POP DUP3 PUSH1 0x2 MUL DUP3 OR SWAP1 POP SWAP3 SWAP2 POP POP JUMP JUMPDEST PUSH2 0x33FF DUP3 PUSH2 0x2956 JUMP JUMPDEST PUSH8 0xFFFFFFFFFFFFFFFF DUP2 GT ISZERO PUSH2 0x3418 JUMPI PUSH2 0x3417 PUSH2 0x2C17 JUMP JUMPDEST JUMPDEST PUSH2 0x3422 DUP3 SLOAD PUSH2 0x2E26 JUMP JUMPDEST PUSH2 0x342D DUP3 DUP3 DUP6 PUSH2 0x336D JUMP JUMPDEST PUSH0 PUSH1 0x20 SWAP1 POP PUSH1 0x1F DUP4 GT PUSH1 0x1 DUP2 EQ PUSH2 0x345E JUMPI PUSH0 DUP5 ISZERO PUSH2 0x344C JUMPI DUP3 DUP8 ADD MLOAD SWAP1 POP JUMPDEST PUSH2 0x3456 DUP6 DUP3 PUSH2 0x33DB JUMP JUMPDEST DUP7 SSTORE POP PUSH2 0x34BD JUMP JUMPDEST PUSH1 0x1F NOT DUP5 AND PUSH2 0x346C DUP7 PUSH2 0x3262 JUMP JUMPDEST PUSH0 JUMPDEST DUP3 DUP2 LT ISZERO PUSH2 0x3493 JUMPI DUP5 DUP10 ADD MLOAD DUP3 SSTORE PUSH1 0x1 DUP3 ADD SWAP2 POP PUSH1 0x20 DUP6 ADD SWAP5 POP PUSH1 0x20 DUP2 ADD SWAP1 POP PUSH2 0x346E JUMP JUMPDEST DUP7 DUP4 LT ISZERO PUSH2 0x34B0 JUMPI DUP5 DUP10 ADD MLOAD PUSH2 0x34AC PUSH1 0x1F DUP10 AND DUP3 PUSH2 0x33BF JUMP JUMPDEST DUP4 SSTORE POP JUMPDEST PUSH1 0x1 PUSH1 0x2 DUP9 MUL ADD DUP9 SSTORE POP POP POP JUMPDEST POP POP POP POP POP POP JUMP INVALID LOG2 PUSH5 0x6970667358 0x22 SLT KECCAK256 0xE7 0xB5 SWAP1 0xC5 0xC7 MSTORE8 0xDA 0x2F 0xEC DUP7 PUSH2 0x1E7 PUSH17 0xCF80DA83C74C940D47EA486E51555386DE DUP5 PUSH5 0x736F6C6343 STOP ADDMOD BYTE STOP CALLER "
		},
		"gasEstimates": {
			"creation": {
				"codeDepositCost": "2712600",
				"executionCost": "2944",
				"totalCost": "2715544"
			},
			"external": {
				"INSIDER_MINTS()": "437",
				"PRICE_INCREASE()": "370",
				"START_PRICE()": "392",
				"approve(address,uint256)": "infinite",
				"balanceOf(address)": "infinite",
				"drain(address)": "infinite",
				"getApproved(uint256)": "infinite",
				"initialize()": "infinite",
				"insiderMints()": "2515",
				"isApprovedForAll(address,address)": "infinite",
				"mintInsiderNft(address)": "infinite",
				"mintNft(address)": "infinite",
				"name()": "infinite",
				"owner()": "2656",
				"ownerOf(uint256)": "infinite",
				"publicMints()": "2470",
				"renounceOwnership()": "infinite",
				"safeTransferFrom(address,address,uint256)": "infinite",
				"safeTransferFrom(address,address,uint256,bytes)": "infinite",
				"setApprovalForAll(address,bool)": "infinite",
				"supportsInterface(bytes4)": "898",
				"symbol()": "infinite",
				"tokenByIndex(uint256)": "infinite",
				"tokenOfOwnerByIndex(address,uint256)": "infinite",
				"tokenURI(uint256)": "infinite",
				"totalSupply()": "2583",
				"transferFrom(address,address,uint256)": "infinite",
				"transferOwnership(address)": "infinite"
			},
			"internal": {
				"_mintNft(address)": "infinite"
			}
		},
		"methodIdentifiers": {
			"INSIDER_MINTS()": "21157246",
			"PRICE_INCREASE()": "799b6d2b",
			"START_PRICE()": "3609ac8f",
			"approve(address,uint256)": "095ea7b3",
			"balanceOf(address)": "70a08231",
			"drain(address)": "ece53132",
			"getApproved(uint256)": "081812fc",
			"initialize()": "8129fc1c",
			"insiderMints()": "279e4a63",
			"isApprovedForAll(address,address)": "e985e9c5",
			"mintInsiderNft(address)": "0b56f8b6",
			"mintNft(address)": "e9c2e14b",
			"name()": "06fdde03",
			"owner()": "8da5cb5b",
			"ownerOf(uint256)": "6352211e",
			"publicMints()": "2336296a",
			"renounceOwnership()": "715018a6",
			"safeTransferFrom(address,address,uint256)": "42842e0e",
			"safeTransferFrom(address,address,uint256,bytes)": "b88d4fde",
			"setApprovalForAll(address,bool)": "a22cb465",
			"supportsInterface(bytes4)": "01ffc9a7",
			"symbol()": "95d89b41",
			"tokenByIndex(uint256)": "4f6ccce7",
			"tokenOfOwnerByIndex(address,uint256)": "2f745c59",
			"tokenURI(uint256)": "c87b56dd",
			"totalSupply()": "18160ddd",
			"transferFrom(address,address,uint256)": "23b872dd",
			"transferOwnership(address)": "f2fde38b"
		}
	},
	"abi": [
		{
			"inputs": [],
			"name": "ERC721EnumerableForbiddenBatchMint",
			"type": "error"
		},
		{
			"inputs": [
				{
					"internalType": "address",
					"name": "sender",
					"type": "address"
				},
				{
					"internalType": "uint256",
					"name": "tokenId",
					"type": "uint256"
				},
				{
					"internalType": "address",
					"name": "owner",
					"type": "address"
				}
			],
			"name": "ERC721IncorrectOwner",
			"type": "error"
		},
		{
			"inputs": [
				{
					"internalType": "address",
					"name": "operator",
					"type": "address"
				},
				{
					"internalType": "uint256",
					"name": "tokenId",
					"type": "uint256"
				}
			],
			"name": "ERC721InsufficientApproval",
			"type": "error"
		},
		{
			"inputs": [
				{
					"internalType": "address",
					"name": "approver",
					"type": "address"
				}
			],
			"name": "ERC721InvalidApprover",
			"type": "error"
		},
		{
			"inputs": [
				{
					"internalType": "address",
					"name": "operator",
					"type": "address"
				}
			],
			"name": "ERC721InvalidOperator",
			"type": "error"
		},
		{
			"inputs": [
				{
					"internalType": "address",
					"name": "owner",
					"type": "address"
				}
			],
			"name": "ERC721InvalidOwner",
			"type": "error"
		},
		{
			"inputs": [
				{
					"internalType": "address",
					"name": "receiver",
					"type": "address"
				}
			],
			"name": "ERC721InvalidReceiver",
			"type": "error"
		},
		{
			"inputs": [
				{
					"internalType": "address",
					"name": "sender",
					"type": "address"
				}
			],
			"name": "ERC721InvalidSender",
			"type": "error"
		},
		{
			"inputs": [
				{
					"internalType": "uint256",
					"name": "tokenId",
					"type": "uint256"
				}
			],
			"name": "ERC721NonexistentToken",
			"type": "error"
		},
		{
			"inputs": [
				{
					"internalType": "address",
					"name": "owner",
					"type": "address"
				},
				{
					"internalType": "uint256",
					"name": "index",
					"type": "uint256"
				}
			],
			"name": "ERC721OutOfBoundsIndex",
			"type": "error"
		},
		{
			"inputs": [],
			"name": "InsiderMintsExceeded",
			"type": "error"
		},
		{
			"inputs": [],
			"name": "InsufficientFunds",
			"type": "error"
		},
		{
			"inputs": [],
			"name": "InvalidInitialization",
			"type": "error"
		},
		{
			"inputs": [],
			"name": "NotInitializing",
			"type": "error"
		},
		{
			"inputs": [
				{
					"internalType": "address",
					"name": "owner",
					"type": "address"
				}
			],
			"name": "OwnableInvalidOwner",
			"type": "error"
		},
		{
			"inputs": [
				{
					"internalType": "address",
					"name": "account",
					"type": "address"
				}
			],
			"name": "OwnableUnauthorizedAccount",
			"type": "error"
		},
		{
			"anonymous": false,
			"inputs": [
				{
					"indexed": true,
					"internalType": "address",
					"name": "owner",
					"type": "address"
				},
				{
					"indexed": true,
					"internalType": "address",
					"name": "approved",
					"type": "address"
				},
				{
					"indexed": true,
					"internalType": "uint256",
					"name": "tokenId",
					"type": "uint256"
				}
			],
			"name": "Approval",
			"type": "event"
		},
		{
			"anonymous": false,
			"inputs": [
				{
					"indexed": true,
					"internalType": "address",
					"name": "owner",
					"type": "address"
				},
				{
					"indexed": true,
					"internalType": "address",
					"name": "operator",
					"type": "address"
				},
				{
					"indexed": false,
					"internalType": "bool",
					"name": "approved",
					"type": "bool"
				}
			],
			"name": "ApprovalForAll",
			"type": "event"
		},
		{
			"anonymous": false,
			"inputs": [
				{
					"indexed": true,
					"internalType": "address",
					"name": "to",
					"type": "address"
				},
				{
					"indexed": false,
					"internalType": "uint256",
					"name": "amount",
					"type": "uint256"
				}
			],
			"name": "Drained",
			"type": "event"
		},
		{
			"anonymous": false,
			"inputs": [
				{
					"indexed": false,
					"internalType": "uint64",
					"name": "version",
					"type": "uint64"
				}
			],
			"name": "Initialized",
			"type": "event"
		},
		{
			"anonymous": false,
			"inputs": [
				{
					"indexed": true,
					"internalType": "uint256",
					"name": "id",
					"type": "uint256"
				},
				{
					"indexed": true,
					"internalType": "address",
					"name": "to",
					"type": "address"
				}
			],
			"name": "MintedInsiderNft",
			"type": "event"
		},
		{
			"anonymous": false,
			"inputs": [
				{
					"indexed": true,
					"internalType": "uint256",
					"name": "id",
					"type": "uint256"
				},
				{
					"indexed": true,
					"internalType": "address",
					"name": "to",
					"type": "address"
				}
			],
			"name": "MintedNft",
			"type": "event"
		},
		{
			"anonymous": false,
			"inputs": [
				{
					"indexed": true,
					"internalType": "address",
					"name": "previousOwner",
					"type": "address"
				},
				{
					"indexed": true,
					"internalType": "address",
					"name": "newOwner",
					"type": "address"
				}
			],
			"name": "OwnershipTransferred",
			"type": "event"
		},
		{
			"anonymous": false,
			"inputs": [
				{
					"indexed": true,
					"internalType": "address",
					"name": "from",
					"type": "address"
				},
				{
					"indexed": true,
					"internalType": "address",
					"name": "to",
					"type": "address"
				},
				{
					"indexed": true,
					"internalType": "uint256",
					"name": "tokenId",
					"type": "uint256"
				}
			],
			"name": "Transfer",
			"type": "event"
		},
		{
			"inputs": [],
			"name": "INSIDER_MINTS",
			"outputs": [
				{
					"internalType": "uint256",
					"name": "",
					"type": "uint256"
				}
			],
			"stateMutability": "view",
			"type": "function"
		},
		{
			"inputs": [],
			"name": "PRICE_INCREASE",
			"outputs": [
				{
					"internalType": "uint256",
					"name": "",
					"type": "uint256"
				}
			],
			"stateMutability": "view",
			"type": "function"
		},
		{
			"inputs": [],
			"name": "START_PRICE",
			"outputs": [
				{
					"internalType": "uint256",
					"name": "",
					"type": "uint256"
				}
			],
			"stateMutability": "view",
			"type": "function"
		},
		{
			"inputs": [
				{
					"internalType": "address",
					"name": "to",
					"type": "address"
				},
				{
					"internalType": "uint256",
					"name": "tokenId",
					"type": "uint256"
				}
			],
			"name": "approve",
			"outputs": [],
			"stateMutability": "nonpayable",
			"type": "function"
		},
		{
			"inputs": [
				{
					"internalType": "address",
					"name": "owner",
					"type": "address"
				}
			],
			"name": "balanceOf",
			"outputs": [
				{
					"internalType": "uint256",
					"name": "",
					"type": "uint256"
				}
			],
			"stateMutability": "view",
			"type": "function"
		},
		{
			"inputs": [
				{
					"internalType": "address",
					"name": "to",
					"type": "address"
				}
			],
			"name": "drain",
			"outputs": [],
			"stateMutability": "nonpayable",
			"type": "function"
		},
		{
			"inputs": [
				{
					"internalType": "uint256",
					"name": "tokenId",
					"type": "uint256"
				}
			],
			"name": "getApproved",
			"outputs": [
				{
					"internalType": "address",
					"name": "",
					"type": "address"
				}
			],
			"stateMutability": "view",
			"type": "function"
		},
		{
			"inputs": [],
			"name": "initialize",
			"outputs": [],
			"stateMutability": "nonpayable",
			"type": "function"
		},
		{
			"inputs": [],
			"name": "insiderMints",
			"outputs": [
				{
					"internalType": "uint256",
					"name": "",
					"type": "uint256"
				}
			],
			"stateMutability": "view",
			"type": "function"
		},
		{
			"inputs": [
				{
					"internalType": "address",
					"name": "owner",
					"type": "address"
				},
				{
					"internalType": "address",
					"name": "operator",
					"type": "address"
				}
			],
			"name": "isApprovedForAll",
			"outputs": [
				{
					"internalType": "bool",
					"name": "",
					"type": "bool"
				}
			],
			"stateMutability": "view",
			"type": "function"
		},
		{
			"inputs": [
				{
					"internalType": "address",
					"name": "to",
					"type": "address"
				}
			],
			"name": "mintInsiderNft",
			"outputs": [
				{
					"internalType": "uint256",
					"name": "",
					"type": "uint256"
				}
			],
			"stateMutability": "nonpayable",
			"type": "function"
		},
		{
			"inputs": [
				{
					"internalType": "address",
					"name": "to",
					"type": "address"
				}
			],
			"name": "mintNft",
			"outputs": [
				{
					"internalType": "uint256",
					"name": "",
					"type": "uint256"
				}
			],
			"stateMutability": "payable",
			"type": "function"
		},
		{
			"inputs": [],
			"name": "name",
			"outputs": [
				{
					"internalType": "string",
					"name": "",
					"type": "string"
				}
			],
			"stateMutability": "view",
			"type": "function"
		},
		{
			"inputs": [],
			"name": "owner",
			"outputs": [
				{
					"internalType": "address",
					"name": "",
					"type": "address"
				}
			],
			"stateMutability": "view",
			"type": "function"
		},
		{
			"inputs": [
				{
					"internalType": "uint256",
					"name": "tokenId",
					"type": "uint256"
				}
			],
			"name": "ownerOf",
			"outputs": [
				{
					"internalType": "address",
					"name": "",
					"type": "address"
				}
			],
			"stateMutability": "view",
			"type": "function"
		},
		{
			"inputs": [],
			"name": "publicMints",
			"outputs": [
				{
					"internalType": "uint256",
					"name": "",
					"type": "uint256"
				}
			],
			"stateMutability": "view",
			"type": "function"
		},
		{
			"inputs": [],
			"name": "renounceOwnership",
			"outputs": [],
			"stateMutability": "nonpayable",
			"type": "function"
		},
		{
			"inputs": [
				{
					"internalType": "address",
					"name": "from",
					"type": "address"
				},
				{
					"internalType": "address",
					"name": "to",
					"type": "address"
				},
				{
					"internalType": "uint256",
					"name": "tokenId",
					"type": "uint256"
				}
			],
			"name": "safeTransferFrom",
			"outputs": [],
			"stateMutability": "nonpayable",
			"type": "function"
		},
		{
			"inputs": [
				{
					"internalType": "address",
					"name": "from",
					"type": "address"
				},
				{
					"internalType": "address",
					"name": "to",
					"type": "address"
				},
				{
					"internalType": "uint256",
					"name": "tokenId",
					"type": "uint256"
				},
				{
					"internalType": "bytes",
					"name": "data",
					"type": "bytes"
				}
			],
			"name": "safeTransferFrom",
			"outputs": [],
			"stateMutability": "nonpayable",
			"type": "function"
		},
		{
			"inputs": [
				{
					"internalType": "address",
					"name": "operator",
					"type": "address"
				},
				{
					"internalType": "bool",
					"name": "approved",
					"type": "bool"
				}
			],
			"name": "setApprovalForAll",
			"outputs": [],
			"stateMutability": "nonpayable",
			"type": "function"
		},
		{
			"inputs": [
				{
					"internalType": "bytes4",
					"name": "interfaceId",
					"type": "bytes4"
				}
			],
			"name": "supportsInterface",
			"outputs": [
				{
					"internalType": "bool",
					"name": "",
					"type": "bool"
				}
			],
			"stateMutability": "view",
			"type": "function"
		},
		{
			"inputs": [],
			"name": "symbol",
			"outputs": [
				{
					"internalType": "string",
					"name": "",
					"type": "string"
				}
			],
			"stateMutability": "view",
			"type": "function"
		},
		{
			"inputs": [
				{
					"internalType": "uint256",
					"name": "index",
					"type": "uint256"
				}
			],
			"name": "tokenByIndex",
			"outputs": [
				{
					"internalType": "uint256",
					"name": "",
					"type": "uint256"
				}
			],
			"stateMutability": "view",
			"type": "function"
		},
		{
			"inputs": [
				{
					"internalType": "address",
					"name": "owner",
					"type": "address"
				},
				{
					"internalType": "uint256",
					"name": "index",
					"type": "uint256"
				}
			],
			"name": "tokenOfOwnerByIndex",
			"outputs": [
				{
					"internalType": "uint256",
					"name": "",
					"type": "uint256"
				}
			],
			"stateMutability": "view",
			"type": "function"
		},
		{
			"inputs": [
				{
					"internalType": "uint256",
					"name": "tokenId",
					"type": "uint256"
				}
			],
			"name": "tokenURI",
			"outputs": [
				{
					"internalType": "string",
					"name": "",
					"type": "string"
				}
			],
			"stateMutability": "view",
			"type": "function"
		},
		{
			"inputs": [],
			"name": "totalSupply",
			"outputs": [
				{
					"internalType": "uint256",
					"name": "",
					"type": "uint256"
				}
			],
			"stateMutability": "view",
			"type": "function"
		},
		{
			"inputs": [
				{
					"internalType": "address",
					"name": "from",
					"type": "address"
				},
				{
					"internalType": "address",
					"name": "to",
					"type": "address"
				},
				{
					"internalType": "uint256",
					"name": "tokenId",
					"type": "uint256"
				}
			],
			"name": "transferFrom",
			"outputs": [],
			"stateMutability": "nonpayable",
			"type": "function"
		},
		{
			"inputs": [
				{
					"internalType": "address",
					"name": "newOwner",
					"type": "address"
				}
			],
			"name": "transferOwnership",
			"outputs": [],
			"stateMutability": "nonpayable",
			"type": "function"
		}
	]
}