{"abi":[{"type":"constructor","inputs":[{"name":"name","type":"string","internalType":"string"},{"name":"symbol","type":"string","internalType":"string"}],"stateMutability":"nonpayable"},{"type":"receive","stateMutability":"payable"},{"type":"function","name":"DOMAIN_SEPARATOR","inputs":[],"outputs":[{"name":"","type":"bytes32","internalType":"bytes32"}],"stateMutability":"view"},{"type":"function","name":"allowance","inputs":[{"name":"","type":"address","internalType":"address"},{"name":"","type":"address","internalType":"address"}],"outputs":[{"name":"","type":"uint256","internalType":"uint256"}],"stateMutability":"view"},{"type":"function","name":"approve","inputs":[{"name":"spender","type":"address","internalType":"address"},{"name":"amount","type":"uint256","internalType":"uint256"}],"outputs":[{"name":"","type":"bool","internalType":"bool"}],"stateMutability":"nonpayable"},{"type":"function","name":"balanceOf","inputs":[{"name":"","type":"address","internalType":"address"}],"outputs":[{"name":"","type":"uint256","internalType":"uint256"}],"stateMutability":"view"},{"type":"function","name":"decimals","inputs":[],"outputs":[{"name":"","type":"uint8","internalType":"uint8"}],"stateMutability":"view"},{"type":"function","name":"deposit","inputs":[],"outputs":[],"stateMutability":"payable"},{"type":"function","name":"mint","inputs":[{"name":"to","type":"address","internalType":"address"},{"name":"amount","type":"uint256","internalType":"uint256"}],"outputs":[],"stateMutability":"nonpayable"},{"type":"function","name":"name","inputs":[],"outputs":[{"name":"","type":"string","internalType":"string"}],"stateMutability":"view"},{"type":"function","name":"nonces","inputs":[{"name":"","type":"address","internalType":"address"}],"outputs":[{"name":"","type":"uint256","internalType":"uint256"}],"stateMutability":"view"},{"type":"function","name":"permit","inputs":[{"name":"owner","type":"address","internalType":"address"},{"name":"spender","type":"address","internalType":"address"},{"name":"value","type":"uint256","internalType":"uint256"},{"name":"deadline","type":"uint256","internalType":"uint256"},{"name":"v","type":"uint8","internalType":"uint8"},{"name":"r","type":"bytes32","internalType":"bytes32"},{"name":"s","type":"bytes32","internalType":"bytes32"}],"outputs":[],"stateMutability":"nonpayable"},{"type":"function","name":"symbol","inputs":[],"outputs":[{"name":"","type":"string","internalType":"string"}],"stateMutability":"view"},{"type":"function","name":"totalSupply","inputs":[],"outputs":[{"name":"","type":"uint256","internalType":"uint256"}],"stateMutability":"view"},{"type":"function","name":"transfer","inputs":[{"name":"to","type":"address","internalType":"address"},{"name":"amount","type":"uint256","internalType":"uint256"}],"outputs":[{"name":"","type":"bool","internalType":"bool"}],"stateMutability":"nonpayable"},{"type":"function","name":"transferFrom","inputs":[{"name":"from","type":"address","internalType":"address"},{"name":"to","type":"address","internalType":"address"},{"name":"amount","type":"uint256","internalType":"uint256"}],"outputs":[{"name":"","type":"bool","internalType":"bool"}],"stateMutability":"nonpayable"},{"type":"function","name":"withdraw","inputs":[{"name":"amount","type":"uint256","internalType":"uint256"}],"outputs":[],"stateMutability":"nonpayable"},{"type":"event","name":"Approval","inputs":[{"name":"owner","type":"address","indexed":true,"internalType":"address"},{"name":"spender","type":"address","indexed":true,"internalType":"address"},{"name":"amount","type":"uint256","indexed":false,"internalType":"uint256"}],"anonymous":false},{"type":"event","name":"Deposit","inputs":[{"name":"from","type":"address","indexed":true,"internalType":"address"},{"name":"amount","type":"uint256","indexed":false,"internalType":"uint256"}],"anonymous":false},{"type":"event","name":"Transfer","inputs":[{"name":"from","type":"address","indexed":true,"internalType":"address"},{"name":"to","type":"address","indexed":true,"internalType":"address"},{"name":"amount","type":"uint256","indexed":false,"internalType":"uint256"}],"anonymous":false},{"type":"event","name":"Withdrawal","inputs":[{"name":"to","type":"address","indexed":true,"internalType":"address"},{"name":"amount","type":"uint256","indexed":false,"internalType":"uint256"}],"anonymous":false}],"bytecode":{"object":"0x60e0604090808252346200042c5762001116803803809162000022828562000431565b8339810182828203126200042c5781516001600160401b0393908481116200042c57826200005291850162000455565b92602092838201518681116200042c576200006e920162000455565b835193858511620004165760009480620000898754620004cb565b92601f93848111620003c5575b5086908483116001146200035d57889262000351575b50508160011b916000199060031b1c19161785555b8151908682116200033d578190600193620000dd8554620004cb565b828111620002e8575b50869183116001146200028457879262000278575b5050600019600383901b1c191690821b1781555b60126080524660a052815184549181866200012a85620004cb565b92838352878301958882821691826000146200025857505060011462000218575b506200015a9250038262000431565b519020928151928301937f8b73c3c69bb8fe3d512ecc4cf759cc79239f7b179b0ffacaa9a75d522b39400f8552828401527fc89efdaa54c0f20c7adf612882df0950f5a951637e0307cdcb4c672f298b8bc660608401524660808401523060a084015260a0835260c08301948386109086111762000204575083905251902060c052610c0d9081620005098239608051816105a8015260a05181610994015260c051816109bb0152f35b634e487b7160e01b81526041600452602490fd5b8791508880528189209089915b8583106200023f5750506200015a9350820101386200014b565b8054838801850152869450899390920191810162000225565b60ff191688526200015a95151560051b85010192503891506200014b9050565b015190503880620000fb565b8488528688208594509190601f198416895b89828210620002d15750508411620002b7575b505050811b0181556200010f565b015160001960f88460031b161c19169055388080620002a9565b838501518655889790950194938401930162000296565b909192508488528688208380860160051c82019289871062000333575b91869588929594930160051c01915b82811062000324575050620000e6565b8a815586955087910162000314565b9250819262000305565b634e487b7160e01b86526041600452602486fd5b015190503880620000ac565b8880528789209250601f198416895b89828210620003ae57505090846001959493921062000394575b505050811b018555620000c1565b015160001960f88460031b161c1916905538808062000386565b60018596829396860151815501950193016200036c565b9091508780528688208480850160051c8201928986106200040c575b9085949392910160051c01905b818110620003fd575062000096565b898155849350600101620003ee565b92508192620003e1565b634e487b7160e01b600052604160045260246000fd5b600080fd5b601f909101601f19168101906001600160401b038211908210176200041657604052565b919080601f840112156200042c5782516001600160401b0381116200041657602090604051926200049083601f19601f850116018562000431565b8184528282870101116200042c5760005b818110620004b757508260009394955001015290565b8581018301518482018401528201620004a1565b90600182811c92168015620004fd575b6020831014620004e757565b634e487b7160e01b600052602260045260246000fd5b91607f1691620004db56fe60806040818152600480361015610029575b505050361561001f57600080fd5b610027610b36565b005b600092833560e01c90816306fdde03146107dd57508063095ea7b31461076f57806318160ddd1461075057806323b872dd1461068f5780632e1a7d4d146105cc578063313ce5671461058e5780633644e5151461056a57806340c10f191461054557806370a082311461050d5780637ecebe00146104d557806395d89b41146103f2578063a9059cbb14610380578063d0e30db014610366578063d505accf146101225763dd62ed3e03610011573461011e578160031936011261011e5760209282916100f461093b565b6100fc610956565b6001600160a01b03918216845291865283832091168252845220549051908152f35b8280fd5b509190346103625760e03660031901126103625761013e61093b565b90610147610956565b91604435606435926084359260ff841680940361035e5742851061031b5761016d61098f565b9560018060a01b038092169586895260209560058752848a209889549960018b01905585519285898501957f6e71edae12b1b97f4d1f60370fef10105fa2faae0126114a169c64845d6126c987528b89870152169a8b606086015288608086015260a085015260c084015260c0835260e0830167ffffffffffffffff9484821086831117610307578188528451902061010085019261190160f01b845261010286015261012285015260428152610160840194818610908611176102f457848752519020835261018082015260a4356101a082015260c4356101c0909101528780528490889060809060015afa156102ea5786511696871515806102e1575b156102af5786977f8c5be1e5ebec7d5bd14f71427d1e84f3dd0314c0f7b2291e5b200ac8c7c3b9259596975283528087208688528352818188205551908152a380f35b83606492519162461bcd60e51b8352820152600e60248201526d24a72b20a624a22fa9a4a3a722a960911b6044820152fd5b5084881461026c565b81513d88823e3d90fd5b634e487b7160e01b8c5260418d5260248cfd5b50634e487b7160e01b8c5260418d5260248cfd5b815162461bcd60e51b81526020818a0152601760248201527f5045524d49545f444541444c494e455f455850495245440000000000000000006044820152606490fd5b8680fd5b5080fd5b838060031936011261037d5761037a610b36565b80f35b80fd5b50503461036257806003193601126103625760209161039d61093b565b8260243591338452600386528184206103b784825461096c565b90556001600160a01b031680845260038652922080548201905582519081523390600080516020610bb8833981519152908590a35160018152f35b82843461037d578060031936011261037d5781519080600180549061041682610880565b80865292602092600181169081156104a85750600114610450575b61044c8688610442828903836108ba565b51918291826108f2565b0390f35b9350600184527fb10e2d527612073b26eecdfd717e6a320cf44b4afac2b0732d9fcbe2b7fa0cf65b838510610495575050505081016020016104428261044c86610431565b8054868601840152938201938101610478565b905061044c9795508693506020925061044294915060ff191682840152151560051b820101929486610431565b5050346103625760203660031901126103625760209181906001600160a01b036104fd61093b565b1681526005845220549051908152f35b5050346103625760203660031901126103625760209181906001600160a01b0361053561093b565b1681526003845220549051908152f35b5050346103625736600319011261037d5761037a61056161093b565b60243590610b6e565b50503461036257816003193601126103625760209061058761098f565b9051908152f35b5050346103625781600319360112610362576020905160ff7f0000000000000000000000000000000000000000000000000000000000000000168152f35b50903461011e57602036600319011261011e5782808080853533825260036020528582206105fb82825461096c565b90558060025403600255818651828152600080516020610bb883398151915260203392a385518181527f7fcf532c15f0a6db0bd6d0e038bea71d30d808c7d98cb3bf7268a95bf5081b6560203392a2335af115610656578280f35b906020606492519162461bcd60e51b8352820152601360248201527211551217d514905394d1915497d19052531151606a1b6044820152fd5b50913461037d57606036600319011261037d576106aa61093b565b600080516020610bb88339815191526106c1610956565b6001600160a01b039283168085526020878152868620338752815286862054909791948893604435938993856001820161072d575b5050508688526003855282882061070e85825461096c565b9055169586815260038452208181540190558551908152a35160018152f35b6107369161096c565b90888a528652838920338a528652838920553880856106f6565b5050346103625781600319360112610362576020906002549051908152f35b503461011e578160031936011261011e5760209261078b61093b565b918360243592839233825287528181209460018060a01b0316948582528752205582519081527f8c5be1e5ebec7d5bd14f71427d1e84f3dd0314c0f7b2291e5b200ac8c7c3b925843392a35160018152f35b8390853461037d578060031936011261037d578054816107fc82610880565b808552916020916001918281169081156104a857506001146108295761044c8688610442828903836108ba565b80809550527f290decd9548b62a8d60345a988386fc84ba6bc95484008f6362f93160ef3e5635b83851061086d575050505081016020016104428261044c86610431565b8054868601840152938201938101610850565b90600182811c921680156108b0575b602083101461089a57565b634e487b7160e01b600052602260045260246000fd5b91607f169161088f565b90601f8019910116810190811067ffffffffffffffff8211176108dc57604052565b634e487b7160e01b600052604160045260246000fd5b6020808252825181830181905290939260005b82811061092757505060409293506000838284010152601f8019910116010190565b818101860151848201604001528501610905565b600435906001600160a01b038216820361095157565b600080fd5b602435906001600160a01b038216820361095157565b9190820391821161097957565b634e487b7160e01b600052601160045260246000fd5b6000467f0000000000000000000000000000000000000000000000000000000000000000036109dd57507f000000000000000000000000000000000000000000000000000000000000000090565b604051815482916109ed82610880565b808252816020948582019460019087600182169182600014610b18575050600114610abf575b50610a20925003826108ba565b51902091604051918201927f8b73c3c69bb8fe3d512ecc4cf759cc79239f7b179b0ffacaa9a75d522b39400f845260408301527fc89efdaa54c0f20c7adf612882df0950f5a951637e0307cdcb4c672f298b8bc660608301524660808301523060a083015260a0825260c082019082821067ffffffffffffffff831117610aab575060405251902090565b634e487b7160e01b81526041600452602490fd5b87805286915087907f290decd9548b62a8d60345a988386fc84ba6bc95484008f6362f93160ef3e5635b858310610b00575050610a20935082010138610a13565b80548388018501528694508893909201918101610ae9565b60ff19168852610a2095151560051b8501019250389150610a139050565b610b403433610b6e565b6040513481527fe1fffcc4923d04b559f4d29a8bfc6cda04eb5b0d3c460751c2402c5c5cc9109c60203392a2565b60025490828201809211610979576020600080516020610bb88339815191529160009360025560018060a01b0316938484526003825260408420818154019055604051908152a356feddf252ad1be2c89b69c2b068fc378daa952ba7f163c4a11628f55a4df523b3efa2646970667358221220a6042952de902befdd27acdeec29d8705ea16413511a76fff750796cb50a52ba64736f6c63430008180033","linkReferences":{}},"methodIdentifiers":{"DOMAIN_SEPARATOR()":"3644e515","allowance(address,address)":"dd62ed3e","approve(address,uint256)":"095ea7b3","balanceOf(address)":"70a08231","decimals()":"313ce567","deposit()":"d0e30db0","mint(address,uint256)":"40c10f19","name()":"06fdde03","nonces(address)":"7ecebe00","permit(address,address,uint256,uint256,uint8,bytes32,bytes32)":"d505accf","symbol()":"95d89b41","totalSupply()":"18160ddd","transfer(address,uint256)":"a9059cbb","transferFrom(address,address,uint256)":"23b872dd","withdraw(uint256)":"2e1a7d4d"},"id":122}