{"abi":[{"type":"constructor","inputs":[{"name":"_kerosine","type":"address","internalType":"contract Kerosine"}],"stateMutability":"nonpayable"},{"type":"function","name":"denominator","inputs":[],"outputs":[{"name":"","type":"uint256","internalType":"uint256"}],"stateMutability":"view"},{"type":"function","name":"excludedAddresses","inputs":[],"outputs":[{"name":"","type":"address[]","internalType":"address[]"}],"stateMutability":"view"},{"type":"function","name":"isExcludedAddress","inputs":[{"name":"_address","type":"address","internalType":"address"}],"outputs":[{"name":"","type":"bool","internalType":"bool"}],"stateMutability":"view"},{"type":"function","name":"kerosine","inputs":[],"outputs":[{"name":"","type":"address","internalType":"contract Kerosine"}],"stateMutability":"view"},{"type":"function","name":"owner","inputs":[],"outputs":[{"name":"","type":"address","internalType":"address"}],"stateMutability":"view"},{"type":"function","name":"setAddressExcluded","inputs":[{"name":"_address","type":"address","internalType":"address"},{"name":"exclude","type":"bool","internalType":"bool"}],"outputs":[],"stateMutability":"nonpayable"},{"type":"function","name":"transferOwnership","inputs":[{"name":"newOwner","type":"address","internalType":"address"}],"outputs":[],"stateMutability":"nonpayable"},{"type":"event","name":"OwnershipTransferred","inputs":[{"name":"user","type":"address","indexed":true,"internalType":"address"},{"name":"newOwner","type":"address","indexed":true,"internalType":"address"}],"anonymous":false}],"bytecode":{"object":"0x6080346100c957601f6108bc38819003918201601f19168301916001600160401b038311848410176100ce578084926020946040528339810103126100c957516001600160a01b038116908190036100c9576000805473ded796de6a14e255487191963dee436c459958136001600160a01b03199182168117835590917f8be0079c531659141344cd1fd0a4f28419497f9722a3daafe3b4186f6b6457e08180a360015416176001556100b06100e4565b506100b96101a1565b5060405161066a90816102328239f35b600080fd5b634e487b7160e01b600052604160045260246000fd5b73ded796de6a14e255487191963dee436c45995813600081815260036020527f1a5c31058c7742e4799e1ae5a9dfbae5a6211e917a5da7da82680447239b2d185461019c57600254680100000000000000008110156101885760018101806002558110156101745760008051602061089c8339815191520182905560025491815260036020526040902055600190565b634e487b7160e01b82526032600452602482fd5b634e487b7160e01b82526041600452602482fd5b905090565b733962f6585946823440d274ad7c719b02b49de51e600081815260036020527f55696b946b785ee1e8460075861eec42857436d40681fca897653ccd894d08985461019c57600254680100000000000000008110156101885760018101806002558110156101745760008051602061089c833981519152018290556002549181526003602052604090205560019056fe6080604090808252600491600436101561001857600080fd5b600092833560e01c92836324a176bb146103b75750826352ec6716146102fb5782638da5cb5b146102d357826396ce07951461017557508163a0d2fe3e1461014c578163ec8897cd146100e9575063f2fde38b1461007557600080fd5b346100e65760203660031901126100e65761008e6103ed565b8154906001600160a01b03906100a73383851614610440565b1680916bffffffffffffffffffffffff60a01b16178255337f8be0079c531659141344cd1fd0a4f28419497f9722a3daafe3b4186f6b6457e08380a380f35b80fd5b905034610148573660031901126100e6576101026103ed565b60243580151581036101445782546001600160a01b0391906101279083163314610440565b1561013a5761013691166105c9565b5080f35b61013691166104c8565b8280fd5b5080fd5b90503461014857816003193601126101485760015490516001600160a01b039091168152602090f35b9150346101445782600319360112610144576001805482516318160ddd60e01b81526020956001600160a01b03928316918781600481865afa9081156102c957829161029c575b5095939291906002946002549382965b8588106101dc578a8a8a51908152f35b9091929394959698818552828a7f405787fa12a823e0f2b7631cc41b3ba8828b3321ca811111fa75cd3aa3bb5ace0154168951906370a0823160e01b8252858201526024908c8183818b5afa908115610292578791610261575b5082039182116102505750988701969594939291906101cc565b634e487b7160e01b86526011855285fd5b90508c81813d831161028b575b6102788183610408565b81010312610287575138610236565b8680fd5b503d61026e565b8b513d89823e3d90fd5b90508781813d83116102c2575b6102b38183610408565b810103126101485751386101bc565b503d6102a9565b86513d84823e3d90fd5b838234610148578160031936011261014857905490516001600160a01b039091168152602090f35b5082346100e657806003193601126100e6579080519182906002549182855260208095018093600284527f405787fa12a823e0f2b7631cc41b3ba8828b3321ca811111fa75cd3aa3bb5ace90845b8181106103a3575050508161035f910382610408565b83519485948186019282875251809352850193925b82811061038357505050500390f35b83516001600160a01b031685528695509381019392810192600101610374565b825484529288019260019283019201610349565b92505034610144576020366003190112610144576020926001600160a01b036103de6103ed565b16815260038452205415158152f35b600435906001600160a01b038216820361040357565b600080fd5b90601f8019910116810190811067ffffffffffffffff82111761042a57604052565b634e487b7160e01b600052604160045260246000fd5b1561044757565b60405162461bcd60e51b815260206004820152600c60248201526b15539055551213d49256915160a21b6044820152606490fd5b6002548110156104b25760026000527f405787fa12a823e0f2b7631cc41b3ba8828b3321ca811111fa75cd3aa3bb5ace0190600090565b634e487b7160e01b600052603260045260246000fd5b60008181526003602052604081205490919080156105c457600019908082018181116105b0576002549083820191821161059c57818103610551575b505050600254801561053d5781019061051c8261047b565b909182549160031b1b19169055600255815260036020526040812055600190565b634e487b7160e01b84526031600452602484fd5b61058661056061056f9361047b565b90549060031b1c92839261047b565b819391549060031b91821b91600019901b19161790565b9055845260036020526040842055388080610504565b634e487b7160e01b86526011600452602486fd5b634e487b7160e01b85526011600452602485fd5b505090565b60008181526003602052604081205461062f576002546801000000000000000081101561061b57908261060761056f8460016040960160025561047b565b905560025492815260036020522055600190565b634e487b7160e01b82526041600452602482fd5b90509056fea2646970667358221220452c8c0b81d440e46abf9a3409ba3fb04ccaa9470f041a36b10f680b36d3604264736f6c63430008180033405787fa12a823e0f2b7631cc41b3ba8828b3321ca811111fa75cd3aa3bb5ace","linkReferences":{}},"methodIdentifiers":{"denominator()":"96ce0795","excludedAddresses()":"52ec6716","isExcludedAddress(address)":"24a176bb","kerosine()":"a0d2fe3e","owner()":"8da5cb5b","setAddressExcluded(address,bool)":"ec8897cd","transferOwnership(address)":"f2fde38b"},"id":22}