{"abi":[{"type":"constructor","inputs":[{"name":"_kero","type":"address","internalType":"address"},{"name":"_nonfungiblePositionManager","type":"address","internalType":"address"},{"name":"_token0","type":"address","internalType":"address"},{"name":"_token1","type":"address","internalType":"address"},{"name":"_owner","type":"address","internalType":"address"}],"stateMutability":"nonpayable"},{"type":"function","name":"createStaker","inputs":[{"name":"fee","type":"uint24","internalType":"uint24"},{"name":"lowTick","type":"int24","internalType":"int24"},{"name":"upTick","type":"int24","internalType":"int24"},{"name":"startBlock","type":"uint256","internalType":"uint256"},{"name":"endBlock","type":"uint256","internalType":"uint256"},{"name":"keroPerBlock","type":"uint256","internalType":"uint256"}],"outputs":[{"name":"","type":"address","internalType":"address"}],"stateMutability":"nonpayable"},{"type":"function","name":"dropToStaker","inputs":[{"name":"_amount","type":"uint256","internalType":"uint256"}],"outputs":[],"stateMutability":"nonpayable"},{"type":"function","name":"epochCreatedIndex","inputs":[],"outputs":[{"name":"","type":"uint256","internalType":"uint256"}],"stateMutability":"view"},{"type":"function","name":"isStaker","inputs":[{"name":"","type":"address","internalType":"address"}],"outputs":[{"name":"","type":"bool","internalType":"bool"}],"stateMutability":"view"},{"type":"function","name":"kero","inputs":[],"outputs":[{"name":"","type":"address","internalType":"contract Kerosene"}],"stateMutability":"view"},{"type":"function","name":"nonfungiblePositionManager","inputs":[],"outputs":[{"name":"","type":"address","internalType":"contract INonfungiblePositionManager"}],"stateMutability":"view"},{"type":"function","name":"owner","inputs":[],"outputs":[{"name":"","type":"address","internalType":"address"}],"stateMutability":"view"},{"type":"function","name":"setUserToStaker","inputs":[{"name":"_user","type":"address","internalType":"address"},{"name":"_tokenId","type":"uint256","internalType":"uint256"},{"name":"_staker","type":"address","internalType":"address"},{"name":"isStaked","type":"bool","internalType":"bool"}],"outputs":[],"stateMutability":"nonpayable"},{"type":"function","name":"stakers","inputs":[{"name":"","type":"uint256","internalType":"uint256"}],"outputs":[{"name":"","type":"address","internalType":"address"}],"stateMutability":"view"},{"type":"function","name":"token0","inputs":[],"outputs":[{"name":"","type":"address","internalType":"address"}],"stateMutability":"view"},{"type":"function","name":"token1","inputs":[],"outputs":[{"name":"","type":"address","internalType":"address"}],"stateMutability":"view"},{"type":"function","name":"transferOwnership","inputs":[{"name":"newOwner","type":"address","internalType":"address"}],"outputs":[],"stateMutability":"nonpayable"},{"type":"function","name":"userToStaker","inputs":[{"name":"","type":"address","internalType":"address"}],"outputs":[{"name":"","type":"address","internalType":"address"}],"stateMutability":"view"},{"type":"event","name":"OwnershipTransferred","inputs":[{"name":"user","type":"address","indexed":true,"internalType":"address"},{"name":"newOwner","type":"address","indexed":true,"internalType":"address"}],"anonymous":false},{"type":"event","name":"StakerCreated","inputs":[{"name":"index","type":"uint256","indexed":false,"internalType":"uint256"},{"name":"staker","type":"address","indexed":false,"internalType":"address"}],"anonymous":false}],"bytecode":{"object":"0x60803461011357601f611ea038819003918201601f19168301916001600160401b038311848410176101185780849260a094604052833981010312610113576100478161012e565b906100886100576020830161012e565b9160806100666040830161012e565b6100726060840161012e565b6001600160a01b0394909385938492910161012e565b16958260018060a01b031996816000938a8a8654161785556040519a857f8be0079c531659141344cd1fd0a4f28419497f9722a3daafe3b4186f6b6457e08180a31688600654161760065516866008541617600855508183168282161060001461010e57915b1683600254161760025516906001541617600155611d5d90816101438239f35b6100ee565b600080fd5b634e487b7160e01b600052604160045260246000fd5b51906001600160a01b03821682036101135756fe6080604052600436101561001257600080fd5b60003560e01c80630664e8d41461082d5780630dfe168114610804578063175e54e614610768578063187a0dae1461073f57806338c643591461026a5780636f1e85331461022b5780638da5cb5b146102025780639b26e409146101e4578063b44a2722146101bb578063d21220a714610192578063f2fde38b1461011f578063f6b8a411146100e45763fd5e6dd1146100ab57600080fd5b346100df5760203660031901126100df576004356000526003602052602060018060a01b0360406000205416604051908152f35b600080fd5b346100df5760203660031901126100df5760206001600160a01b03806101086108c2565b166000526005825260406000205416604051908152f35b346100df5760203660031901126100df576101386108c2565b600054906001600160a01b0390610152338385161461096c565b1680916bffffffffffffffffffffffff60a01b1617600055337f8be0079c531659141344cd1fd0a4f28419497f9722a3daafe3b4186f6b6457e0600080a3005b346100df5760003660031901126100df576002546040516001600160a01b039091168152602090f35b346100df5760003660031901126100df576008546040516001600160a01b039091168152602090f35b346100df5760003660031901126100df576020600754604051908152f35b346100df5760003660031901126100df576000546040516001600160a01b039091168152602090f35b346100df5760203660031901126100df576001600160a01b0361024c6108c2565b166000526004602052602060ff604060002054166040519015158152f35b346100df5760c03660031901126100df5760043562ffffff811681036100df5760249081358060020b81036100df57604435918260020b83036100df576102bc60018060a01b0360005416331461096c565b60843560643510156106dc578260020b8260020b121561067e57600654600854600154600254604051966001600160a01b0394851696918516949283169390921667ffffffffffffffff6101608901908111908911176106695762ffffff966101608901604052885260a4356020890152604088015260020b606087015260020b608086015260643560a086015260843560c086015260e0850152610100840152166101208201523061014082015260075480610510575b50604051908161135e81011067ffffffffffffffff61135e840111176104fb5761135e6109ca833980516001600160a01b0390811661135e840190815260208084015190820152604080840151831690820152606080840151600290810b9183019190915260808085015190910b9082015260a0838101519082015260c0808401519082015260e080840151831690820152610100808401518316908201526101208084015162ffffff1690820152610140928301519091169181019190915281900361016001906000f080156104ef576007549160001983146104db5750600160209201908160075560018060a01b031690600052600382526040600020816bffffffffffffffffffffffff60a01b82541617905580600052600482526040600020600160ff198254161790557fcf594b9c89b88189a6cd7e3312d50fc8dfa97a18a9c479db5c21799841e112a6604060075481519081528385820152a1604051908152f35b634e487b7160e01b60009081526011600452fd5b6040513d6000823e3d90fd5b82634e487b7160e01b60005260416004526000fd5b600052600360205260046101c060018060a01b036040600020541660405192838092635a2f3d0960e01b82525afa9081156104ef576000916105ab575b50606435111561055d5782610374565b60405162461bcd60e51b8152602060048201526021818401527f5374616b6572466163746f72793a2065706f6368206e6f742066696e697368656044820152601960fa1b6064820152608490fd5b90506101c0813d6101c011610661575b816105c96101c09383610934565b810103126100df5760408101516001600160a01b038116036100df5760808101516001600160a01b038116036100df5761060560a082016109a7565b5061061260c082016109a7565b506101008101519061062761012082016109b5565b5061063561014082016109b5565b5061016081015162ffffff8116036100df5761018001516001600160a01b038116036100df578361054d565b3d91506105bb565b88634e487b7160e01b60005260416004526000fd5b60405162461bcd60e51b8152602060048201526031818601527f5374616b6572466163746f72793a206c6f775469636b2073686f756c64206265604482015270206c657373207468616e2075705469636b60781b6064820152608490fd5b60405162461bcd60e51b8152602060048201526036818601527f5374616b6572466163746f72793a207374617274426c6f636b2073686f756c64604482015275206265206c657373207468616e20656e64426c6f636b60501b6064820152608490fd5b346100df5760003660031901126100df576006546040516001600160a01b039091168152602090f35b346100df5760803660031901126100df576107816108c2565b6001600160a01b0360443581811692908390036100df5760643580151581036100df573360005260046020526107be60ff604060002054166108d8565b156107e55716600090815260056020526040902080546001600160a01b0319169091179055005b16600090815260056020526040902080546001600160a01b0319169055005b346100df5760003660031901126100df576001546040516001600160a01b039091168152602090f35b346100df576020806003193601126100df576000903382526004815261085960ff6040842054166108d8565b8060018060a01b036006541660446040518095819363a9059cbb60e01b835233600484015260043560248401525af180156104ef5761089457005b81813d83116108bb575b6108a88183610934565b810103126100df5751801515036100df57005b503d61089e565b600435906001600160a01b03821682036100df57565b156108df57565b60405162461bcd60e51b815260206004820152602760248201527f5374616b6572466163746f72793a2063616c6c6572206973206e6f74207468656044820152661039ba30b5b2b960c91b6064820152608490fd5b90601f8019910116810190811067ffffffffffffffff82111761095657604052565b634e487b7160e01b600052604160045260246000fd5b1561097357565b60405162461bcd60e51b815260206004820152600c60248201526b15539055551213d49256915160a21b6044820152606490fd5b51908160020b82036100df57565b51906001600160a01b03821682036100df5756fe608034620001b957601f6200135e38819003918201601f1916830192916001600160401b039081851184861017620001be578084936040968752843961016093849181010312620001b957835192830190811183821017620001be57835280516001600160a01b0380821691828103620001b95784526020830151806020860152858401519180831692838103620001b95787870152620000a360608601620001d4565b92836060880152620000b860808701620001d4565b9687608082015260a0870151978860a083015260c08801518060c0840152620000e460e08a01620001e3565b918260e085015261010097620000fc898c01620001e3565b809986015261012097888c01519862ffffff8a168a03620001b9578990870152610140809c01518881169c8d8203620001b9578997015260018060a01b03199a8b60025416176002556003556004549162ffffff60a01b96879160b81b62ffffff60b81b169360018060d01b031916179160a01b16171760045589600555600655168560075416176007556008549260a01b1692169060018060b81b03191617176008556009541617600955600055516111659081620001f98239f35b600080fd5b634e487b7160e01b600052604160045260246000fd5b51908160020b8203620001b957565b51906001600160a01b0382168203620001b95756fe60806040908082526004918236101561001757600080fd5b600092833560e01c928363150b7a0214610c2b575082631959a00214610bdd5782632e1a7d4d14610a495782634641257d146109af578383635312ea8e14610869575082635a2f3d09146107b85782635defa7d0146106c55782638aa28550146106a5578263a694fc3a146100b557505063e3161ddd1461009757600080fd5b346100b257806003193601126100b2576100af610e69565b80f35b80fd5b909150346106a157602091826003193601126103bd57813592600554431061067157600654431161063e578254825163133f757160e31b8082528186018790529460249290916001600160a01b039161018091908a838388818886165afa9283156106325788828b888592869587996105e2575b50908161016f849372706f6f6c496e666f2e746f6b656e313a20257360681b96955161015481610d38565b600a815269746f6b656e303a20257360b01b8982015261109c565b61019984845161017e81610d38565b600a815269746f6b656e313a20257360b01b8982015261109c565b6101f68260075416936101d58582516101b181610d38565b6013815272706f6f6c496e666f2e746f6b656e303a20257360681b8b82015261109c565b6008549784891697889251916101ea83610d38565b6013835282015261109c565b16036105a75788160361056c5762ffffff809160a01c16911603610534578160a01c60020b9060020b036104f25760b81c60020b9060020b036104b0578385836009541688519283809263f6b8a41160e01b825233898301525afa9081156104a6579083918b9161046a575b5016610428579088939291338552600b865286852097610280610e69565b828454169088519081528a8582015282818781855afa92831561041e5787936103e3575b5050803b156103df578751632142170760e11b815233858201908152306020820152604081018c90529091879183919082908490829060600103925af180156103d5579086916103c1575b50506001600160801b031696876002820155600164e8d4a5100061031482548b610cb8565b0491015561032487600a54610d76565b600a556009541691823b156103bd5760848492838a9589519687958694630baf2a7360e11b86523390860152840152306044840152600160648401525af180156103b35761039b575b50507f90890809c654f11d6e72a28fa60149770a0d11ec6c92319d6ceb2bb0a4ea1a1591519283523392a380f35b6103a490610d0e565b6103af57843861036d565b8480fd5b84513d84823e3d90fd5b8380fd5b6103ca90610d0e565b6103af5784386102ef565b88513d88823e3d90fd5b8580fd5b610403929350803d10610417575b6103fb8183610d54565b810190610db9565b5050505096505050505050509038806102a4565b503d6103f1565b89513d89823e3d90fd5b855162461bcd60e51b81528084018690526017818601527f7573657220697320616c7265616479207374616b696e670000000000000000006044820152606490fd5b809250878092503d831161049f575b6104838183610d54565b8101031261049b576104958391610d83565b38610262565b8980fd5b503d610479565b87513d8c823e3d90fd5b855162461bcd60e51b81528084018690526019818601527f7469636b5570706572206973206e6f74207468652073616d65000000000000006044820152606490fd5b875162461bcd60e51b81528086018890526019818801527f7469636b4c6f776572206973206e6f74207468652073616d65000000000000006044820152606490fd5b885162461bcd60e51b815280870189905260138189015272666565206973206e6f74207468652073616d6560681b6044820152606490fd5b8a5162461bcd60e51b81528089018b90526016818b015275746f6b656e31206973206e6f74207468652073616d6560501b6044820152606490fd5b8c5162461bcd60e51b8152808b018d90526016818d015275746f6b656e30206973206e6f74207468652073616d6560501b6044820152606490fd5b92955050965072706f6f6c496e666f2e746f6b656e313a20257360681b94506106189150873d8911610417576103fb8183610d54565b50939e949c959b9699509597509295945061012992505050565b508851903d90823e3d90fd5b905162461bcd60e51b815291820152600f60248201526e6f6e6c792070726f63657373696e6760881b6044820152606490fd5b905162461bcd60e51b815291820152600c60248201526b1bdb9b1e481cdd185c9d195960a21b6044820152606490fd5b8280fd5b8382346106c157816003193601126106c15760209051600a8152f35b5080fd5b9083346100b25760203660031901126100b2576001600160a01b036106e8610c9d565b168152600b60205281812090600154906006548043116000146107b1575b815410806107a6575b610742575b60208461073b85600164e8d4a51000610731886002850154610cb8565b0491015490610d01565b9051908152f35b6003549064e8d4a510009182810292818404149015171561079357506020945064e8d4a5100061073161073b9493610788610782600195600a5490610ce1565b82610d76565b509394505050610714565b634e487b7160e01b815260118652602490fd5b50600a54151561070f565b5043610706565b909150346106a157826003193601126106a1576101c092549162ffffff6001549260018060a01b0380600254169160035490546005546006549184600754169360085496866009541699600a549b602082519e8f90815201528c015260608b015284811660808b01528060a01c60020b60a08b015260b81c60020b60c08a015260e0890152610100880152610120870152811661014086015260a01c166101608401526101808301526101a0820152f35b925090346109ab5760203660031901126109ab57338352600b60205280832082548335916001600160a01b03918216803b156109a7578451632142170760e11b815230878201908152336020820152604081018690529091889183919082908490829060600103925af1801561099d57908791610989575b509060019085518581527f5fafa99d0643513820be26656b45130b01e1c03062e1266bf36f88cbd3bd969560203392a282600282015501556009541692833b156103af578251630baf2a7360e11b8152339181019182526020820192909252306040820152600060608201529092849184919082908490829060800103925af190811561098057506109705750f35b61097990610d0e565b6100b25780f35b513d84823e3d90fd5b61099290610d0e565b6103df5785386108e1565b85513d89823e3d90fd5b8680fd5b5050fd5b8382346106c157816003193601126106c157338252600b602052808220906109d5610e69565b60028201916109f8610a19610a046001865464e8d4a51000948591835490610cb8565b04940193845490610d01565b94610a0f8633610f5d565b5460015490610cb8565b049055519081527fc9695243a805adb74c91f28311176c65b417e842d5699893cef56d18bfa48cba60203392a280f35b909150346106a15760203660031901126106a157803591338452600b60205280842091610a74610e69565b600283019285845494610aa8610aa2600164e8d4a51000610a9682548b610cb8565b04950194855490610d01565b33610f5d565b556001541560011715610bca5785905580546001600160a01b03908116803b156109a7578351632142170760e11b815230848201908152336020820152604081018890529091889183919082908490829060600103925af18015610bc057610bab575b5090859160095416803b156106a1578351630baf2a7360e11b8152339281019283526020830187905230604084015260006060840152918391839182908490829060800103925af18015610ba157610b8d575b5050519081527ff279e6a1f5e320cca91135676d9cb6e44ca8a08c0b88342bcdb1144f6511b56860203392a380f35b610b9690610d0e565b6103bd578338610b5e565b83513d84823e3d90fd5b610bb89096919296610d0e565b949038610b0b565b84513d89823e3d90fd5b634e487b7160e01b865260118252602486fd5b8382346106c15760203660031901126106c15760609181906001600160a01b03610c05610c9d565b168152600b60205220805491600260018301549201549181519384526020840152820152f35b8491346106a15760803660031901126106a157610c46610c9d565b506024356001600160a01b038116036106a1576064359067ffffffffffffffff908183116103af57366023840112156103af578201359081116103bd57369101602401116106c157630a85bd0160e11b8152602090f35b600435906001600160a01b0382168203610cb357565b600080fd5b81810292918115918404141715610ccb57565b634e487b7160e01b600052601160045260246000fd5b8115610ceb570490565b634e487b7160e01b600052601260045260246000fd5b91908203918211610ccb57565b67ffffffffffffffff8111610d2257604052565b634e487b7160e01b600052604160045260246000fd5b6040810190811067ffffffffffffffff821117610d2257604052565b90601f8019910116810190811067ffffffffffffffff821117610d2257604052565b91908201809211610ccb57565b51906001600160a01b0382168203610cb357565b51908160020b8203610cb357565b51906001600160801b0382168203610cb357565b919082610180910312610cb35781516bffffffffffffffffffffffff81168103610cb35791610dea60208201610d83565b91610df760408301610d83565b91610e0460608201610d83565b91608082015162ffffff81168103610cb35791610e2360a08201610d97565b91610e3060c08301610d97565b91610e3d60e08201610da5565b916101008201519161012081015191610e66610160610e5f6101408501610da5565b9301610da5565b90565b600654600090804311600014610f3d57905b8054821115610f3957600a5415610f36576003546009549091906001600160a01b0316803b156106c1578180916024604051809481936301993a3560e21b83528860048401525af18015610f2b57610f1c575b50906001549064e8d4a5100090818102918183041490151715610f085790610efc610f0292600a5490610ce1565b90610d76565b60015555565b634e487b7160e01b83526011600452602483fd5b610f2590610d0e565b38610ece565b6040513d84823e3d90fd5b55565b5050565b504390610e7b565b90816020910312610cb357518015158103610cb35790565b600254604080516370a0823160e01b81523060048201526020946001600160a01b03938416949293919291908684602481895afa93841561109157908794939291600094611060575b508381111561102d5750600254855163a9059cbb60e01b81526001600160a01b039093166004840152602483019390935290945084911681600081604481015b03925af19081156110235750610ffa575050565b8161101992903d1061101c575b6110118183610d54565b810190610f45565b50565b503d611007565b513d6000823e3d90fd5b855163a9059cbb60e01b81526001600160a01b039093166004840152602483015250938491508160008160448101610fe6565b8581969295503d831161108a575b6110788183610d54565b81010312610cb3578693519238610fa6565b503d61106e565b85513d6000823e3d90fd5b60405190602092602083019363319af33360e01b85526040602485015282519283606486015260005b84811061111b5750505091611108608482846000979596888481998501015260018060a01b03166044830152601f80199101168101036064810184520182610d54565b51906a636f6e736f6c652e6c6f675afa50565b8181018301518682016084015282016110c556fea264697066735822122071b28f958cf23a604248e18241f213d76b62664d021df5ef1e31d33ca322522664736f6c63430008180033a2646970667358221220d4810c789e08b37808bc3a5967cfda0cfc5690cd6b9ee42e3272798aea51604864736f6c63430008180033","linkReferences":{}},"methodIdentifiers":{"createStaker(uint24,int24,int24,uint256,uint256,uint256)":"38c64359","dropToStaker(uint256)":"0664e8d4","epochCreatedIndex()":"9b26e409","isStaker(address)":"6f1e8533","kero()":"187a0dae","nonfungiblePositionManager()":"b44a2722","owner()":"8da5cb5b","setUserToStaker(address,uint256,address,bool)":"175e54e6","stakers(uint256)":"fd5e6dd1","token0()":"0dfe1681","token1()":"d21220a7","transferOwnership(address)":"f2fde38b","userToStaker(address)":"f6b8a411"},"id":5}