{"abi":[{"type":"constructor","inputs":[{"name":"dnft","type":"address","internalType":"address"},{"name":"kerosene","type":"address","internalType":"address"},{"name":"price_","type":"uint256","internalType":"uint256"},{"name":"root_","type":"bytes32","internalType":"bytes32"}],"stateMutability":"nonpayable"},{"type":"function","name":"DNFT","inputs":[],"outputs":[{"name":"","type":"address","internalType":"contract IERC721Enumerable"}],"stateMutability":"view"},{"type":"function","name":"KEROSENE","inputs":[],"outputs":[{"name":"","type":"address","internalType":"contract ERC20"}],"stateMutability":"view"},{"type":"function","name":"buyNote","inputs":[{"name":"proof","type":"bytes32[]","internalType":"bytes32[]"}],"outputs":[],"stateMutability":"nonpayable"},{"type":"function","name":"merkleRoot","inputs":[],"outputs":[{"name":"","type":"bytes32","internalType":"bytes32"}],"stateMutability":"view"},{"type":"function","name":"onERC721Received","inputs":[{"name":"_operator","type":"address","internalType":"address"},{"name":"_from","type":"address","internalType":"address"},{"name":"_tokenId","type":"uint256","internalType":"uint256"},{"name":"_data","type":"bytes","internalType":"bytes"}],"outputs":[{"name":"","type":"bytes4","internalType":"bytes4"}],"stateMutability":"nonpayable"},{"type":"function","name":"owner","inputs":[],"outputs":[{"name":"","type":"address","internalType":"address"}],"stateMutability":"view"},{"type":"function","name":"price","inputs":[],"outputs":[{"name":"","type":"uint256","internalType":"uint256"}],"stateMutability":"view"},{"type":"function","name":"purchased","inputs":[{"name":"","type":"address","internalType":"address"}],"outputs":[{"name":"","type":"bool","internalType":"bool"}],"stateMutability":"view"},{"type":"function","name":"setMerkleRoot","inputs":[{"name":"root","type":"bytes32","internalType":"bytes32"}],"outputs":[],"stateMutability":"nonpayable"},{"type":"function","name":"setPrice","inputs":[{"name":"price_","type":"uint256","internalType":"uint256"}],"outputs":[],"stateMutability":"nonpayable"},{"type":"function","name":"sweepERC20","inputs":[{"name":"token","type":"address","internalType":"address"}],"outputs":[],"stateMutability":"nonpayable"},{"type":"function","name":"transferOwnership","inputs":[{"name":"newOwner","type":"address","internalType":"address"}],"outputs":[],"stateMutability":"nonpayable"},{"type":"event","name":"OwnershipTransferred","inputs":[{"name":"user","type":"address","indexed":true,"internalType":"address"},{"name":"newOwner","type":"address","indexed":true,"internalType":"address"}],"anonymous":false},{"type":"error","name":"AlreadyPurchased","inputs":[]},{"type":"error","name":"InvalidProof","inputs":[]},{"type":"error","name":"NotNote","inputs":[]},{"type":"error","name":"SoldOut","inputs":[]}],"bytecode":{"object":"0x60c0346100e657601f6109bb38819003918201601f19168301916001600160401b038311848410176100eb578084926080946040528339810103126100e65761004781610101565b61005360208301610101565b9160606040820151910151913260018060a01b03196000541617600055604051933260007f8be0079c531659141344cd1fd0a4f28419497f9722a3daafe3b4186f6b6457e08180a36001600160a01b039182166080521660a0526001556002556108a5908161011682396080518181816102aa0152818161068101526107a1015260a05181818161038f01526105c40152f35b600080fd5b634e487b7160e01b600052604160045260246000fd5b51906001600160a01b03821682036100e65756fe608060409080825260048036101561001657600080fd5b600092833560e01c928363150b7a021461073b575082632eb4a7ab1461071c578263522fe98e146106de5782637cb64759146106b05782637f2a2f931461066c5782638da5cb5b1461064457826391b7f5ed14610616578263a035b1fe146105f7578263c230f073146105af578263d872aa611461023a578263e00af4a71461011e57505063f2fde38b146100aa57600080fd5b3461011b57602036600319011261011b576100c36107e6565b8154906001600160a01b03906100dc33838516146107fc565b1680916bffffffffffffffffffffffff60a01b16178255337f8be0079c531659141344cd1fd0a4f28419497f9722a3daafe3b4186f6b6457e08380a380f35b80fd5b909150346102365760209081600319360112610232578361013d6107e6565b81546001600160a01b03919061015690831633146107fc565b83516370a0823160e01b8152308782015291168482602481845afa91821561022857908392918694926101ed575b50908260449286519263a9059cbb60e01b8452338a85015260248401525af13d15601f3d116001875114161716156101ba578380f35b5162461bcd60e51b815291820152600f60248201526e1514905394d1915497d19052531151608a1b604482015260649150fd5b93849193508092503d8311610221575b6102078183610837565b8101031261021c579051839186919082610184565b600080fd5b503d6101fd565b84513d85823e3d90fd5b8380fd5b8280fd5b90915034610236576020806003193601126102325782359267ffffffffffffffff8085116105ab57366023860112156105ab5784820135928184116105a757602493600596858260051b820101903682116104d75787516370a0823160e01b815230878201526001600160a01b037f000000000000000000000000000000000000000000000000000000000000000081169a91949093909186868b818f5afa95861561059d578d9661056a575b50851561055a5760ff8b8e33815260038a5220541661054a57600254938b51888101903382528981528d81018181108c821117610536578e525190209388918c916104fc575b5050505050036104ec57908491338a5260038452878a20600160ff198254161790558373ded796de6a14e255487191963dee436c459958136064898d600154958d5196879586946323b872dd60e01b9b8c8752339087015285015260448401527f0000000000000000000000000000000000000000000000000000000000000000165af180156104e2576104a7575b5060001981019081116104955790889291875190632f745c5960e01b825230878301528782015282816044818c5afa92831561048b57849361045b575b5050873b1561023657606490838851998a94859384523089850152338a85015260448401525af180156104515761042e578580f35b84116104405750505238808080808580f35b634e487b7160e01b85526041905283fd5b84513d88823e3d90fd5b9080929350813d8311610484575b6104738183610837565b8101031261023657519038806103f9565b503d610469565b88513d86823e3d90fd5b634e487b7160e01b8952601185528589fd5b8381813d83116104db575b6104bc8183610837565b810103126104d75751801515036104d357386103bc565b8880fd5b8980fd5b503d6104b2565b88513d8c823e3d90fd5b86516309bde33960e01b81528590fd5b8f83928f9201965b83883591828111881b90815218522094019383851015610527578c8f8392610504565b93505050503880868a8261032d565b5050634e487b7160e01b8f5260418b528b8ffd5b8a51630cd9ed5560e21b81528990fd5b8a516352df9fe560e01b81528990fd5b9095508681813d8311610596575b6105828183610837565b81010312610592575194386102e7565b8c80fd5b503d610578565b8b513d8f823e3d90fd5b8680fd5b8580fd5b8390346105f357816003193601126105f357517f00000000000000000000000000000000000000000000000000000000000000006001600160a01b03168152602090f35b5080fd5b8390346105f357816003193601126105f3576020906001549051908152f35b8382346105f35760203660031901126105f35761063d60018060a01b0383541633146107fc565b3560015580f35b8390346105f357816003193601126105f357905490516001600160a01b039091168152602090f35b8390346105f357816003193601126105f357517f00000000000000000000000000000000000000000000000000000000000000006001600160a01b03168152602090f35b8382346105f35760203660031901126105f3576106d760018060a01b0383541633146107fc565b3560025580f35b8390346105f35760203660031901126105f35760209160ff9082906001600160a01b036107096107e6565b1681526003855220541690519015158152f35b8390346105f357816003193601126105f3576020906002549051908152f35b843461011b57608036600319011261011b576107556107e6565b506001600160a01b03906024358281160361011b5760643567ffffffffffffffff80821161023657366023830112156102365781870135908111610236573691016024011161011b57507f00000000000000000000000000000000000000000000000000000000000000001633036107d8578151630a85bd0160e11b8152602090f35b635ef45bf560e11b81529050fd5b600435906001600160a01b038216820361021c57565b1561080357565b60405162461bcd60e51b815260206004820152600c60248201526b15539055551213d49256915160a21b6044820152606490fd5b90601f8019910116810190811067ffffffffffffffff82111761085957604052565b634e487b7160e01b600052604160045260246000fdfea2646970667358221220bda0c9d8cd7e064940d809efa1b2aac5d4300b9b8daa4f8bb9e8bb717f1620cc64736f6c63430008180033","linkReferences":{}},"methodIdentifiers":{"DNFT()":"7f2a2f93","KEROSENE()":"c230f073","buyNote(bytes32[])":"d872aa61","merkleRoot()":"2eb4a7ab","onERC721Received(address,address,uint256,bytes)":"150b7a02","owner()":"8da5cb5b","price()":"a035b1fe","purchased(address)":"522fe98e","setMerkleRoot(bytes32)":"7cb64759","setPrice(uint256)":"91b7f5ed","sweepERC20(address)":"e00af4a7","transferOwnership(address)":"f2fde38b"},"id":18}